:1040000000000320AD500100A9500100A95001009B
:10401000A9500100A9500100A950010000000000B2
:10402000000000000000000000000000A950010096
:10403000A950010000000000A9500100A950010092
:10404000A9500100A9500100A9500100A950010088
:10405000A9500100A9500100A9500100A950010078
:10406000A9500100A9500100A9500100A950010068
:10407000C1E80100C9E80100D1E80100D9E8010068
:10408000E1E80100E9E80100F1E80100F9E80100D8
:1040900001E9010009E9010011E9010019E9010044
:1040A00021E9010029E9010031E9010039E90100B4
:1040B000A9500100A9500100A950010075E30100B9
:1040C00079E301007DE3010081E3010085E3010064
:1040D000A9500100A9500100A9500100A9500100F8
:1040E000A9500100A9500100A9500100A9500100E8
:1040F00000000000A9500100EDDE0100F9DE010022
:10410000FDDE010001DF010005DF010011DF01001C
:1041100015DF010019DF01001DDF010029DF0100AB
:104120002DDF010031DF010035DF010041DF01003B
:1041300045DF010049DF01004DDF010059DF0100CB
:104140005DDF010061DF010065DF010071DF01005B
:1041500075DF010079DF01000000000000000000B1
:10416000000000000000000000000000000000004F
:10417000000000000000000000000000000000003F
:10418000A9500100A9500100A9500100A950010047
:1041900000000000A9500100A9500100A950010031
:1041A000A9500100A9500100A9500100A950010027
:1041B000A9500100A9500100A9500100A950010017
:1041C000A9500100A9500100A9500100A950010007
:1041D000A9500100A9500100A9500100A9500100F7
:1041E000A9500100A9500100A9500100C9D2010045
:1041F000D1D20100D9D20100E1D20100E9D20100FF
:10420000F1D201000000000000000000A9500100F0
:10421000A9500100A9500100A9500100A9500100B6
:10422000A9500100A9500100A9500100A9500100A6
:10423000A9500100A9500100A9500100A950010096
:10424000A9500100A9500100A9500100A950010086
:10425000A9500100A9500100A9500100A950010076
:10426000000000007CB0EE877CB0EE87FF00FF000E
:10427000FF00FF00FF00FF00FF00FF00FF00FF0046
:10428000FF00FF00FF00FF00FF00FF00FF00FF0036
:10429000FF00FF00FF00FF00FF00FF000000000024
:1042A0002DE9F04F85B003910778A7F10903042B9E
:1042B000044607F07F0200F10100F5D9202AF3D06F
:1042C0002B2F04BF677804462D2F75D09FED427BBE
:1042D0008DED007B4FF000084FF000099FB34FF0C9
:1042E000000C25464FF0000ADFF8FCB0644619E0E8
:1042F0001AF052FF8046894630461AF0E3FE4246E5
:104300004B461AF093FD5246804689465B46DDE9EE
:1043100000013CB31BF06AF8CDE90001A44615F892
:10432000017F7FB1A7F13006092E52465B46404619
:104330004946DDD9CCB92E2F17D115F8017F0124BC
:10434000002FEFD12C4642464B46DDE900011AF022
:1043500023FF80468946039B404649461C6005B0C2
:10436000BDE8F08F4FF0010CD9E72C46BCF1000FEF
:1043700029D042464B46DDE900011AF00DFF07F057
:10438000DF07452F80468946E5D10399681C0A223C
:104390001EF00AF81449024600201BF0ADFA02464E
:1043A0000B46404649461AF0F7FE8046894640468D
:1043B000494605B0BDE8F08F9FED097B67788DED2C
:1043C000007B013486E7DFF824904FF00008404678
:1043D000494605B0BDE8F08F000000000000F03F46
:1043E000000000000000F0BF000024400000F87F43
:1043F0002DE9F047002314460022804689461BF031
:104400003DF928B109F1004399462D232370013469
:1044100000220023404649461BF026F928B13022ED
:10442000002322706370BDE8F087404649461CF0C7
:104430005FF81BF061F973A3D3E9002307464946EF
:1044400040461BF01BF900284ED170A3D3E900238E
:10445000404649461BF030F9002845D10E2F07F1A0
:10446000010540F3B980A7F10E06324600206249EB
:104470001BF042FA02460B46404649461AF0B6FF88
:1044800000225E4B1AF0D2FC1BF072FA002DA7F14D
:104490000F0E4FF0010C4DDD594FDFF878810122EE
:1044A00045F6F3294FF02E0A494508BF40454FF025
:1044B00030030AD3B0EB080061EB0901494508BF9E
:1044C000404503F10103F5D2DBB2237050EA01034A
:1044D00004F101084AD1954252DD0132102A4FD031
:1044E000444677E90289DFE7002F33DB3A460020B4
:1044F00041491BF001FA02460B46404649461AF074
:1045000075FF3BA3D3E90023804689460125002699
:10451000404649461AF040FE0022384B1AF086FC0D
:104520001BF026FA002DBC464FF0FF3E37464FF0F9
:104530000006B1DC234630224FF02E0803F8022B90
:1045400084F80180FC4345D01C4403F8012BA342AE
:10455000FBD1A1E77A42002027491BF0CDF90246A2
:104560000B46404649461AF017FECAE7954202F14B
:10457000010204BF84F801A004F10208102AAFD19F
:104580006EB14246302102F8011BC2F101037344AF
:104590004344002BF7DC2EEAEE7301339844BCF160
:1045A000010F12D0BCF1000F4FF0650388F8003006
:1045B000C5BF2B2388F8013008F1010108F1020181
:1045C0006046BDE8F04710F0DFBD002388F80030FA
:1045D000BDE8F0871C465FE7C7F10E0200200649E0
:1045E0001BF08AF93E4602460B46012790E700BFC2
:1045F0000000901EC4BCD642000024400000E03FF2
:10460000803402008DEDB5A0F7C6B03E50EFE2D683
:10461000E41A4B4400407A1070B54FF0FF3006F0BA
:1046200079F904466FF07F4006F074F9064620469B
:104630001AF038FD00220C4B1AF0AEFD044630464D
:104640000D461AF02FFD06A3D3E900231AF0CEFE83
:1046500002460B46204629461AF0E8FB70BD00BF13
:104660000000E0DFFFFF6F430000F03D00000000AE
:104670002DE9F04F1D461389AB4288BF536885B0C2
:1046800004468CBF53F82500002090468A4606F069
:10469000B7FD0022904B1AF07FFD1BF02DF8B8F803
:1046A00008206B1C9A4288BFD8F8042006468CBFAD
:1046B00052F82300002006F0A3FD0022864B1AF0DA
:1046C0006BFD1BF019F8B8F808300235AB4288BF13
:1046D000D8F8043007468CBF53F82500002006F0B8
:1046E0008FFD002EC4E9006740F3E280002F40F305
:1046F000DF8071A3D3E90023002584F828501BF044
:104700001BFE00220023804689461AF0B7FF40B105
:104710004046494668A3D3E900231AF087FB804648
:10472000894667A3D3E90023404649461AF0C4FFEF
:10473000C0B165A3D3E90023404649461AF0A8FF5B
:1047400080B101234046494684F8283060A3D3E96C
:1047500000231AF06BFB58A3D3E900231BF0ECFDF8
:104760008046894600225D4B404649461AF014FDBA
:104770001BF01AFB01F1004300221946564B1AF0B8
:104780000BFD1AF0B9FF4946054640461BF0C8FA32
:104790000022514B1AF000FD1AF0AEFFDAF8043097
:1047A0004F49B3F80CB0B3F80AA0A56007FB0BF3B0
:1047B00003EB010806FB0AF6019388FB05234FEA89
:1047C000124C00960E444CEA034C06EA010383FBAC
:1047D000009A06EB0C0E0EEA010ED346CA468EFB7B
:1047E00000675246CDE90267120C42EA0B42DDE94E
:1047F00002AB0CEA010C8CFB00674FEA16495646E7
:104800000A40360C46EA0B4649EA074982FB05ABEB
:104810005F46C144B0445646CDE90267039FE0605D
:10482000360C09EA010908EA010846EA074689FB4D
:1048300005AB334488FB0556CDE9025655462D0C91
:1048400045EA0B45DDE902AB0B40AC4403EAE377F4
:104850000CEA010C554623EAE37367454FEA154518
:1048600002EAE276A8BF674645EA0B45634522EABD
:10487000E272B8BF6346AE444E450EEA010EA8BFD1
:104880004E464A45B8BF4A467745A8BF7746734566
:10489000B8BF73464645A8BF4646C4E905634245CE
:1048A000B8BF424600980199206261622761E261C7
:1048B000204605B0BDE8F08FEA2E4454FB21194094
:1048C000F4D64354FB21F93F320D337F7CD912409B
:1048D000EA2E4454FB2109400000F0400000E03F74
:1048E0000000FFFF0000000008B511F049FFDFEDF8
:1048F0000C7A07EE100A67EE277A17EE900A1AF084
:10490000F3FB05A3D3E900231AF070FD1AF0F4FEBF
:1049100008BD00BFAFF30080EA2E4454FB211940CC
:104920000000B4430000000008B511F03DFFDFEDCA
:104930000C7A07EE100A67EE277A17EE900A1AF043
:10494000D3FB05A3D3E900231AF050FD1AF0D4FEDF
:1049500008BD00BFAFF30080EA2E4454FB2119408C
:104960000000B443000000002DE9F04F046985B059
:10497000E3699B07FCD12368C3F3400BBBF1000F35
:1049800040F0AF80B0F80CA015468046BAF1000F99
:1049900023D0BAF1010F62D0BAF1020F40F0A48027
:1049A0005500E1685448C5F53B438033B3FBF5F54A
:1049B0002A0421F47F0102F47F020A43E260E268E4
:1049C0006B00A0FB03135B0822F07F4242EA036303
:1049D0005846E36005B0BDE8F08FE2684BF6803BD7
:1049E00005EB850022F0FF03ABEB400001931AF0CA
:1049F00059FB0646B8F80E000F461AF063FB3CA3BD
:104A0000D3E900231AF0C8FB80460BFB05F089466A
:104A10001AF048FB02460B46404649461AF0BCFBDA
:104A200002460B46304639461AF0FEF90646680043
:104A30000F461AF037FB02460B46304639461AF04D
:104A4000D5FC1AF081FE019BC0B21843E060E36818
:104A5000504623F47F43E36005B0BDE8F08FE26881
:104A60004BF6803A05EB850022F0FF03AAEB4000ED
:104A700001931AF017FBCDE90201B8F80E001AF005
:104A800021FB1BA3D3E900231AF086FB06460AFB91
:104A900005F00F461AF006FB02460B463046394633
:104AA0001AF07AFB02460B46DDE902011AF0BCF966
:104AB000064668000F461AF0F5FA02460B463046E5
:104AC00039461AF093FC1AF03FFE019BC0B218431E
:104AD000E060E368584623F47F43E36005B0BDE837
:104AE000F08F6FF0100075E76FF00C0072E700BFF9
:104AF00095D626E80B2E113EABAAAAAA000000000C
:104B00004F4A21F0004393422DE970430D4604467D
:104B10004DDC4C4A93420E460FDC45A3D3E90023FB
:104B20001AF084F90022484B1AF0C6FD002854D030
:104B30002B4620461946BDE87083444A934240DC28
:104B4000B3F1804F49DD1BF0E7F8224680468946E5
:104B50002B46204629461AF01FFB00223A4B1AF03A
:104B600065F91CF0E3F942464B461AF05FF902463C
:104B70000B46002034491AF039FC424604460D46E3
:104B80004B46404649461AF051F90B460246294623
:104B900020461AF04BF901F0C7FE04460B46002EE2
:104BA0000BDC03F1004320461946BDE870830B4639
:104BB00002461AF03BF904460B4620461946BDE86A
:104BC00070831BF0A9F801F0AFFE1BA3D3E900230B
:104BD0001AF02CF904460B46E1E722462B46204604
:104BE00029461AF0D9FA80468946204629461BF004
:104BF00093F800220446144B0D46404649461AF0ED
:104C000015F91CF093F900220F4B1AF00FF9024628
:104C10000B46404649461AF0E9FB22462B461AF05D
:104C200005F900F0B1FA04460B46B8E7AFF300808F
:104C30009C7500883CE4377EEF39FAFE422EE63F51
:104C4000FFFFEF7FFFFF2F3E0000F03F0000B0416D
:104C50002DE9F84FB84B21F000469E420D468A469A
:104C600004460EDDB54B9E4200F3B08000F0AB80F1
:104C7000B34BB449B448BAF1000FC8BF1946BDE8F8
:104C8000F88FB24B9E4200F3B980A3F1DE739E42CF
:104C900040F3A4804FF0FF3B22462B462046294696
:104CA0001AF07AFA02460B46804689461AF074FAE0
:104CB00089A3D3E9002306460F461AF06DFA88A3AC
:104CC000D3E900231AF0B2F832463B461AF064FAF0
:104CD00085A3D3E900231AF0A9F832463B461AF01F
:104CE0005BFA83A3D3E900231AF0A0F832463B46CF
:104CF0001AF052FA80A3D3E900231AF097F832464B
:104D00003B461AF049FA7EA3D3E900231AF08EF845
:104D100042464B461AF040FA7BA3D3E90023804673
:104D20008946304639461AF037FA79A3D3E9002389
:104D30001AF07AF832463B461AF02EFA76A3D3E9F7
:104D400000231AF071F832463B461AF025FA74A394
:104D5000D3E900231AF068F832463B461AF01CFAF1
:104D600071A3D3E900231AF05FF832463B461AF0EC
:104D700013FA02460B46404649461AF057F82246B7
:104D80002B461AF009FABBF1FF3F02460B465CD0F6
:104D90006F4B704E4FEACB0B5B44D3E900231AF004
:104DA00043F822462B461AF03FF8B34402460B461E
:104DB000DBE900011AF038F8BAF1000F0CDA01F162
:104DC0000041BDE8F88F00283FF452AF224620464C
:104DD0002B4629461AF02AF8BDE8F88F54A3D3E9E8
:104DE00000231AF023F800225B4B1AF065FC002820
:104DF0003FF450AF20462946BDE8F88F1AF08CFFEB
:104E0000564B9E4204460D4625DCA3F550239E4298
:104E10004ADC02460B461AF009F800224E4B1AF003
:104E200003F8002206460F464FF0804320462946ED
:104E300019F0FCFF02460B46304639461AF0D6FA06
:104E40004FF0000B04460D4626E72046294619F090
:104E5000EBFFBDE8F88F424B9E421ADC0022414B2B
:104E600019F0E2FF002206460F463E4B2046294637
:104E70001AF092F90022384B19F0D8FF02460B467F
:104E8000304639461AF0B2FA4FF0020B04460D468E
:104E900002E702460B46002033491AF0A7FA4FF00A
:104EA000030B04460D46F7E600222B4B19F0BCFF1E
:104EB000002206460F46284B2046294619F0B6FF29
:104EC00002460B46304639461AF090FA4FF0010B75
:104ED00004460D46E0E600BF11DA22E33AAD903F0A
:104EE000EB0D76244B7BA93F513DD0A0660DB13F21
:104EF0006E204CC5CD45B73FFF8300922449C23F89
:104F00000D5555555555D53F2F6C6A2C44B4A2BF4D
:104F10009AFDDE522DDEAD3F6D9A74AFF2B0B33F15
:104F2000711623FEC671BC3FC4EB98999999C93F8D
:104F30009C7500883CE4377EFFFF0F440000F07F43
:104F4000FB21F93FFB21F9BF182D4454FFFFDB3F44
:104F5000A8340200883402000000F03FFFFFF23F57
:104F6000FF7F03400000F83F0000F0BF000000009A
:104F7000C1F30A522DE9F843A2F2FF36132E0B4675
:104F80000D4604468846074621DC002E4CDB3A4A93
:104F900042FA06F901EA090202431DD034A3D3E91B
:104FA000002319F043FF002200231AF085FB48B1CB
:104FB000002D04DD4FF4801343FA06F6B04428EACE
:104FC000090500273C4629462046BDE8F883332ED4
:104FD00006DDB6F5806F3AD019462046BDE8F88365
:104FE000A2F213424FF0FF3929FA02F919EA000F31
:104FF000F2D01FA3D3E9002319F018FF00220023E9
:105000001AF05AFB0028DDD0002D09DD142E25D022
:105010000123C6F1340603FA06F6371928BF98446F
:1050200027EA09074546CDE711A3D3E9002319F084
:10503000FDFE002200231AF03FFB0028C2D0002D05
:105040000FDB55EA040707D000270C4DBAE70246EC
:1050500019F0ECFE0446C0E73D46B3E705F1010850
:10506000DEE700274FF00045ACE700BFAFF300805C
:105070009C7500883CE4377EFFFF0F000000F03F86
:10508000C1F30A522DE9F843A2F2FF36132E0B4664
:105090000D460446884607461DDC002E3DDB384A97
:1050A00042FA06F901EA0902024319D032A3D3E910
:1050B000002319F0BBFE002200231AF0FDFAD0B342
:1050C000002D04DA4FF4801343FA06F6B04428EAC0
:1050D000090500272FE0332E06DDB6F5806F2FD0AF
:1050E00019462046BDE8F883A2F213424FF0FF397B
:1050F00029FA02F919EA000FF2D01FA3D3E900231D
:1051000019F094FE002200231AF0D6FA98B1002D6F
:1051100024DB27EA090745460DE017A3D3E900235E
:1051200019F084FE002200231AF0C6FA18B1002DEF
:105130000BDB00273D463C4629462046BDE8F88368
:10514000024619F073FE0446CBE725F000430D4AF2
:105150001F43002F18BF15460027ECE7142E08D078
:105160000123C6F1340603FA06F6371928BF98441E
:10517000CFE705F10108CCE79C7500883CE4377E59
:10518000FFFF0F000000F0BF2DE9F04FD84B994210
:1051900087B00E46074643DDD64B99428A4600F358
:1051A000F680D54B994240F330810B15A3F2FF3BBB
:1051B00000220023CDE902230446D04BCAF3130A90
:1051C0009A454AF07F5500F3158145F44015204675
:1051D00029460022CA4B19F027FE002204460D463C
:1051E000C84B19F0D9FF22462B4619F0D5FF80464F
:1051F000894627462E46CDE90089BAF1000F3AD1FB
:1052000000220023204629461AF02EFA002800F03A
:105210001D81BBF1000F40F0858100200146BAE0FE
:10522000B94B21F000449C420A460FDD0022B74BE7
:105230001AF01AFA002800F0B180002200230020A2
:10524000B3491AF0D3F807B0BDE8F08FB14B9C42D8
:1052500040F3B180B04B1A449A4240F2D68000220B
:10526000A84B19F099FF3A46334619F095FFCDE95E
:1052700000014FF0000B00224FF0804338463146CA
:1052800019F0D4FD02460B46384631461AF0AEF806
:1052900002460B468046894619F07EFF80A3D3E97B
:1052A000002304460D4619F077FF7FA3D3E90023BE
:1052B00019F0BCFD22462B4619F06EFF7CA3D3E902
:1052C000002319F0B3FD22462B4619F065FF7AA39F
:1052D000D3E9002319F0AAFD22462B4619F05CFF02
:1052E00077A3D3E9002319F0A1FD22462B4619F03C
:1052F00053FF75A3D3E9002319F098FD22462B46EE
:1053000019F04AFF72A3D3E9002319F08FFD22465A
:105310002B4619F041FFDDE9004522462B4619F0E6
:1053200085FD42464B4619F037FFCDE90401BBF13C
:10533000000F00F0A880584619F0C4FE66A3D3E918
:1053400000238046894619F027FF65A3D3E900238F
:1053500004460D464046494619F01EFFDDE902238A
:1053600019F064FDDDE9042319F060FD02460B46E7
:10537000DDE9000119F058FD3A46334619F054FDB5
:1053800002460B462046294619F04EFD03E0024630
:105390000B4619F04BFD07B0BDE8F08F3A46334697
:1053A0003846314619F040FD02460B461AF01EF809
:1053B00007B0BDE8F08F0022584B19F037FD0022EE
:1053C00000231AF079F910B1554B9C4262DD3A4640
:1053D00033463846314619F0DFFE0022494B19F0BA
:1053E000DBFE02460B463846314619F01DFD07B07C
:1053F000BDE8F08F45F40015CAF5801A204629460D
:105400004FEAAA0A0BF1010BE3E63D4B3846314661
:10541000002219F00BFD0B15A3F2FF3BBBF1000FAF
:1054200004460D468A4640F3C3803A46334619F097
:10543000FBFC02460B460020314919F0F5FC2246E0
:105440002B4619F0D3FFCDE90201B6E626A3D3E936
:1054500000232046294619F09FFE02460B460020F5
:10546000274919F0E1FC42464B4619F095FE0646E5
:105470000F46BBF1000F73D102460B46204629466A
:1054800019F0D2FC87E702460B462046294619F060
:10549000CBFCA6E7384631467DE700BFAFF300807E
:1054A00044523EDF12F1C23F9FC678D0099AC33FF3
:1054B000DE03CB966446C73FAF788E1DC571CC3FE7
:1054C000599322942449D23F04FA97999999D93F44
:1054D000935555555555E53F0000E0FE422EE63FF9
:1054E000763C7935EF39EA3D555555555555E53FEB
:1054F0007982DA3FFFFFEF7FFFFF3F439DA0060069
:105500000000F03F0000E03FFFFFEF3F0000F0BF72
:10551000000050C3FFFF1F3E3C412D4000005043A0
:10552000FFFF8F3C584619F0CDFD27A3D3E9002398
:1055300006460F4619F030FEDDE9022319F076FC2D
:1055400023A3D3E9002304460D463046394619F01B
:1055500023FE02460B462046294619F067FC1AE74F
:10556000584619F0AFFD1AA3D3E9002382468B46B3
:1055700019F012FE14A3D3E9002380468946504651
:10558000594619F009FEDDE9022319F04FFC0246E5
:105590000B463046394619F047FC22462B4619F097
:1055A00043FC02460B464046494619F03DFCF2E6F4
:1055B0000022094B19F038FC02460B4638463146AA
:1055C00019F032FC3BE700BF763C7935EF39EA3D14
:1055D0000000E0FE422EE63F0000F03F0000000029
:1055E00008B51AF009FF04A3D3E9002319F0FEFE61
:1055F00008BD00BFAFF30080EF39FAFE422EE63F50
:105600002DE9F043DFF8B4808BB004460D4600F07E
:1056100057FF98F90030013306460F462CD022463A
:105620002B46204629461AF051F8814620BB2046D9
:1056300029461AF071FB1CA3D3E900231AF03CF8A9
:10564000D0B11B4A98F90030CDF820900321CDE964
:105650000445CDE90245CDE9001293B1154900207A
:10566000022BCDE9060111D11CF05AFE2223036062
:10567000089B9BB9DDE90667304639460BB0BDE8AB
:10568000F0830D4B4FF06042CDE9062368461CF0D5
:10569000F7FC0028E8D0089B002BEBD01CF040FE64
:1056A000089B0360E6E700BF7DF8B98FCE338640E4
:1056B000844B02000000F07FFFFFEF471202002042
:1056C0002DE9F043DFF8E4808BB004460D4600F08E
:1056D000A3FF98F90030013306460F4633D0204629
:1056E00029461CF0C7FC70B329A3D3E90023204648
:1056F000294619F0E1FF814650BB27A3D3E90023D7
:105700002046294619F0BAFFE8B198F90030244A3A
:10571000CDF82090042600200021022BCDE904457D
:10572000CDE90245CDE90062CDE9060129D0684600
:105730001CF0A6FC28B3089B1BB11CF0F1FD089BD4
:105740000360DDE90667304639460BB0BDE8F083FB
:10575000134A98F90030019203210022CDE9044553
:10576000CDE90245009108922BB90E4B4FF06042F3
:10577000CDE90623DBE70C490020022BCDE9060129
:10578000D5D11CF0CDFD22230360D4E7AFF3008018
:10579000EF39FAFE422E864051302DD5104987C090
:1057A0008C4B0200FFFFEF470000F07F1202002049
:1057B0002DE9F84FC44E21F00043B3420C46054694
:1057C0000DDD03F1404303F58013034340F0B9803E
:1057D000002940F3408100200021BDE8F88FBB4E36
:1057E000B34208DCBA4A934200F3B5809CA1D1E9E8
:1057F0000001BDE8F88F0029C0F2708102460B4617
:105800000020B44919F010FB0022B34B19F0C4FC7E
:1058100004460D461BF08AFB93A3D3E90023894677
:1058200080462946204619F0B7FC91A3D3E900230E
:1058300019F0FCFA22462B4619F0AEFC8EA3D3E9F0
:10584000002319F0F1FA22462B4619F0A5FC8CA38F
:10585000D3E9002319F0EAFA22462B4619F09CFC02
:1058600089A3D3E9002319F0DFFA22462B4619F069
:1058700093FC87A3D3E9002319F0D8FA22462B46DC
:1058800019F08AFC84A3D3E9002382468B46204684
:10589000294619F081FC82A3D3E9002319F0C4FA48
:1058A00022462B4619F078FC7FA3D3E9002319F098
:1058B000BDFA22462B4619F06FFC7DA3D3E90023E5
:1058C00019F0B2FA22462B4619F066FC0022814BF1
:1058D00019F0ACFA02460B465046594619F086FDBF
:1058E00042464B4619F058FC002682468B4632460B
:1058F0004B463046494619F04FFC02460B462046BF
:10590000294619F091FA324604460D464B46404668
:10591000494619F08BFA02460B462046294619F0F3
:1059200065FD02460B465046594619F07FFA32464D
:105930004B4619F07BFA02460B4619F077FABDE8A0
:10594000F88F02460B4619F06FFA02460B4619F023
:105950004DFDBDE8F88F02460B4619F01DFC42A331
:10596000D3E9002306460F4619F016FC40A3D3E9FD
:10597000002319F05BFA32463B4619F00DFC3EA3BA
:10598000D3E9002319F050FA32463B4619F004FCE3
:105990003BA3D3E9002319F049FA32463B4619F0FC
:1059A000FBFB39A3D3E9002319F03EFA32463B460C
:1059B00019F0F2FB36A3D3E9002319F037FA324687
:1059C0003B4619F0E9FB34A3D3E90023804689461E
:1059D0003046394619F0E0FB31A3D3E9002319F032
:1059E00023FA32463B4619F0D7FB2FA3D3E9002315
:1059F00019F01CFA32463B4619F0CEFB2CA3D3E932
:105A0000002319F011FA32463B4619F0C5FB00227B
:105A1000304B19F00BFA02460B464046494619F046
:105A2000E5FC2A46234619F0B7FB02460B4622A1A5
:105A3000D1E9000119F0F8F902460B462846214643
:105A400019F0F2F902460B4605A1D1E9000119F05F
:105A5000EBF9BDE8F88F1AA1D1E9000179E700BFA1
:105A6000182D4454FB21F93F09F7FD0DE13D023F9C
:105A700088B20175E0EF493F3B8F68B52882A43FAB
:105A80005544880E55C1C93F7D6FEB0312D6D43FF4
:105A9000555555555555C53F82922EB1C5B8B33FA2
:105AA00059018D1B6C06E63FC88A599CE52A0040C7
:105AB0004B2D8A1C273A0340075C143326A6913CE1
:105AC000182D4454FB210940FFFFEF3FFFFFDF3F4C
:105AD0000000603C0000F03F0000E03F00225C4B13
:105AE00019F0A4F900225B4B19F056FB40A3D3E94F
:105AF000002304460D4619F04FFB3FA3D3E90023D2
:105B000019F094F922462B4619F046FB3CA3D3E941
:105B1000002319F089F922462B4619F03DFB3AA3E0
:105B2000D3E9002319F082F922462B4619F034FB01
:105B300037A3D3E9002319F077F922462B4619F051
:105B40002BFB35A3D3E9002319F070F922462B462D
:105B500019F022FB80468946204629461BF0E6F9CB
:105B60002FA3D3E9002306460F462046294619F005
:105B700013FB2DA3D3E9002319F056F922462B4637
:105B800019F00AFB2AA3D3E9002319F04FF92246A2
:105B90002B4619F001FB28A3D3E9002319F044F99F
:105BA00022462B4619F0F8FA0022294B19F03EF94B
:105BB00002460B464046494619F018FC32463B4621
:105BC00019F0EAFA1EA3D3E9002319F02DF93246A1
:105BD0003B4619F02BF902460B4619F027F902460D
:105BE0000B4619A1D1E9000119F01EF9B1E600BF79
:105BF00009F7FD0DE13D023F88B20175E0EF493F35
:105C00003B8F68B52882A43F5544880E55C1C93FD3
:105C10007D6FEB0312D6D43F555555555555C53FAD
:105C200082922EB1C5B8B33F59018D1B6C06E63F79
:105C3000C88A599CE52A00404B2D8A1C273A03400C
:105C4000075C143326A6913C182D4454FB210940CF
:105C50000000F03F0000E03F414A91422DE9F84347
:105C60000C46054637DD3F4A914209DD02F1795283
:105C700091423EDD02460B4619F0D8F8BDE8F883A4
:105C800001F1404202F5801202432ED0B1F1804F63
:105C900037DC0022344B19F0C7F802460B460446A5
:105CA0000D4619F0C3F8224606460F462B462046FD
:105CB000294619F071FA02460B463046394619F06A
:105CC000B5F81BF033F922462B4619F0AFF8BDE8C2
:105CD000F843FFF759BA02460B4619F0A5F80246F9
:105CE0000B4619F083FBBDE8F88300200021BDE8D6
:105CF000F88300F019FE18A3D3E9002319F096F8F1
:105D0000F1E702460B4619F047FA0022164B19F04C
:105D10008BF81BF00BF92A46804689462346284615
:105D2000214619F083F82A4606460F462346404688
:105D3000494619F07BF802460B4600200A4919F043
:105D400055FB0B4602463946304619F06DF8BDE862
:105D5000F84300F0E9BD00BFEF39FAFE422EE63FFE
:105D6000FFFFEF3FFFFFAF410000F03F00000000EA
:105D70002DE9F04FB24B21F000479F4287B00D460E
:105D8000044615DD07F1404707F5801703463B43FE
:105D900026D002460B4619F047F80B46024619F08A
:105DA00025FB04460B462046194607B0BDE8F08F98
:105DB000A44B9F420E462EDCB7F1795F80F24A81F8
:105DC00083A3D3E9002319F031F800229E4B19F088
:105DD00073FC00B32B462046194607B0BDE8F08F90
:105DE0007DA3D3E9002319F0D7F97DA3D3E90023DC
:105DF00006460F462046294619F0CEF902460B46C4
:105E00003046394619F012F804460B46204619462A
:105E100007B0BDE8F08F2046294619F07DFF024605
:105E20000B460020884918F0FFFF0022874B19F02D
:105E3000B3F96DA3D3E9002304460D4619F0ACF97C
:105E40006BA3D3E9002318F0F1FF22462B4619F08B
:105E5000A3F969A3D3E9002318F0E6FF22462B46F5
:105E600019F09AF966A3D3E9002318F0DFFF224660
:105E70002B4619F091F964A3D3E9002318F0D4FF5D
:105E800022462B4619F088F961A3D3E9002318F0C4
:105E9000CDFF22462B4619F07FF95FA3D3E90023FB
:105EA000CDE900012046294619F076F95CA3D3E933
:105EB000002318F0B9FF22462B4619F06DF95AA3BA
:105EC000D3E9002318F0B2FF22462B4619F064F9FB
:105ED00057A3D3E9002318F0A7FF22462B4619F059
:105EE0005BF9594B002218F0A1FF82468B462046F1
:105EF0002946CDE902AB1BF019F8554B9F4280466D
:105F0000894600F31C8102460B4618F08FFFDDE93D
:105F10000223CDE90401DDE9000119F067FA024628
:105F20000B46DDE9040119F037F94FF0000ACDE91D
:105F3000000152464B465046494619F02DF902469B
:105F40000B462046294618F06FFF524604460D4680
:105F50004B464046494618F069FF02460B4620462C
:105F6000294619F043FA02460B4618F05FFF024635
:105F70000B461BA1D1E9000118F056FF02460B4663
:105F8000DDE9000118F050FF524604460D464B462D
:105F90005046494618F04AFF02460B4626A1D1E971
:105FA000000118F041FF02460B462046294618F032
:105FB0003BFF0B46024620A1D1E9000118F034FF57
:105FC00004460B46002E3FF7EEAE03F10043EAE62F
:105FD0009C7500883CE4377E182D4454FB21F93F22
:105FE000075C143326A6913C09F7FD0DE13D023F05
:105FF00088B20175E0EF493F3B8F68B52882A43F26
:106000005544880E55C1C93F7D6FEB0312D6D43F6E
:10601000555555555555C53F82922EB1C5B8B33F1C
:1060200059018D1B6C06E63FC88A599CE52A004041
:106030004B2D8A1C273A0340182D4454FB21E93F7D
:10604000FFFFEF3FFFFFDF3F0000F03F0000E03FBA
:106050003233EF3F02460B4619F09EF848A3D3E9CE
:10606000002306460F4619F097F847A3D3E900230B
:1060700018F0DCFE32463B4619F08EF844A3D3E913
:10608000002318F0D1FE32463B4619F085F842A3B2
:10609000D3E9002318F0CAFE32463B4619F07CF8DB
:1060A0003FA3D3E9002318F0BFFE32463B4619F068
:1060B00073F83DA3D3E9002318F0B8FE32463B46FF
:1060C00019F06AF83AA3D3E900238046894630469E
:1060D000394619F061F838A3D3E9002318F0A4FE7B
:1060E00032463B4619F058F835A3D3E9002318F09F
:1060F0009DFE32463B4619F04FF833A3D3E9002307
:1061000018F092FE32463B4619F046F80022344B16
:1061100018F08CFE02460B464046494619F066F9D7
:1061200022462B4619F038F822462B4618F07EFE00
:1061300004460B462046194607B0BDE8F08F52468C
:106140005B46DDE9000119F051F942464B4619F072
:1061500023F842464B4618F069FE02460B4618F0FB
:1061600065FE1BA3D3E9002318F05EFE0B46024632
:1061700019A1D1E9000118F057FE04460B4621E7AA
:1061800009F7FD0DE13D023F88B20175E0EF493F9F
:106190003B8F68B52882A43F5544880E55C1C93F3E
:1061A0007D6FEB0312D6D43F555555555555C53F18
:1061B00082922EB1C5B8B33F59018D1B6C06E63FE4
:1061C000C88A599CE52A00404B2D8A1C273A034077
:1061D000075C143326A6913C182D4454FB21F93F4B
:1061E0000000F03F000000002DE9F84F5442144336
:1061F00023F00048684E48EAD474B44284460F46FF
:106200001FD84442044321F0004A4AEAD474B442FD
:106210008B4616D803F1404404F5801414439E467F
:106220003DD09C1704F0020444EAD1745AEA0001FC
:106230000FD1022C50D0032C3CD145A1D1E9000153
:1062400005E01046194662463B4618F0EFFDBDE8F2
:10625000F88F58EA020126D0B0452DD0B24522D0A1
:10626000AAEB08084FEA2858B8F13C0F38DC002B9D
:106270003ADA18F13C0F37DA00200021012C49D01E
:10628000022C3AD0002CE2D033A3D3E9002318F03B
:10629000CBFD33A3D3E9002318F0C6FDD7E7BDE853
:1062A000F84FFEF7D5BCBBF1000F11DB2EA1D1E9F1
:1062B0000001CCE73946CAE7C2452FD0022C0BD0EB
:1062C000032CBAD0012C4FF0000031D00021BEE7E2
:1062D00027A1D1E90001BAE721A1D1E90001B6E780
:1062E00021A1D1E90001C9E76046394619F07EF8DD
:1062F00019F012FDFEF7ACFCC0E717A3D3E90023A9
:1063000018F092FD02460B4615A1D1E9000118F0E4
:106310008BFD9CE701F10043194698E7022C12D04F
:10632000032C0CD0012C06D013A1D1E900018EE77B
:106330004FF000418BE712A1D1E9000187E712A1DC
:10634000D1E9000183E712A1D1E900017FE700BF95
:10635000182D4454FB2109C0075C143326A6A13C28
:10636000182D4454FB210940182D4454FB21F93FBA
:10637000182D4454FB21F9BF182D4454FB21E93F4B
:10638000182D4454FB21E9BFD221337F7CD902C0B0
:10639000D221337F7CD902400000F07F0000000052
:1063A00043422DE9F047034321F00048404A48EAC0
:1063B000D37393420F462ED890454AD03D4B984513
:1063C0008A4636DD3C4B9845044645464CDD024640
:1063D0004346414618F02AFD224606460F464346EC
:1063E0000020334918F020FD02460B46304639465E
:1063F00018F0FCFFFEF7C8FE304B002218F0CCFE70
:10640000BAF1000F04460B460FDA01F100432046B3
:106410001946BDE8F08702460B4618F005FD0B460D
:10642000024618F0E3FF04460B4620461946BDE835
:10643000F0871DA3D3E90023044618F0F7FC0022DF
:10644000002319F039F970B13B4620461946BDE8E2
:10645000F0870022002318F0C9FF04460B462046AF
:106460001946BDE8F087454622462B462046294678
:1064700018F0DCFC22462B4606460F4618F08CFE30
:106480002246804689462B460020094918F0CCFC5C
:1064900002460B464046494618F0A8FF32463B46A6
:1064A00018F0C4FCA6E700BF9C7500883CE4377E6A
:1064B0000000F03FFFFF2F3EFFFFDF3F0000E03F07
:1064C0004D4A2DE9F84321F0004494420B4606461C
:1064D0001BDC4A4A944224DD494A944256DD494A2B
:1064E000944248DD484A944271DD013294426BD0B7
:1064F0003FA3D3E900231046194618F04DFE064687
:106500000F4630463946BDE8F88304460D4622461C
:106510002B4618F041FE06460F4630463946BDE888
:10652000F88319F0F9FB02F06FFC0022374B80462C
:10653000894618F07BFCB4F1725F06460F46ECDB2F
:1065400042464B464046494618F026FE32463B46F8
:1065500004460D463046394618F068FC02460B46A4
:106560002046294618F042FF0022284B18F05EFC16
:1065700006460F46D1E719F0CFFB00F04DF8002298
:10658000234B18F009FE06460F46C6E719F0C4FB78
:1065900000F042F800221E4B06460F4618F0FCFDA4
:1065A000324604460D463B460020194918F01EFFAE
:1065B00002460B462046294618F038FC06460F4690
:1065C00030463946BDE8F883124A904290D83046AA
:1065D000194619F0A1FB00220D4B18F0DDFD00F06B
:1065E0001BF800220A4B04460D4618F0D5FD8EE735
:1065F0009C7500883CE4377EFFFFEF7F422ED63F3C
:10660000FFFF3540412E8640CD3386400000F03FED
:106610000000E03F7DF8B98F2DE9F047B84F21F039
:106620000042BA4284B00C464FEAD176054612D9F0
:10663000B44FBA4240F28E80C1F3130303430246C3
:1066400040F0F780002E00F0818000252946284682
:1066500004B0BDE8F087AC4B9A4200F2B880AB4B77
:106660009A4240F2D3804FF0000A2A462346284639
:10667000214618F091FD8CA3D3E9002306460F466E
:1066800018F08AFD8AA3D3E9002318F0CDFB324627
:106690003B4618F081FD88A3D3E9002318F0C6FB20
:1066A00032463B4618F078FD85A3D3E9002318F065
:1066B000BBFB32463B4618F06FFD83A3D3E90023B2
:1066C00018F0B4FB32463B4618F066FD02460B4616
:1066D0002846214618F0A8FB02460B4606460F4600
:1066E0002846214618F058FD80468946BAF1000F29
:1066F00000F0B38032463B4600204FF0804118F056
:1067000093FB02460B464046494618F06FFE024690
:106710000B46DDE9020118F087FBDDE9002318F0E4
:1067200083FB0B4602467A49002018F07DFB6FF48C
:106730007F739A4580F2AD800AF57A7A01EB0A51AF
:1067400000224FF0B87318F027FD0546284604B024
:10675000BDE8F0875EA3D3E9002318F0ADFF002861
:106760006FD1284621465CA3D3E9002318F086FFA9
:1067700000287FF46AAF674B284603EBC606214624
:1067800057A3D3E9002318F007FDD6E9002318F03A
:106790004DFB18F0B1FF824618F094FC52A3D3E9E8
:1067A000002306460F4618F0F7FC02460B46284623
:1067B000214618F039FB4EA3D3E90023CDE90001AF
:1067C0003046394618F0E8FCCDE9020115E0524B9D
:1067D0009A42D0D8514BF4002344D3E9002318F057
:1067E00023FB4F4B2344D3E90034CDE90001CDE92D
:1067F0000234C6F1010AAAEB060ADDE90223DDE94B
:10680000000118F011FB05460C462EE73AA3D3E928
:10681000002318F00BFB00223D4B18F04DFF002821
:106820003ED0284621460022394B18F0FFFA054693
:106830008CE70B4618F0FAFA0546284604B0BDE886
:10684000F0872DA3D3E900231046194618F0A4FCC5
:106850000546284604B0BDE8F08730463946002298
:106860004FF0804318F0E0FA02460B464046494696
:1068700018F0BCFD2A46234618F0D6FA02460B460D
:106880000020234918F0D0FA0546284604B0BDE898
:10689000F087054601EB0A51284604B0BDE8F087B1
:1068A0008246E2E6AFF30080D0A4BE726937663E4E
:1068B000F16BD2C541BDBB3E2CDE25AF6A56113F00
:1068C00093BDBE166CC1663F3E5555555555C53FE7
:1068D000EF39FAFE422E864051302DD5104987C03F
:1068E000FE822B654715F73F0000E0FE422EE63F93
:1068F000763C7935EF39EA3D9C7500883CE4377E7B
:10690000412E8640FFFFEF7F422ED63FFFFF2F3EF6
:106910000000F03FC8340200B1A2F03FD8340200BA
:10692000E8340200000000002DE9F04FB1F5801FAF
:1069300085B006460F460B4680F2D08021F000421B
:10694000024300F0DA800029C0F2E9800022D64B31
:1069500018F022FCD54A0B46934206460F466FF0CC
:10696000350E00F3C180C3F3130505F5152C0CF6A5
:10697000647C0CF4801C8CF07F5282F440121C1555
:1069800042EA0507A4F2FF3474440022C84B3046A3
:10699000394604EB1C5418F047FAAB1CC3F313033D
:1069A000022B82468B464FF0000240F3AF804FF03F
:1069B000804318F03BFA02460B465046594618F001
:1069C00015FD064620460F4618F07CFB3246CDE901
:1069D00002013B4630463946CDE9006718F0DCFB42
:1069E00002460B468046894618F0D6FB9AA3D3E9A7
:1069F000002306460F4618F0CFFB99A3D3E90023E6
:106A000018F014FA32463B4618F0C6FB96A3D3E9B9
:106A1000002318F00BFA32463B4618F0BDFB94A356
:106A2000D3E9002318F002FA42464B4618F0B4FBB3
:106A300091A3D3E90023804689463046394618F0B1
:106A4000ABFB8FA3D3E9002318F0F0F932463B46A5
:106A500018F0A2FB8CA3D3E9002318F0E7F9324623
:106A60003B4618F099FB0B4602464946404618F053
:106A7000DDF9A5F5C223C5F5D725A3F27A43513533
:106A80001D43002D06460F4640F387800022894BA8
:106A90005046594618F080FB52465B4618F07CFB86
:106AA00002460B46804689463046394618F0BEF904
:106AB000DDE9002318F070FB06460F46002C40F07D
:106AC000818002460B464046494618F0ADF9024621
:106AD0000B465046594618F0A7F90BE0734A93420B
:106AE0004FF0000E7FF73FAF32463B463046394607
:106AF00018F09CF905B0BDE8F08F002200230020BB
:106B00006D4918F073FC05B0BDE8F08F002318F054
:106B1000ABFD60B1002C7CD100200021EAE70246E9
:106B200018F082F90022002318F060FCE2E758A375
:106B3000D3E900235046594618F02EFB02460B4677
:106B400000205C4918F070F9524606460F465B4635
:106B50005046594618F020FB02460B46304639464F
:106B600018F01AFB06460F462CB3204618F0AAFA76
:106B700049A3D3E900238046894618F00DFB48A3BA
:106B8000D3E9002304460D464046494618F004FB6D
:106B900002460B46304639462CE002460B4650462C
:106BA000594618F041F9DDE9002318F0F5FA0646D8
:106BB0000F46002C47D132463B465046594618F006
:106BC00033F997E734A3D3E90023DDE9020118F094
:106BD000E3FA33A3D3E9002304460D46DDE90201BD
:106BE00018F0DAFA32463B4618F020F902460B4616
:106BF0004046494618F018F952465B4618F014F919
:106C000002460B462046294618F00EF905B0BDE8AD
:106C1000F08F204618F056FA1FA3D3E9002306464A
:106C20000F4618F0B9FA1EA3D3E9002304460D4617
:106C30003046394618F0B0FA02460B46204629463F
:106C400018F0F4F856E7DDE9028913A3D3E900232D
:106C50004046494691E700BF44523EDF12F1C23F31
:106C6000DE03CB966446C73F599322942449D23F12
:106C7000935555555555E53F9FC678D0099AC33F62
:106C8000AF788E1DC571CC3F04FA97999999D93F79
:106C9000555555555555D53F0000E0FE422EE63F6F
:106CA000763C7935EF39EA3D00005043FFFFEF7F36
:106CB0000000F03F0000E03F000050C30000000073
:106CC000B1F5801F2DE9F84304460D460B4619DA4D
:106CD00021F00042024359D000295FDB00223A4BE9
:106CE00018F05AFA394A0B4693420D4604466FF0A3
:106CF00035010CDD22462B462046294618F096F831
:106D0000BDE8F883314A93424FF00001F2DC1815D8
:106D1000A0F2FF3008444FEAD0794844C3F3130887
:106D200018F0D0F9C9F57F73033348EA03550646D6
:106D30000F4620462946FFF7F7FD1DA3D3E90023A0
:106D4000804689463046394618F026FA1AA3D3E918
:106D5000002304460D464046494618F01DFA0246F7
:106D60000B462046294618F061F815A3D3E9002305
:106D700004460D463046394618F00EFA02460B46D8
:106D80002046294618F052F8BDE8F8830022002377
:106D900000200F4918F02AFBBDE8F883024618F0DE
:106DA00043F80022002318F021FBA9E7AFF300808D
:106DB000362BF111F3FE593D0EE526157BCBDB3F5B
:106DC00000609F501344D33F00005043FFFFEF7F0C
:106DD000000050C3000000002DE9F04F23F00045F3
:106DE00055EA020493B00DD0794E21F00044B4422C
:106DF0000F4682460FDD04F1404404F5801454EA46
:106E00000A035BD1734C0023CDE90034DDE90001B6
:106E100013B0BDE8F08F984694464ED0B542EADCF8
:106E20006B4EB54266D0002F8B468146CDE90223DA
:106E300064DB0026BCF1000F0ED1654B9D4246D0AD
:106E4000644B9D4200F09780B8F1804F00F0B28013
:106E5000614B984500F0CC834846594618F05CFFDA
:106E6000CDE90001BAF1000F06D1002C60D0594BDA
:106E700027F040429A425BD0FF0F013F56EA0703DA
:106E800000F08280554B9D4240F3B08003F10473C3
:106E90009D4240F34184524B9C4240F38280B8F1C2
:106EA000000F40F3828048A3D3E90023104619461F
:106EB00018F072F9CDE90001A8E728B1494813B0EC
:106EC000BDE8F04F1BF0DEB8A542F7DCA8E704F1FF
:106ED000404303F5801353EA0A0393D0404B9C428E
:106EE00040F39083B8F1000F5FDBDDE90234CDE9B8
:106EF00000348BE7BCF1000F95D07CE73A4B9D4204
:106F000037DCA3F154739D4293DD2B15A3F2FF33BD
:106F1000142B40F3E983C3F134032CFA03F202FA91
:106F200003F3634585D102F00102C2F1020681E755
:106F3000B8F1000F07DADDE900230020254918F039
:106F400055FACDE90001002FBFF660AF04F14044CF
:106F500004F5801454EA060300F03C84012E7FF40B
:106F600055AFDDE90045224605F10043CDE9002398
:106F70004CE702265EE7B8F1000FC0F24F834846A7
:106F80005946CDE9000141E74A4648465B46594625
:106F900017F04AFF02460B4618F028FACDE9000127
:106FA00034E7B8F1000FFFF67EAF00230024CDE9EF
:106FB00000342BE74A4648465B46594618F0ECF841
:106FC000CDE9000122E700BF9C7500883CE4377ED4
:106FD0000000F07F0000F03F0000E03F0000E041D3
:106FE000FFFFEF3F3C3D0200FFFF3F43B4F5801F32
:106FF00080F28F83DDE900010022CF4B18F0CCF83E
:10700000CDE900010C466FF0340C2315CB4DC4F3D1
:107010001302A3F2FF3342F07F5403EB0C01AA42A8
:107020000B9144F4401440F36F83C54B9A4240F3F4
:10703000F38300220023CDE9082301310B91A4F54D
:107040008014CDE91023BF4B0022CDE90623002593
:10705000DDE90001DDE906232146824617F0E4FE62
:10706000A346DDE906238046894650462146CDE900
:107070000CAB17F0DBFE02460B460020B14918F0BE
:10708000B5F90A460146CDE90E12134649460246B5
:10709000404618F081F8631043F0005382468B4657
:1070A00003F500238C46CDE904AB5919D3460023E0
:1070B000CDE900BC0093DDE900AB002004460D469D
:1070C00002460B465046594618F066F802460B46F3
:1070D0004046494617F0A8FEDDE90623804689466A
:1070E0002046294617F0A0FE02460B46DDE90C01BA
:1070F00017F09AFE52465B4618F04EF802460B46D1
:107100004046494617F090FEDDE90E2318F044F89A
:10711000DDE90445CDE9060122462B4620462946F5
:1071200018F03AF872A3D3E9002304460D4618F08C
:1071300033F871A3D3E9002317F078FE22462B46DB
:1071400018F02AF86EA3D3E9002317F06FFE224649
:107150002B4618F021F86CA3D3E9002317F066FE44
:1071600022462B4618F018F869A3D3E9002317F03C
:107170005DFE22462B4618F00FF867A3D3E90023E3
:1071800017F054FE2246804689462B462046294663
:1071900018F002F802460B464046494617F0FCFF3D
:1071A000524604460D465B46DDE9040117F03EFEFB
:1071B000DDE9062317F0F0FF22462B4617F036FED6
:1071C0005246804689465B465046594617F0E4FFD2
:1071D00000225D4BCDE90C0117F028FE42464B46DC
:1071E00017F024FE00980D46044622462B465046D2
:1071F000594617F0D1FF002282468B46524B20465B
:10720000294617F011FEDDE90C2317F00DFE0246AA
:107210000B464046494617F007FEDDE9042317F008
:10722000BBFF2246804689462B46DDE9060117F062
:10723000B3FF02460B464046494617F0F7FD80462D
:10724000894602460B465046594617F0EFFD009816
:1072500033A3D3E9002304460D4617F09DFF5246A1
:10726000CDE904015B462046294617F0DDFD0246C4
:107270000B464046494617F0D7FD2BA3D3E9002320
:1072800017F08AFF2AA3D3E90023804689462046C7
:10729000294617F081FF02460B464046494617F043
:1072A000C5FDDDE9102317F0C1FD80460B98894626
:1072B00017F008FF424682468B464B46DDE9040143
:1072C00017F0B4FDDDE9082317F0B0FD52465B4628
:1072D00017F0ACFD009852465B4604460D4617F089
:1072E000A3FDDDE9082317F09FFDDDE904232DE070
:1072F000EF4E454A287ECA3F65DBC9934A86CD3F9B
:1073000001411DA96074D13F4D268F515555D53F80
:10731000FFAB6FDBB66DDB3F033333333333E33F18
:10732000000000E009C7EE3FFD033ADC09C7EE3F6D
:10733000F5015B14E02F3EBE000040438E98030031
:1073400079B60B000000F03F0000084017F06CFD1C
:107350000B4602464946404617F066FD013E56EA96
:10736000070382468B46DDE9020114BFD84BD94B97
:107370000022CDE9042302460B46CDE90023002379
:107380000093DDE9006732463B4617F04DFD22468B
:107390002B4617F001FFDDE902238046894650465F
:1073A000594617F0F9FE02460B464046494617F08B
:1073B0003DFD3246804689463B4620462946CDE97A
:1073C000028917F0E9FE0B46024606460F46404684
:1073D000494617F02BFDC04B994204460D468A469C
:1073E00040F3268101F13F4303F5E003034340F0FE
:1073F000F781A3A3D3E90023DDE9020117F016FD0D
:107400003246804689463B462046294617F00CFD09
:1074100002460B464046494618F04EF9002840F017
:10742000DF81A8464FEA2853A3F2FE324FF48013BF
:1074300013415344C3F30A52A84DA2F2FF3215413F
:10744000C3F3130423EA05010020C2F1140B44F432
:107450008014BAF1000F02460B4644FA0BFB30468B
:107460003946B8BFCBF1000B17F0DEFC02460B46E5
:1074700006460F46DDE9020117F0D8FC4FEA0B5A29
:107480000D46002480A3D3E900232046294617F0A7
:1074900083FE3246804689463B462046294617F001
:1074A000C3FC02460B46DDE9020117F0BDFC78A3E0
:1074B000D3E9002317F070FE77A3D3E90023064633
:1074C0000F462046294617F067FE02460B46304617
:1074D000394617F0ABFC06460F4602460B464046BF
:1074E000494617F0A3FC42464B4604460D4617F0AA
:1074F0009BFC02460B463046394617F095FC224667
:10750000804689462B462046294617F045FE64A34F
:10751000D3E9002306460F4617F03EFE62A3D3E9E7
:10752000002317F081FC32463B4617F035FE60A37E
:10753000D3E9002317F07AFC32463B4617F02CFEC5
:107540005DA3D3E9002317F06FFC32463B4617F0EA
:1075500023FE5BA3D3E9002317F068FC32463B46C9
:1075600017F01AFE02460B462046294617F05CFC2F
:1075700006460F4602460B462046294617F00CFEEB
:107580000022CDE900014FF080433046394617F024
:107590004BFC02460B46DDE9000117F027FF42468F
:1075A00006460F464B462046294617F0F5FD424653
:1075B0004B4617F03BFC02460B463046394617F067
:1075C00033FC22462B4617F02FFC02460B460020C8
:1075D0003F4917F029FC8A44BAF5801FC0F22D817B
:1075E0005146DDE9042317F0D7FDCDE900010DE494
:1075F000002FFFF631AC4846594613B0BDE8F04FB6
:1076000019F094BCB8F1000FBFF6CFACDDE902343D
:10761000009304F100430193FFF7F8BB4A465B4631
:1076200000202B4917F0E2FECDE90001FFF7EEBB89
:107630002B4B21F00048984540F3E280294B0B4446
:1076400003430AD132463B4617F0EEFBDDE9022345
:1076500018F028F800283FF4E5AE1BA3D3E9002377
:10766000DDE9040117F098FD17A3D3E9002317F013
:1076700093FDCDE90001FFF7C9BB00BFAFF3008068
:10768000FE822B654715973C00000000432EE63F25
:10769000EF39FAFE422EE63F396CA80C615C20BE41
:1076A000D0A4BE726937663EF16BD2C541BDBB3E08
:1076B0002CDE25AF6A56113F93BDBE166CC1663FE6
:1076C0003E5555555555C53F59F3F8C21F6EA50196
:1076D0000000F03F0000F0BFFFFF8F40FFFF0F00F2
:1076E000FFCB904000346F3FBCF1000F40F0918021
:1076F000C3F1140345FA03F202FA03F3AB4200F0BC
:10770000A0806646FFF79CBB00220023CDE908233A
:1077100097E44FF0000C78E45B4B9C427FF741AC60
:107720005A4B9C423FF7BBABDDE900010022574BAF
:1077300017F07AFB46A3D3E9002304460D4617F061
:107740002BFD45A3D3E9002382468B4620462946DC
:1077500017F022FD0022CDE900014D4B20462946BD
:1077600017F01AFD02460B463DA1D1E9000117F0C2
:107770005BFB22462B4617F00FFD02460B4600200E
:10778000444917F051FB2246804689462B46204645
:10779000294617F001FD02460B464046494617F0C0
:1077A000FBFC31A3D3E9002317F0F6FC02460B469D
:1077B000DDE9000117F038FB02460B46804689469A
:1077C0005046594617F032FB002004460D465246FB
:1077D0005B46BBE5DDE9002310461946FFF7D8BB41
:1077E00023A3D3E90023DDE9040117F0D5FC20A38E
:1077F000D3E9002317F0D0FCCDE90001FFF706BB69
:10780000244B98453FF70EAEDDE9002392469346A0
:1078100037E60026FFF720BB17A3D3E90023CDE905
:10782000082317A3D3E90023CDE910231A4B002224
:107830004FF48025CDE906230AE45A4601F02CFDD9
:10784000CFE602F00102C2F10206FFF7F9BA00BF6B
:10785000000000604715F73F44DF5DF80BAE543E73
:10786000555555555555D53FFE822B654715F73F64
:107870009C7500883CE4377E0000004003B8E23F7E
:1078800006D0CF43EBFD4C3EFEFFEF3F0000F03F44
:107890000000D03F0000E03F0000F83F0000000083
:1078A0002DE9F04FC84E21F00047B7428FB00B468C
:1078B00040F38F809246C54A97420C4626DC002949
:1078C000B7A3D3E9002340F38F8017F0ADFAC04B84
:1078D0009F4204460D4600F04681B3A3D3E900233E
:1078E00017F0A2FA02460B46CAE9002320462946B1
:1078F00017F09AFAACA3D3E9002317F095FA012503
:10790000CAE9020128460FB0BDE8F08FB14A97429C
:1079100040F38980B04A974200F31C813D15A5F2DF
:107920001645A7EB055319461F46064617F0E4FE19
:1079300017F0C8FB8046894602460B46304639465A
:10794000CDE9088917F070FA0022A44B17F024FC47
:107950008946804617F0D0FE17F0B4FB02460B466E
:1079600006460F4640464946CDE90A6717F05CFADD
:1079700000229A4B17F010FC00220023CDE90C01E5
:1079800017F072FE002800F05D8100233046394672
:10799000002217F069FE002814BF01230223904A39
:1079A000019202212A46009108A8514600F080FB6E
:1079B000002C054614DADAF80420DAF80C3002F16B
:1079C000004203F100434542CAF80420CAF80C30D3
:1079D00006E0C2E9000100250024C2E902450025B5
:1079E00028460FB0BDE8F08F17F020FA784B9F4281
:1079F00004460D4600F008816BA3D3E9002317F07D
:107A000015FA02460B46CAE900232946204617F01C
:107A10000BFA65A3D3E9002317F008FA4FF0FF35FE
:107A2000CAE90201DCE718F077F961A3D3E9002382
:107A30008046894617F0B0FB00226A4B17F0F6F932
:107A400017F05AFE054617F03DFB55A3D3E9002376
:107A5000CDE9040117F0A0FB02460B46404649461B
:107A600017F0E2F950A3D3E90023CDE90201DDE9E3
:107A7000040117F091FB1F2D8046894602460B46F4
:107A8000DDE9020140F3B08017F0CEF983460E46DF
:107A90003F15C6F30A53FB1A102B40F3B08046A3E0
:107AA000D3E90023DDE9040117F076FB804689461F
:107AB00002460B46DDE9020117F0B6F902460B4615
:107AC000DDE90201CDE9062317F0AEF942464B4647
:107AD00017F0AAF93AA3D3E9002380468946DDE9E5
:107AE000040117F059FB42464B4617F09DF90B462F
:107AF000024680468946DDE9060117F095F9C1F393
:107B00000A53FF1A312F83460E4600F39D8002462A
:107B10000B46CAE90023DDE90623CDE902235A46D4
:107B20003346DDE9020117F07FF942464B4617F074
:107B30007BF9002C02460B46CAE90223BFF650AF80
:107B400006F1004601F10041CAE900B6CAE90201A6
:107B50006D4245E7024617F067F90025CAE90201C0
:107B6000CAE900013CE714A3D3E9002317F05CF94C
:107B700013A3D3E900230D46044617F055F9024636
:107B80000B46CAE900232946204617F04DF90CA3FD
:107B9000D3E9002317F048F90125CAE902011FE7DC
:107BA00000004054FB21F93F3163621A61B4D03DBB
:107BB00083C8C96D305FE43F0000601A61B4D03DF6
:107BC0007370032E8A19A33BFB21E93F7BD9024046
:107BD000FB21F93FFB213941FFFFEF7F000070419E
:107BE000504C02000000E03F17F01EF93A4B6A1EAD
:107BF000834653F82230BB420E463FF449AF5A4603
:107C00003346CAE900238AE72BA3D3E9002317F000
:107C10000DF92BA3D3E900230D46044617F006F90E
:107C200002460B46CAE900232946204617F0FCF815
:107C300023A3D3E9002317F0F9F84FF0FF35CAE981
:107C40000201CDE60323AAE61FA3D3E90023DDE961
:107C5000040117F0A1FADDE9068906460F4602463F
:107C60000B464046494617F0DFF802460B464046B1
:107C70004946CDE9022317F0D7F832463B4617F0C4
:107C8000D3F813A3D3E9002306460F46DDE9040128
:107C900017F082FA32463B4617F0C6F802460B460A
:107CA00080468946DDE9020117F0BEF883460E469C
:107CB000A5E700BFAFF300800000601A61B4D03DBB
:107CC0007370032E8A19A33B0000002E8A19A33B70
:107CD000C14920259A837B39D04B02000000000067
:107CE000574A2DE9F84F21F0004890450E460746C7
:107CF0002CDC544B0029B4BF534D544D98454FF0E4
:107D0000000411DC524B984526DC4BA3D3E9002339
:107D100017F08CF800224F4B17F0CEFC002840D013
:107D200038463146BDE8F88F4B4B984530DD4B4B1C
:107D3000984568DD0133984562D0384631463EA308
:107D4000D3E9002317F028FABDE8F88F02460B4666
:107D500017F06CF8BDE8F88F17F0DEFF01F054F86B
:107D60003F4B984506460F4623DD0022394B17F05E
:107D70005DF802460B463046394617F037FB32466F
:107D80003B4617F053F822462B4617F005FAE1E779
:107D900017F0C2FFFEF740FC22462B4617F0FCF915
:107DA000D8E73846314617F0B7FF01F02DF8064600
:107DB0000F4632463B463046394617F037F83246D2
:107DC00082468B463B463046394617F0E5F900229D
:107DD000804689461F4B3046394617F027F8024641
:107DE0000B464046494617F001FB02460B465046FB
:107DF000594617F019F822462B4617F0CDF9A9E796
:107E0000184B984299D83846314617F085FF002222
:107E10000E4B17F0C1F9FEF7FFFB06460F46024670
:107E20000B462046294617F0B7F932463B4617F075
:107E3000B3F98FE7AFF300803374AC3C1F7BAC7FAA
:107E4000FFFFEF7FFFFF35400000E0BF0000E03F95
:107E5000FFFF2F3E0000F03F412E8640CD3386408D
:107E6000FFFFEF3F7DF8B98F2DE9F04F21F000467D
:107E7000B6F1795F85B00C4692469B4605466BDAB3
:107E800017F03AFC002800F0E2802A4623462846F4
:107E9000214617F081F974A3D3E90023804689466F
:107EA00017F07AF972A3D3E9002316F0BFFF424618
:107EB0004B4617F071F970A3D3E9002316F0B4FF15
:107EC00042464B4617F068F96DA3D3E9002316F03C
:107ED000ADFF42464B4617F05FF96BA3D3E9002391
:107EE00016F0A2FF42464B4617F056F968A3D3E9B5
:107EF000002316F09BFF42464B4617F04DF9CDE9A3
:107F000000010022644B4046494617F045F9DDE97F
:107F1000002306460F464046494617F03DF95246B3
:107F2000804689465B462846214617F035F90246C9
:107F30000B464046494616F077FF02460B46304650
:107F4000394616F071FF02460B460020534916F0E1
:107F50006BFF05B0BDE8F08F02460B4617F01CF929
:107F600041A3D3E900238046894617F015F940A3C1
:107F7000D3E9002316F05AFF42464B4617F00CF99E
:107F80003DA3D3E9002316F04FFF42464B4617F0BE
:107F900003F93BA3D3E9002316F048FF42464B46C2
:107FA00017F0FAF838A3D3E9002316F03DFF424654
:107FB0004B4617F0F1F836A3D3E9002316F036FF4D
:107FC0004B46424617F0E8F8354B9E42CDE900019A
:107FD00097DD344B9E424FF000023DDCA6F50013C6
:107FE00000202E4916461F4616F01EFFCDE902015D
:107FF0000022294B4046494617F0CEF832463B4610
:1080000016F012FFDDE9002306460F4640464946BA
:1080100017F0C2F85246804689465B4628462146FC
:1080200017F0BAF802460B464046494616F0FCFEE9
:1080300002460B463046394616F0F6FE02460B461F
:10804000DDE9020116F0F0FE05B0BDE8F08F13493E
:10805000002005B0BDE8F08F134B144FCDE902238B
:108060000026C5E7AFF30080D43888BEE9FAA8BD82
:10807000C4B1B4BD9EEE213EAD529C804F7E923E77
:108080009015CB19A001FA3E7751C1166CC1563F2D
:108090004C5555555555A53F0000E03F0000F03FB9
:1080A0003233D33F0000E93F0000E73F0000D23FFA
:1080B0002DE9F04FADF5197DBE4CA29EBE4D54F892
:1080C00026700793D41E85FB0465E417C4EBA50452
:1080D00024EAE4741D46631CA3EB8303013D02EB19
:1080E000C30305937B1909940497019506460B91E8
:1080F000A4EB05041BD423445D1C20AF4FF0000803
:108100004FF00009DDF88CA208E05AF8240016F0C0
:10811000D9FF0134AC42E7E8020108D0002CF4DAC0
:10812000013440464946AC42E7E80201F6D1049BDF
:10813000002BC0F2B083079BA6F10802DB001146BA
:10814000039220AA02EB0309029301EB0308049BAC
:1081500072AA02EBC30B0DF5E07A019B002BC0F273
:108160009581039C4D460026002775E90223F4E91A
:10817000020117F011F802460B463046394616F058
:1081800055FE444506460F46EFD1EAE80267DA4558
:1081900009F10809E1D1DDE90204049920448B00CA
:1081A00082460BA8A3F10802C31808930CAB134432
:1081B0000A938B4698AB03EBCB03BBF1000F53E95B
:1081C000284529DD70AB03EBCB080DF13009002207
:1081D0007A4B2046294616F0DFFF17F08DFA16F08D
:1081E00071FF0022764B06460F4616F0D5FF024679
:1081F0000B462046294616F017FE17F07DFA78E95F
:10820000022349F8040B3946304616F00FFE70ABD6
:10821000984504460D46DAD1DDF8149020462946EB
:108220004A4601F039F800224FF07F5304460D46CC
:1082300016F0B2FFFCF724FF0022624B16F0ACFFF1
:1082400002460B462046294616F0EEFD0D46044632
:1082500017F052FA804616F035FF0B4602462946C3
:10826000204616F0E1FD4B46002B06460F4640F334
:10827000E1800BF1FF320CA9C9F1180351F822502B
:1082800045FA03F101FA03F30CA8EB1A40F8223087
:10829000C9F11705884443FA05F5002D2CDDBBF123
:1082A000000F08F1010840F394820C9C002C40F070
:1082B000A780BBF1010F0AD00CA9012251F8044F8D
:1082C000531C002C40F09E809B451A46F6D1059B1E
:1082D000002B0EDD012B00F09C81022B09D10BF14C
:1082E000FF320CAB0CA953F82230C3F3150341F84D
:1082F0002230022D00F0AF800022002330463946A4
:1083000017F0B2F9002800F06682049B0BF1FF39E8
:108310004B4510DC0BF180430CAA013B089802EBA3
:108320008303002253F80419834242EA0102F9D17F
:10833000002A40F0B580049B0CAA013B52F8233080
:10834000002B40F0A1800A9A012352F8041901334E
:108350000029FAD05B440BF101099945069349DCE9
:10836000099A079909EB020801EB0B0508F180480F
:1083700002EB030BA39B08F1FF3803EB880870ABFB
:1083800003EBC909A39B20A903EB8B0301EBC505F4
:10839000029358F8040F16F095FE019B002BC5E9D7
:1083A000000105F1080B28DB083D039C002600278F
:1083B0000CE000BFF0500200ABAAAA2A0000703EF9
:1083C000000070410000204075E80201F4E902233A
:1083D00016F0E2FE02460B463046394616F026FD00
:1083E000544506460F46EFD1029B9845E9E80267DF
:1083F0005D46CED1DDF818B0DCE600260027F3E7B5
:10840000012300220CA9C4F180749B4541F822404D
:108410000EDD51F8232001EB8B0001EB83036FF09D
:108420007F4100E01A688A1A43F8042B8342F9D18D
:1084300001244CE706D10BF1FF330CAA52F823506C
:10844000ED152AE70022BE4B17F02CF9002840F06A
:10845000B981054650E732463B460020B94916F03F
:10846000E3FC06460F46002C3FF446AF059AB5499B
:10847000002000F011FF02460B463046394616F048
:10848000D3FC06460F4637E7012363E700260027A3
:10849000EAE80267DA4509F108097FF45EAE7AE698
:1084A0000CAB059A53F82930183ACDE906850592A8
:1084B0006BB909F18043013B0CA901EB830353F82D
:1084C000041909F1FF39183A0029F8D00592059AE4
:1084D0009C49002000F0E0FEB9F1000F04460D4673
:1084E000C0F2E0814FEAC90370AA02EB03080893C7
:1084F0000CAB03EB8906DFF850B208F1080704362D
:108500004FF0000A56F8040D16F0DCFD22462B460B
:1085100016F042FE5B4667E90201524620462946B4
:1085200016F03AFE0CAB9E4204460D46EAD148AB2B
:1085300003930193CDF8149009F10103DDF8109035
:108540000293C3464FF0000AB9F1000FC0F2378121
:10855000DFF8F8815D4678A3D3E9002300260027E1
:10856000002403E0544510DCF8E80223F5E802019A
:1085700016F012FE02460B463046394616F056FCFF
:108580000134A14506460F46ECDA019BE3E8026799
:108590000193029B0AF1010A9A45ABF1080BD3D172
:1085A000A29BDDF81490032B2CD8DFE813F0E80031
:1085B000D300D3003F00079B00200146002B40F072
:1085C00043810D460B460B990446C1E900450399CA
:1085D0000246D1E9000116F027FCB9F1000F0CDDCD
:1085E000039D0124F5E90223013416F01FFCA14587
:1085F000F8DA079B002B40F037810B460B990246B7
:10860000C1E90223069B03F007000DF5197DBDE8C3
:10861000F08F0BF1FF320CAB0CA953F82230C3F3EF
:10862000160341F8223064E648AB0393B9F1000F1A
:1086300040F35581039ACDF808904FEAC90302EB45
:108640000308D8E900AB0193914658E90267524606
:108650005B463046394616F0E9FB04460D460246B5
:108660000B463046394616F0DFFB52465B4616F0A5
:10867000DDFBC8E9000168E90245C145A246AB46F9
:10868000E3D1DDF80890B9F1010F40F32881019B97
:10869000039A1344D3E9006701939A460DF5947B3E
:1086A0005AE9028932463B464046494616F0BEFB2F
:1086B00004460D4602460B464046494616F0B4FBBA
:1086C00032463B4616F0B2FBCAE900016AE90245B0
:1086D000D34526462F46E3D10399019C002301F19F
:1086E0001005083419461E46304674E9022316F078
:1086F0009DFBA5420346F6D10A460399D1E9008CB9
:10870000D1E902E90799002900F0B1800B9C2361AF
:10871000069BC4F800800CF1004009F1004102F111
:108720000042606003F00700E1606261C4F808E0A5
:108730000DF5197DBDE8F08F00000040FB21F93FE9
:108740000000E03F0000F03F0000703E10350200E6
:1087500048AB0393B9F1000FFFF62DAF039F002044
:1087600007EBC9060836014676E9022316F05EFBE0
:10877000B742F9D1079B002B3FF423AF64E0089C7C
:10878000039D083400222C4411461646304674E9F5
:10879000022316F04BFBA5420246F6D10B46079981
:1087A00009B103F1004319460B9B1046C3E90001D0
:1087B000069B03F007000DF5197DBDE8F08F00263C
:1087C0000027E2E6BBF1000F08F101087DDD02257C
:1087D0006BE500247BE5CDE90685059D30463946ED
:1087E0006A4200F059FD00223E4B06460F4616F045
:1087F00059FF00B300223C4B3046394616F0CCFC02
:1088000016F07AFF044616F05DFC0022354B16F098
:10881000C3FC0B4602463946304616F005FB16F0FF
:108820006BFF0BF101090CAB183543F82B000595D4
:1088300043F829404BE63046394616F05DFF0CAB55
:10884000D94643F82B0042E60B9C0B4601F1004150
:10885000C4E9000103990246D1E9000116F0E4FAE7
:10886000B9F1000F3FF7BCAE01F10041C5E6184673
:108870000B9B4646744667464D461146C3E90401C4
:10888000C3E90067C3E90245069B03F007000DF545
:10889000197DBDE8F08FA6F108030393079BDB0069
:1088A000029378E4A29B032B3FF6ACAE01A252F8F0
:1088B00023F000BFC58800005187000051870000E9
:1088C000298600000022134669E732463B46002015
:1088D000064916F0A9FA022506460F460CE50023C4
:1088E0001A460AE7000070410000703E0000F03FA9
:1088F0002DE9F04F21F00046B6F1795F85B00C46C6
:1089000090469946054604DA16F0F6FE002800F077
:1089100085802A4623462846214616F03DFC064619
:108920000F4602460B462846214616F035FC3EA36C
:10893000D3E9002382468B463046394616F02CFC9C
:108940003BA3D3E9002316F06FFA32463B4616F0FC
:1089500023FC39A3D3E9002316F068FA32463B46DC
:1089600016F01AFC36A3D3E9002316F05DFA32465E
:108970003B4616F011FC34A3D3E9002316F056FA57
:108980000E9BCDE900019BB30022334B4046494684
:1089900016F002FCDDE90023CDE9020150465946FC
:1089A00016F0FAFB02460B46DDE9020116F03CFA2E
:1089B00032463B4616F0F0FB42464B4616F034FA80
:1089C00023A3D3E9002306460F465046594616F026
:1089D000E3FB02460B463046394616F027FA0246BC
:1089E0000B462846214616F01FFA05B0BDE8F08F69
:1089F00002460B463046394616F0CEFB14A3D3E9A7
:108A0000002316F011FA52465B4616F0C5FB2A46C3
:108A1000234616F00BFA05B0BDE8F08F2846214634
:108A200005B0BDE8F08F00BF7CD5CF5A3AD9E53DFF
:108A3000EB9C2B8AE6E55A3E7DFEB157E31DC73E0F
:108A4000D561C119A0012A3FA6F810111111813F6B
:108A5000495555555555C53F0000E03F0000000001
:108A60002DE9F04FDA4C21F00046A64287B08A4645
:108A700089461746984683461BDC16F03DFE0028C3
:108A800039D1109B5A4601331343334300F0A88178
:108A9000109B012B00F0B1815A4653460020CD496E
:108AA00016F0A4FC04460D462046294607B0BDE852
:108AB000F08FC94B9E421EDD002904DA01F100430C
:108AC00008F100489A465A465346A3A1D1E900014D
:108AD00016F0AAF93A46434604460D46A0A1D1E94C
:108AE000000116F0A1F922462B4616F09FF9002747
:108AF00083468A46B8465A4653465846514616F06B
:108B00004BFB03460C46CDE9003402460B4616F0FB
:108B100043FBDDE9002304460D465846514616F056
:108B20003BFB91A3D3E90023CDE90201204629466E
:108B300016F032FB8EA3D3E9002316F077F9224614
:108B40002B4616F029FB8CA3D3E9002316F06EF90F
:108B500022462B4616F020FB89A3D3E9002316F00A
:108B600065F922462B4616F017FB87A3D3E90023AD
:108B700016F05CF922462B4616F00EFB84A3D3E9CF
:108B8000002316F053F9DDE9002316F005FB82A35C
:108B9000D3E90023CDE904012046294616F0FCFA6A
:108BA0007FA3D3E9002316F041F922462B4616F0A5
:108BB000F3FA7DA3D3E9002316F038F922462B46B9
:108BC00016F0EAFA7AA3D3E9002316F02FF9224629
:108BD0002B4616F0E1FA78A3D3E9002316F026F924
:108BE00022462B4616F0D8FA75A3D3E9002316F0D7
:108BF0001DF902460B46DDE9040116F017F9DDE91F
:108C0000022316F0C9FA3A46434616F00FF9DDE999
:108C1000002316F0C1FA3A46434616F007F96AA354
:108C2000D3E9002304460D46DDE9020116F0B4FA4B
:108C300022462B4616F0FAF8CDE900010B46024613
:108C40005146584616F0F2F8634B9E4204460D46D4
:108C50003EDC109B012B36D002460B4600205D49BE
:108C600016F0C4FB00240F4606465A4653462046DB
:108C7000294616F0D9F8A04602460B46DDE9000168
:108C800016F0D2F842463B4616F086FAA94604464C
:108C90000D4642463B464046494616F07DFA0022C4
:108CA0004E4B16F0C3F802460B462046294616F0F6
:108CB000BDF832463B4616F06FFA42463B4616F088
:108CC000B5F804460D462046294607B0BDE8F08FAA
:108CD000109816F0F7F9224606460F462B46204616
:108CE000294616F059FA3246CDE902013B462046A4
:108CF000294616F09BF802460B46DDE9020116F004
:108D000075FBDDE9002316F08FF802460B46584646
:108D1000514616F089F802460B4616F087F80246CF
:108D20000B463046394616F07FF804464FEAA970E4
:108D300000F00200C0F101000D4616F0C3F9024632
:108D40000B462046294616F027FA04460D462046D3
:108D5000294607B0BDE8F08F182D4454FB21E93FA8
:108D6000075C143326A6813CD47ABF74702AFB3E7C
:108D7000E9A7F0320FB8123F68108D1AF726303F7E
:108D80001583E0FEC8DB573F93846EE9E326823FFC
:108D9000FE41B31BBAA1AB3F735360DBCB75F3BE8F
:108DA000A69237A0887E143F0165F2F2D844433F73
:108DB000280356C9226D6D3F37D60684F464963F6A
:108DC0007AFE10111111C13F635555555555D53FC8
:108DD000FFFF2F3E0000F0BF2794E53F0000F03F6B
:108DE0005846514616F098FF02460B4600200449AB
:108DF00016F0FCFA04460D4665E75C46554662E708
:108E00000000F03F000000002DE9F04FCA4A21F0B9
:108E10000043934285B00C460E46054620D9C74A0A
:108E2000934200F2D480002E80F2A081AAA3D3E95D
:108E300000232846214615F0F9FF0022002316F0F2
:108E40001DFC002840F0CE80A5A3D3E900232846CE
:108E5000214616F0A1F902460B460020B84990E1E0
:108E6000B84A934200F2E280B74A934240F22B8123
:108E7000002301930022B54B2846214616F08CF9B9
:108E800006460F4602460B462846214616F084F950
:108E900095A3D3E9002382468B4616F07DF994A36F
:108EA000D3E9002315F0C2FF52465B4616F074F971
:108EB00091A3D3E9002315F0B7FF52465B4616F0A5
:108EC0006BF98FA3D3E9002315F0B0FF52465B4640
:108ED00016F062F98CA3D3E9002315F0A5FF5246E2
:108EE0005B4616F059F90022994B15F09FFF80461A
:108EF000894602460B463046394616F04DF9024681
:108F00000B460020934915F08FFF064602460B469C
:108F10000F464046494615F087FF3246804689464F
:108F20003B462846214616F037F902460B460020FC
:108F3000894915F079FF02460B464046494616F02E
:108F400055FA52465B4616F027F9019E02460B463B
:108F5000002E4AD0DDE9026732463B4615F064FF39
:108F60002A46234616F018F932463B4615F05CFFB8
:108F70005B46524615F058FF019B013306460F46EB
:108F800000F01F81019B012B78D0019A531C392BD3
:108F90004FEA025600F22481019F132F40F35181C2
:108FA000019BC3F57F7A0AF1030A00224FEA0A53B4
:108FB00015F03CFF02460B462846214615F034FFCB
:108FC0000022634B15F032FF731819461BE0634A09
:108FD00093421BD9C1F313030343024640F01181AE
:108FE000002910DA00205E490DE02846214616F0DF
:108FF000D3F852465B4615F017FF02460B4628464B
:10900000214615F011FF05B0BDE8F08F40A3D3E96C
:10901000002316F051FB00283FF405AF3EA3D3E92F
:1090200000231046194616F0B7F8ECE74D4A934274
:1090300000F2EB8000293AA3D3E9002339DA15F0D6
:10904000F5FE39A7D7E900674FF0FF338046894620
:10905000019332463B464046494615F0E5FE02463E
:109060000B4605460C464046494615F0DDFE3246A5
:109070003B4615F0D9FECDE90201FBE62846214624
:109080000022394B16F0FAFA002800F0CB8028466F
:10909000214600222D4B15F0C9FE02460B463046F4
:1090A000394615F0C1FE00224FF0404316F074F827
:1090B000A9E715F0B9FE01238046894601931CA754
:1090C000D7E90067C5E714A3D3E9002315F0AEFE86
:1090D00002460B468FE700BF59F3F8C21F6EA50189
:1090E000FE822B654715F73F2DC3096EB7FD8ABE7B
:1090F0003952E686CACFD03EB7DBAA9E19CE143FBE
:109100008555FE19A0015A3FF41011111111A13F0C
:10911000EF39FAFE422E86409C7500883CE4377E8B
:109120000000E0FE422EE63F763C7935EF39EABD9D
:10913000763C7935EF39EA3D79684340412E8640E7
:109140000000E0BF422ED63FFFFF8F3C0000E03F13
:109150000000F03F0000084000001840FFFFEF7FD4
:109160000000F0BFB1A2F03F0000D0BF40A3D3E9A0
:1091700000232846214616F00FF802460B46002031
:10918000414915F053FE16F0B7FA019015F09AFF19
:1091900039A3D3E9002306460F4615F0FDFF02462A
:1091A0000B462846214615F03FFE35A3D3E90023A0
:1091B000804689463046394615F0EEFF06460F4692
:1091C00047E732463B462846214615F02DFE002251
:1091D0002D4B15F0E1FF00222B4B15F025FE12E779
:1091E0002A46234615F020FE02460B46002027495A
:1091F00015F01AFE731819460022244B15F014FEC0
:1092000001E70B4615F012FEFDE619A3D3E9002392
:1092100015F0C2FF002C02460B464FF00000AFDAFB
:109220001B49AEE732463B462846214615F0FCFD79
:1092300002460B4615F0FAFD0022144B15F0F6FD20
:10924000E1E64FF4001C2A4623464CFA07FA15F0D3
:10925000EBFDCAF17F594FF0000809F540190246AD
:109260000B464046494615F0DFFDADE6AFF3008002
:10927000FE822B654715F73F0000E0FE422EE63FD9
:10928000763C7935EF39EA3D0000E03F0000F03FE1
:109290000000E0BF00000000F8B5C1F30A53044627
:1092A0000D460E4617460BBB21F0004603463343DE
:1092B0001BD0354B002215F06FFF344B9F42044604
:1092C0000D4635DBC1F30A530E46363B3B4440F2B4
:1092D000FE72934232DC002B11DD26F0FF4626F4AD
:1092E000E00646EA035520462946F8BD40F2FF72E3
:1092F0009342EBD102460B4615F098FDF8BD13F1F1
:10930000350F28DA4CF250339F4222462B460ADDB5
:1093100019A1D1E9000118F0E7FF17A3D3E9002351
:1093200015F03AFFF8BD16A1D1E9000118F0DCFFF5
:1093300013A3D3E9002315F02FFFF8BD22462B46D7
:109340000DA1D1E9000118F0CFFF0BA3D3E9002351
:1093500015F022FFF8BD26F0FF4626F4E00636336E
:1093600046EA0355204629460022094B15F014FF12
:10937000F8BD00BFAFF300809C7500883CE4377EE9
:1093800059F3F8C21F6EA50100005043B03CFFFF27
:109390000000903C10B5054C237833B9044B13B151
:1093A0000448AFF300800123237010BD2802002081
:1093B000000000007852020008B5034B1BB10349BE
:1093C0000348AFF3008008BD000000002C0200201D
:1093D0007852020070B504460E4600F07DFA88B15E
:1093E0000368DB6A05469847082C0CD0A4F10903F2
:1093F000012B14D93246214610230D20BDE87040C0
:1094000004F064B970BD2B6828465B6A984702284F
:10941000F0DC2B6828461B6A04219847EAE72B6892
:1094200028465B6A98470528E4DC2B6828461B6AB7
:1094300008219847DEE700BF38B52DED028B0546C1
:1094400000F04AFA044640B10368DB6A9847032DEE
:1094500003D8DFE805F02F363D06BDEC028B002077
:1094600038BD20460DF004F907EE900A2046F8EECC
:10947000E78A0DF00DF907EE900A2046B8EEE78A6C
:109480000DF016F968EE087A07EE100AE8EEA87AF1
:10949000B8EEC77AE7EE077AF5EE407AF1EE10FA09
:1094A000B1EEE78A1BD4FDEEC87ABDEC028B17EE55
:1094B000900A38BDBDEC028B2046BDE838400DF067
:1094C000D7B8BDEC028B2046BDE838400DF0E0B8BF
:1094D000BDEC028B2046BDE838400DF0E9B817EE30
:1094E000900A17F0BBFBDEE738B5044600F0F4F94C
:1094F00058B10368DB6A0546984744B1012C04D192
:109500002846BDE83840FBF70FBA002038BD284692
:10951000BDE83840FBF7E8B910B5044600F0DCF9C7
:1095200028B1036821461B6ABDE81040184710BDEA
:109530000048704716FCFFFF704700BF10B5034B93
:10954000036004460CF070FE204610BD4843020044
:1095500010B5054B036004460CF066FE204619F07A
:1095600060FB204610BD00BF484302002DE9F041DA
:10957000032184B00546512001F010FDDFF854C3EB
:10958000C94B044604F00F06C4F3031714F48074A7
:1095900008BF6346C54831463A460BF0F1FF221C2E
:1095A00018BF012231463B46284610F0A1F900239E
:1095B000AB60BF480BF0E4FF4FF0FF31032001F038
:1095C000EDFC04F03BFB4FF0FF310446022001F0BC
:1095D000E5FC04F033FB002C55D0002853D00146A5
:1095E000204604F04DF90646002865D04FF0FF31C3
:1095F000462001F0D3FC3828044600F0D58019DD60
:109600003A2800F0BC8068285DD14FF0FF3101207E
:1096100001F0C4FC04F012FB80464C2019F00AFB58
:10962000052301934246009431462B4607460EF02F
:1096300075FD18E0302801D0322844D14FF0FF31B9
:10964000012001F0ABFC04F0F9FA80464C2019F03F
:10965000F1FAA4B20746052301934246009431462D
:109660002B460EF011FBAF603B6838469B6A98476B
:10967000A8680368DB6A98478E480BF081FF28468C
:1096800004B0BDE8F0818C480BF07AFF4FF0FF3159
:10969000192001F083FC04F0D1FA4FF0FF310446A9
:1096A000182001F07BFC04F0C9FA0146204604F0C2
:1096B000E7F80646002899D180480BF061FF28465C
:1096C00004B0BDE8F08101243268CDE900440023F4
:1096D000176AAB600F220DF10F0332213046B847F5
:1096E000002800F0A4803368CDE900440F221F6AEF
:1096F00030210DF10F033046B84700286BD0336896
:10970000CDE900440D221F6A38210DF10F033046C8
:10971000B847002800F091803368CDE900440D225D
:109720001F6A3A210DF10F033046B847002800F0B8
:10973000A0803268CDE900440DF10F03176A68215B
:1097400075223046B847002857D168215C480BF095
:1097500017FF4FF0FF31204601F020FC04F06EFAB5
:1097600080464C2019F066FA05246823CDE90034C0
:10977000424631462B4607460EF0D0FC73E74FF0C9
:10978000FF31012001F00AFC04F058FA8046442021
:1097900019F050FA052301934246009431462B46B6
:1097A00007460EF013FC5EE74FF0FF31012001F099
:1097B000F5FB04F043FA8046442019F03BFA0523F8
:1097C0000746019342462B46009431460EF0FEFBBD
:1097D0003C4B3B6047E7302139480BF0D1FE302449
:1097E0004FF0FF31012001F0D9FB04F027FA804649
:1097F0004C2019F01FFA07462DE733480BF0C0FE46
:10980000AF68002F7FF430AF4FF0FF31032001F03D
:10981000C5FB04F013FA30B12C480BF0B1FE28461A
:1098200004B0BDE8F0812A480BF0AAFE47E73221D8
:1098300023480BF0A5FE3224D2E7382120480BF054
:109840009FFE4FF0FF31204601F0A8FB04F0F6F92F
:109850008046442019F0EEF9052438230746CDE967
:10986000003442462B4631460EF0B0FB154B3B60B0
:10987000F9E63A2112480BF083FE4FF0FF31204603
:1098800001F08CFB04F0DAF98046442019F0D2F99B
:1098900005243A23CDE90034424631462B4607469B
:1098A0000EF094FBDFE600BF94350200A435020001
:1098B000C435020084360200D4350200E8350200C7
:1098C000143602006035020000360200283602001D
:1098D000643602009C35020038B5104C23680BB189
:1098E000986838BD4FF0FF31012001F057FB04F0BC
:1098F000A5F940B10C2019F09DF90546FFF736FE99
:109900002560A86838BD4FF0FF31032001F046FB09
:1099100004F094F90028EDD138BD00BF44020020C6
:1099200008B501F06DFCFBF75BFEBDE8084001F0F7
:10993000C5B900BF08B501F063FCFBF7C1FEBDE887
:10994000084001F0BBB900BF08B501F059FC16F0A2
:1099500059FABDE8084001F0B1B900BF08B501F0FF
:109960004FFC16F0CDFFBDE8084001F0A7B900BFDD
:1099700008B501F045FCFBF743FEBDE8084001F0E7
:109980009DB900BF08B501F03BFC16F069FCBDE8CD
:10999000084001F093B900BF08B501F031FCFBF7B6
:1099A000AFF8BDE8084001F089B900BF08B501F083
:1099B00027FC16F0ABFBBDE8084001F07FB900BF03
:1099C00070B5049E96420C4624DB15466BB9042AFA
:1099D00019D0022A02D110F0010310D001462A4604
:1099E000204607F04FFE002070BD10440D4410F8D3
:1099F000013D01F8013B8D42F9D1002070BD028884
:109A00000A80184670BD10F00303E7D102680A60AF
:109A1000184670BD0846002108F0C6FF4FF0FF3021
:109A200070BD00BF0830704740B1002905DB4368B6
:109A30008B4202DD0844007A70470020704700BF67
:109A400030B1002904DB43688B42C4BF4018027266
:109A5000704700BF40B1002905DB4368994202DA34
:109A60000844007A70470020704700BF830704D184
:109A7000030F0CBF0120002070470120704700BF7A
:109A800030B1002904DB43689942BCBF4018027220
:109A9000704700BFF8B5002B20DB00291EDB4668AD
:109AA0008E421BDB5468761AE51AB542A8BF3546CC
:109AB000002D13DB824202F108070C4600F1080674
:109AC0002A4605D0F918301907F0DCFD0020F8BD52
:109AD000F118381919F0E1F80020F8BD4FF0FF3007
