:020000040002F8
:1060000000000420C1BD0300E9BD0300EBBD030097
:10601000EDBD0300EFBD0300F1BD03000000000073
:10602000000000000000000000000000F3BD0300BD
:10603000F5BD030000000000F7BD0300F9BD03003B
:10604000FBBD0300FBBD030061BC030025BC0300D6
:1060500039BC0300FBBD030051AD030009C30300BD
:10606000FDB7030005B803000DB80300FBBD030036
:10607000FBBD0300FBBD0300FBBD0300FBBD030034
:10608000FBBD0300FBBD0300FBBD0300FBBD030024
:10609000FBBD0300FBBD0300FBBD0300FBBD030014
:1060A000FBBD0300FBBD030015B803001DB80300D2
:1060B000FBBD0300FBBD030000000000000000006A
:1060C000FBBD0300FBBD0300FBBD03004DBC030093
:1060D000FBBD0300FBBD0300FBBD0300FBBD0300D4
:1060E00089BC0300FBBD0300FBBD030000000000F2
:1060F00000000000FBBD03000000000075BC0300B1
:10610000000000000000000000000000000000008F
:10611000000000000000000000000000000000007F
:10612000000000000000000000000000000000006F
:10613000000000000000000000000000000000005F
:10614000000000000000000000000000000000004F
:10615000000000000000000000000000000000003F
:10616000000000000000000000000000000000002F
:10617000000000000000000000000000000000001F
:10618000000000000000000000000000000000000F
:1061900000000000000000000000000000000000FF
:1061A00000000000000000000000000000000000EF
:1061B00000000000000000000000000000000000DF
:1061C00000000000000000000000000000000000CF
:1061D00000000000000000000000000000000000BF
:1061E00000000000000000000000000000000000AF
:1061F000000000000000000000000000000000009F
:106200007CB0EE877CB0EE87FF00FF00FF00FF0050
:10621000FF00FF00FF00FF00FF00FF00FF00FF0086
:10622000FF00FF00FF00FF00FF00FF00FF00FF0076
:10623000FF00FF00FF00FF002DE9F04F85B0039144
:106240000778A7F10903042B044607F07F0200F149
:106250000100F5D9202AF3D02B2F04BF677804461C
:106260002D2F75D09FED427B8DED007B4FF0000808
:106270004FF000099FB34FF0000C25464FF0000A85
:10628000DFF8FCB0644619E018F0EEFF804689465E
:10629000304618F07FFF42464B4618F02FFE52461C
:1062A000804689465B46DDE900013CB319F006F9FA
:1062B000CDE90001A44615F8017F7FB1A7F13006B2
:1062C000092E52465B4640464946DDD9CCB92E2FB1
:1062D00017D115F8017F0124002FEFD12C4642463B
:1062E0004B46DDE9000118F0BFFF80468946039B5D
:1062F000404649461C6005B0BDE8F08F4FF0010CE8
:10630000D9E72C46BCF1000F29D042464B46DDE9C7
:10631000000118F0A9FF07F0DF07452F80468946E6
:10632000E5D10399681C0A2218F0CCFD14490246F5
:10633000002019F049FB02460B464046494618F03A
:1063400093FF804689464046494605B0BDE8F08F38
:106350009FED097B67788DED007B013486E7DFF8E0
:1063600024904FF000084046494605B0BDE8F08F44
:10637000000000000000F03F000000000000F0BF3F
:10638000000024400000F87F2DE9F0470023144668
:1063900000228046894619F0D9F928B109F1004355
:1063A00099462D232370013400220023404649469C
:1063B00019F0C2F928B13022002322706370BDE8C1
:1063C000F0874046494617F03BF919F0FDF973A3F1
:1063D000D3E9002307464946404619F0B7F900289B
:1063E0004ED170A3D3E900234046494619F0CCF9B9
:1063F000002845D10E2F07F1010540F3B980A7F120
:106400000E0632460020624919F0DEFA02460B46BB
:106410004046494619F052F800225E4B18F06EFDD6
:1064200019F00EFB002DA7F10F0E4FF0010C4DDD02
:10643000594FDFF87881012245F6F3294FF02E0AF3
:10644000494508BF40454FF030030AD3B0EB080080
:1064500061EB0901494508BF404503F10103F5D24D
:10646000DBB2237050EA010304F101084AD19542DE
:1064700052DD0132102A4FD0444677E90289DFE726
:10648000002F33DB3A460020414919F09DFA0246BD
:106490000B464046494619F011F83BA3D3E90023C7
:1064A00080468946012500264046494618F0DCFE14
:1064B0000022384B18F022FD19F0C2FA002DBC461C
:1064C0004FF0FF3E37464FF00006B1DC2346302246
:1064D0004FF02E0803F8022B84F80180FC4345D0CE
:1064E0001C4403F8012BA342FBD1A1E77A42002010
:1064F000274919F069FA02460B464046494618F00A
:10650000B3FECAE7954202F1010204BF84F801A07C
:1065100004F10208102AAFD16EB14246302102F8D0
:10652000011BC2F1010373444344002BF7DC2EEA44
:10653000EE7301339844BCF1010F12D0BCF1000F8F
:106540004FF0650388F80030C5BF2B2388F8013071
:1065500008F1010108F102016046BDE8F0470FF0C3
:106560006DBC002388F80030BDE8F0871C465FE76B
:10657000C7F10E020020064919F026FA3E460246EF
:106580000B46012790E700BF0000901EC4BCD64216
:10659000000024400000E03F580504008DEDB5A048
:1065A000F7C6B03E50EFE2D6E41A4B4400407A10F2
:1065B00070B54FF0FF3006F0DDFA04466FF07F4013
:1065C00006F0D8FA0646204618F0D4FD00220C4BFF
:1065D00018F04AFE044630460D4618F0CBFD06A3DF
:1065E000D3E9002318F06AFF02460B4620462946ED
:1065F00018F084FC70BD00BF0000E0DFFFFF6F43B8
:106600000000F03D000000002DE9F04F1D46138909
:10661000AB4288BF536885B004468CBF53F8250051
:10662000002090468A4606F019FF0022904B18F091
:106630001BFE19F0C9F8B8F808206B1C9A4288BFF5
:10664000D8F8042006468CBF52F82300002006F03C
:1066500005FF0022864B18F007FE19F0B5F8B8F8D0
:1066600008300235AB4288BFD8F8043007468CBFEB
:1066700053F82500002006F0F1FE002EC4E9006763
:1066800040F3E280002F40F3DF8071A3D3E90023C1
:10669000002584F8285016F0F5FE002200238046DD
:1066A000894619F053F840B14046494668A3D3E9FA
:1066B000002318F023FC8046894667A3D3E9002312
:1066C0004046494619F060F8C0B165A3D3E90023FC
:1066D0004046494619F044F880B1012340464946F6
:1066E00084F8283060A3D3E9002318F007FC58A3EE
:1066F000D3E9002316F0C6FE8046894600225D4B92
:106700004046494618F0B0FD16F0F0FB01F1004399
:1067100000221946564B18F0A7FD19F055F84946C6
:106720000546404616F09EFB0022514B18F09CFD9A
:1067300019F04AF8DAF804304F49B3F80CB0B3F85E
:106740000AA0A56007FB0BF303EB010806FB0AF6A2
:10675000019388FB05234FEA124C00960E444CEA45
:10676000034C06EA010383FB009A06EB0C0E0EEACB
:10677000010ED346CA468EFB00675246CDE902673A
:10678000120C42EA0B42DDE902AB0CEA010C8CFB75
:1067900000674FEA164956460A40360C46EA0B4651
:1067A00049EA074982FB05AB5F46C144B0445646FF
:1067B000CDE90267039FE060360C09EA010908EAA7
:1067C000010846EA074689FB05AB334488FB0556BA
:1067D000CDE9025655462D0C45EA0B45DDE902ABE5
:1067E0000B40AC4403EAE3770CEA010C554623EA7C
:1067F000E37367454FEA154502EAE276A8BF6746AC
:1068000045EA0B45634522EAE272B8BF6346AE44EF
:106810004E450EEA010EA8BF4E464A45B8BF4A464D
:106820007745A8BF77467345B8BF73464645A8BFAE
:106830004646C4E905634245B8BF424600980199FF
:10684000206261622761E261204605B0BDE8F08FF9
:10685000EA2E4454FB211940F4D64354FB21F93F5E
:10686000320D337F7CD91240EA2E4454FB2109407B
:106870000000F0400000E03F0000FFFF00000000CB
:106880002DE9F04F2DED028B044683B0C06818F05F
:1068900081FC80462069894618F07CFC824660694C
:1068A0008B4618F077FC024601F1004306460F467E
:1068B0004046494616F078FD18F0CEFFE0620546E6
:1068C00016F02AFC0190284616F0DAFB019B0546DB
:1068D000184618F071FC42464B4618F0C5FC80463D
:1068E0002846894618F068FC32463B4618F0BCFC46
:1068F00002460B464046494618F0FEFA02460B4651
:106900005046594616F050FD18F0A6FF002208EE3A
:10691000100A00233046394618F036FF28B3B5EE8A
:10692000C08AF1EE10FA1CDD11A7D7E9006718EE56
:10693000100A18F041FC02460B463046394618F062
:10694000DBFA32463B4618F0D9FA18F085FFA06210
:10695000E38843F00203E38003B0BDEC028BBDE8A3
:10696000F08F05A7D7E90067E1E784ED0A8AEFE732
:10697000EA2E4454FB21F93FEA2E4454FB21F9BF8F
:1069800008B510F021FDDFED0C7A07EE100A67EE76
:10699000277A17EE900A18F00FFC05A3D3E900231D
:1069A00018F08CFD18F010FF08BD00BFAFF3008099
:1069B000EA2E4454FB2119400000B44300000000BB
:1069C00008B510F015FDDFED0C7A07EE100A67EE42
:1069D000277A17EE900A18F0EFFB05A3D3E90023FE
:1069E00018F06CFD18F0F0FE08BD00BFAFF300809A
:1069F000EA2E4454FB2119400000B443000000007B
:106A0000494A21F0004393422DE9704304460D4664
:106A100049DC464A93420E460EDC3FA3D3E90023ED
:106A200018F06CFA0022424B18F0AEFE00284AD053
:106A300020462946BDE870833E4A934239DCB3F1D3
:106A4000804F40DD16F00AFA2246804689462B46E2
:106A50002046294618F008FC0022354B18F04EFA63
:106A600017F012F942464B4618F048FA02460B4618
:106A700000202F4918F022FD424604460D464B46A1
:106A80004046494618F03AFA02460B462046294647
:106A900018F034FA02F040F8002E08DC01F100434F
:106AA0001946BDE8708302460B4618F027FABDE888
:106AB000708316F0D3F902F02FF819A3D3E900235D
:106AC00018F01CFAE8E722462B462046294618F023
:106AD000CBFB804689462046294616F0BFF90022A6
:106AE00004460D46124B4046494618F007FA17F087
:106AF000CBF800220E4B18F001FA02460B46404636
:106B0000494618F0DBFC22462B4618F0F7F900F056
:106B1000A7FAC1E7AFF300809C7500883CE4377E9C
:106B2000EF39FAFE422EE63FFFFFEF7FFFFF2F3ED9
:106B30000000F03F0000B0412DE9F84FBE4B21F0BE
:106B400000469E4204460D468A460EDDBB4B9E42E1
:106B500000F3B18000F0AC80BAF1000F40F3EA809E
:106B600099A1D1E90001BDE8F88FB54B9E4200F331
:106B7000BA80A3F1DE739E4240F3A5804FF0FF3B45
:106B800022462B462046294618F06EFB02460B464D
:106B90008046894618F068FB8DA3D3E9002306469A
:106BA0000F4618F061FB8CA3D3E9002318F0A6F977
:106BB00032463B4618F058FB89A3D3E9002318F06E
:106BC0009DF932463B4618F04FFB87A3D3E90023DB
:106BD00018F094F932463B4618F046FB84A3D3E9FB
:106BE000002318F08BF932463B4618F03DFB82A398
:106BF000D3E9002318F082F942464B4618F034FBE3
:106C00007FA3D3E90023804689463046394618F0F1
:106C10002BFB7DA3D3E9002318F06EF932463B46E7
:106C200018F022FB7AA3D3E9002318F065F9324665
:106C30003B4618F019FB78A3D3E9002318F05CF960
:106C400032463B4618F010FB75A3D3E9002318F039
:106C500053F932463B4618F007FB02460B464046C6
:106C6000494618F04BF922462B4618F0FDFABBF1C5
:106C7000FF3F02460B4661D0724B734E4FEACB0B7F
:106C80005B44D3E9002318F037F922462B4618F06D
:106C900033F9B34402460B46DBE9000118F02CF946
:106CA000BAF1000F0DDA01F100431946BDE8F88F83
:106CB00000283FF451AF22462B462046294618F0C3
:106CC0001DF9BDE8F88F58A3D3E9002318F016F991
:106CD00000225E4B18F058FD00283FF44FAF2046CD
:106CE0002946BDE8F88F16F0B9F8594B9E42044684
:106CF0000D4629DCA3F550239E424EDC02460B468E
:106D000018F0FCF80022514B18F0F6F80022064665
:106D10000F464FF080432046294618F0EFF8024610
:106D20000B463046394618F0C9FB4FF0000B0446BD
:106D30000D4625E73EA1D1E90001C2E720462946DC
:106D400018F0DAF8BDE8F88F424B9E421ADC0022B8
:106D5000414B18F0D1F8002206460F463E4B204624
:106D6000294618F081FA0022384B18F0C7F802467D
:106D70000B463046394618F0A1FB4FF0020B044693
:106D80000D46FDE602460B460020344918F096FBFE
:106D90004FF0030B04460D46F2E600222B4B18F091
:106DA000ABF8002206460F46284B2046294618F02D
:106DB000A5F802460B463046394618F07FFB4FF0E7
:106DC000010B04460D46DBE6182D4454FB21F93F28
:106DD00011DA22E33AAD903FEB0D76244B7BA93FCD
:106DE000513DD0A0660DB13F6E204CC5CD45B73F9B
:106DF000FF8300922449C23F0D5555555555D53F47
:106E00002F6C6A2C44B4A2BF9AFDDE522DDEAD3F3A
:106E10006D9A74AFF2B0B33F711623FEC671BC3FDA
:106E2000C4EB98999999C93F9C7500883CE4377EDA
:106E3000182D4454FB21F9BFFFFF0F440000F07FE1
:106E4000FFFFDB3F80050400600504000000F03F09
:106E5000FFFFF23FFF7F03400000F83F0000F0BF5C
:106E60002DE9F041C1F30A57A7F2FF35132D024671
:106E70000B460C468846064620DC002D4ADB364F82
:106E80002F4101EA070C5CEA000C1CD030A3D3E9C7
:106E9000002318F033F80022002318F075FC48B1E5
:106EA000002C04DD4FF4801343FA05F5A84428EACA
:106EB0000704002621463046BDE8F081332D06DD6B
:106EC000B5F5806F38D010461946BDE8F081A7F2BD
:106ED00013474FF0FF3C2CFA07F70742F3D01CA3EF
:106EE000D3E9002318F00AF80022002318F04CFC24
:106EF0000028DFD0002C09DD142D22D00123C5F19C
:106F0000340503FA05F5AE1928BF984426EA0706AA
:106F10004446CFE70EA3D3E9002317F0EFFF00228A
:106F2000002318F031FC0028C4D0002C0CDB2643D1
:106F300005D00026094CBDE717F0E0FFC5E7344651
:106F4000B8E704F10108E1E700264FF00044B1E79B
:106F50009C7500883CE4377EFFFF0F000000F03F87
:106F60002DE9F041C1F30A57A7F2FF35132D024670
:106F70000B460C46884606461DDC002D3CDB364F92
:106F80002F4101EA070C5CEA000C19D030A3D3E9C9
:106F9000002317F0B3FF0022002318F0F5FBC8B35D
:106FA000002C04DA4FF4801343FA05F5A84428EACC
:106FB000070400262EE0332D06DDB5F5806F2DD0B9
:106FC00010461946BDE8F081A7F213474FF0FF3C89
:106FD0002CFA07F70742F3D01DA3D3E9002317F0DB
:106FE0008DFF0022002318F0CFFB98B1002C21DB8D
:106FF00026EA070644460DE015A3D3E9002317F05F
:107000007DFF0022002318F0BFFB18B1002C08DB25
:107010000026344621463046BDE8F08117F06EFF69
:10702000D0E724F000430D4A1E43002E18BF14463B
:107030000026EFE7142D08D00123C5F1340503FA2B
:1070400005F5AE1928BF9844D2E704F10108CFE74F
:107050009C7500883CE4377EFFFF0F000000F0BF06
:107060002DE9F04FD84B994287B08046894643DDE1
:10707000D64B99420E4600F3F480D54B994240F32B
:107080002D819FEDBB7B8DED047B4FEA215A044699
:10709000AAF2FF3ACF4BC6F313069E4246F07F5545
:1070A00000F3128145F44015204629460022CA4BC0
:1070B00017F022FF002204460D46C84B18F0D4F802
:1070C00022462B4618F0D0F8A046CDE90201A94689
:1070D000CDE90001002E3AD10022002320462946A6
:1070E00018F02AFB002800F01B81BAF1000F40F0D5
:1070F000858100200021B8E0B94B21F000449C427A
:107100000A460FDD0022B74B18F016FB002800F0EE
:10711000AF80002200230020B34918F0CFF907B058
:10712000BDE8F08FB14B9C4240F3AF80B04B1A44A6
:107130009A4240F2D3800022A84B18F095F84246BC
:107140004B4618F091F8CDE900014FF0000A0022FB
:107150004FF080434046494617F0D0FE02460B46AA
:107160004046494618F0AAF902460B4606460F4625
:1071700018F07AF880A3D3E9002304460D4618F0EE
:1071800073F87FA3D3E9002317F0B8FE22462B46FD
:1071900018F06AF87CA3D3E9002317F0AFFE22466B
:1071A0002B4618F061F87AA3D3E9002317F0A6FE66
:1071B00022462B4618F058F877A3D3E9002317F09E
:1071C0009DFE22462B4618F04FF875A3D3E9002305
:1071D00017F094FE22462B4618F046F872A3D3E926
:1071E000002317F08BFE22462B4618F03DF8DDE910
:1071F000002317F083FE32463B4618F035F804466C
:107200000D46BAF1000F00F0A880504617F0C2FFFB
:1072100067A3D3E9002382468B4618F025F866A3BE
:10722000D3E9002306460F465046594618F01CF88D
:10723000DDE9042317F062FE22462B4617F05EFEBE
:1072400002460B46DDE9000117F056FE42464B466A
:1072500017F052FE02460B463046394617F04CFEF8
:1072600003E002460B4617F049FE07B0BDE8F08F79
:1072700042464B464046494617F03EFE02460B4604
:1072800018F01CF907B0BDE8F08F0022594B17F039
:1072900035FE0022002318F077FA10B1564B9C42BD
:1072A00062DD42464B464046494617F0DDFF00226C
:1072B0004A4B17F0D9FF02460B464046494617F0A5
:1072C0001BFE07B0BDE8F08F45F40015C6F580162B
:1072D00020462946B6100AF1010AE7E600223E4B95
:1072E0004046494617F00AFE4FEA215AAAF2FF3AF1
:1072F000BAF1000F04460D460E4640F3BD804246EB
:107300004B4617F0F9FD02460B460020324917F0B4
:10731000F3FD22462B4618F0D1F8CDE90401B9E679
:1073200027A3D3E900232046294617F09DFF0246F4
:107330000B460020284917F0DFFDDDE9022317F096
:1073400093FF06460F46BAF1000F75D102460B4671
:107350002046294617F0D0FD87E702460B46DDE9B7
:10736000000117F0C9FDA6E7404649467DE700BF8A
:10737000000000000000000044523EDF12F1C23F56
:107380009FC678D0099AC33FDE03CB966446C73FB9
:10739000AF788E1DC571CC3F599322942449D23FBA
:1073A00004FA97999999D93F935555555555E53F05
:1073B0000000E0FE422EE63F763C7935EF39EA3DAB
:1073C000555555555555E53F7982DA3FFFFFEF7F1B
:1073D000FFFF3F439DA006000000F03F0000E03F9C
:1073E000FFFFEF3F0000F0BF000050C3FFFF1F3E54
:1073F0003C412D4000005043FFFF8F3C504617F0AA
:10740000C9FE24A3D3E9002306460F4617F02CFF3C
:10741000DDE9042317F072FD20A3D3E9002304461D
:107420000D463046394617F01FFF02460B462046F0
:10743000294617F063FD18E7504617F0ABFE17A377
:10744000D3E9002382468B4617F00EFF11A3D3E940
:107450000023804689465046594617F005FFDDE96E
:10746000042317F04BFD02460B463046394617F011
:1074700043FD22462B4674E70022054B17F03CFDE6
:1074800002460B464046494617F036FD41E700BF2D
:107490000000F03F763C7935EF39EA3D0000E0FE30
:1074A000422EE63F0000000008B516F04BF804A39A
:1074B000D3E9002318F002F808BD00BFAFF3008045
:1074C000EF39FAFE422EE63F2DE9F043DFF8B480B3
:1074D0008BB004460D4601F0F7F898F900300133FF
:1074E00006460F462CD022462B462046294618F049
:1074F00055F9814620BB2046294615F0AFFC1FA355
:10750000D3E9002318F040F9D0B1194A98F90030B6
:10751000CDF820900321CDE90445CDE90245CDE920
:10752000001293B113490020022BCDE9060111D1BD
:1075300017F070FC22230360089B9BB9DDE9066706
:10754000304639460BB0BDE8F0830B4B4FF060423C
:10755000CDE90623684617F0D9FA0028E8D0089B41
:10756000002BEBD017F056FC089B0360E6E700BF4A
:10757000381704000000F07FFFFFEF477DF8B98F58
:10758000CE338640FF8100202DE9F043DFF8E48010
:107590008BB004460D4601F047F998F900300133ED
:1075A00006460F4633D02046294617F0A9FA70B395
:1075B0002CA3D3E900232046294618F0E5F881469C
:1075C00050BB2AA3D3E900232046294618F0BEF871
:1075D000E8B198F90030204ACDF820900020002131
:1075E0000426022BCDE90445CDE902450096CDE9FC
:1075F0000601019229D0684617F088FA28B3089B43
:107600001BB117F007FC089B0360DDE906673046F5
:1076100039460BB0BDE8F0830F4A98F9003001926B
:1076200003210022CDE90445CDE9024500910892ED
:107630002BB90A4B4FF06042CDE90623DBE708493E
:107640000020022BCDE90601D5D117F0E3FB222360
:107650000360D4E7AFF3008040170400FFFFEF475B
:107660000000F07FEF39FAFE422E864051302DD5D2
:10767000104987C0FF8100202DE9F04FDFF82C93DF
:107680008DB006460F4614461D4601F09DFC99F943
:107690000080B8F1FF3FCDE9000136D022462B46ED
:1076A0002046294618F07AF8834670BB32463B469E
:1076B0003046394618F072F88246002840F0A28021
:1076C000304639460022002318F036F810B3002265
:1076D00000232046294618F02FF88346002867D05B
:1076E0009FEDA77B0122AC4BCDF828A00292CDE9FB
:1076F0000467CDE906458DED087B0393B8F1000FD3
:1077000041D09FEDA17B8DED007BDDE900010DB047
:10771000BDE8F08FDDE9000117F0F2F9804600289E
:1077200000F08D804FF0000A4FF0000BDDE9000102
:1077300052465B4618F000F80028E6D0304639463D
:1077400017F0DEF90028E0D02046294617F0D8F9D6
:107750000028DAD099F900308F4A039204210022E0
:10776000022BCDE90467CDE90645CDE908AB0291CE
:107770000A9203D002A817F0C9F950B917F04AFBD2
:107780002223036005E002A817F0C0F9002800F0EA
:107790009B800A9B1BB117F03DFB0A9B03609DED8C
:1077A000087B8DED007BDDE900010DB0BDE8F08FB9
:1077B0002046294617F0A4F90028A6D0002200236D
:1077C0002046294617F0C2FF00289ED0724A99F938
:1077D0000030CDF828B00121CDE90467CDE9064598
:1077E000CDE90212002B74D06C490020022BCDE9A8
:1077F000080172D117F00EFB212303600A9B002BB6
:10780000CDD0C8E7002200232046294617F094FF78
:1078100000283FF47AAF624B5F49CDF828B00022D0
:107820000120B8F1020FCDE904670290CDE90645C9
:10783000CDE908230391A6D1CDE9002365E73046C1
:10784000394617F05DF900283FF46CAF2046294611
:1078500017F056F900283FF465AFDDE90023104624
:10786000194617F09BFF99F900A000286BD103235C
:10787000DFF824C10A902946204602930022494B92
:10788000CDF80CC0CDE90645CDE9046717F0ECFC56
:1078900004460D46BAF1000F25D1DFF814B14FF0C0
:1078A000604A0022002330463946CDE908AB17F084
:1078B0004DFF38BB02A817F029F900289ED117F018
:1078C000A9FA2223036099E717F0A4FA21230360A1
:1078D0005FE79FED2B7B8DED087B02A817F016F973
:1078E00000288BD186E79FED2A7B002200233046BB
:1078F00039468DED087B17F029FFA0B9BAF1020FC8
:10790000DDD0D7E72046294617F008F922462B4656
:1079100017F012FFA0B9244B99F900A04FF0604274
:10792000CDE90823EAE72046294617F0F7F8224672
:107930002B4617F001FF18B9184B0022CDE9082398
:1079400099F900A0DAE70122134BCDF828800292C2
:10795000CDE90467CDE906450393BAF1000FB8D02D
:10796000002200231046194617F0A8FDBAF1020FB5
:10797000CDE908013FF43EAFAFE700BFAFF30080B1
:107980000000000000000000000000000000F03FC8
:10799000000000000000F07F581704000000F0FF16
:1079A0000000F03F0000E03FFFFFEFC7FF81002035
:1079B000FFFFEF47000000002DE9F84FC44E21F013
:1079C0000043B34204460D460DDD03F1404303F589
:1079D0008013034340F0B980002940F34081002028
:1079E0000021BDE8F88FBB4EB34208DCBA4A93428F
:1079F00000F3B5809CA1D1E90001BDE8F88F002912
:107A0000C0F2708102460B460020B44917F074FAA8
:107A10000022B34B17F028FC04460D4616F034F94B
:107A200093A3D3E90023894680462946204617F0D0
:107A30001BFC91A3D3E9002317F060FA22462B46E2
:107A400017F012FC8EA3D3E9002317F055FA224653
:107A50002B4617F009FC8CA3D3E9002317F04EFA4C
:107A600022462B4617F000FC89A3D3E9002317F028
:107A700043FA22462B4617F0F7FB87A3D3E90023EE
:107A800017F03CFA22462B4617F0EEFB84A3D3E90D
:107A9000002382468B462046294617F0E5FB82A349
:107AA000D3E9002317F028FA22462B4617F0DCFB17
:107AB0007FA3D3E9002317F021FA22462B4617F0C3
:107AC000D3FB7DA3D3E9002317F016FA22462B46F9
:107AD00017F0CAFB0022814B17F010FA02460B4642
:107AE0005046594617F0EAFC42464B4617F0BCFB9D
:107AF000002682468B4632464B463046494617F0B2
:107B0000B3FB02460B462046294617F0F5F93246EC
:107B100004460D464B464046494617F0EFF90246EB
:107B20000B462046294617F0C9FC02460B46504634
:107B3000594617F0E3F932464B4617F0DFF9024693
:107B40000B4617F0DBF9BDE8F88F02460B4617F03D
:107B5000D3F902460B4617F0B1FCBDE8F88F024698
:107B60000B4617F081FB42A3D3E9002306460F46DC
:107B700017F07AFB40A3D3E9002317F0BFF9324690
:107B80003B4617F071FB3EA3D3E9002317F0B4F98D
:107B900032463B4617F068FB3BA3D3E9002317F0BE
:107BA000ADF932463B4617F05FFB39A3D3E900231A
:107BB00017F0A2F932463B4617F056FB36A3D3E93D
:107BC000002317F09BF932463B4617F04DFB34A3D8
:107BD000D3E90023804689463046394617F044FBF6
:107BE00031A3D3E9002317F087F932463B4617F05B
:107BF0003BFB2FA3D3E9002317F080F932463B4625
:107C000017F032FB2CA3D3E9002317F075F93246A5
:107C10003B4617F029FB0022304B17F06FF9024664
:107C20000B464046494617F049FC22462B4617F0C2
:107C30001BFB02460B4622A1D1E9000117F05CF9BB
:107C400002460B462046294617F056F902460B46D7
:107C500005A1D1E9000117F04FF9BDE8F88F1AA18D
:107C6000D1E9000179E700BF182D4454FB21F93F09
:107C700009F7FD0DE13D023F88B20175E0EF493F94
:107C80003B8F68B52882A43F5544880E55C1C93F33
:107C90007D6FEB0312D6D43F555555555555C53F0D
:107CA00082922EB1C5B8B33F59018D1B6C06E63FD9
:107CB000C88A599CE52A00404B2D8A1C273A03406C
:107CC000075C143326A6913C182D4454FB2109402F
:107CD000FFFFEF3FFFFFDF3F0000603C0000F03F91
:107CE0000000E03F00225C4B17F008F900225B4BDC
:107CF00017F0BAFA40A3D3E9002304460D4617F063
:107D0000B3FA3FA3D3E9002317F0F8F822462B4635
:107D100017F0AAFA3CA3D3E9002317F0EDF82246A6
:107D20002B4617F0A1FA3AA3D3E9002317F0E6F89F
:107D300022462B4617F098FA37A3D3E9002317F011
:107D4000DBF822462B4617F08FFA35A3D3E9002340
:107D500017F0D4F822462B4617F086FA804689465B
:107D60002046294615F090FF2FA3D3E900230646AD
:107D70000F462046294617F077FA2DA3D3E90023B2
:107D800017F0BAF822462B4617F06EFA2AA3D3E969
:107D9000002317F0B3F822462B4617F065FA28A304
:107DA000D3E9002317F0A8F822462B4617F05CFA17
:107DB0000022294B17F0A2F802460B4640464946DE
:107DC00017F07CFB32463B4617F04EFA1EA3D3E970
:107DD000002317F091F832463B4617F08FF8024621
:107DE0000B4617F08BF802460B4619A1D1E90001AA
:107DF00017F082F8B1E600BF09F7FD0DE13D023F43
:107E000088B20175E0EF493F3B8F68B52882A43FF7
:107E10005544880E55C1C93F7D6FEB0312D6D43F40
:107E2000555555555555C53F82922EB1C5B8B33FEE
:107E300059018D1B6C06E63FC88A599CE52A004013
:107E40004B2D8A1C273A0340075C143326A6913C2D
:107E5000182D4454FB2109400000F03F0000E03F92
:107E6000414A91422DE9F84304460D4637DD3F4A29
:107E700091420B4608DD02F1795291423DDD024606
:107E800017F03CF8BDE8F88301F1404202F580129A
:107E900002432ED0B1F1804F37DC0022344B17F073
:107EA0002BF802460B4604460D4617F027F82246EB
:107EB00006460F462B462046294617F0D5F90246BE
:107EC0000B463046394617F019F815F0DDFE22460C
:107ED0002B4617F013F8BDE8F843FFF7C1B8024688
:107EE0000B4617F009F802460B4617F0E7FABDE813
:107EF000F88300200021BDE8F88300F00DFE18A3F0
:107F0000D3E9002316F0FAFFF1E7024617F0ACF9C7
:107F10000022174B16F0F0FF15F0B6FE2246804601
:107F200089462B462046294616F0E8FF224606469B
:107F30000F462B464046494616F0E0FF02460B46E8
:107F400000200B4917F0BAFA0B4602463946304674
:107F500016F0D2FFBDE8F84300F0DEBDAFF30080BD
:107F6000EF39FAFE422EE63FFFFFEF3FFFFFAF4142
:107F70000000F03F000000002DE9F04FAE4B21F073
:107F800000479F4287B004460D4611DD07F1404788
:107F900007F5801703463B4321D002460B4616F0F7
:107FA000ABFF02460B4617F089FA07B0BDE8F08F29
:107FB000A24B9F420E4629DCB7F1795F80F24681E1
:107FC00081A3D3E9002316F099FF00229C4B17F000
:107FD000DBFBD8B12046294607B0BDE8F08F7CA373
:107FE000D3E9002317F040F97BA3D3E90023064629
:107FF0000F462046294617F037F902460B46304611
:10800000394616F07BFF07B0BDE8F08F20462946C1
:1080100014F024FF02460B460020894916F06CFF3D
:108020000022884B17F020F96DA3D3E90023044602
:108030000D4617F019F96CA3D3E9002316F05EFF83
:1080400022462B4617F010F969A3D3E9002316F056
:1080500053FF22462B4617F007F967A3D3E9002305
:1080600016F04CFF22462B4617F0FEF864A3D3E926
:10807000002316F041FF22462B4617F0F5F862A3C5
:10808000D3E9002316F03AFF22462B4617F0ECF80E
:108090005FA3D3E90023CDE900012046294617F06C
:1080A000E3F85DA3D3E9002316F026FF22462B4612
:1080B00017F0DAF85AA3D3E9002316F01FFF22467F
:1080C0002B4617F0D1F858A3D3E9002316F014FF7C
:1080D00022462B4617F0C8F8594B002216F00EFF27
:1080E00082468B4620462946CDE902AB15F0CCFDF1
:1080F000554B9F428046894600F3198102460B4644
:1081000016F0FCFEDDE90223CDE90401DDE9000102
:1081100017F0D4F902460B46DDE9040117F0A4F884
:108120004FF0000ACDE9000152464B465046494601
:1081300017F09AF802460B462046294616F0DCFE58
:10814000524604460D464B464046494616F0D6FE7A
:1081500002460B462046294617F0B0F902460B4668
:1081600016F0CCFE02460B461BA1D1E9000116F029
:10817000C3FE02460B46DDE9000116F0BDFE524685
:1081800004460D464B465046494616F0B7FE024699
:108190000B4627A1D1E9000116F0AEFE02460B46C0
:1081A0002046294616F0A8FE02460B4620A1D1E93A
:1081B000000116F0A1FE002E3FF7F7AE01F10043DB
:1081C0001946F2E6AFF300809C7500883CE4377EE8
:1081D000182D4454FB21F93F075C143326A6913C2B
:1081E00009F7FD0DE13D023F88B20175E0EF493F1F
:1081F0003B8F68B52882A43F5544880E55C1C93FBE
:108200007D6FEB0312D6D43F555555555555C53F97
:1082100082922EB1C5B8B33F59018D1B6C06E63F63
:10822000C88A599CE52A00404B2D8A1C273A0340F6
:10823000182D4454FB21E93FFFFFEF3FFFFFDF3FD5
:108240000000F03F0000E03F3233EF3F02460B46B4
:1082500017F00AF84BA3D3E9002306460F4617F0A0
:1082600003F84AA3D3E9002316F048FE32463B4602
:1082700016F0FAFF47A3D3E9002316F03DFE32467D
:108280003B4616F0F1FF45A3D3E9002316F036FE76
:1082900032463B4616F0E8FF42A3D3E9002316F02E
:1082A0002BFE32463B4616F0DFFF40A3D3E9002306
:1082B00016F024FE32463B4616F0D6FF3DA3D3E926
:1082C0000023804689463046394616F0CDFF3BA351
:1082D000D3E9002316F010FE32463B4616F0C4FFE9
:1082E00038A3D3E9002316F009FE32463B4616F0C8
:1082F000BBFF36A3D3E9002316F0FEFD32463B4612
:1083000016F0B2FF00221E4B16F0F8FD02460B4697
:108310004046494617F0D2F822462B4616F0A4FFF5
:1083200022462B4616F0EAFD07B0BDE8F08F524614
:108330005B46DDE9000117F0C1F842464B4616F0F6
:1083400093FF42464B4616F0D9FD02460B4616F007
:10835000D5FD07A3D3E9002316F0CEFD02460B4658
:1083600005A1D1E9000116F0C7FD24E7AFF30080B5
:10837000075C143326A6913C182D4454FB21F93F89
:108380000000F03F09F7FD0DE13D023F88B20175A5
:10839000E0EF493F3B8F68B52882A43F5544880EE3
:1083A00055C1C93F7D6FEB0312D6D43F5555555586
:1083B0005555C53F82922EB1C5B8B33F59018D1BAB
:1083C0006C06E63FC88A599CE52A00404B2D8A1C62
:1083D000273A0340000000002DE9F84F1D465342A4
:1083E000134325F00049DFF8C8C149EAD373634558
:1083F000144606460F4626D8C0F1000848EA000891
:1084000021F0004A4AEAD878E04503468B461AD85C
:1084100005F1404808F5801858EA0208AE4643D0F6
:108420004FEAA57808F002085AEA030348EAD1782F
:1084300011D1B8F1020F55D0B8F1030F09D14AA1FB
:10844000D1E9000105E032463B462046294616F0B8
:1084500055FDBDE8F88F59EA020329D0E1452ED039
:10846000E24525D0AAEB09094FEA2959B9F13C0F99
:108470003CDC002D3EDA19F13C0F3BDA00200021F4
:10848000B8F1010F4ED0B8F1020F3ED0B8F1000F95
:10849000DFD037A3D3E9002316F02EFD36A3D3E9AE
:1084A000002316F029FDD4E7BDE8F84FFEF744BBE2
:1084B000BBF1000F12DB32A1D1E90001C9E7CA45C7
:1084C00034D0B8F1020F0DD0B8F1030FB7D0B8F126
:1084D000010F4FF0000036D00021BAE72AA1D1E900
:1084E0000001B6E724A1D1E90001B2E724A1D1E956
:1084F0000001C5E722462B463046394616F0DEFF1E
:1085000014F0ACFCFEF718FBBAE719A3D3E900237B
:1085100016F0F2FC02460B4617A1D1E9000116F055
:10852000EBFC96E701F10043194692E7B8F1020F20
:1085300014D0B8F1030F0DD0B8F1010F06D014A17B
:10854000D1E9000185E74FF0004182E712A1D1E9AE
:1085500000017EE712A1D1E900017AE712A1D1E979
:10856000000176E7AFF30080182D4454FB2109C0C9
:10857000075C143326A6A13C182D4454FB21094066
:10858000182D4454FB21F93F182D4454FB21F9BF09
:10859000182D4454FB21E93F182D4454FB21E9BF19
:1085A000D221337F7CD902C0D221337F7CD90240D3
:1085B0000000F07F0000000043422DE9F047034334
:1085C00021F000463C4A46EAD373934204460D46E6
:1085D0002AD8964240D0394B9E428A462EDD384BEF
:1085E0009E4235463FDD33460246314616F086FC54
:1085F000224606460F462B4600202F4916F07CFCEB
:1086000002460B463046394616F058FFFEF728FD65
:1086100000222C4B16F028FEBAF1000F0CDA01F103
:1086200000431946BDE8F08702460B4616F064FC8D
:1086300002460B4616F042FFBDE8F0871CA3D3E9C3
:10864000002316F05BFC0022002317F09DF848B1D0
:1086500020462946BDE8F0870022002316F02EFFB1
:10866000BDE8F087354622462B462046294616F0BF
:1086700045FC22462B4606460F4616F0F5FD2246DF
:10868000804689462B4600200B4916F035FC0246F1
:108690000B464046494616F011FF32463B4616F05F
:1086A0002DFCFEF7DDFC0022064B16F0DDFDB3E7E6
:1086B0009C7500883CE4377E0000F03FFFFF2F3EB2
:1086C000FFFFDF3F0000E03F2DE9F8434E4B21F074
:1086D00000449C4206460F461BDC4C4B9C4222DD6C
:1086E0004B4B9C4254DD4B4B9C4246DD4A4B9C42DB
:1086F0006FDD01339C4269D041A3D3E900231046CA
:10870000194616F0B1FD06460F4630463946BDE81B
:10871000F88302460B4616F0A7FD06460F46304684
:108720003946BDE8F88314F099FB02F04DFC0022B5
:108730003A4B8046894616F0E1FBB4F1725F06467B
:108740000F46ECDB42464B464046494616F08CFD50
:1087500032463B4604460D463046394616F0CEFBBF
:1087600002460B462046294616F0A8FE00222B4B57
:1087700016F0C4FB06460F46D1E714F06FFB00F07D
:1087800053F80022264B16F06FFD06460F46C6E74B
:1087900014F064FB00F048F80022214B06460F4617
:1087A00016F062FD324604460D463B4600201C4949
:1087B00016F084FE02460B462046294616F09EFB24
:1087C00006460F4630463946BDE8F883154B9842B9
:1087D00092D83046394614F041FB0022104B16F077
:1087E00043FD00F021F8002204460D460C4B16F024
:1087F0003BFD22462B4616F037FD06460F468EE718
:108800009C7500883CE4377EFFFFEF7F422ED63F09
:10881000FFFF3540412E8640CD3386400000F03FBB
:108820000000E03F7DF8B98F2DE9F047B04F21F00F
:108830000042BA4284B004460D464FEAD17610D9C0
:10884000AC4FBA4240F28A80C1F31303034302469D
:1088500040F0F180002E7ED00020002104B0BDE861
:10886000F087A54B9A4200F2B680A44B9A4240F2A0
:10887000D1804FF0000A22462B462046294616F0AA
:10888000F3FC85A3D3E9002306460F4616F0ECFC63
:1088900083A3D3E9002316F02FFB32463B4616F0A4
:1088A000E3FC81A3D3E9002316F028FB32463B46C4
:1088B00016F0DAFC7EA3D3E9002316F01DFB324646
:1088C0003B4616F0D1FC7CA3D3E9002316F016FB3F
:1088D00032463B4616F0C8FC02460B462046294667
:1088E00016F00AFB02460B4606460F46204629466E
:1088F00016F0BAFC80468946BAF1000F00F0AB8052
:1089000032463B4600204FF0804116F0F5FA024611
:108910000B464046494616F0D1FD02460B46DDE9BE
:10892000020116F0E9FADDE9002316F0E5FA0B463C
:1089300002467349002016F0DFFA6FF47F739A4500
:1089400080F2A3800AF57A7A01EB0A5100224FF0F7
:10895000B87316F089FC04B0BDE8F08758A3D3E9DA
:10896000002316F011FF00286BD157A3D3E9002391
:108970002046294616F0EAFE00287FF46DAF6149D3
:1089800053A3D3E9002301EBC6062046294616F07F
:108990006BFCD6E9002316F0B1FA16F015FF8246FB
:1089A00016F0F8FB4CA3D3E9002306460F4616F059
:1089B0005BFC02460B462046294616F09DFA48A36A
:1089C000D3E90023CDE900013046394616F04CFCCE
:1089D000CDE9020115E04C4B9A42D0D84B4BF40044
:1089E0002344D3E9002316F087FA494B234493ED3F
:1089F000007BCDE900018DED027BC6F1010AAAEBF7
:108A0000060ADDE90223DDE9000116F075FA0446E5
:108A10000D4630E734A3D3E9002316F06FFA0022A5
:108A2000374B16F0B1FEA8B3204629460022344B3E
:108A300016F064FA8FE70B4616F060FA04B0BDE852
:108A4000F08729A3D3E900231046194616F00CFC41
:108A500004B0BDE8F0873046394600224FF080432D
:108A600016F04AFA02460B464046494616F026FDE5
:108A700022462B4616F040FA02460B4600202049BB
:108A800016F03AFA04B0BDE8F08701EB0A5104B0E1
:108A9000BDE8F0878246EEE6D0A4BE726937663E36
:108AA000F16BD2C541BDBB3E2CDE25AF6A56113FEE
:108AB00093BDBE166CC1663F3E5555555555C53FD5
:108AC000EF39FAFE422E864051302DD5104987C02D
:108AD000FE822B654715F73F0000E0FE422EE63F81
:108AE000763C7935EF39EA3D9C7500883CE4377E69
:108AF000412E8640FFFFEF7F422ED63FFFFF2F3EE5
:108B00000000F03FA0050400B1A2F03FB005040052
:108B1000C0050400000000002DE9F04FB1F5801FF2
:108B200085B006460F460B4680F2D08021F0004209
:108B3000024300F0DA800029C0F2E9800022D64B1F
:108B400016F092FBD54A0B46934206460F466FF04D
:108B5000350E00F3C180C3F3130505F5152C0CF693
:108B6000647C0CF4801C8CF07F5282F440121C1543
:108B700042EA0507A4F2FF3474440022C84B304691
:108B8000394604EB1C5416F0B7F9AB1CC3F31303BE
:108B9000022B82468B464FF0000240F3AF804FF02D
:108BA000804316F0ABF902460B465046594616F084
:108BB00085FC064620460F4616F0ECFA3246CDE913
:108BC00002013B4630463946CDE9006716F04CFBC2
:108BD00002460B468046894616F046FB9AA3D3E927
:108BE000002306460F4616F03FFB99A3D3E9002366
:108BF00016F084F932463B4616F036FB96A3D3E9CD
:108C0000002316F07BF932463B4616F02DFB94A369
:108C1000D3E9002316F072F942464B4616F024FBC6
:108C200091A3D3E90023804689463046394616F0A1
:108C30001BFB8FA3D3E9002316F060F932463B46B5
:108C400016F012FB8CA3D3E9002316F057F9324635
:108C50003B4616F009FB0B4602464946404616F0D5
:108C60004DF9A5F5C223C5F5D725A3F27A435135B1
:108C70001D43002D06460F4640F387800022894B96
:108C80005046594616F0F0FA52465B4616F0ECFA9A
:108C900002460B46804689463046394616F02EF984
:108CA000DDE9002316F0E0FA06460F46002C40F0FE
:108CB000818002460B464046494616F01DF90246A1
:108CC0000B465046594616F017F90BE0734A93428B
:108CD0004FF0000E7FF73FAF32463B4630463946F5
:108CE00016F00CF905B0BDE8F08F0022002300203B
:108CF0006D4916F0E3FB05B0BDE8F08F002316F0D8
:108D00001BFD60B1002C7CD100200021EAE7024667
:108D100016F0F2F80022002316F0D0FBE2E758A389
:108D2000D3E900235046594616F09EFA02460B46F8
:108D300000205C4916F0E0F8524606460F465B46B6
:108D40005046594616F090FA02460B4630463946D0
:108D500016F08AFA06460F462CB3204616F01AFA89
:108D600049A3D3E900238046894616F07DFA48A33B
:108D7000D3E9002304460D464046494616F074FAEE
:108D800002460B46304639462CE002460B4650461A
:108D9000594616F0B1F8DDE9002316F065FA0646EB
:108DA0000F46002C47D132463B465046594616F0F6
:108DB000A3F897E734A3D3E90023DDE9020116F015
:108DC00053FA33A3D3E9002304460D46DDE902013B
:108DD00016F04AFA32463B4616F090F802460B4629
:108DE0004046494616F088F852465B4616F084F82D
:108DF00002460B462046294616F07EF805B0BDE82F
:108E0000F08F204616F0C6F91FA3D3E900230646CB
:108E10000F4616F029FA1EA3D3E9002304460D4697
:108E20003046394616F020FA02460B4620462946BF
:108E300016F064F856E7DDE9028913A3D3E90023AD
:108E40004046494691E700BF44523EDF12F1C23F1F
:108E5000DE03CB966446C73F599322942449D23F00
:108E6000935555555555E53F9FC678D0099AC33F50
:108E7000AF788E1DC571CC3F04FA97999999D93F67
:108E8000555555555555D53F0000E0FE422EE63F5D
:108E9000763C7935EF39EA3D00005043FFFFEF7F24
:108EA0000000F03F0000E03F000050C30000000061
:108EB000B1F5801F2DE9F84304460D460B4619DA3B
:108EC00021F00042024359D000295FDB00223A4BD7
:108ED00016F0CAF9394A0D462B46934204466FF004
:108EE00035010CDD22462B462046294616F006F8B1
:108EF000BDE8F883314A93424FF00001F2DC1815C7
:108F0000A0F2FF3008444FEAD0794844C3F3130875
:108F100016F040F9C9F57F73033348EA0355064656
:108F20000F4620462946FFF7F7FD1DA3D3E900238E
:108F3000804689463046394616F096F91AA3D3E999
:108F4000002304460D464046494616F08DF9024678
:108F50000B462046294615F0D1FF15A3D3E900237F
:108F600004460D463046394616F07EF902460B4659
:108F70002046294615F0C2FFBDE8F88300220023F1
:108F800000200F4916F09AFABDE8F883024615F062
:108F9000B3FF0022002316F091FAA9E7AFF3008097
:108FA000362BF111F3FE593D0EE526157BCBDB3F49
:108FB00000609F501344D33F00005043FFFFEF7FFA
:108FC000000050C3000000002DE9F04F23F00045E1
:108FD00055EA020493B00DD06B4E21F00044B44228
:108FE0000F4682460BDD04F1404404F5801454EA38
:108FF0000A0350D16549002013B0BDE8F08F9B46AD
:10900000944647D0B542EEDC5F4EB5425DD0002FAE
:1090100080468946CDE900235BDB0026BCF1000FCA
:109020000ED1594B9D423FD0584B9D4200F0888055
:10903000BBF1804F00F09C80554B9B4500F0B883FE
:109040004046494613F00AFFBAF1000F06D1002C42
:1090500059D04E4B27F040429A4254D0FF0F013F67
:1090600056EA070373D04B4B9D4240F39B8003F1BC
:1090700004739D4240F33E84474B9C4272DDBBF13A
:10908000000F72DD3EA3D3E900231046194616F007
:10909000EBF8B1E728B1414813B0BDE8F04F15F047
:1090A00037BDA542F7DCAFE704F1404303F5801379
:1090B00053EA0A039ED0384B9C4240F38383BBF1B2
:1090C000000F52DBDDE9000196E7BCF1000F9ED0F6
:1090D00089E7334B9D4231DCA3F154739D429CDD03
:1090E0002B15A3F2FF33142B40F3A583C3F13403F4
:1090F0002CFA03F202FA03F363458ED102F0010267
:10910000C2F102068AE7BBF1000F05DA02460B4600
:1091100000201E4916F0D2F9002FBFF66DAF04F102
:10912000404404F5801454EA060300F03F84012E05
:109130007FF462AF01F1004319465DE702266DE757
:10914000BBF1000FC0F248834046494654E742460F
:109150004B461046194615F0CFFE02460B4616F058
:10916000ADF949E7BBF1000F8CDB0020002143E79C
:1091700042464B464046494616F076F83CE700BF6B
:109180009C7500883CE4377E0000F07F0000F03FD3
:109190000000E03F0000E041FFFFEF3F040E04004D
:1091A000FFFF3F43B4F5801F80F261830022D24B62
:1091B00016F05AF86FF0340C0C462315CF4DC4F35B
:1091C0001302A3F2FF3342F07F546344AA420B938D
:1091D00044F4401440F33F83C94B9A4240F3048463
:1091E0009FEDAF7B8DED087B8DED107B9FEDAE7B12
:1091F0000B9B8DED067B01330B93A4F580140025AA
:10920000DDE906232146824615F076FEA346DDE918
:1092100006238046894650462146CDE90CAB15F021
:109220006DFE02460B460020B64916F047F90A4685
:109230000146CDE90E12134649460246404616F055
:1092400013F8631043F0005382468B4603F5002366
:109250008C46CDE904AB5919D3460023CDE902BCB5
:109260000293DDE902AB002004460D4602460B46A0
:109270005046594615F0F8FF02460B46404649460F
:1092800015F03AFEDDE90623804689462046294648
:1092900015F032FE02460B46DDE90C0115F02CFEFE
:1092A00052465B4615F0E0FF02460B4640464946F3
:1092B00015F022FEDDE90E2315F0D6FFDDE90445A9
:1092C000CDE9060122462B462046294615F0CCFF63
:1092D00077A3D3E9002304460D4615F0C5FF76A316
:1092E000D3E9002315F00AFE22462B4615F0BCFFF9
:1092F00073A3D3E9002315F001FE22462B4615F097
:10930000B3FF71A3D3E9002315F0F8FD22462B46E5
:1093100015F0AAFF6EA3D3E9002315F0EFFD224656
:109320002B4615F0A1FF6CA3D3E9002315F0E6FD51
:109330002246804689462B462046294615F094FF52
:1093400002460B464046494615F08EFF52460446FB
:109350000D465B46DDE9040115F0D0FDDDE906238D
:1093600015F082FF22462B4615F0C8FD5246804676
:1093700089465B465046594615F076FF0022624BFF
:10938000CDE90C0115F0BAFD42464B4615F0B6FD8D
:1093900002980D46044622462B465046594615F083
:1093A00063FF002282468B46574B2046294615F024
:1093B000A3FDDDE90C2315F09FFD02460B46404658
:1093C000494615F099FDDDE9042315F04DFF2246CD
:1093D000804689462B46DDE9060115F045FF024629
:1093E0000B464046494615F089FD804689460246AF
:1093F0000B465046594615F081FD029838A3D3E933
:10940000002304460D4615F02FFF5246CDE9040116
:109410005B462046294615F06FFD02460B46404646
:10942000494615F069FD30A3D3E9002315F01CFF70
:109430002FA3D3E90023804689462046294615F00C
:1094400013FF02460B464046494615F057FDDDE93D
:10945000102315F053FD80460B98894615F09AFEAF
:10946000424682468B464B46DDE9040115F046FD37
:10947000DDE9082315F042FD52465B4615F03EFD3E
:10948000029852465B4604460D4615F035FDDDE96F
:10949000082315F031FDDDE9042337E0AFF3008048
:1094A0000000000000000000000000000000F03F8D
:1094B000EF4E454A287ECA3F65DBC9934A86CD3FB9
:1094C00001411DA96074D13F4D268F515555D53F9F
:1094D000FFAB6FDBB66DDB3F033333333333E33F37
:1094E000000000E009C7EE3FFD033ADC09C7EE3F8C
:1094F000F5015B14E02F3EBE000040438E98030050
:1095000079B60B000000F03F0000084015F0F4FCB5
:109510000B4602464946404615F0EEFC013E56EA2F
:10952000070382468B4600F05E819FEDD37B8DED75
:10953000047BDDE9001200230E461746CDE90267E1
:109540000293DDE9026708463B461146324615F0B4
:10955000D3FC22462B4615F087FEDDE9002380462A
:1095600089465046594615F07FFE02460B46404656
:10957000494615F0C3FC3246804689463B462046A4
:109580002946CDE9008915F06FFE0B4602460646D6
:109590000F464046494615F0B1FCD14B994204466E
:1095A0000D468A4640F3248101F13F4303F5E00371
:1095B000034340F0FF81B2A3D3E90023DDE90001BA
:1095C00015F09CFC3246804689463B46204629469B
:1095D00015F092FC02460B464046494616F0D4F878
:1095E000002840F0E781A8464FEA2853A3F2FE3254
:1095F0004FF4801313415344C3F30A52B94DA2F2FE
:10960000FF321541C3F3130423EA05010020C2F120
:10961000140B44F48014BAF1000F02460B4644FACE
:109620000BFB30463946B8BFCBF1000B15F064FC9C
:1096300006460F463246DDE900013B4615F05EFC6A
:109640004FEA0B5A0D4600248FA3D3E9002320468E
:10965000294615F009FE3246804689463B4620469B
:10966000294615F049FC02460B46DDE9000115F0DC
:1096700043FC87A3D3E9002315F0F6FD86A3D3E9C5
:10968000002306460F462046294615F0EDFD02460A
:109690000B463046394615F031FC06460F46024669
:1096A0000B464046494615F029FC42464B460446C7
:1096B0000D4615F021FC02460B463046394615F0A2
:1096C0001BFC2246804689462B462046294615F03B
:1096D000CBFD73A3D3E9002306460F4615F0C4FD66
:1096E00071A3D3E9002315F007FC32463B4615F081
:1096F000BBFD6FA3D3E9002315F000FC32463B46C7
:1097000015F0B2FD6CA3D3E9002315F0F5FB32464A
:109710003B4615F0A9FD6AA3D3E9002315F0EEFB43
:1097200032463B4615F0A0FD02460B462046294630
:1097300015F0E2FB06460F4602460B462046294638
:1097400015F092FD0022CDE900014FF08043304634
:10975000394615F0D1FB02460B46DDE9000115F054
:10976000ADFE424606460F464B462046294615F0BA
:109770007BFD42464B4615F0C1FB02460B46304688
:10978000394615F0B9FB22462B4615F0B5FB0246CB
:109790000B460020544915F0AFFB8A44BAF5801FF0
:1097A000C0F232815146DDE9042315F05DFD23E46A
:1097B000002FFFF645AC4046494613B0BDE8F04FD8
:1097C00014F062BABBF1000FBFF6CFACDDE9003494
:1097D000184604F100410FE442464B46002042493E
:1097E00015F06CFE08E49FED387B8DED047BA0E660
:1097F0003E4B21F00048984540F3EA803C4B0B4437
:1098000003430AD132463B4615F076FBDDE90023DF
:1098100015F0B0FF00283FF4E7AEDDE904012CA30A
:10982000D3E9002315F020FD29A3D3E9002315F087
:109830001BFDFFF7E1BBBCF1000F40F0D280C3F18C
:10984000140345FA03F202FA03F3AB4200F0E0809E
:109850006646FFF7E9BB9FED207B8DED087B8DED24
:10986000107B9FED057B00258DED067BC8E44FF056
:10987000000CA2E4AFF30080000000000000F03F05
:10988000FE822B654715973C00000000432EE63F03
:10989000EF39FAFE422EE63F396CA80C615C20BE1F
:1098A000D0A4BE726937663EF16BD2C541BDBB3EE6
:1098B0002CDE25AF6A56113F93BDBE166CC1663FC4
:1098C0003E5555555555C53F000000000000F0BFFE
:1098D00059F3F8C21F6EA50100000000000000004F
:1098E000FFFF8F40FFFF0F000000F03FFFCB9040D5
:1098F00000346F3F5A4B9C427FF734AC594B9C422B
:109900003FF7BDAB0022574B15F0F6FA44A3D3E95D
:10991000002304460D4615F0A7FC43A3D3E900231A
:1099200082468B462046294615F09EFC0022CDE952
:1099300002014D4B2046294615F096FC02460B4687
:109940003BA1D1E9000115F0D7FA22462B4615F0CC
:109950008BFC02460B460020444915F0CDFA224606
:10996000804689462B462046294615F07DFC024656
:109970000B464046494615F077FC2FA3D3E9002358
:1099800015F072FC02460B46DDE9020115F0B4FA4F
:1099900002460B46804689465046594615F0AEFAB7
:1099A000002004460D4652465B46AFE502460B4694
:1099B000FFF7CFBBDDE9040121A3D3E9002315F0B4
:1099C00053FC1FA3D3E9002315F04EFCFFF714BB93
:1099D000264B98453FF708AEDDE9022392469346B1
:1099E00031E60026FFF72CBB9FED177B8DED087B42
:1099F0009FED177B8DED107B9FED177B4FF480253E
:109A00008DED067BFFF7FCBB5A4601F029FDCAE647
:109A100002F00102C2F10206FFF706BBAFF30080BD
:109A2000000000604715F73F44DF5DF80BAE543E81
:109A3000555555555555D53FFE822B654715F73F72
:109A40009C7500883CE4377E0000004003B8E23F8C
:109A500006D0CF43EBFD4C3E000000000000F83F75
:109A6000FEFFEF3F0000F03F0000D03F0000E03F6E
:109A70002DE9F047CA4B21F000479F4290B0804645
:109A8000894640F38F80C74B9F420C46924626DCA6
:109A90000029B9A3D3E9002340F38F8015F02CFAF5
:109AA000C14B9F4204460D4600F04781B4A3D3E961
:109AB000002315F021FA02460B46CAE9002320468E
:109AC000294615F019FAAEA3D3E9002315F014FACC
:109AD0000125CAE90201284610B0BDE8F087B34B62
:109AE0009F4240F38980B24B9F4200F31C813D1599
:109AF000A5F21645A7EB055319461F46064615F075
:109B000063FE15F047FB8046894642464B46304689
:109B10003946CDE90A8915F0EFF90022A54B15F079
:109B2000A3FB8946804615F04FFE15F033FB064631
:109B30000F4632463B4640464946CDE90C6715F094
:109B4000DBF900229B4B15F08FFB00220023CDE9AF
:109B50000E0115F0F1FD002800F060810023304671
:109B60003946002215F0E8FD002814BF0123022326
:109B7000914A019202212A4600910AA8514600F01A
:109B800087FB002C054614DADAF80420DAF80C30EA
:109B900002F1004203F100434542CAF80420CAF82A
:109BA0000C3006E000200021C2E90089C2E9020170
:109BB0000025284610B0BDE8F08715F09FF97A4BD4
:109BC0009F4204460D4600F00B816DA3D3E90023AC
:109BD00015F094F902460B46CAE9002329462046AF
:109BE00015F08AF966A3D3E9002315F087F94FF041
:109BF000FF35CAE90201DCE713F030F962A3D3E9CB
:109C000000238046894615F02FFB00226B4B15F090
:109C100075F915F0D9FD054615F0BCFA56A3D3E940
:109C20000023CDE9060115F01FFB02460B46404616
:109C3000494615F061F952A3D3E9002380468946CD
:109C4000DDE90601CDE9028915F00EFB1F2D024664
:109C50000B46CDE9042340F3B380DDE90423DDE9BD
:109C6000020115F049F9804689463F15C9F30A53A8
:109C7000FB1A102B40F3B18045A3D3E90023DDE9A3
:109C8000060115F0F1FA8046894602460B46DDE9E9
:109C9000020115F031F902460B46DDE90201CDE97A
:109CA000082315F029F942464B4615F025F93AA349
:109CB000D3E9002380468946DDE9060115F0D4FA90
:109CC00042464B4615F018F90B46CDE90401024611
:109CD000DDE9080115F010F9C1F30A53FF1A312F1D
:109CE0008046894600F39C809DED087BCAE9008987
:109CF0008DED027B42464B46DDE9020115F0FCF892
:109D0000DDE9042315F0F8F8002CCAE90201BFF6DA
:109D100050AF09F1004401F100436D42CAE90084EB
:109D2000CAE9020345E702460B4615F0E5F80025AF
:109D3000CAE90201CAE900013BE715A3D3E9002300
:109D400015F0DAF814A3D3E900230D46044615F004
:109D5000D3F802460B46CAE900232946204615F0EF
:109D6000CBF80DA3D3E9002315F0C6F80125CAE905
:109D700002011EE7AFF3008000004054FB21F93FD1
:109D80003163621A61B4D03D83C8C96D305FE43F6E
:109D90000000601A61B4D03D7370032E8A19A33B92
:109DA000FB21E93F7BD90240FB21F93FFB213941EF
:109DB000FFFFEF7F00007041FC1704000000E03F50
:109DC0004046494615F098F8394B6A1E804653F8CC
:109DD0002230BB4289463FF448AFCAE9008989E78F
:109DE0002BA3D3E9002315F089F82BA3D3E9002393
:109DF0000D46044615F082F802460B46CAE90023D8
:109E00002946204615F078F823A3D3E9002315F05E
:109E100075F84FF0FF35CAE90201CAE60323A7E649
:109E20001FA3D3E90023DDE9060115F01DFA06465C
:109E30000F4602460B46DDE9080115F05DF8804645
:109E4000894602460B46DDE90801CDE9028915F095
:109E500053F832463B4615F04FF813A3D3E90023DD
:109E600006460F46DDE9060115F0FEF932463B468F
:109E700015F042F802460B4640464946CDE9042318
:109E800015F03AF880468946A7E700BFAFF3008097
:109E90000000601A61B4D03D7370032E8A19A33B91
:109EA0000000002E8A19A33BC14920259A837B39E3
:109EB0007C17040000000000574A2DE9F84F21F0FC
:109EC0000048904506460F462CDC544B0029B4BF91
:109ED000534D544D98454FF0000411DC524B9845BA
:109EE00026DC4BA3D3E9002315F008F800224F4BE2
:109EF00015F04AFC002840D030463946BDE8F88FBE
:109F00004B4B984530DD4B4B984568DD0133984508
:109F100062D0304639463EA3D3E9002315F0A4F9B8
:109F2000BDE8F88F02460B4614F0E8FFBDE8F88F55
:109F300012F094FF01F048F83F4B984506460F4653
:109F400023DD0022394B14F0D9FF02460B46304680
:109F5000394615F0B3FA32463B4614F0CFFF22469D
:109F60002B4615F081F9E1E712F078FFFEF75CFC73
:109F700022462B4615F078F9D8E73046394612F0DC
:109F80006DFF01F021F806460F4632463B4630464B
:109F9000394614F0B3FF324682468B463B46304684
:109FA000394615F061F90022804689461F4B30463C
:109FB000394614F0A3FF02460B464046494615F0C9
:109FC0007DFA02460B465046594614F095FF22464C
:109FD0002B4615F049F9A9E7184B984299D8304615
:109FE000394612F03BFF00220E4B15F03DF9FEF70B
:109FF0001BFC06460F4602460B462046294615F036
:10A0000033F932463B4615F02FF98FE7AFF3008066
:10A010003374AC3C1F7BAC7FFFFFEF7FFFFF35400D
:10A020000000E0BF0000E03FFFFF2F3E0000F03FD8
:10A03000412E8640CD338640FFFFEF3F7DF8B98F3C
:10A040002DE9F04F21F00048B8F1795F85B0064660
:10A050000F4692469B466BDA15F0B6FB002800F0DF
:10A06000E18032463B463046394615F0FDF874A390
:10A07000D3E9002304460D4615F0F6F872A3D3E9A0
:10A08000002314F03BFF22462B4615F0EDF870A399
:10A09000D3E9002314F030FF22462B4615F0E4F8F4
:10A0A0006DA3D3E9002314F029FF22462B4615F0B7
:10A0B000DBF86BA3D3E9002314F01EFF22462B46E6
:10A0C00015F0D2F868A3D3E9002314F017FF224655
:10A0D0002B4615F0C9F8CDE900010022664B204659
:10A0E000294615F0C1F8DDE900238046894620465F
:10A0F000294615F0B9F8524604460D465B463046EF
:10A10000394615F0B1F802460B462046294614F0B0
:10A11000F3FE02460B464046494614F0EDFE024669
:10A120000B460020554914F0E7FE05B0BDE8F08F5E
:10A1300002460B4615F098F841A3D3E900230446E4
:10A140000D4615F091F840A3D3E9002314F0D6FE94
:10A1500022462B4615F088F83DA3D3E9002314F0DE
:10A16000CBFE22462B4615F07FF83BA3D3E9002314
:10A1700014F0C4FE22462B4615F076F838A3D3E936
:10A18000002314F0B9FE22462B4615F06DF836A3D5
:10A19000D3E9002314F0B2FE2B46224615F064F8F2
:10A1A000374B9845CDE9000197DD364B98453EDCAD
:10A1B000A8F500130022002030499046994614F07B
:10A1C0009BFECDE9020100222B4B2046294615F0CB
:10A1D0004BF842464B4614F08FFEDDE900238046E3
:10A1E00089462046294615F03FF8524604460D465A
:10A1F0005B463046394615F037F802460B46204696
:10A20000294614F079FE02460B464046494614F0B2
:10A2100073FE02460B46DDE9020114F06DFE05B047
:10A22000BDE8F08F1549002005B0BDE8F08F9FED27
:10A23000107B4FF000088DED027BDFF84C90C2E7F9
:10A24000D43888BEE9FAA8BDC4B1B4BD9EEE213EA3
:10A25000AD529C804F7E923E9015CB19A001FA3EE4
:10A260007751C1166CC1563F4C5555555555A53FB4
:10A27000000000000000E73F0000E03F0000F03F6A
:10A280003233D33F0000E93F0000D23F000000001E
:10A290002DE9F04FADF5197DBE4CA29EBE4D54F890
:10A2A00026600793D41E85FB0475E417C4EBA50450
:10A2B00024EAE4741D46631CA3EB8303013D02EB17
:10A2C000C3030593731904960994019503900B91A8
:10A2D000A4EB05071AD43B44002400255E1C0DF1B5
:10A2E0008008DDF88C9208E059F8270014F052FF3E
:10A2F0000137B742E8E8020108D0002FF4DA01374D
:10A3000020462946B742E8E80201F6D1049B002B1B
:10A31000079B4FEAC30302932ADB039A20A902EBAF
:10A32000030801EB0309049B72AA02EBC30B0DF5B2
:10A33000E07A019B002B4FF000064FF0000711DB85
:10A34000039C4D4675E90223F4E8020114F08CFFEA
:10A3500002460B463046394614F0D0FD44450646C9
:10A360000F46EFD1EAE80267DA4509F10809E0D1C2
:10A37000DDE90204049920448B0082460BA8A3F176
:10A380000802C31808930CAB13440A938B4698AB8E
:10A3900003EBCB03BBF1000F53E9284529DD70AB7C
:10A3A00003EBCB080DF1300900227C4B20462946F7
:10A3B00014F05AFF15F008FA14F0ECFE0022784B66
:10A3C00006460F4614F050FF02460B46204629462B
:10A3D00014F092FD15F0F8F978E9022349F8040B1E
:10A3E0003946304614F08AFD70AB984504460D4658
:10A3F000DAD1DDF81490204629464A4601F030F8BB
:10A4000000224FF07F5304460D4614F02DFFFCF759
:10A41000A7FD0022634B14F027FF02460B4620469F
:10A42000294614F069FD0D46044615F0CDF9804625
:10A4300014F0B0FE0B4602462946204614F05CFD9F
:10A440004B46002B06460F4640F3E1800BF1FF32EE
:10A450000CA9C9F1180351F8225045FA03F101FA89
:10A4600003F30CA8EB1A40F82230C9F11705884411
:10A4700043FA05F5002D2CDDBBF1000F08F10108B2
:10A4800040F381820C9C002C40F0A780BBF1010FAF
:10A490000AD00CA9012251F8044F531C002C40F0A3
:10A4A0009E809B451A46F6D1059B002B0EDD012BA5
:10A4B00000F0D980022B09D10BF1FF320CAB0CA9B3
:10A4C00053F82230C3F3150341F82230022D00F077
:10A4D000AF80002200233046394615F02DF90028C0
:10A4E00000F05382049B0BF1FF394B4510DC0BF15C
:10A4F00080430CAA013B089802EB8303002253F827
:10A500000419834242EA0102F9D1002A40F0B680E0
:10A51000049B0CAA013B52F82330002B40F0A18091
:10A520000A9A012352F8041901330029FAD05B4436
:10A530000BF10109994506934CDC099A079909EB3F
:10A54000020801EB0B0508F1804802EB030BA39B0B
:10A5500008F1FF3803EB880870AB03EBC909A39B34
:10A5600020A903EB8B0301EBC505029358F8040FF8
:10A5700014F010FE0B4601990246002905F1080B64
:10A58000C5E900234FF000064FF000071CDB039CD9
:10A590000CE000BF9C1C0400ABAAAA2A0000703E7D
:10A5A000000070410000204075E90223F4E8020138
:10A5B00014F05AFE02460B463046394614F09EFC13
:10A5C000544506460F46EFD1029B9845E9E80267DD
:10A5D0005D46CBD1DDF818B0D9E6012300220CA9E5
:10A5E000C4F180749B4541F822400EDD51F82320D0
:10A5F00001EB8B0001EB83036FF07F4100E01A68F1
:10A600008A1A43F8042B8342F9D101244CE706D17E
:10A610000BF1FF330CAA52F82350ED152AE7002264
:10A620007B4B15F0A7F8002840F0A381054650E7C2
:10A6300032463B460020774914F05EFC06460F4642
:10A64000002C3FF446AF059A7249002000F008FF45
:10A6500002460B463046394614F04EFC06460F467D
:10A6600037E7012363E70BF1FF320CAB0CA953F87A
:10A670002230C3F3160341F8223027E70CAB059ACA
:10A6800053F82930183ACDE9068505926BB909F1DE
:10A690008043013B0CA901EB830353F8041909F132
:10A6A000FF39183A0029F8D00592059A5949002037
:10A6B00000F0D6FEB9F1000F04460D46C0F2C0818D
:10A6C0004FEAC90370AA02EB030808930CAB03EB33
:10A6D0008906DFF844B14FF0000A08F10807043694
:10A6E00056F8040D14F056FD22462B4614F0BCFD1E
:10A6F0005B4667E9020152462046294614F0B4FD44
:10A700000CAB9E4204460D46EAD148AB039301933D
:10A71000CDF8149009F10103DDF810900293C346BF
:10A720004FF0000AB9F1000FC0F22A81DFF8EC8087
:10A730005D4635A3D3E9002300260027002403E06B
:10A74000544510DCF8E80223F5E8020114F08CFD12
:10A7500002460B463046394614F0D0FB0134A14581
:10A7600006460F46ECDA019BE3E802670193029B81
:10A770000AF1010A9A45ABF1080BD3D1A29BDDF88F
:10A780001490032B39D8DFE813F0D9000600060037
:10A790004D0048AB0393B9F1000F4FF000004FF0AC
:10A7A000000109DB039D05EBC904083474E90223A9
:10A7B00014F0A4FBA542F9D1079B002B40F01E81A9
:10A7C0000B9BC3E900010B4603990246D1E9000146
:10A7D00014F092FBB9F1000F0CDD4AAD01240134F5
:10A7E000F5E8022314F08AFBA145F8DA079B002B59
:10A7F00040F014810B9BC3E90201069B03F00700A4
:10A800000DF5197DBDE8F08F00000040FB21F93FF8
:10A810000000E03F0000F03F0000703EE80504004B
:10A8200048AB0393B9F1000F40F32781039ACDF8A9
:10A8300010904FEAC9030193D318D3E900AB09F193
:10A840000053013B02EBC9080293914678E9026785
:10A8500052465B463046394614F050FB04460D46DE
:10A8600002460B463046394614F046FB52465B46DC
:10A8700014F044FBC145A246AB46C8E90201C8E951
:10A880000045E3D1DDF81090B9F1010F40F3F580F8
:10A89000019B039A02991344C900D3E9006701F1AF
:10A8A000080A019192440DF5947B7AE902893246B7
:10A8B0003B464046494614F021FB04460D460246FD
:10A8C0000B464046494614F017FB32463B4614F00F
:10A8D00015FBD34526462F46CAE90201CAE90045C1
:10A8E000E3D1019C039B1034002000211C4403F1A0
:10A8F000100574E9022314F001FBA542F9D1039C71
:10A90000079ED4E90023D4E90245002E00F08A8096
:10A9100003F1004701F100430B99C1E90403069BD1
:10A920002646944605F1004403F00700C1E900C73C
:10A93000C1E902640DF5197DBDE8F08F089C039D07
:10A940000834002000212C4474E9022314F0D6FAC4
:10A95000A542F9D1079B13B101F1004319460B9BA6
:10A96000C3E90001069B03F007000DF5197DBDE862
:10A97000F08FBBF1000F08F1010874DD022581E5BD
:10A9800000260027EFE600248EE5CDE90685059D2B
:10A99000304639466A4200F063FD0022384B0646D5
:10A9A0000F4614F0E7FE00B30022364B304639461E
:10A9B00014F05AFC14F008FF044614F0EBFB0022DC
:10A9C0002F4B14F051FC0B4602463946304614F02A
:10A9D00093FA14F0F9FE0BF101090CAB183543F8AA
:10A9E0002B00059543F829405FE63046394614F0C0
:10A9F000EBFE0CABD94643F82B0056E60B9C01F15D
:10AA00000043C4E900030B4603990246D1E9000163
:10AA100014F072FAB9F1000F3FF7DFAE01F1004315
:10AA20001946E7E60B9EC6E90023069BC6E904012A
:10AA300003F00700C6E902450DF5197DBDE8F08F6A
:10AA4000A29B032B3FF6D9AE01A252F823F000BF20
:10AA500061AA020093A7020093A7020021A80200A6
:10AA60000020002176E732463B460020064914F0DC
:10AA700043FA022506460F462BE5002000213EE75B
:10AA8000000070410000703E0000F03F0000000038
:10AA90002DE9F04F21F00046B6F1795F85B004460C
:10AAA0000D469046994604DA14F08EFE002800F018
:10AAB000858022462B462046294614F0D5FB0646C3
:10AAC0000F4602460B462046294614F0CDFB41A313
:10AAD000D3E9002382468B463046394614F0C4FB46
:10AAE0003EA3D3E9002314F007FA32463B4614F0A4
:10AAF000BBFB3CA3D3E9002314F000FA32463B46EB
:10AB000014F0B2FB39A3D3E9002314F0F5F932466F
:10AB10003B4614F0A9FB37A3D3E9002314F0EEF968
:10AB20000E9BCDE900019BB30022294B40464946CC
:10AB300014F09AFBDDE90023CDE9020150465946A5
:10AB400014F092FB02460B46DDE9020114F0D4F941
:10AB500032463B4614F088FB42464B4614F0CCF993
:10AB600019A3D3E9002306460F465046594614F070
:10AB70007BFB02460B463046394614F0BFF90246CD
:10AB80000B462046294614F0B7F905B0BDE8F08F12
:10AB900002460B463046394614F066FB0AA3D3E959
:10ABA000002314F0A9F952465B4614F05DFB2246DF
:10ABB0002B4614F0A3F905B0BDE8F08F20462946D6
:10ABC00005B0BDE8F08F00BF495555555555C53FF7
:10ABD0000000E03F7CD5CF5A3AD9E53DEB9C2B8A6B
:10ABE000E6E55A3E7DFEB157E31DC73ED561C1196A
:10ABF000A0012A3FA6F810111111813F00000000AA
:10AC00002DE9F04FC04C21F0004687B0A6428246A5
:10AC10008B460F46CDE900231ADC14F0D5FD002841
:10AC20003FD1109B524601331343334300F0B781A9
:10AC3000109B012B00F0C0815B460020B34914F04B
:10AC40003DFC04460D462046294607B0BDE8F08F7E
:10AC5000AF4B9E4225DD002909DADDE90045224699
:10AC600005F10043CDE900230BF100418B4652462C
:10AC70005B4685A1D1E9000114F03EF9DDE900232E
:10AC800004460D4682A1D1E9000114F035F99FED8B
:10AC9000827B22462B468DED007B14F02FF98246F5
:10ACA0008B4652465B465046594614F0DDFA024642
:10ACB0000B468046894614F0D7FA424604460D46B4
:10ACC0004B465046594614F0CFFA75A3D3E90023FA
:10ACD000CDE902012046294614F0C6FA72A3D3E951
:10ACE000002314F00BF922462B4614F0BDFA70A392
:10ACF000D3E9002314F002F922462B4614F0B4FAEB
:10AD00006DA3D3E9002314F0F9F822462B4614F082
:10AD1000ABFA6BA3D3E9002314F0F0F822462B46DC
:10AD200014F0A2FA68A3D3E9002314F0E7F842462E
:10AD30004B4614F099FA66A3D3E90023CDE9040148
:10AD40002046294614F090FA63A3D3E9002314F0B7
:10AD5000D5F822462B4614F087FA61A3D3E90023E5
:10AD600014F0CCF822462B4614F07EFA5EA3D3E909
:10AD7000002314F0C3F822462B4614F075FA5CA3A6
:10AD8000D3E9002314F0BAF822462B4614F06CFAEB
:10AD900059A3D3E9002314F0B1F802460B46DDE9CC
:10ADA000040114F0ABF8DDE9022314F05DFADDE9EB
:10ADB000004522462B4614F0A1F842464B4614F0BB
:10ADC00053FA22462B4614F099F84DA3D3E90023F9
:10ADD00004460D46DDE9020114F046FA22462B46F0
:10ADE00014F08CF80B460246804689465046594678
:10ADF00014F084F8464B9E4204460D4600F38C80C6
:10AE0000109B012B3BD002460B4600203F4914F01B
:10AE100055FB002406460F462046294652465B460F
:10AE2000CDE90067CDE90201009414F065F8DDE991
:10AE300000AB02460B464046494614F05DF85246C8
:10AE40005B4614F011FA524604460D465B46DDE9B6
:10AE5000020114F009FA00222E4B14F04FF80246BA
:10AE60000B462046294614F049F832463B4614F07A
:10AE7000FBF952465B4614F041F804460D46204665
:10AE8000294607B0BDE8F08F182D4454FB21E93F57
:10AE9000075C143326A6813C00000000000000007F
:10AEA000D47ABF74702AFB3EE9A7F0320FB8123F84
:10AEB00068108D1AF726303F1583E0FEC8DB573F38
:10AEC00093846EE9E326823FFE41B31BBAA1AB3FF8
:10AED000735360DBCB75F3BEA69237A0887E143F18
:10AEE0000165F2F2D844433F280356C9226D6D3FF5
:10AEF00037D60684F464963F7AFE10111111C13FD3
:10AF0000635555555555D53FFFFF2F3E0000F0BF07
:10AF10002794E53F0000F03F109814F03BF92246DB
:10AF2000CDE900012B462046294614F09DF9DDE9C4
:10AF30000023CDE902012046294613F0DFFF024637
:10AF40000B46DDE9020114F0B9FA42464B4613F014
:10AF5000D3FF02460B465046594613F0CDFF02463A
:10AF60000B4613F0CBFF02460B46DDE9000113F060
:10AF7000C3FF0446B81700F00200C0F101000D46FF
:10AF800014F008F902460B462046294614F06CF9E5
:10AF900004460D462046294607B0BDE8F08F5046CE
:10AFA000594611F05BFF02460B460020044914F09D
:10AFB00085FA04460D4662E754465D465FE700BFEA
:10AFC0000000F03F000000002DE9F04FCC4A21F0D6
:10AFD0000043934285B082468B460C4620D9C94A2D
:10AFE000934200F2D780002C80F2A481ACA3D3E975
:10AFF00000235046594613F081FF0022002314F02D
:10B00000A5FB002840F0D180A7A3D3E90023504638
:10B01000594614F029F902460B460020BA4994E13A
:10B02000BA4A934200F2E580B94A934240F22E8137
:10B03000002301930022B74B5046594614F014F9EF
:10B0400006460F4602460B465046594614F00CF988
:10B0500097A3D3E9002304460D4614F005F996A3FF
:10B06000D3E9002313F04AFF22462B4614F0FCF8E4
:10B0700093A3D3E9002313F03FFF22462B4614F09D
:10B08000F3F891A3D3E9002313F038FF22462B46AF
:10B0900014F0EAF88EA3D3E9002313F02DFF224623
:10B0A0002B4614F0E1F800229B4B13F027FF80465B
:10B0B000894602460B463046394614F0D5F802461A
:10B0C0000B460020954913F017FF064602460B4633
:10B0D0000F464046494613F00FFF324680468946E8
:10B0E0003B465046594614F0BFF802460B46002036
:10B0F0008B4913F001FF02460B464046494614F0C7
:10B10000DDF922462B4614F0AFF8019E02460B46AD
:10B11000002E4DD0DDE9026732463B4613F0ECFECF
:10B1200052465B4614F0A0F832463B4613F0E4FE6C
:10B130002B46224613F0E0FE019B013306460F46E4
:10B1400000F02381019B012B7BD0019A531C392BEA
:10B150004FEA025500F22881019A132A40F35581E3
:10B16000019BC3F57F7403340022230513F0C6FE50
:10B1700002460B465046594613F0BEFE0022664B6F
:10B1800013F0BCFE824605EB010B5046594605B054
:10B19000BDE8F08F634A93421BD9C1F31303034305
:10B1A000024640F012810029EFDA00205E490DE0EE
:10B1B0005046594614F058F822462B4613F09CFE90
:10B1C00002460B465046594613F096FE05B0BDE8C0
:10B1D000F08F41A3D3E9002314F0D6FA00283FF4FE
:10B1E00002AF3FA3D3E900231046194614F03CF800
:10B1F000ECE74E4A934200F2EC8000293AA3D3E9EF
:10B20000002339DA13F07AFE39A7D7E900674FF047
:10B21000FF3380468946019332463B4640464946C5
:10B2200013F06AFE02460B4682468B46404649466C
:10B2300013F062FE32463B4613F05EFECDE902019A
:10B24000F8E600223A4B5046594614F07FFA00289F
:10B2500000F0CC805046594600222E4B13F04EFE93
:10B2600002460B463046394613F046FE00224FF0A8
:10B27000404313F0F9FFA9E713F03EFE0123804697
:10B28000894601931CA7D7E90067C5E714A3D3E952
:10B29000002313F033FE02460B468FE7AFF3008026
:10B2A00059F3F8C21F6EA501FE822B654715F73FC3
:10B2B0002DC3096EB7FD8ABE3952E686CACFD03E8D
:10B2C000B7DBAA9E19CE143F8555FE19A0015A3F3F
:10B2D000F41011111111A13FEF39FAFE422E8640F0
:10B2E0009C7500883CE4377E0000E0FE422EE63F7D
:10B2F000763C7935EF39EABD763C7935EF39EA3D70
:10B3000079684340412E86400000E0BF422ED63F80
:10B31000FFFF8F3C0000E03F0000F03F00000840CE
:10B3200000001840FFFFEF7F0000F0BFB1A2F03F28
:10B330000000D0BF44A3D3E900235046594613F080
:10B3400093FF02460B460020414913F0D7FD14F04D
:10B350003BFA019013F01EFF37A3D3E90023064602
:10B360000F4613F081FF02460B465046594613F034
:10B37000C3FD33A3D3E900238046894630463946CE
:10B3800013F072FF06460F4646E702460B4650464C
:10B39000594613F0B1FD00222D4B13F065FF00223A
:10B3A0002B4B13F0A9FD11E752465B4613F0A4FDA9
:10B3B00002460B460020274913F09EFD6B181946E4
:10B3C0000022244B13F098FD00E70B4613F096FD86
:10B3D000FCE61DA3D3E9002313F046FF002C024630
:10B3E0000B464FF00000AFDA1B49AEE732463B4652
:10B3F0005046594613F080FD02460B4613F07EFD81
:10B400000022144B13F07AFDE0E64FF4001343FAE8
:10B4100002F452465B4613F06FFDC4F17F570026DD
:10B4200007F5401702460B463046394613F064FDD7
:10B43000A8E600BFAFF300800000E0FE422EE63F2A
:10B44000763C7935EF39EA3DFE822B654715F73FAB
:10B450000000E03F0000F03F0000E0BF00000000FF
:10B46000F8B5C1F30A5304460D460E4617460BBB0A
:10B4700021F00046034633431BD0354B002213F026
:10B48000F3FE344B9F4204460D4635DBC1F30A53AD
:10B490000E46363B3B4440F2FE72934232DC002BB8
:10B4A00011DD26F0FF4626F4E00646EA0355204665
:10B4B0002946F8BD40F2FF729342EBD102460B469B
:10B4C00013F01CFDF8BD13F1350F28DA4CF25033A0
:10B4D0009F4222462B460ADD19A1D1E9000113F053
:10B4E0007DFC17A3D3E9002313F0BEFEF8BD16A11F
:10B4F000D1E9000113F072FC13A3D3E9002313F088
:10B50000B3FEF8BD22462B460DA1D1E9000113F090
:10B5100065FC0BA3D3E9002313F0A6FEF8BD26F0CB
:10B52000FF4626F4E006363346EA03552046294610
:10B530000022094B13F098FEF8BD00BFAFF3008066
:10B540009C7500883CE4377E59F3F8C21F6EA50154
:10B5500000005043B03CFFFF0000903C10B5054C8C
:10B56000237833B9044B13B10448AFF300800123AF
:10B57000237010BD1085002000000000F41D0400A1
:10B5800008B5034B1BB103490348AFF3008008BD66
:10B590000000000014850020F41D0400154B002B52
:10B5A00008BF134B9D46A3F5803A00218B460F46FA
:10B5B0001348144A121A09F0F5F80F4B002B00D06B
:10B5C00098470E4B002B00D0984700200021040024
:10B5D0000D000D48002802D00C48AFF3008013F096
:10B5E00033FC2000290005F00BF913F019FC00BF13
:10B5F000000008000000042000000000000000001F
:10B6000000840020A88C0020000000000000000042
:10B6100070B504460E4600F08DFA88B10368DB6A07
:10B6200005469847082C0CD0A4F10903012B14D926
:10B630003246214610230D20BDE8704004F096B933
:10B6400070BD2B6828465B6A98470228F0DC2B689F
:10B6500028461B6A04219847EAE72B6828465B6A5C
:10B6600098470528E4DC2B6828461B6A0821984780
:10B67000DEE700BF38B52DED028B054600F05AFA23
:10B68000044640B10368DB6A9847032D03D8DFE81E
:10B6900005F02F363D06BDEC028B002038BD20465C
:10B6A0000BF068FE07EE900A2046F8EEE78A0BF0F2
:10B6B0006FFE07EE900A2046B8EEE78A0BF076FEA2
:10B6C00068EE087A07EE100AE8EEA87AB8EEC77AB4
:10B6D000E7EE077AF5EE407AF1EE10FAB1EEE78A7E
:10B6E0001BD4FDEEC87ABDEC028B17EE900A38BD74
:10B6F000BDEC028B2046BDE838400BF03BBEBDECF4
:10B70000028B2046BDE838400BF042BEBDEC028BF8
:10B710002046BDE838400BF049BE17EE900A12F003
:10B720004DF9DEE738B5044600F004FA58B1036875
:10B73000DB6A0546984744B1012C04D12846BDE890
:10B740003840FBF73DB9002038BD2846BDE83840F9
:10B75000FBF716B910B5044600F0ECF928B1036800
:10B7600021461B6ABDE81040184710BD00487047CD
:10B7700016FCFFFF704700BF10B5034B0360044683
:10B780000BF0F4FB204610BDD012040010B5054BA1
:10B79000036004460BF0EAFB204614F0EDFA204665
:10B7A00010BD00BFD01204002DE9F041032184B088
:10B7B0000546512001F020FDDFF838C3C24B044696
:10B7C00004F00F06C4F3031714F4807408BF634633
:10B7D000BE4831463A460AF033FD221C18BF01220A
:10B7E00031463B4628460EF08FF90023AB60B8483F
:10B7F0000AF026FD4FF0FF31032001F0FDFCC0B23E
:10B8000004F0A8FB4FF0FF310446022001F0F4FCE5
:10B81000C0B204F09FFB002C57D0002855D0014641
:10B82000204604F07FF90646002869D04FF0FF312A
:10B83000462001F0E1FC3828044600F0DB801ADDE8
:10B840003A2800F0C180682861D14FF0FF31012013
:10B8500001F0D2FCC0B204F07DFB80465C2014F005
:10B8600094FA052301934246009431462B4607463D
:10B870000CF0D0FE19E0302801D0322847D14FF02B
:10B88000FF31012001F0B8FCC0B204F063FB804638
:10B89000542014F07AFAA4B20746052301934246D5
:10B8A000009431462B460CF05FFCAF603B68384695
:10B8B0009B6A9847A8680368DB6A984785480AF03E
:10B8C000BFFC284604B0BDE8F08183480AF0B8FC0C
:10B8D0004FF0FF31192001F08FFCC0B204F03AFBA9
:10B8E0004FF0FF310446182001F086FCC0B204F08E
:10B8F00031FB0146204604F015F90646002895D193
:10B9000076480AF09DFC284604B0BDE8F081012489
:10B910003268CDE900440023576AAB600F220DF175
:10B920000F0332213046B847002800F0A980336861
:10B93000CDE900440F225F6A30210DF10F0330463C
:10B94000B84700286ED03368CDE900440D225F6A05
:10B9500038210DF10F033046B847002800F09680DB
:10B960003368CDE900440D225F6A3A210DF10F03DF
:10B970003046B847002800F0BF803268CDE9004467
:10B980000DF10F03576A682175223046B847002829
:10B990005BD1682152480AF053FC4FF0FF3120463A
:10B9A00001F02AFCC0B204F0D5FA80465C2014F005
:10B9B000ECF905246823CDE90034424631462B4694
:10B9C00007460CF027FE70E74FF0FF31012001F031
:10B9D00013FCC0B204F0BEFA8046502014F0D5F932
:10B9E000052301934246009431462B4607460CF04E
:10B9F000F1FC5AE74FF0FF31012001F0FDFBC0B22E
:10BA000004F0A8FA8046502014F0BFF90523074639
:10BA1000019342462B46009431460CF0DBFC314B3F
:10BA20003B6042E730212E480AF00AFC30244FF0F8
:10BA3000FF31012001F0E0FBC0B204F08BFA804638
:10BA4000542014F0A2F9074627E727480AF0F8FB2C
:10BA5000AF68002F7FF42AAF4FF0FF31032001F0D1
:10BA6000CBFBC0B204F076FA30B120480AF0E8FB14
:10BA7000284604B0BDE8F0811D480AF0E1FB42E72A
:10BA8000322117480AF0DCFB3224D0E73821144871
:10BA90000AF0D6FB4FF0FF31204601F0ADFBC0B2FB
:10BAA00004F058FA8046502014F06FF9052438232A
:10BAB0000746CDE9003442462B4631460CF08AFC5D
:10BAC000084B3B60F1E600BF6C0604007C060400F6
:10BAD0009C0604005C070400AC060400C0060400D9
