:020000040002F8
:106000000000042035D003005DD003005FD0030002
:1060100061D0030063D0030065D0030000000000DE
:1060200000000000000000000000000067D0030036
:1060300069D00300000000006BD003006DD00300A6
:106040006FD003006FD00300D5CE030099CE0300BC
:10605000ADCE03006FD0030079B903007DD50300F6
:1060600009CA030011CA030019CA03006FD0030054
:106070006FD003006FD003006FD003006FD0030018
:106080006FD003006FD003006FD003006FD0030008
:106090006FD003006FD003006FD003006FD00300F8
:1060A0006FD003006FD0030021CA030029CA030088
:1060B0006FD003006FD0030000000000000000005C
:1060C0006FD003006FD003006FD00300C1CE030078
:1060D0006FD003006FD003006FD003006FD00300B8
:1060E000FDCE03006FD003006FD00300000000005E
:1060F000000000006FD0030000000000E9CE0300A4
:10610000000000000000000000000000000000008F
:10611000000000000000000000000000000000007F
:10612000000000000000000000000000000000006F
:10613000000000000000000000000000000000005F
:10614000000000000000000000000000000000004F
:10615000000000000000000000000000000000003F
:10616000000000000000000000000000000000002F
:10617000000000000000000000000000000000001F
:10618000000000000000000000000000000000000F
:1061900000000000000000000000000000000000FF
:1061A00000000000000000000000000000000000EF
:1061B00000000000000000000000000000000000DF
:1061C00000000000000000000000000000000000CF
:1061D00000000000000000000000000000000000BF
:1061E00000000000000000000000000000000000AF
:1061F000000000000000000000000000000000009F
:106200007CB0EE877CB0EE87FF00FF00FF00FF0050
:10621000FF00FF00FF00FF00FF00FF00FF00FF0086
:10622000FF00FF00FF00FF00FF00FF00FF00FF0076
:10623000FF00FF00FF00FF002DE9F04F85B0039144
:106240000778A7F10903042B044607F07F0200F149
:106250000100F5D9202AF3D02B2F04BF677804461C
:106260002D2F75D09FED427B8DED007B4FF0000808
:106270004FF000099FB34FF0000C25464FF0000A85
:10628000DFF8FCB0644619E01AF028F98046894628
:1062900030461AF0B9F842464B4619F069FF5246AB
:1062A000804689465B46DDE900013CB31AF040FABE
:1062B000CDE90001A44615F8017F7FB1A7F13006B2
:1062C000092E52465B4640464946DDD9CCB92E2FB1
:1062D00017D115F8017F0124002FEFD12C4642463B
:1062E0004B46DDE900011AF0F9F880468946039B28
:1062F000404649461C6005B0BDE8F08F4FF0010CE8
:10630000D9E72C46BCF1000F29D042464B46DDE9C7
:1063100000011AF0E3F807F0DF07452F80468946B1
:10632000E5D10399681C0A2219F006FF14490246B8
:1063300000201AF083FC02460B46404649461AF0FC
:10634000CDF8804689464046494605B0BDE8F08F05
:106350009FED097B67788DED007B013486E7DFF8E0
:1063600024904FF000084046494605B0BDE8F08F44
:10637000000000000000F03F000000000000F0BF3F
:10638000000024400000F87F2DE9F0470023144668
:106390000022804689461AF013FB28B109F1004318
:1063A00099462D232370013400220023404649469C
:1063B0001AF0FCFA28B13022002322706370BDE885
:1063C000F0874046494618F075FA1AF037FB73A378
:1063D000D3E900230746494640461AF0F1FA00285F
:1063E0004ED170A3D3E90023404649461AF006FB7C
:1063F000002845D10E2F07F1010540F3B980A7F120
:106400000E063246002062491AF018FC02460B467E
:10641000404649461AF08CF900225E4B19F0A8FE5E
:106420001AF048FC002DA7F10F0E4FF0010C4DDDC6
:10643000594FDFF87881012245F6F3294FF02E0AF3
:10644000494508BF40454FF030030AD3B0EB080080
:1064500061EB0901494508BF404503F10103F5D24D
:10646000DBB2237050EA010304F101084AD19542DE
:1064700052DD0132102A4FD0444677E90289DFE726
:10648000002F33DB3A46002041491AF0D7FB024681
:106490000B46404649461AF04BF93BA3D3E900238B
:1064A0008046894601250026404649461AF016F8DE
:1064B0000022384B19F05CFE1AF0FCFB002DBC46A4
:1064C0004FF0FF3E37464FF00006B1DC2346302246
:1064D0004FF02E0803F8022B84F80180FC4345D0CE
:1064E0001C4403F8012BA342FBD1A1E77A42002010
:1064F00027491AF0A3FB02460B464046494619F0CD
:10650000EDFFCAE7954202F1010204BF84F801A041
:1065100004F10208102AAFD16EB14246302102F8D0
:10652000011BC2F1010373444344002BF7DC2EEA44
:10653000EE7301339844BCF1010F12D0BCF1000F8F
:106540004FF0650388F80030C5BF2B2388F8013071
:1065500008F1010108F102016046BDE8F0470FF0C3
:1065600049BD002388F80030BDE8F0871C465FE78E
:10657000C7F10E02002006491AF060FB3E460246B3
:106580000B46012790E700BF0000901EC4BCD64216
:10659000000024400000E03F001804008DEDB5A08D
:1065A000F7C6B03E50EFE2D6E41A4B4400407A10F2
:1065B00070B54FF0FF3006F0DDFA04466FF07F4013
:1065C00006F0D8FA0646204619F00EFF00220C4BC2
:1065D00019F084FF044630460D4619F005FF06A366
:1065E000D3E900231AF0A4F802460B4620462946B8
:1065F00019F0BEFD70BD00BF0000E0DFFFFF6F437C
:106600000000F03D000000002DE9F04F1D46138909
:10661000AB4288BF536885B004468CBF53F8250051
:10662000002090468A4606F019FF0022904B19F090
:1066300055FF1AF003FAB8F808206B1C9A4288BF7D
:10664000D8F8042006468CBF52F82300002006F03C
:1066500005FF0022864B19F041FF1AF0EFF9B8F858
:1066600008300235AB4288BFD8F8043007468CBFEB
:1066700053F82500002006F0F1FE002EC4E9006763
:1066800040F3E280002F40F3DF8071A3D3E90023C1
:10669000002584F8285018F02FF8002200238046A7
:1066A00089461AF08DF940B14046494668A3D3E9BE
:1066B000002319F05DFD8046894667A3D3E90023D6
:1066C000404649461AF09AF9C0B165A3D3E90023C0
:1066D000404649461AF07EF980B1012340464946BA
:1066E00084F8283060A3D3E9002319F041FD58A3B2
:1066F000D3E9002318F000F88046894600225D4B5C
:106700004046494619F0EAFE17F02AFD01F1004320
:1067100000221946564B19F0E1FE1AF08FF949464E
:106720000546404617F0D8FC0022514B19F0D6FE22
:106730001AF084F9DAF804304F49B3F80CB0B3F822
:106740000AA0A56007FB0BF303EB010806FB0AF6A2
:10675000019388FB05234FEA124C00960E444CEA45
:10676000034C06EA010383FB009A06EB0C0E0EEACB
:10677000010ED346CA468EFB00675246CDE902673A
:10678000120C42EA0B42DDE902AB0CEA010C8CFB75
:1067900000674FEA164956460A40360C46EA0B4651
:1067A00049EA074982FB05AB5F46C144B0445646FF
:1067B000CDE90267039FE060360C09EA010908EAA7
:1067C000010846EA074689FB05AB334488FB0556BA
:1067D000CDE9025655462D0C45EA0B45DDE902ABE5
:1067E0000B40AC4403EAE3770CEA010C554623EA7C
:1067F000E37367454FEA154502EAE276A8BF6746AC
:1068000045EA0B45634522EAE272B8BF6346AE44EF
:106810004E450EEA010EA8BF4E464A45B8BF4A464D
:106820007745A8BF77467345B8BF73464645A8BFAE
:106830004646C4E905634245B8BF424600980199FF
:10684000206261622761E261204605B0BDE8F08FF9
:10685000EA2E4454FB211940F4D64354FB21F93F5E
:10686000320D337F7CD91240EA2E4454FB2109407B
:106870000000F0400000E03F0000FFFF00000000CB
:106880002DE9F04F2DED028B044683B0C06819F05E
:10689000BBFD80462069894619F0B6FD82466069D5
:1068A0008B4619F0B1FD024601F1004306460F4642
:1068B0004046494617F0B2FE1AF008F9E062054674
:1068C00017F064FD0190284617F014FD019B054662
:1068D000184619F0ABFD42464B4619F0FFFD8046C5
:1068E0002846894619F0A2FD32463B4619F0F6FDCE
:1068F00002460B464046494619F038FC02460B4614
:106900005046594617F08AFE1AF0E0F8002208EEC9
:10691000100A0023304639461AF070F828B3B5EE55
:10692000C08AF1EE10FA1CDD11A7D7E9006718EE56
:10693000100A19F07BFD02460B463046394619F025
:1069400015FC32463B4619F013FC1AF0BFF8A06262
:10695000E38843F00203E38003B0BDEC028BBDE8A3
:10696000F08F05A7D7E90067E1E784ED0A8AEFE732
:10697000EA2E4454FB21F93FEA2E4454FB21F9BF8F
:1069800008B510F0FDFDDFED0C7A07EE100A67EE9A
:10699000277A17EE900A19F049FD05A3D3E90023E1
:1069A00019F0C6FE1AF04AF808BD00BFAFF3008028
:1069B000EA2E4454FB2119400000B44300000000BB
:1069C00008B510F0F1FDDFED0C7A07EE100A67EE66
:1069D000277A17EE900A19F029FD05A3D3E90023C1
:1069E00019F0A6FE1AF02AF808BD00BFAFF3008028
:1069F000EA2E4454FB2119400000B443000000007B
:106A0000494A21F0004393422DE9704304460D4664
:106A100049DC464A93420E460EDC3FA3D3E90023ED
:106A200019F0A6FB0022424B19F0E8FF00284AD0DB
:106A300020462946BDE870833E4A934239DCB3F1D3
:106A4000804F40DD17F044FB2246804689462B46A6
:106A50002046294619F042FD0022354B19F088FBEB
:106A600018F04CFA42464B4619F082FB02460B46A0
:106A700000202F4919F05CFE424604460D464B4665
:106A80004046494619F074FB02460B46204629460B
:106A900019F06EFB02F040F8002E08DC01F1004313
:106AA0001946BDE8708302460B4619F061FBBDE84C
:106AB000708317F00DFB02F02FF819A3D3E9002320
:106AC00019F056FBE8E722462B462046294619F0E6
:106AD00005FD804689462046294617F0F9FA00222E
:106AE00004460D46124B4046494619F041FB18F04A
:106AF00005FA00220E4B19F03BFB02460B464046BE
:106B0000494619F015FE22462B4619F031FB00F0DC
:106B1000A7FAC1E7AFF300809C7500883CE4377E9C
:106B2000EF39FAFE422EE63FFFFFEF7FFFFF2F3ED9
:106B30000000F03F0000B0412DE9F84FBE4B21F0BE
:106B400000469E4204460D468A460EDDBB4B9E42E1
:106B500000F3B18000F0AC80BAF1000F40F3EA809E
:106B600099A1D1E90001BDE8F88FB54B9E4200F331
:106B7000BA80A3F1DE739E4240F3A5804FF0FF3B45
:106B800022462B462046294619F0A8FC02460B4611
:106B90008046894619F0A2FC8DA3D3E9002306465E
:106BA0000F4619F09BFC8CA3D3E9002319F0E0FAFF
:106BB00032463B4619F092FC89A3D3E9002319F031
:106BC000D7FA32463B4619F089FC87A3D3E9002364
:106BD00019F0CEFA32463B4619F080FC84A3D3E983
:106BE000002319F0C5FA32463B4619F077FC82A320
:106BF000D3E9002319F0BCFA42464B4619F06EFC6B
:106C00007FA3D3E90023804689463046394619F0F0
:106C100065FC7DA3D3E9002319F0A8FA32463B4670
:106C200019F05CFC7AA3D3E9002319F09FFA3246ED
:106C30003B4619F053FC78A3D3E9002319F096FAE8
:106C400032463B4619F04AFC75A3D3E9002319F0FC
:106C50008DFA32463B4619F041FC02460B4640464F
:106C6000494619F085FA22462B4619F037FCBBF14C
:106C7000FF3F02460B4661D0724B734E4FEACB0B7F
:106C80005B44D3E9002319F071FA22462B4619F030
:106C90006DFAB34402460B46DBE9000119F066FACF
:106CA000BAF1000F0DDA01F100431946BDE8F88F83
:106CB00000283FF451AF22462B462046294619F0C2
:106CC00057FABDE8F88F58A3D3E9002319F050FA1A
:106CD00000225E4B19F092FE00283FF44FAF204691
:106CE0002946BDE8F88F17F0F3F9594B9E42044648
:106CF0000D4629DCA3F550239E424EDC02460B468E
:106D000019F036FA0022514B19F030FA00220646EB
:106D10000F464FF080432046294619F029FA0246D3
:106D20000B463046394619F003FD4FF0000B044680
:106D30000D4625E73EA1D1E90001C2E720462946DC
:106D400019F014FABDE8F88F424B9E421ADC00227B
:106D5000414B19F00BFA002206460F463E4B2046E7
:106D6000294619F0BBFB0022384B19F001FA024604
:106D70000B463046394619F0DBFC4FF0020B044657
:106D80000D46FDE602460B460020344919F0D0FCC2
:106D90004FF0030B04460D46F2E600222B4B19F090
:106DA000E5F9002206460F46284B2046294619F0F1
:106DB000DFF902460B463046394619F0B9FC4FF070
:106DC000010B04460D46DBE6182D4454FB21F93F28
:106DD00011DA22E33AAD903FEB0D76244B7BA93FCD
:106DE000513DD0A0660DB13F6E204CC5CD45B73F9B
:106DF000FF8300922449C23F0D5555555555D53F47
:106E00002F6C6A2C44B4A2BF9AFDDE522DDEAD3F3A
:106E10006D9A74AFF2B0B33F711623FEC671BC3FDA
:106E2000C4EB98999999C93F9C7500883CE4377EDA
:106E3000182D4454FB21F9BFFFFF0F440000F07FE1
:106E4000FFFFDB3F28180400081804000000F03F93
:106E5000FFFFF23FFF7F03400000F83F0000F0BF5C
:106E60002DE9F041C1F30A57A7F2FF35132D024671
:106E70000B460C468846064620DC002D4ADB364F82
:106E80002F4101EA070C5CEA000C1CD030A3D3E9C7
:106E9000002319F06DF90022002319F0AFFD48B16D
:106EA000002C04DD4FF4801343FA05F5A84428EACA
:106EB0000704002621463046BDE8F081332D06DD6B
:106EC000B5F5806F38D010461946BDE8F081A7F2BD
:106ED00013474FF0FF3C2CFA07F70742F3D01CA3EF
:106EE000D3E9002319F044F90022002319F086FDAC
:106EF0000028DFD0002C09DD142D22D00123C5F19C
:106F0000340503FA05F5AE1928BF984426EA0706AA
:106F10004446CFE70EA3D3E9002319F029F9002254
:106F2000002319F06BFD0028C4D0002C0CDB264395
:106F300005D00026094CBDE719F01AF9C5E734461B
:106F4000B8E704F10108E1E700264FF00044B1E79B
:106F50009C7500883CE4377EFFFF0F000000F03F87
:106F60002DE9F041C1F30A57A7F2FF35132D024670
:106F70000B460C46884606461DDC002D3CDB364F92
:106F80002F4101EA070C5CEA000C19D030A3D3E9C9
:106F9000002319F0EDF80022002319F02FFDC8B3EB
:106FA000002C04DA4FF4801343FA05F5A84428EACC
:106FB000070400262EE0332D06DDB5F5806F2DD0B9
:106FC00010461946BDE8F081A7F213474FF0FF3C89
:106FD0002CFA07F70742F3D01DA3D3E9002319F0D9
:106FE000C7F80022002319F009FD98B1002C21DB1D
:106FF00026EA070644460DE015A3D3E9002319F05D
:10700000B7F80022002319F0F9FC18B1002C08DBB6
:107010000026344621463046BDE8F08119F0A8F834
:10702000D0E724F000430D4A1E43002E18BF14463B
:107030000026EFE7142D08D00123C5F1340503FA2B
:1070400005F5AE1928BF9844D2E704F10108CFE74F
:107050009C7500883CE4377EFFFF0F000000F0BF06
:107060002DE9F04FD84B994287B08046894643DDE1
:10707000D64B99420E4600F3F480D54B994240F32B
:107080002D819FEDBB7B8DED047B4FEA215A044699
:10709000AAF2FF3ACF4BC6F313069E4246F07F5545
:1070A00000F3128145F44015204629460022CA4BC0
:1070B00019F05CF8002204460D46C84B19F00EFA90
:1070C00022462B4619F00AFAA046CDE90201A9464C
:1070D000CDE90001002E3AD10022002320462946A6
:1070E00019F064FC002800F01B81BAF1000F40F099
:1070F000858100200021B8E0B94B21F000449C427A
:107100000A460FDD0022B74B19F050FC002800F0B2
:10711000AF80002200230020B34919F009FB07B01B
:10712000BDE8F08FB14B9C4240F3AF80B04B1A44A6
:107130009A4240F2D3800022A84B19F0CFF9424680
:107140004B4619F0CBF9CDE900014FF0000A0022BF
:107150004FF080434046494619F00AF802460B4674
:107160004046494619F0E4FA02460B4606460F46E9
:1071700019F0B4F980A3D3E9002304460D4619F0B1
:10718000ADF97FA3D3E9002318F0F2FF22462B4686
:1071900019F0A4F97CA3D3E9002318F0E9FF2246F3
:1071A0002B4619F09BF97AA3D3E9002318F0E0FFEE
:1071B00022462B4619F092F977A3D3E9002318F061
:1071C000D7FF22462B4619F089F975A3D3E900238E
:1071D00018F0CEFF22462B4619F080F972A3D3E9AE
:1071E000002318F0C5FF22462B4619F077F9DDE998
:1071F000002318F0BDFF32463B4619F06FF90446F4
:107200000D46BAF1000F00F0A880504619F0FCF8C6
:1072100067A3D3E9002382468B4619F05FF966A382
:10722000D3E9002306460F465046594619F056F951
:10723000DDE9042318F09CFF22462B4618F098FF46
:1072400002460B46DDE9000118F090FF42464B462E
:1072500018F08CFF02460B463046394618F086FF80
:1072600003E002460B4618F083FF07B0BDE8F08F3D
:1072700042464B464046494618F078FF02460B46C8
:1072800019F056FA07B0BDE8F08F0022594B18F0FC
:107290006FFF0022002319F0B1FB10B1564B9C4246
:1072A00062DD42464B464046494619F017F9002236
:1072B0004A4B19F013F902460B464046494618F06E
:1072C00055FF07B0BDE8F08F45F40015C6F58016F0
:1072D00020462946B6100AF1010AE7E600223E4B95
:1072E0004046494618F044FF4FEA215AAAF2FF3AB5
:1072F000BAF1000F04460D460E4640F3BD804246EB
:107300004B4618F033FF02460B460020324918F076
:107310002DFF22462B4619F00BFACDE90401B9E600
:1073200027A3D3E900232046294619F0D7F80246BF
:107330000B460020284918F019FFDDE9022319F057
:10734000CDF806460F46BAF1000F75D102460B463E
:107350002046294618F00AFF87E702460B46DDE97A
:10736000000118F003FFA6E7404649467DE700BF4D
:10737000000000000000000044523EDF12F1C23F56
:107380009FC678D0099AC33FDE03CB966446C73FB9
:10739000AF788E1DC571CC3F599322942449D23FBA
:1073A00004FA97999999D93F935555555555E53F05
:1073B0000000E0FE422EE63F763C7935EF39EA3DAB
:1073C000555555555555E53F7982DA3FFFFFEF7F1B
:1073D000FFFF3F439DA006000000F03F0000E03F9C
:1073E000FFFFEF3F0000F0BF000050C3FFFF1F3E54
:1073F0003C412D4000005043FFFF8F3C504619F0A8
:1074000003F824A3D3E9002306460F4619F066F8D3
:10741000DDE9042318F0ACFE20A3D3E900230446E1
:107420000D463046394619F059F802460B462046BB
:10743000294618F09DFE18E7504618F0E5FF17A3FF
:10744000D3E9002382468B4619F048F811A3D3E90B
:107450000023804689465046594619F03FF8DDE939
:10746000042318F085FE02460B463046394618F0D4
:107470007DFE22462B4674E70022054B18F076FE6F
:1074800002460B464046494618F070FE41E700BFF1
:107490000000F03F763C7935EF39EA3D0000E0FE30
:1074A000422EE63F0000000008B517F085F904A35E
:1074B000D3E9002319F03CF908BD00BFAFF3008009
:1074C000EF39FAFE422EE63F2DE9F043DFF8B480B3
:1074D0008BB004460D4601F0F7F898F900300133FF
:1074E00006460F462CD022462B462046294619F048
:1074F0008FFA814620BB2046294616F0E9FD1FA3DE
:10750000D3E9002319F07AFAD0B1194A98F900307A
:10751000CDF820900321CDE90445CDE90245CDE920
:10752000001293B113490020022BCDE9060111D1BD
:1075300018F0AAFD22230360089B9BB9DDE90667CA
:10754000304639460BB0BDE8F0830B4B4FF060423C
:10755000CDE90623684618F013FC0028E8D0089B04
:10756000002BEBD018F090FD089B0360E6E700BF0E
:10757000642A04000000F07FFFFFEF477DF8B98F19
:10758000CE338640FF8100202DE9F043DFF8E48010
:107590008BB004460D4601F047F998F900300133ED
:1075A00006460F4633D02046294618F0E3FB70B359
:1075B0002CA3D3E900232046294619F01FFA81465F
:1075C00050BB2AA3D3E900232046294619F0F8F935
:1075D000E8B198F90030204ACDF820900020002131
:1075E0000426022BCDE90445CDE902450096CDE9FC
:1075F0000601019229D0684618F0C2FB28B3089B07
:107600001BB118F041FD089B0360DDE906673046B9
:1076100039460BB0BDE8F0830F4A98F9003001926B
:1076200003210022CDE90445CDE9024500910892ED
:107630002BB90A4B4FF06042CDE90623DBE708493E
:107640000020022BCDE90601D5D118F01DFD222323
:107650000360D4E7AFF300806C2A0400FFFFEF471C
:107660000000F07FEF39FAFE422E864051302DD5D2
:10767000104987C0FF8100202DE9F04FDFF82C93DF
:107680008DB006460F4614461D4601F09DFC99F943
:107690000080B8F1FF3FCDE9000136D022462B46ED
:1076A0002046294619F0B4F9834670BB32463B4662
:1076B0003046394619F0ACF98246002840F0A280E5
:1076C000304639460022002319F070F910B3002229
:1076D00000232046294619F069F98346002867D01F
:1076E0009FEDA77B0122AC4BCDF828A00292CDE9FB
:1076F0000467CDE906458DED087B0393B8F1000FD3
:1077000041D09FEDA17B8DED007BDDE900010DB047
:10771000BDE8F08FDDE9000118F02CFB8046002861
:1077200000F08D804FF0000A4FF0000BDDE9000102
:1077300052465B4619F03AF90028E6D03046394601
:1077400018F018FB0028E0D02046294618F012FB5C
:107750000028DAD099F900308F4A039204210022E0
:10776000022BCDE90467CDE90645CDE908AB0291CE
:107770000A9203D002A818F003FB50B918F084FC59
:107780002223036005E002A818F0FAFA002800F0AE
:107790009B800A9B1BB118F077FC0A9B03609DED50
:1077A000087B8DED007BDDE900010DB0BDE8F08FB9
:1077B0002046294618F0DEFA0028A6D00022002331
:1077C0002046294619F0FCF800289ED0724A99F903
:1077D0000030CDF828B00121CDE90467CDE9064598
:1077E000CDE90212002B74D06C490020022BCDE9A8
:1077F000080172D118F048FC212303600A9B002B7A
:10780000CDD0C8E7002200232046294619F0CEF843
:1078100000283FF47AAF624B5F49CDF828B00022D0
:107820000120B8F1020FCDE904670290CDE90645C9
:10783000CDE908230391A6D1CDE9002365E73046C1
:10784000394618F097FA00283FF46CAF20462946D5
:1078500018F090FA00283FF465AFDDE900231046E8
:10786000194619F0D5F899F900A000286BD1032327
:10787000DFF824C10A902946204602930022494B92
:10788000CDF80CC0CDE90645CDE9046718F026FE19
:1078900004460D46BAF1000F25D1DFF814B14FF0C0
:1078A000604A0022002330463946CDE908AB19F082
:1078B00087F838BB02A818F063FA00289ED118F0A8
:1078C000E3FB2223036099E718F0DEFB212303602A
:1078D0005FE79FED2B7B8DED087B02A818F050FA37
:1078E00000288BD186E79FED2A7B002200233046BB
:1078F00039468DED087B19F063F8A0B9BAF1020F93
:10790000DDD0D7E72046294618F042FA22462B461A
:1079100019F04CF8A0B9244B99F900A04FF060423F
:10792000CDE90823EAE72046294618F031FA224635
:107930002B4619F03BF818B9184B0022CDE9082363
:1079400099F900A0DAE70122134BCDF828800292C2
:10795000CDE90467CDE906450393BAF1000FB8D02D
:10796000002200231046194618F0E2FEBAF1020F79
:10797000CDE908013FF43EAFAFE700BFAFF30080B1
:107980000000000000000000000000000000F03FC8
:10799000000000000000F07F842A04000000F0FFD7
:1079A0000000F03F0000E03FFFFFEFC7FF81002035
:1079B000FFFFEF47000000002DE9F84FC44E21F013
:1079C0000043B34204460D460DDD03F1404303F589
:1079D0008013034340F0B980002940F34081002028
:1079E0000021BDE8F88FBB4EB34208DCBA4A93428F
:1079F00000F3B5809CA1D1E90001BDE8F88F002912
:107A0000C0F2708102460B460020B44918F0AEFB6C
:107A10000022B34B18F062FD04460D4617F06EFAD3
:107A200093A3D3E90023894680462946204618F0CF
:107A300055FD91A3D3E9002318F09AFB22462B466B
:107A400018F04CFD8EA3D3E9002318F08FFB2246DB
:107A50002B4618F043FD8CA3D3E9002318F088FBD4
:107A600022462B4618F03AFD89A3D3E9002318F0EB
:107A70007DFB22462B4618F031FD87A3D3E9002376
:107A800018F076FB22462B4618F028FD84A3D3E994
:107A9000002382468B462046294618F01FFD82A30C
:107AA000D3E9002318F062FB22462B4618F016FD9E
:107AB0007FA3D3E9002318F05BFB22462B4618F086
:107AC0000DFD7DA3D3E9002318F050FB22462B4681
:107AD00018F004FD0022814B18F04AFB02460B46C9
:107AE0005046594618F024FE42464B4618F0F6FC24
:107AF000002682468B4632464B463046494618F0B1
:107B0000EDFC02460B462046294618F02FFB324674
:107B100004460D464B464046494618F029FB0246AE
:107B20000B462046294618F003FE02460B465046F7
:107B3000594618F01DFB32464B4618F019FB024619
:107B40000B4618F015FBBDE8F88F02460B4618F0FF
:107B50000DFB02460B4618F0EBFDBDE8F88F024620
:107B60000B4618F0BBFC42A3D3E9002306460F46A0
:107B700018F0B4FC40A3D3E9002318F0F9FA324618
:107B80003B4618F0ABFC3EA3D3E9002318F0EEFA15
:107B900032463B4618F0A2FC3BA3D3E9002318F081
:107BA000E7FA32463B4618F099FC39A3D3E90023A3
:107BB00018F0DCFA32463B4618F090FC36A3D3E9C5
:107BC000002318F0D5FA32463B4618F087FC34A360
:107BD000D3E90023804689463046394618F07EFCBA
:107BE00031A3D3E9002318F0C1FA32463B4618F01E
:107BF00075FC2FA3D3E9002318F0BAFA32463B46AE
:107C000018F06CFC2CA3D3E9002318F0AFFA32462D
:107C10003B4618F063FC0022304B18F0A9FA0246EC
:107C20000B464046494618F083FD22462B4618F085
:107C300055FC02460B4622A1D1E9000118F096FA44
:107C400002460B462046294618F090FA02460B469B
:107C500005A1D1E9000118F089FABDE8F88F1AA151
:107C6000D1E9000179E700BF182D4454FB21F93F09
:107C700009F7FD0DE13D023F88B20175E0EF493F94
:107C80003B8F68B52882A43F5544880E55C1C93F33
:107C90007D6FEB0312D6D43F555555555555C53F0D
:107CA00082922EB1C5B8B33F59018D1B6C06E63FD9
:107CB000C88A599CE52A00404B2D8A1C273A03406C
:107CC000075C143326A6913C182D4454FB2109402F
:107CD000FFFFEF3FFFFFDF3F0000603C0000F03F91
:107CE0000000E03F00225C4B18F042FA00225B4BA0
:107CF00018F0F4FB40A3D3E9002304460D4618F026
:107D0000EDFB3FA3D3E9002318F032FA22462B46BD
:107D100018F0E4FB3CA3D3E9002318F027FA22462D
:107D20002B4618F0DBFB3AA3D3E9002318F020FA26
:107D300022462B4618F0D2FB37A3D3E9002318F0D4
:107D400015FA22462B4618F0C9FB35A3D3E90023C8
:107D500018F00EFA22462B4618F0C0FB80468946E2
:107D60002046294617F0CAF82FA3D3E90023064678
:107D70000F462046294618F0B1FB2DA3D3E9002376
:107D800018F0F4F922462B4618F0A8FB2AA3D3E9F1
:107D9000002318F0EDF922462B4618F09FFB28A38C
:107DA000D3E9002318F0E2F922462B4618F096FB9F
:107DB0000022294B18F0DCF902460B4640464946A2
:107DC00018F0B6FC32463B4618F088FB1EA3D3E9F8
:107DD000002318F0CBF932463B4618F0C9F90246A9
:107DE0000B4618F0C5F902460B4619A1D1E900016E
:107DF00018F0BCF9B1E600BF09F7FD0DE13D023F07
:107E000088B20175E0EF493F3B8F68B52882A43FF7
:107E10005544880E55C1C93F7D6FEB0312D6D43F40
:107E2000555555555555C53F82922EB1C5B8B33FEE
:107E300059018D1B6C06E63FC88A599CE52A004013
:107E40004B2D8A1C273A0340075C143326A6913C2D
:107E5000182D4454FB2109400000F03F0000E03F92
:107E6000414A91422DE9F84304460D4637DD3F4A29
:107E700091420B4608DD02F1795291423DDD024606
:107E800018F076F9BDE8F88301F1404202F580125E
:107E900002432ED0B1F1804F37DC0022344B18F072
:107EA00065F902460B4604460D4618F061F9224674
:107EB00006460F462B462046294618F00FFB024681
:107EC0000B463046394618F053F917F017F822469A
:107ED0002B4618F04DF9BDE8F843FFF7C1B802464C
:107EE0000B4618F043F902460B4618F021FCBDE89A
:107EF000F88300200021BDE8F88300F00DFE18A3F0
:107F0000D3E9002318F034F9F1E7024618F0E6FA55
:107F10000022174B18F02AF916F0F0FF224680468F
:107F200089462B462046294618F022F92246064665
:107F30000F462B464046494618F01AF902460B46B2
:107F400000200B4918F0F4FB0B4602463946304638
:107F500018F00CF9BDE8F84300F0DEBDAFF3008087
:107F6000EF39FAFE422EE63FFFFFEF3FFFFFAF4142
:107F70000000F03F000000002DE9F04FAE4B21F073
:107F800000479F4287B004460D4611DD07F1404788
:107F900007F5801703463B4321D002460B4618F0F5
:107FA000E5F802460B4618F0C3FB07B0BDE8F08FBA
:107FB000A24B9F420E4629DCB7F1795F80F24681E1
:107FC00081A3D3E9002318F0D3F800229C4B18F0CA
:107FD00015FDD8B12046294607B0BDE8F08F7CA337
:107FE000D3E9002318F07AFA7BA3D3E900230646ED
:107FF0000F462046294618F071FA02460B463046D5
:10800000394618F0B5F807B0BDE8F08F204629468C
:1080100016F05EF802460B460020894918F0A6F8D3
:108020000022884B18F05AFA6DA3D3E900230446C6
:108030000D4618F053FA6CA3D3E9002318F098F812
:1080400022462B4618F04AFA69A3D3E9002318F018
:108050008DF822462B4618F041FA67A3D3E9002396
:1080600018F086F822462B4618F038FA64A3D3E9B4
:10807000002318F07BF822462B4618F02FFA62A353
:10808000D3E9002318F074F822462B4618F026FA9C
:108090005FA3D3E90023CDE900012046294618F06B
:1080A0001DFA5DA3D3E9002318F060F822462B46A1
:1080B00018F014FA5AA3D3E9002318F059F822460D
:1080C0002B4618F00BFA58A3D3E9002318F04EF80A
:1080D00022462B4618F002FA594B002218F048F8B5
:1080E00082468B4620462946CDE902AB16F006FFB4
:1080F000554B9F428046894600F3198102460B4644
:1081000018F036F8DDE90223CDE90401DDE90001CC
:1081100018F00EFB02460B46DDE9040118F0DEF90B
:108120004FF0000ACDE9000152464B465046494601
:1081300018F0D4F902460B462046294618F016F8E6
:10814000524604460D464B464046494618F010F844
:1081500002460B462046294618F0EAFA02460B462C
:1081600018F006F802460B461BA1D1E9000117F0F2
:10817000FDFF02460B46DDE9000117F0F7FF52460E
:1081800004460D464B465046494617F0F1FF02465D
:108190000B4627A1D1E9000117F0E8FF02460B4684
:1081A0002046294617F0E2FF02460B4620A1D1E9FE
:1081B000000117F0DBFF002E3FF7F7AE01F100439F
:1081C0001946F2E6AFF300809C7500883CE4377EE8
:1081D000182D4454FB21F93F075C143326A6913C2B
:1081E00009F7FD0DE13D023F88B20175E0EF493F1F
:1081F0003B8F68B52882A43F5544880E55C1C93FBE
:108200007D6FEB0312D6D43F555555555555C53F97
:1082100082922EB1C5B8B33F59018D1B6C06E63F63
:10822000C88A599CE52A00404B2D8A1C273A0340F6
:10823000182D4454FB21E93FFFFFEF3FFFFFDF3FD5
:108240000000F03F0000E03F3233EF3F02460B46B4
:1082500018F044F94BA3D3E9002306460F4618F063
:108260003DF94AA3D3E9002317F082FF32463B468B
:1082700018F034F947A3D3E9002317F077FF32460B
:108280003B4618F02BF945A3D3E9002317F070FF04
:1082900032463B4618F022F942A3D3E9002317F0F7
:1082A00065FF32463B4618F019F940A3D3E9002395
:1082B00017F05EFF32463B4618F010F93DA3D3E9B4
:1082C0000023804689463046394618F007F93BA31B
:1082D000D3E9002317F04AFF32463B4618F0FEF878
:1082E00038A3D3E9002317F043FF32463B4618F08A
:1082F000F5F836A3D3E9002317F038FF32463B46A2
:1083000018F0ECF800221E4B17F032FF02460B4625
:108310004046494618F00CFA22462B4618F0DEF883
:1083200022462B4617F024FF07B0BDE8F08F5246D7
:108330005B46DDE9000118F0FBF942464B4618F0B8
:10834000CDF842464B4617F013FF02460B4617F096
:108350000FFF07A3D3E9002317F008FF02460B46DF
:1083600005A1D1E9000117F001FF24E7AFF3008078
:10837000075C143326A6913C182D4454FB21F93F89
:108380000000F03F09F7FD0DE13D023F88B20175A5
:10839000E0EF493F3B8F68B52882A43F5544880EE3
:1083A00055C1C93F7D6FEB0312D6D43F5555555586
:1083B0005555C53F82922EB1C5B8B33F59018D1BAB
:1083C0006C06E63FC88A599CE52A00404B2D8A1C62
:1083D000273A0340000000002DE9F84F1D465342A4
:1083E000134325F00049DFF8C8C149EAD373634558
:1083F000144606460F4626D8C0F1000848EA000891
:1084000021F0004A4AEAD878E04503468B461AD85C
:1084100005F1404808F5801858EA0208AE4643D0F6
:108420004FEAA57808F002085AEA030348EAD1782F
:1084300011D1B8F1020F55D0B8F1030F09D14AA1FB
:10844000D1E9000105E032463B462046294617F0B7
:108450008FFEBDE8F88F59EA020329D0E1452ED0FE
:10846000E24525D0AAEB09094FEA2959B9F13C0F99
:108470003CDC002D3EDA19F13C0F3BDA00200021F4
:10848000B8F1010F4ED0B8F1020F3ED0B8F1000F95
:10849000DFD037A3D3E9002317F068FE36A3D3E972
:1084A000002317F063FED4E7BDE8F84FFEF744BBA6
:1084B000BBF1000F12DB32A1D1E90001C9E7CA45C7
:1084C00034D0B8F1020F0DD0B8F1030FB7D0B8F126
:1084D000010F4FF0000036D00021BAE72AA1D1E900
:1084E0000001B6E724A1D1E90001B2E724A1D1E956
:1084F0000001C5E722462B463046394618F018F9E8
:1085000015F0E6FDFEF718FBBAE719A3D3E900233F
:1085100017F02CFE02460B4617A1D1E9000117F017
:1085200025FE96E701F10043194692E7B8F1020FE4
:1085300014D0B8F1030F0DD0B8F1010F06D014A17B
:10854000D1E9000185E74FF0004182E712A1D1E9AE
:1085500000017EE712A1D1E900017AE712A1D1E979
:10856000000176E7AFF30080182D4454FB2109C0C9
:10857000075C143326A6A13C182D4454FB21094066
:10858000182D4454FB21F93F182D4454FB21F9BF09
:10859000182D4454FB21E93F182D4454FB21E9BF19
:1085A000D221337F7CD902C0D221337F7CD90240D3
:1085B0000000F07F0000000043422DE9F047034334
:1085C00021F000463C4A46EAD373934204460D46E6
:1085D0002AD8964240D0394B9E428A462EDD384BEF
:1085E0009E4235463FDD33460246314617F0C0FD18
:1085F000224606460F462B4600202F4917F0B6FDAF
:1086000002460B463046394618F092F8FEF728FD30
:1086100000222C4B17F062FFBAF1000F0CDA01F1C7
:1086200000431946BDE8F08702460B4617F09EFD51
:1086300002460B4618F07CF8BDE8F0871CA3D3E98E
:10864000002317F095FD0022002318F0D7F948B158
:1086500020462946BDE8F0870022002318F068F87C
:10866000BDE8F087354622462B462046294617F0BE
:108670007FFD22462B4606460F4617F02FFF224667
:10868000804689462B4600200B4917F06FFD0246B5
:108690000B464046494618F04BF832463B4617F029
:1086A00067FDFEF7DDFC0022064B17F017FFB3E76E
:1086B0009C7500883CE4377E0000F03FFFFF2F3EB2
:1086C000FFFFDF3F0000E03F2DE9F8434E4B21F074
:1086D00000449C4206460F461BDC4C4B9C4222DD6C
:1086E0004B4B9C4254DD4B4B9C4246DD4A4B9C42DB
:1086F0006FDD01339C4269D041A3D3E900231046CA
:10870000194617F0EBFE06460F4630463946BDE8DF
:10871000F88302460B4617F0E1FE06460F46304648
:108720003946BDE8F88315F0D3FC02F04DFC002279
:108730003A4B8046894617F01BFDB4F1725F06463E
:108740000F46ECDB42464B464046494617F0C6FE14
:1087500032463B4604460D463046394617F008FD82
:1087600002460B462046294617F0E2FF00222B4B1B
:1087700017F0FEFC06460F46D1E715F0A9FC00F005
:1087800053F80022264B17F0A9FE06460F46C6E70F
:1087900015F09EFC00F048F80022214B06460F46DB
:1087A00017F09CFE324604460D463B4600201C490D
:1087B00017F0BEFF02460B462046294617F0D8FCAC
:1087C00006460F4630463946BDE8F883154B9842B9
:1087D00092D83046394615F07BFC0022104B17F03A
:1087E0007DFE00F021F8002204460D460C4B17F0E8
:1087F00075FE22462B4617F071FE06460F468EE7A1
:108800009C7500883CE4377EFFFFEF7F422ED63F09
:10881000FFFF3540412E8640CD3386400000F03FBB
:108820000000E03F7DF8B98F2DE9F047B04F21F00F
:108830000042BA4284B004460D464FEAD17610D9C0
:10884000AC4FBA4240F28A80C1F31303034302469D
:1088500040F0F180002E7ED00020002104B0BDE861
:10886000F087A54B9A4200F2B680A44B9A4240F2A0
:10887000D1804FF0000A22462B462046294617F0A9
:108880002DFE85A3D3E9002306460F4617F026FEEA
:1088900083A3D3E9002317F069FC32463B4617F067
:1088A0001DFE81A3D3E9002317F062FC32463B464C
:1088B00017F014FE7EA3D3E9002317F057FC3246CD
:1088C0003B4617F00BFE7CA3D3E9002317F050FCC6
:1088D00032463B4617F002FE02460B46204629462A
:1088E00017F044FC02460B4606460F462046294632
:1088F00017F0F4FD80468946BAF1000F00F0AB8016
:1089000032463B4600204FF0804117F02FFC0246D4
:108910000B464046494617F00BFF02460B46DDE981
:10892000020117F023FCDDE9002317F01FFC0B46C2
:1089300002467349002017F019FC6FF47F739A45C3
:1089400080F2A3800AF57A7A01EB0A5100224FF0F7
:10895000B87317F0C3FD04B0BDE8F08758A3D3E99E
:10896000002318F04BF800286BD157A3D3E900235C
:108970002046294618F024F800287FF46DAF61499D
:1089800053A3D3E9002301EBC6062046294617F07E
:10899000A5FDD6E9002317F0EBFB18F04FF882464F
:1089A00017F032FD4CA3D3E9002306460F4617F01B
:1089B00095FD02460B462046294617F0D7FB48A3F3
:1089C000D3E90023CDE900013046394617F086FD92
:1089D000CDE9020115E04C4B9A42D0D84B4BF40044
:1089E0002344D3E9002317F0C1FB494B234493ED03
:1089F000007BCDE900018DED027BC6F1010AAAEBF7
:108A0000060ADDE90223DDE9000117F0AFFB0446A9
:108A10000D4630E734A3D3E9002317F0A9FB002269
:108A2000374B17F0EBFFA8B3204629460022344B02
:108A300017F09EFB8FE70B4617F09AFB04B0BDE8DA
:108A4000F08729A3D3E900231046194617F046FD05
:108A500004B0BDE8F0873046394600224FF080432D
:108A600017F084FB02460B464046494617F060FE6D
:108A700022462B4617F07AFB02460B46002020497F
:108A800017F074FB04B0BDE8F08701EB0A5104B0A5
:108A9000BDE8F0878246EEE6D0A4BE726937663E36
:108AA000F16BD2C541BDBB3E2CDE25AF6A56113FEE
:108AB00093BDBE166CC1663F3E5555555555C53FD5
:108AC000EF39FAFE422E864051302DD5104987C02D
:108AD000FE822B654715F73F0000E0FE422EE63F81
:108AE000763C7935EF39EA3D9C7500883CE4377E69
:108AF000412E8640FFFFEF7F422ED63FFFFF2F3EE5
:108B00000000F03F48180400B1A2F03F58180400DC
:108B100068180400000000002DE9F04FB1F5801F37
:108B200085B006460F460B4680F2D08021F0004209
:108B3000024300F0DA800029C0F2E9800022D64B1F
:108B400017F0CCFCD54A0B46934206460F466FF011
:108B5000350E00F3C180C3F3130505F5152C0CF693
:108B6000647C0CF4801C8CF07F5282F440121C1543
:108B700042EA0507A4F2FF3474440022C84B304691
:108B8000394604EB1C5417F0F1FAAB1CC3F3130382
:108B9000022B82468B464FF0000240F3AF804FF02D
:108BA000804317F0E5FA02460B465046594617F047
:108BB000BFFD064620460F4617F026FC3246CDE99B
:108BC00002013B4630463946CDE9006717F086FC86
:108BD00002460B468046894617F080FC9AA3D3E9EB
:108BE000002306460F4617F079FC99A3D3E900232A
:108BF00017F0BEFA32463B4617F070FC96A3D3E955
:108C0000002317F0B5FA32463B4617F067FC94A3F1
:108C1000D3E9002317F0ACFA42464B4617F05EFC4E
:108C200091A3D3E90023804689463046394617F0A0
:108C300055FC8FA3D3E9002317F09AFA32463B463E
:108C400017F04CFC8CA3D3E9002317F091FA3246BD
:108C50003B4617F043FC0B4602464946404617F098
:108C600087FAA5F5C223C5F5D725A3F27A43513576
:108C70001D43002D06460F4640F387800022894B96
:108C80005046594617F02AFC52465B4617F026FC20
:108C900002460B46804689463046394617F068FA48
:108CA000DDE9002317F01AFC06460F46002C40F0C1
:108CB000818002460B464046494617F057FA024665
:108CC0000B465046594617F051FA0BE0734A93424F
:108CD0004FF0000E7FF73FAF32463B4630463946F5
:108CE00017F046FA05B0BDE8F08F002200230020FF
:108CF0006D4917F01DFD05B0BDE8F08F002317F09A
:108D000055FE60B1002C7CD100200021EAE702462C
:108D100017F02CFA0022002317F00AFDE2E758A30F
:108D2000D3E900235046594617F0D8FB02460B46BC
:108D300000205C4917F01AFA524606460F465B4679
:108D40005046594617F0CAFB02460B463046394694
:108D500017F0C4FB06460F462CB3204617F054FB11
:108D600049A3D3E900238046894617F0B7FB48A3FF
:108D7000D3E9002304460D464046494617F0AEFBB2
:108D800002460B46304639462CE002460B4650461A
:108D9000594617F0EBF9DDE9002317F09FFB064673
:108DA0000F46002C47D132463B465046594617F0F5
:108DB000DDF997E734A3D3E90023DDE9020117F0D9
:108DC0008DFB33A3D3E9002304460D46DDE9020100
:108DD00017F084FB32463B4617F0CAF902460B46B1
:108DE0004046494617F0C2F952465B4617F0BEF9B5
:108DF00002460B462046294617F0B8F905B0BDE8F3
:108E0000F08F204617F000FB1FA3D3E9002306468E
:108E10000F4617F063FB1EA3D3E9002304460D465B
:108E20003046394617F05AFB02460B462046294683
:108E300017F09EF956E7DDE9028913A3D3E9002371
:108E40004046494691E700BF44523EDF12F1C23F1F
:108E5000DE03CB966446C73F599322942449D23F00
:108E6000935555555555E53F9FC678D0099AC33F50
:108E7000AF788E1DC571CC3F04FA97999999D93F67
:108E8000555555555555D53F0000E0FE422EE63F5D
:108E9000763C7935EF39EA3D00005043FFFFEF7F24
:108EA0000000F03F0000E03F000050C30000000061
:108EB000B1F5801F2DE9F84304460D460B4619DA3B
:108EC00021F00042024359D000295FDB00223A4BD7
:108ED00017F004FB394A0D462B46934204466FF0C7
:108EE00035010CDD22462B462046294617F040F975
:108EF000BDE8F883314A93424FF00001F2DC1815C7
:108F0000A0F2FF3008444FEAD0794844C3F3130875
:108F100017F07AFAC9F57F73033348EA035506461A
:108F20000F4620462946FFF7F7FD1DA3D3E900238E
:108F3000804689463046394617F0D0FA1AA3D3E95D
:108F4000002304460D464046494617F0C7FA02463C
:108F50000B462046294617F00BF915A3D3E9002349
:108F600004460D463046394617F0B8FA02460B461D
:108F70002046294617F0FCF8BDE8F88300220023BC
:108F800000200F4917F0D4FBBDE8F883024617F024
:108F9000EDF80022002317F0CBFBA9E7AFF3008028
:108FA000362BF111F3FE593D0EE526157BCBDB3F49
:108FB00000609F501344D33F00005043FFFFEF7FFA
:108FC000000050C3000000002DE9F04F23F00045E1
:108FD00055EA020493B00DD06B4E21F00044B44228
:108FE0000F4682460BDD04F1404404F5801454EA38
:108FF0000A0350D16549002013B0BDE8F08F9B46AD
:10900000944647D0B542EEDC5F4EB5425DD0002FAE
:1090100080468946CDE900235BDB0026BCF1000FCA
:109020000ED1594B9D423FD0584B9D4200F0888055
:10903000BBF1804F00F09C80554B9B4500F0B883FE
:109040004046494615F044F8BAF1000F06D1002C0D
:1090500059D04E4B27F040429A4254D0FF0F013F67
:1090600056EA070373D04B4B9D4240F39B8003F1BC
:1090700004739D4240F33E84474B9C4272DDBBF13A
:10908000000F72DD3EA3D3E900231046194617F006
:1090900025FAB1E728B1414813B0BDE8F04F16F00A
:1090A00071BEA542F7DCAFE704F1404303F580133E
:1090B00053EA0A039ED0384B9C4240F38383BBF1B2
:1090C000000F52DBDDE9000196E7BCF1000F9ED0F6
:1090D00089E7334B9D4231DCA3F154739D429CDD03
:1090E0002B15A3F2FF33142B40F3A583C3F13403F4
:1090F0002CFA03F202FA03F363458ED102F0010267
:10910000C2F102068AE7BBF1000F05DA02460B4600
:1091100000201E4917F00CFB002FBFF66DAF04F1C5
:10912000404404F5801454EA060300F03F84012E05
:109130007FF462AF01F1004319465DE702266DE757
:10914000BBF1000FC0F248834046494654E742460F
:109150004B461046194617F009F802460B4617F021
:10916000E7FA49E7BBF1000F8CDB0020002143E761
:1091700042464B464046494617F0B0F93CE700BF2F
:109180009C7500883CE4377E0000F07F0000F03FD3
:109190000000E03F0000E041FFFFEF3FAC20040093
:1091A000FFFF3F43B4F5801F80F261830022D24B62
:1091B00017F094F96FF0340C0C462315CF4DC4F31F
:1091C0001302A3F2FF3342F07F546344AA420B938D
:1091D00044F4401440F33F83C94B9A4240F3048463
:1091E0009FEDAF7B8DED087B8DED107B9FEDAE7B12
:1091F0000B9B8DED067B01330B93A4F580140025AA
:10920000DDE906232146824616F0B0FFA346DDE9DC
:1092100006238046894650462146CDE90CAB16F020
:10922000A7FF02460B460020B64917F081FA0A460E
:109230000146CDE90E12134649460246404617F054
:109240004DF9631043F0005382468B4603F500232B
:109250008C46CDE904AB5919D3460023CDE902BCB5
:109260000293DDE902AB002004460D4602460B46A0
:109270005046594617F032F902460B4640464946D9
:1092800016F074FFDDE9062380468946204629460C
:1092900016F06CFF02460B46DDE90C0116F066FF86
:1092A00052465B4617F01AF902460B4640464946BD
:1092B00016F05CFFDDE90E2317F010F9DDE9044537
:1092C000CDE9060122462B462046294617F006F92D
:1092D00077A3D3E9002304460D4617F0FFF876A3E1
:1092E000D3E9002316F044FF22462B4617F0F6F888
:1092F00073A3D3E9002316F03BFF22462B4617F059
:10930000EDF871A3D3E9002316F032FF22462B4675
:1093100017F0E4F86EA3D3E9002316F029FF2246E4
:109320002B4617F0DBF86CA3D3E9002316F020FFDF
:109330002246804689462B462046294617F0CEF81D
:1093400002460B464046494617F0C8F852460446C6
:109350000D465B46DDE9040116F00AFFDDE9062350
:1093600017F0BCF822462B4616F002FF5246804604
:1093700089465B465046594617F0B0F80022624BCA
:10938000CDE90C0116F0F4FE42464B4616F0F0FE15
:1093900002980D46044622462B465046594617F081
:1093A0009DF8002282468B46574B2046294616F0F0
:1093B000DDFEDDE90C2316F0D9FE02460B464046E1
:1093C000494616F0D3FEDDE9042317F087F822465C
:1093D000804689462B46DDE9060117F07FF80246F4
:1093E0000B464046494616F0C3FE80468946024673
:1093F0000B465046594616F0BBFE029838A3D3E9F7
:10940000002304460D4617F069F85246CDE90401E1
:109410005B462046294616F0A9FE02460B4640460A
:10942000494616F0A3FE30A3D3E9002317F056F8FF
:109430002FA3D3E90023804689462046294617F00A
:109440004DF802460B464046494616F091FEDDE9CE
:10945000102316F08DFE80460B98894616F0D4FF37
:10946000424682468B464B46DDE9040116F080FEFB
:10947000DDE9082316F07CFE52465B4616F078FEC6
:10948000029852465B4604460D4616F06FFEDDE933
:10949000082316F06BFEDDE9042337E0AFF300800C
:1094A0000000000000000000000000000000F03F8D
:1094B000EF4E454A287ECA3F65DBC9934A86CD3FB9
:1094C00001411DA96074D13F4D268F515555D53F9F
:1094D000FFAB6FDBB66DDB3F033333333333E33F37
:1094E000000000E009C7EE3FFD033ADC09C7EE3F8C
:1094F000F5015B14E02F3EBE000040438E98030050
:1095000079B60B000000F03F0000084016F02EFE78
:109510000B4602464946404616F028FE013E56EAF2
:10952000070382468B4600F05E819FEDD37B8DED75
:10953000047BDDE9001200230E461746CDE90267E1
:109540000293DDE9026708463B461146324616F0B3
:109550000DFE22462B4616F0C1FFDDE900238046B2
:1095600089465046594616F0B9FF02460B4640461A
:10957000494616F0FDFD3246804689463B46204668
:109580002946CDE9008916F0A9FF0B46024606469A
:109590000F464046494616F0EBFDD14B9942044632
:1095A0000D468A4640F3248101F13F4303F5E00371
:1095B000034340F0FF81B2A3D3E90023DDE90001BA
:1095C00016F0D6FD3246804689463B46204629465F
:1095D00016F0CCFD02460B464046494617F00EFAFF
:1095E000002840F0E781A8464FEA2853A3F2FE3254
:1095F0004FF4801313415344C3F30A52B94DA2F2FE
:10960000FF321541C3F3130423EA05010020C2F120
:10961000140B44F48014BAF1000F02460B4644FACE
:109620000BFB30463946B8BFCBF1000B16F09EFD60
:1096300006460F463246DDE900013B4616F098FD2E
:109640004FEA0B5A0D4600248FA3D3E9002320468E
:10965000294616F043FF3246804689463B4620465F
:10966000294616F083FD02460B46DDE9000116F09F
:109670007DFD87A3D3E9002316F030FF86A3D3E94D
:10968000002306460F462046294616F027FF0246CD
:109690000B463046394616F06BFD06460F4602462D
:1096A0000B464046494616F063FD42464B4604468B
:1096B0000D4616F05BFD02460B463046394616F065
:1096C00055FD2246804689462B462046294616F0FF
:1096D00005FF73A3D3E9002306460F4616F0FEFEEE
:1096E00071A3D3E9002316F041FD32463B4616F044
:1096F000F5FE6FA3D3E9002316F03AFD32463B4650
:1097000016F0ECFE6CA3D3E9002316F02FFD3246D1
:109710003B4616F0E3FE6AA3D3E9002316F028FDCA
:1097200032463B4616F0DAFE02460B4620462946F4
:1097300016F01CFD06460F4602460B4620462946FB
:1097400016F0CCFE0022CDE900014FF080433046F8
:10975000394616F00BFD02460B46DDE9000116F016
:10976000E7FF424606460F464B462046294616F07E
:10977000B5FE42464B4616F0FBFC02460B46304611
:10978000394616F0F3FC22462B4616F0EFFC024653
:109790000B460020544916F0E9FC8A44BAF5801FB4
:1097A000C0F232815146DDE9042316F097FE23E42E
:1097B000002FFFF645AC4046494613B0BDE8F04FD8
:1097C00015F09CBBBBF1000FBFF6CFACDDE9003458
:1097D000184604F100410FE442464B46002042493E
:1097E00016F0A6FF08E49FED387B8DED047BA0E624
:1097F0003E4B21F00048984540F3EA803C4B0B4437
:1098000003430AD132463B4616F0B0FCDDE90023A3
:1098100017F0EAF800283FF4E7AEDDE904012CA3D5
:10982000D3E9002316F05AFE29A3D3E9002316F04A
:1098300055FEFFF7E1BBBCF1000F40F0D280C3F151
:10984000140345FA03F202FA03F3AB4200F0E0809E
:109850006646FFF7E9BB9FED207B8DED087B8DED24
:10986000107B9FED057B00258DED067BC8E44FF056
:10987000000CA2E4AFF30080000000000000F03F05
:10988000FE822B654715973C00000000432EE63F03
:10989000EF39FAFE422EE63F396CA80C615C20BE1F
:1098A000D0A4BE726937663EF16BD2C541BDBB3EE6
:1098B0002CDE25AF6A56113F93BDBE166CC1663FC4
:1098C0003E5555555555C53F000000000000F0BFFE
:1098D00059F3F8C21F6EA50100000000000000004F
:1098E000FFFF8F40FFFF0F000000F03FFFCB9040D5
:1098F00000346F3F5A4B9C427FF734AC594B9C422B
:109900003FF7BDAB0022574B16F030FC44A3D3E920
:10991000002304460D4616F0E1FD43A3D3E90023DE
:1099200082468B462046294616F0D8FD0022CDE916
:1099300002014D4B2046294616F0D0FD02460B464B
:109940003BA1D1E9000116F011FC22462B4616F08E
:10995000C5FD02460B460020444916F007FC22468E
:10996000804689462B462046294616F0B7FD02461A
:109970000B464046494616F0B1FD2FA3D3E900231C
:1099800016F0ACFD02460B46DDE9020116F0EEFBD7
:1099900002460B46804689465046594616F0E8FB7B
:1099A000002004460D4652465B46AFE502460B4694
:1099B000FFF7CFBBDDE9040121A3D3E9002316F0B3
:1099C0008DFD1FA3D3E9002316F088FDFFF714BB1C
:1099D000264B98453FF708AEDDE9022392469346B1
:1099E00031E60026FFF72CBB9FED177B8DED087B42
:1099F0009FED177B8DED107B9FED177B4FF480253E
:109A00008DED067BFFF7FCBB5A4601F029FDCAE647
:109A100002F00102C2F10206FFF706BBAFF30080BD
:109A2000000000604715F73F44DF5DF80BAE543E81
:109A3000555555555555D53FFE822B654715F73F72
:109A40009C7500883CE4377E0000004003B8E23F8C
:109A500006D0CF43EBFD4C3E000000000000F83F75
:109A6000FEFFEF3F0000F03F0000D03F0000E03F6E
:109A70002DE9F047CA4B21F000479F4290B0804645
:109A8000894640F38F80C74B9F420C46924626DCA6
:109A90000029B9A3D3E9002340F38F8016F066FBB9
:109AA000C14B9F4204460D4600F04781B4A3D3E961
:109AB000002316F05BFB02460B46CAE90023204652
:109AC000294616F053FBAEA3D3E9002316F04EFB54
:109AD0000125CAE90201284610B0BDE8F087B34B62
:109AE0009F4240F38980B24B9F4200F31C813D1599
:109AF000A5F21645A7EB055319461F46064616F074
:109B00009DFF16F081FC8046894642464B46304612
:109B10003946CDE90A8916F029FB0022A54B16F03B
:109B2000DDFC8946804616F089FF16F06DFC06467E
:109B30000F4632463B4640464946CDE90C6716F093
:109B400015FB00229B4B16F0C9FC00220023CDE937
:109B50000E0116F02BFF002800F060810023304634
:109B60003946002216F022FF002814BF01230223E9
:109B7000914A019202212A4600910AA8514600F01A
:109B800087FB002C054614DADAF80420DAF80C30EA
:109B900002F1004203F100434542CAF80420CAF82A
:109BA0000C3006E000200021C2E90089C2E9020170
:109BB0000025284610B0BDE8F08716F0D9FA7A4B98
:109BC0009F4204460D4600F00B816DA3D3E90023AC
:109BD00016F0CEFA02460B46CAE900232946204673
:109BE00016F0C4FA66A3D3E9002316F0C1FA4FF0C9
:109BF000FF35CAE90201DCE714F06AFA62A3D3E98F
:109C000000238046894616F069FC00226B4B16F053
:109C1000AFFA16F013FF054616F0F6FB56A3D3E98C
:109C20000023CDE9060116F059FC02460B464046DA
:109C3000494616F09BFA52A3D3E900238046894691
:109C4000DDE90601CDE9028916F048FC1F2D024628
:109C50000B46CDE9042340F3B380DDE90423DDE9BD
:109C6000020116F083FA804689463F15C9F30A536C
:109C7000FB1A102B40F3B18045A3D3E90023DDE9A3
:109C8000060116F02BFC8046894602460B46DDE9AC
:109C9000020116F06BFA02460B46DDE90201CDE93E
:109CA000082316F063FA42464B4616F05FFA3AA3D1
:109CB000D3E9002380468946DDE9060116F00EFC53
:109CC00042464B4616F052FA0B46CDE904010246D5
:109CD000DDE9080116F04AFAC1F30A53FF1A312FE1
:109CE0008046894600F39C809DED087BCAE9008987
:109CF0008DED027B42464B46DDE9020116F036FA55
:109D0000DDE9042316F032FA002CCAE90201BFF69D
:109D100050AF09F1004401F100436D42CAE90084EB
:109D2000CAE9020345E702460B4616F01FFA002572
:109D3000CAE90201CAE900013BE715A3D3E9002300
:109D400016F014FA14A3D3E900230D46044616F0C6
:109D50000DFA02460B46CAE900232946204616F0B2
:109D600005FA0DA3D3E9002316F000FA0125CAE98C
:109D700002011EE7AFF3008000004054FB21F93FD1
:109D80003163621A61B4D03D83C8C96D305FE43F6E
:109D90000000601A61B4D03D7370032E8A19A33B92
:109DA000FB21E93F7BD90240FB21F93FFB213941EF
:109DB000FFFFEF7F00007041282B04000000E03F10
:109DC0004046494616F0D2F9394B6A1E804653F890
:109DD0002230BB4289463FF448AFCAE9008989E78F
:109DE0002BA3D3E9002316F0C3F92BA3D3E9002357
:109DF0000D46044616F0BCF902460B46CAE900239C
:109E00002946204616F0B2F923A3D3E9002316F021
:109E1000AFF94FF0FF35CAE90201CAE60323A7E60E
:109E20001FA3D3E90023DDE9060116F057FB064620
:109E30000F4602460B46DDE9080116F097F9804609
:109E4000894602460B46DDE90801CDE9028916F094
:109E50008DF932463B4616F089F913A3D3E9002366
:109E600006460F46DDE9060116F038FB32463B4652
:109E700016F07CF902460B4640464946CDE90423DC
:109E800016F074F980468946A7E700BFAFF300805B
:109E90000000601A61B4D03D7370032E8A19A33B91
:109EA0000000002E8A19A33BC14920259A837B39E3
:109EB000A82A040000000000574A2DE9F84F21F0BD
:109EC0000048904506460F462CDC544B0029B4BF91
:109ED000534D544D98454FF0000411DC524B9845BA
:109EE00026DC4BA3D3E9002316F042F900224F4BA6
:109EF00016F084FD002840D030463946BDE8F88F82
:109F00004B4B984530DD4B4B984568DD0133984508
:109F100062D0304639463EA3D3E9002316F0DEFA7C
:109F2000BDE8F88F02460B4616F022F9BDE8F88F1F
:109F300014F0CEF801F048F83F4B984506460F461E
:109F400023DD0022394B16F013F902460B4630464A
:109F5000394616F0EDFB32463B4616F009F922462B
:109F60002B4616F0BBFAE1E714F0B2F8FEF75CFC02
:109F700022462B4616F0B2FAD8E73046394614F09E
:109F8000A7F801F021F806460F4632463B46304618
:109F9000394616F0EDF8324682468B463B4630464F
:109FA000394616F09BFA0022804689461F4B304600
:109FB000394616F0DDF802460B464046494616F093
:109FC000B7FB02460B465046594616F0CFF82246DC
:109FD0002B4616F083FAA9E7184B984299D83046D9
:109FE000394614F075F800220E4B16F077FAFEF79A
:109FF0001BFC06460F4602460B462046294616F035
:10A000006DFA32463B4616F069FA8FE7AFF30080EF
:10A010003374AC3C1F7BAC7FFFFFEF7FFFFF35400D
:10A020000000E0BF0000E03FFFFF2F3E0000F03FD8
:10A03000412E8640CD338640FFFFEF3F7DF8B98F3C
:10A040002DE9F04F21F00048B8F1795F85B0064660
:10A050000F4692469B466BDA16F0F0FC002800F0A3
:10A06000E18032463B463046394616F037FA74A353
:10A07000D3E9002304460D4616F030FA72A3D3E963
:10A08000002316F075F822462B4616F027FA70A327
:10A09000D3E9002316F06AF822462B4616F01EFA82
:10A0A0006DA3D3E9002316F063F822462B4616F081
:10A0B00015FA6BA3D3E9002316F058F822462B4675
:10A0C00016F00CFA68A3D3E9002316F051F82246E3
:10A0D0002B4616F003FACDE900010022664B20461C
:10A0E000294616F0FBF9DDE9002380468946204623
:10A0F000294616F0F3F9524604460D465B463046B3
:10A10000394616F0EBF902460B462046294616F072
:10A110002DF802460B464046494616F027F80246FF
:10A120000B460020554916F021F805B0BDE8F08F28
:10A1300002460B4616F0D2F941A3D3E900230446A8
:10A140000D4616F0CBF940A3D3E9002316F010F822
:10A1500022462B4616F0C2F93DA3D3E9002316F0A0
:10A1600005F822462B4616F0B9F93BA3D3E90023A4
:10A1700015F0FEFF22462B4616F0B0F938A3D3E9BE
:10A18000002315F0F3FF22462B4616F0A7F936A35D
:10A19000D3E9002315F0ECFF2B46224616F09EF97A
:10A1A000374B9845CDE9000197DD364B98453EDCAD
:10A1B000A8F500130022002030499046994615F07A
:10A1C000D5FFCDE9020100222B4B2046294616F08F
:10A1D00085F942464B4615F0C9FFDDE9002380466C
:10A1E00089462046294616F079F9524604460D461E
:10A1F0005B463046394616F071F902460B4620465A
:10A20000294615F0B3FF02460B464046494615F075
:10A21000ADFF02460B46DDE9020115F0A7FF05B0D0
:10A22000BDE8F08F1549002005B0BDE8F08F9FED27
:10A23000107B4FF000088DED027BDFF84C90C2E7F9
:10A24000D43888BEE9FAA8BDC4B1B4BD9EEE213EA3
:10A25000AD529C804F7E923E9015CB19A001FA3EE4
:10A260007751C1166CC1563F4C5555555555A53FB4
:10A27000000000000000E73F0000E03F0000F03F6A
:10A280003233D33F0000E93F0000D23F000000001E
:10A290002DE9F04FADF5197DBE4CA29EBE4D54F890
:10A2A00026600793D41E85FB0475E417C4EBA50450
:10A2B00024EAE4741D46631CA3EB8303013D02EB17
:10A2C000C3030593731904960994019503900B91A8
:10A2D000A4EB05071AD43B44002400255E1C0DF1B5
:10A2E0008008DDF88C9208E059F8270016F08CF809
:10A2F0000137B742E8E8020108D0002FF4DA01374D
:10A3000020462946B742E8E80201F6D1049B002B1B
:10A31000079B4FEAC30302932ADB039A20A902EBAF
:10A32000030801EB0309049B72AA02EBC30B0DF5B2
:10A33000E07A019B002B4FF000064FF0000711DB85
:10A34000039C4D4675E90223F4E8020116F0C6F8B5
:10A3500002460B463046394615F00AFF444506468C
:10A360000F46EFD1EAE80267DA4509F10809E0D1C2
:10A37000DDE90204049920448B0082460BA8A3F176
:10A380000802C31808930CAB13440A938B4698AB8E
:10A3900003EBCB03BBF1000F53E9284529DD70AB7C
:10A3A00003EBCB080DF1300900227C4B20462946F7
:10A3B00016F094F816F042FB16F026F80022784BBF
:10A3C00006460F4616F08AF802460B4620462946F6
:10A3D00015F0CCFE16F032FB78E9022349F8040BA5
:10A3E0003946304615F0C4FE70AB984504460D461C
:10A3F000DAD1DDF81490204629464A4601F030F8BB
:10A4000000224FF07F5304460D4616F067F8FCF724
:10A41000A7FD0022634B16F061F802460B4620466A
:10A42000294615F0A3FE0D46044616F007FB8046AC
:10A4300015F0EAFF0B4602462946204615F096FE27
:10A440004B46002B06460F4640F3E1800BF1FF32EE
:10A450000CA9C9F1180351F8225045FA03F101FA89
:10A4600003F30CA8EB1A40F82230C9F11705884411
:10A4700043FA05F5002D2CDDBBF1000F08F10108B2
:10A4800040F381820C9C002C40F0A780BBF1010FAF
:10A490000AD00CA9012251F8044F531C002C40F0A3
:10A4A0009E809B451A46F6D1059B002B0EDD012BA5
:10A4B00000F0D980022B09D10BF1FF320CAB0CA9B3
:10A4C00053F82230C3F3150341F82230022D00F077
:10A4D000AF80002200233046394616F067FA002884
:10A4E00000F05382049B0BF1FF394B4510DC0BF15C
:10A4F00080430CAA013B089802EB8303002253F827
:10A500000419834242EA0102F9D1002A40F0B680E0
:10A51000049B0CAA013B52F82330002B40F0A18091
:10A520000A9A012352F8041901330029FAD05B4436
:10A530000BF10109994506934CDC099A079909EB3F
:10A54000020801EB0B0508F1804802EB030BA39B0B
:10A5500008F1FF3803EB880870AB03EBC909A39B34
:10A5600020A903EB8B0301EBC505029358F8040FF8
:10A5700015F04AFF0B4601990246002905F1080B28
:10A58000C5E900234FF000064FF000071CDB039CD9
:10A590000CE000BFC82F0400ABAAAA2A0000703E3E
:10A5A000000070410000204075E90223F4E8020138
:10A5B00015F094FF02460B463046394615F0D8FD9B
:10A5C000544506460F46EFD1029B9845E9E80267DD
:10A5D0005D46CBD1DDF818B0D9E6012300220CA9E5
:10A5E000C4F180749B4541F822400EDD51F82320D0
:10A5F00001EB8B0001EB83036FF07F4100E01A68F1
:10A600008A1A43F8042B8342F9D101244CE706D17E
:10A610000BF1FF330CAA52F82350ED152AE7002264
:10A620007B4B16F0E1F9002840F0A381054650E786
:10A6300032463B460020774915F098FD06460F4606
:10A64000002C3FF446AF059A7249002000F008FF45
:10A6500002460B463046394615F088FD06460F4641
:10A6600037E7012363E70BF1FF320CAB0CA953F87A
:10A670002230C3F3160341F8223027E70CAB059ACA
:10A6800053F82930183ACDE9068505926BB909F1DE
:10A690008043013B0CA901EB830353F8041909F132
:10A6A000FF39183A0029F8D00592059A5949002037
:10A6B00000F0D6FEB9F1000F04460D46C0F2C0818D
:10A6C0004FEAC90370AA02EB030808930CAB03EB33
:10A6D0008906DFF844B14FF0000A08F10807043694
:10A6E00056F8040D15F090FE22462B4615F0F6FEA6
:10A6F0005B4667E9020152462046294615F0EEFE08
:10A700000CAB9E4204460D46EAD148AB039301933D
:10A71000CDF8149009F10103DDF810900293C346BF
:10A720004FF0000AB9F1000FC0F22A81DFF8EC8087
:10A730005D4635A3D3E9002300260027002403E06B
:10A74000544510DCF8E80223F5E8020115F0C6FED6
:10A7500002460B463046394615F00AFD0134A14544
:10A7600006460F46ECDA019BE3E802670193029B81
:10A770000AF1010A9A45ABF1080BD3D1A29BDDF88F
:10A780001490032B39D8DFE813F0D9000600060037
:10A790004D0048AB0393B9F1000F4FF000004FF0AC
:10A7A000000109DB039D05EBC904083474E90223A9
:10A7B00015F0DEFCA542F9D1079B002B40F01E816D
:10A7C0000B9BC3E900010B4603990246D1E9000146
:10A7D00015F0CCFCB9F1000F0CDD4AAD01240134B9
:10A7E000F5E8022315F0C4FCA145F8DA079B002B1D
:10A7F00040F014810B9BC3E90201069B03F00700A4
:10A800000DF5197DBDE8F08F00000040FB21F93FF8
:10A810000000E03F0000F03F0000703E9018040090
:10A8200048AB0393B9F1000F40F32781039ACDF8A9
:10A8300010904FEAC9030193D318D3E900AB09F193
:10A840000053013B02EBC9080293914678E9026785
:10A8500052465B463046394615F08AFC04460D46A2
:10A8600002460B463046394615F080FC52465B46A0
:10A8700015F07EFCC145A246AB46C8E90201C8E915
:10A880000045E3D1DDF81090B9F1010F40F3F580F8
:10A89000019B039A02991344C900D3E9006701F1AF
:10A8A000080A019192440DF5947B7AE902893246B7
:10A8B0003B464046494615F05BFC04460D460246C1
:10A8C0000B464046494615F051FC32463B4615F0D2
:10A8D0004FFCD34526462F46CAE90201CAE9004586
:10A8E000E3D1019C039B1034002000211C4403F1A0
:10A8F000100574E9022315F03BFCA542F9D1039C35
:10A90000079ED4E90023D4E90245002E00F08A8096
:10A9100003F1004701F100430B99C1E90403069BD1
:10A920002646944605F1004403F00700C1E900C73C
:10A93000C1E902640DF5197DBDE8F08F089C039D07
:10A940000834002000212C4474E9022315F010FC87
:10A95000A542F9D1079B13B101F1004319460B9BA6
:10A96000C3E90001069B03F007000DF5197DBDE862
:10A97000F08FBBF1000F08F1010874DD022581E5BD
:10A9800000260027EFE600248EE5CDE90685059D2B
:10A99000304639466A4200F063FD0022384B0646D5
:10A9A0000F4616F021F800B30022364B30463946E8
:10A9B00015F094FD16F042F8044615F025FD00222E
:10A9C0002F4B15F08BFD0B4602463946304615F0ED
:10A9D000CDFB16F033F80BF101090CAB183543F839
:10A9E0002B00059543F829405FE63046394616F0BE
:10A9F00025F80CABD94643F82B0056E60B9C01F129
:10AA00000043C4E900030B4603990246D1E9000163
:10AA100015F0ACFBB9F1000F3FF7DFAE01F10043D9
:10AA20001946E7E60B9EC6E90023069BC6E904012A
:10AA300003F00700C6E902450DF5197DBDE8F08F6A
:10AA4000A29B032B3FF6D9AE01A252F823F000BF20
:10AA500061AA020093A7020093A7020021A80200A6
:10AA60000020002176E732463B460020064915F0DB
:10AA70007DFB022506460F462BE5002000213EE720
:10AA8000000070410000703E0000F03F0000000038
:10AA90002DE9F04F21F00046B6F1795F85B004460C
:10AAA0000D469046994604DA15F0C8FF002800F0DC
:10AAB000858022462B462046294615F00FFD064686
:10AAC0000F4602460B462046294615F007FD41A3D6
:10AAD000D3E9002382468B463046394615F0FEFC0A
:10AAE0003EA3D3E9002315F041FB32463B4615F067
:10AAF000F5FC3CA3D3E9002315F03AFB32463B4674
:10AB000015F0ECFC39A3D3E9002315F02FFB3246F6
:10AB10003B4615F0E3FC37A3D3E9002315F028FBEF
:10AB20000E9BCDE900019BB30022294B40464946CC
:10AB300015F0D4FCDDE90023CDE902015046594669
:10AB400015F0CCFC02460B46DDE9020115F00EFBC8
:10AB500032463B4615F0C2FC42464B4615F006FB1A
:10AB600019A3D3E9002306460F465046594615F06F
:10AB7000B5FC02460B463046394615F0F9FA024656
:10AB80000B462046294615F0F1FA05B0BDE8F08FD6
:10AB900002460B463046394615F0A0FC0AA3D3E91D
:10ABA000002315F0E3FA52465B4615F097FC224667
:10ABB0002B4615F0DDFA05B0BDE8F08F204629469A
:10ABC00005B0BDE8F08F00BF495555555555C53FF7
:10ABD0000000E03F7CD5CF5A3AD9E53DEB9C2B8A6B
:10ABE000E6E55A3E7DFEB157E31DC73ED561C1196A
:10ABF000A0012A3FA6F810111111813F00000000AA
:10AC00002DE9F04FC04C21F0004687B0A6428246A5
:10AC10008B460F46CDE900231ADC15F00FFF002804
:10AC20003FD1109B524601331343334300F0B781A9
:10AC3000109B012B00F0C0815B460020B34915F04A
:10AC400077FD04460D462046294607B0BDE8F08F43
:10AC5000AF4B9E4225DD002909DADDE90045224699
:10AC600005F10043CDE900230BF100418B4652462C
:10AC70005B4685A1D1E9000115F078FADDE90023F2
:10AC800004460D4682A1D1E9000115F06FFA9FED4F
:10AC9000827B22462B468DED007B15F069FA8246B9
:10ACA0008B4652465B465046594615F017FC024605
:10ACB0000B468046894615F011FC424604460D4677
:10ACC0004B465046594615F009FC75A3D3E90023BD
:10ACD000CDE902012046294615F000FC72A3D3E914
:10ACE000002315F045FA22462B4615F0F7FB70A31A
:10ACF000D3E9002315F03CFA22462B4615F0EEFB73
:10AD00006DA3D3E9002315F033FA22462B4615F044
:10AD1000E5FB6BA3D3E9002315F02AFA22462B4664
:10AD200015F0DCFB68A3D3E9002315F021FA4246B5
:10AD30004B4615F0D3FB66A3D3E90023CDE904010C
:10AD40002046294615F0CAFB63A3D3E9002315F07A
:10AD50000FFA22462B4615F0C1FB61A3D3E900236D
:10AD600015F006FA22462B4615F0B8FB5EA3D3E990
:10AD7000002315F0FDF922462B4615F0AFFB5CA32E
:10AD8000D3E9002315F0F4F922462B4615F0A6FB73
:10AD900059A3D3E9002315F0EBF902460B46DDE990
:10ADA000040115F0E5F9DDE9022315F097FBDDE973
:10ADB000004522462B4615F0DBF942464B4615F07E
:10ADC0008DFB22462B4615F0D3F94DA3D3E9002382
:10ADD00004460D46DDE9020115F080FB22462B46B4
:10ADE00015F0C6F90B46024680468946504659463C
:10ADF00015F0BEF9464B9E4204460D4600F38C808A
:10AE0000109B012B3BD002460B4600203F4915F01A
:10AE10008FFC002406460F462046294652465B46D4
:10AE2000CDE90067CDE90201009415F09FF9DDE955
:10AE300000AB02460B464046494615F097F952468C
:10AE40005B4615F04BFB524604460D465B46DDE97A
:10AE5000020115F043FB00222E4B15F089F9024642
:10AE60000B462046294615F083F932463B4615F03D
:10AE700035FB52465B4615F07BF904460D462046ED
:10AE8000294607B0BDE8F08F182D4454FB21E93F57
:10AE9000075C143326A6813C00000000000000007F
:10AEA000D47ABF74702AFB3EE9A7F0320FB8123F84
:10AEB00068108D1AF726303F1583E0FEC8DB573F38
:10AEC00093846EE9E326823FFE41B31BBAA1AB3FF8
:10AED000735360DBCB75F3BEA69237A0887E143F18
:10AEE0000165F2F2D844433F280356C9226D6D3FF5
:10AEF00037D60684F464963F7AFE10111111C13FD3
:10AF0000635555555555D53FFFFF2F3E0000F0BF07
:10AF10002794E53F0000F03F109815F075FA22469F
:10AF2000CDE900012B462046294615F0D7FADDE988
:10AF30000023CDE902012046294615F019F9024601
:10AF40000B46DDE9020115F0F3FB42464B4615F0D6
:10AF50000DF902460B465046594615F007F90246D0
:10AF60000B4615F005F902460B46DDE9000115F028
:10AF7000FDF80446B81700F00200C0F101000D46CC
:10AF800015F042FA02460B462046294615F0A6FA6D
:10AF900004460D462046294607B0BDE8F08F5046CE
:10AFA000594613F095F802460B460020044915F067
:10AFB000BFFB04460D4662E754465D465FE700BFAF
:10AFC0000000F03F000000002DE9F04FCC4A21F0D6
:10AFD0000043934285B082468B460C4620D9C94A2D
:10AFE000934200F2D780002C80F2A481ACA3D3E975
:10AFF00000235046594615F0BBF80022002315F0F7
:10B00000DFFC002840F0D180A7A3D3E900235046FD
:10B01000594615F063FA02460B460020BA4994E1FE
:10B02000BA4A934200F2E580B94A934240F22E8137
:10B03000002301930022B74B5046594615F04EFAB3
:10B0400006460F4602460B465046594615F046FA4C
:10B0500097A3D3E9002304460D4615F03FFA96A3C3
:10B06000D3E9002315F084F822462B4615F036FA72
:10B0700093A3D3E9002315F079F822462B4615F067
:10B080002DFA91A3D3E9002315F072F822462B463E
:10B0900015F024FA8EA3D3E9002315F067F82246B1
:10B0A0002B4615F01BFA00229B4B15F061F88046E9
:10B0B000894602460B463046394615F00FFA0246DD
:10B0C0000B460020954915F051F8064602460B46FE
:10B0D0000F464046494615F049F8324680468946B3
:10B0E0003B465046594615F0F9F902460B460020FA
:10B0F0008B4915F03BF802460B464046494615F091
:10B1000017FB22462B4615F0E9F9019E02460B4635
:10B11000002E4DD0DDE9026732463B4615F026F899
:10B1200052465B4615F0DAF932463B4615F01EF8FA
:10B130002B46224615F01AF8019B013306460F46AE
:10B1400000F02381019B012B7BD0019A531C392BEA
:10B150004FEA025500F22881019A132A40F35581E3
:10B16000019BC3F57F7403340022230515F000F81A
:10B1700002460B465046594614F0F8FF0022664B33
:10B1800014F0F6FF824605EB010B5046594605B018
:10B19000BDE8F08F634A93421BD9C1F31303034305
:10B1A000024640F012810029EFDA00205E490DE0EE
:10B1B0005046594615F092F922462B4614F0D6FF18
:10B1C00002460B465046594614F0D0FF05B0BDE884
:10B1D000F08F41A3D3E9002315F010FC00283FF4C1
:10B1E00002AF3FA3D3E900231046194615F076F9C4
:10B1F000ECE74E4A934200F2EC8000293AA3D3E9EF
:10B20000002339DA14F0B4FF39A7D7E900674FF00B
:10B21000FF3380468946019332463B4640464946C5
:10B2200014F0A4FF02460B4682468B464046494630
:10B2300014F09CFF32463B4614F098FFCDE9020122
:10B24000F8E600223A4B5046594615F0B9FB002863
:10B2500000F0CC805046594600222E4B14F088FF57
:10B2600002460B463046394614F080FF00224FF06C
:10B27000404315F033F9A9E714F078FF0123804625
:10B28000894601931CA7D7E90067C5E714A3D3E952
:10B29000002314F06DFF02460B468FE7AFF30080EA
:10B2A00059F3F8C21F6EA501FE822B654715F73FC3
:10B2B0002DC3096EB7FD8ABE3952E686CACFD03E8D
:10B2C000B7DBAA9E19CE143F8555FE19A0015A3F3F
:10B2D000F41011111111A13FEF39FAFE422E8640F0
:10B2E0009C7500883CE4377E0000E0FE422EE63F7D
:10B2F000763C7935EF39EABD763C7935EF39EA3D70
:10B3000079684340412E86400000E0BF422ED63F80
:10B31000FFFF8F3C0000E03F0000F03F00000840CE
:10B3200000001840FFFFEF7F0000F0BFB1A2F03F28
:10B330000000D0BF44A3D3E900235046594615F07E
:10B34000CDF802460B460020414914F011FF15F0DC
:10B3500075FB019015F058F837A3D3E90023064692
:10B360000F4615F0BBF802460B465046594614F0FE
:10B37000FDFE33A3D3E90023804689463046394693
:10B3800015F0ACF806460F4646E702460B46504617
:10B39000594614F0EBFE00222D4B15F09FF80022C9
:10B3A0002B4B14F0E3FE11E752465B4614F0DEFE31
:10B3B00002460B460020274914F0D8FE6B181946A8
:10B3C0000022244B14F0D2FE00E70B4614F0D0FE0E
:10B3D000FCE61DA3D3E9002315F080F8002C0246FB
:10B3E0000B464FF00000AFDA1B49AEE732463B4652
:10B3F0005046594614F0BAFE02460B4614F0B8FE09
:10B400000022144B14F0B4FEE0E64FF4001343FAAC
:10B4100002F452465B4614F0A9FEC4F17F570026A1
:10B4200007F5401702460B463046394614F09EFE9B
:10B43000A8E600BFAFF300800000E0FE422EE63F2A
:10B44000763C7935EF39EA3DFE822B654715F73FAB
:10B450000000E03F0000F03F0000E0BF00000000FF
:10B46000F8B5C1F30A5304460D460E4617460BBB0A
:10B4700021F00046034633431BD0354B002215F024
:10B480002DF8344B9F4204460D4635DBC1F30A5379
:10B490000E46363B3B4440F2FE72934232DC002BB8
:10B4A00011DD26F0FF4626F4E00646EA0355204665
:10B4B0002946F8BD40F2FF729342EBD102460B469B
:10B4C00014F056FEF8BD13F1350F28DA4CF2503364
:10B4D0009F4222462B460ADD19A1D1E9000114F052
:10B4E000B7FD17A3D3E9002314F0F8FFF8BD16A1A8
:10B4F000D1E9000114F0ACFD13A3D3E9002314F04B
:10B50000EDFFF8BD22462B460DA1D1E9000114F054
:10B510009FFD0BA3D3E9002314F0E0FFF8BD26F054
:10B52000FF4626F4E006363346EA03552046294610
:10B530000022094B14F0D2FFF8BD00BFAFF300802A
:10B540009C7500883CE4377E59F3F8C21F6EA50154
:10B5500000005043B03CFFFF0000903C10B5054C8C
:10B56000237833B9044B13B10448AFF300800123AF
:10B57000237010BD10850020000000002031040061
:10B5800008B5034B1BB103490348AFF3008008BD66
:10B59000000000001485002020310400154B002B12
:10B5A00008BF134B9D46A3F5803A00218B460F46FA
:10B5B0001348144A121A09F0F1F80F4B002B00D06F
:10B5C00098470E4B002B00D0984700200021040024
:10B5D0000D000D48002802D00C48AFF3008014F095
:10B5E0006DFD2000290005F00BF914F053FD00BF9C
:10B5F000000008000000042000000000000000001F
:10B6000000840020B08C002000000000000000003A
:10B6100070B504460E4600F08DFA88B10368DB6A07
:10B6200005469847082C0CD0A4F10903012B14D926
:10B630003246214610230D20BDE8704004F096B933
:10B6400070BD2B6828465B6A98470228F0DC2B689F
:10B6500028461B6A04219847EAE72B6828465B6A5C
:10B6600098470528E4DC2B6828461B6A0821984780
:10B67000DEE700BF38B52DED028B054600F05AFA23
:10B68000044640B10368DB6A9847032D03D8DFE81E
:10B6900005F02F363D06BDEC028B002038BD20465C
:10B6A0000BF044FF07EE900A2046F8EEE78A0BF015
:10B6B0004BFF07EE900A2046B8EEE78A0BF052FFE8
:10B6C00068EE087A07EE100AE8EEA87AB8EEC77AB4
:10B6D000E7EE077AF5EE407AF1EE10FAB1EEE78A7E
:10B6E0001BD4FDEEC87ABDEC028B17EE900A38BD74
:10B6F000BDEC028B2046BDE838400BF017BFBDEC17
:10B70000028B2046BDE838400BF01EBFBDEC028B1B
:10B710002046BDE838400BF025BF17EE900A13F025
:10B7200087FADEE738B5044600F004FA58B103683A
:10B73000DB6A0546984744B1012C04D12846BDE890
:10B740003840FBF73DB9002038BD2846BDE83840F9
:10B75000FBF716B910B5044600F0ECF928B1036800
:10B7600021461B6ABDE81040184710BD00487047CD
:10B7700016FCFFFF704700BF10B5034B0360044683
:10B780000BF0D0FC204610BDB825040010B5054BC9
:10B79000036004460BF0C6FC204615F027FC20464B
:10B7A00010BD00BFB82504002DE9F041032184B08D
:10B7B0000546512001F020FDDFF838C3C24B044696
:10B7C00004F00F06C4F3031714F4807408BF634633
:10B7D000BE4831463A460AF00FFE221C18BF01222D
:10B7E00031463B4628460EF005FF0023AB60B848C3
:10B7F0000AF002FE4FF0FF31032001F0FDFCC0B261
:10B8000004F0A8FB4FF0FF310446022001F0F4FCE5
:10B81000C0B204F09FFB002C57D0002855D0014641
:10B82000204604F07FF90646002869D04FF0FF312A
:10B83000462001F0E1FC3828044600F0DB801ADDE8
:10B840003A2800F0C180682861D14FF0FF31012013
:10B8500001F0D2FCC0B204F07DFB80465C2015F004
:10B86000CEFB052301934246009431462B46074602
:10B870000DF046FC19E0302801D0322847D14FF0B6
:10B88000FF31012001F0B8FCC0B204F063FB804638
:10B89000542015F0B4FBA4B2074605230193424699
:10B8A000009431462B460DF0D5F9AF603B68384621
:10B8B0009B6A9847A8680368DB6A984785480AF03E
:10B8C0009BFD284604B0BDE8F08183480AF094FD52
:10B8D0004FF0FF31192001F08FFCC0B204F03AFBA9
:10B8E0004FF0FF310446182001F086FCC0B204F08E
:10B8F00031FB0146204604F015F90646002895D193
:10B9000076480AF079FD284604B0BDE8F0810124AC
:10B910003268CDE900440023576AAB600F220DF175
:10B920000F0332213046B847002800F0A980336861
:10B93000CDE900440F225F6A30210DF10F0330463C
:10B94000B84700286ED03368CDE900440D225F6A05
:10B9500038210DF10F033046B847002800F09680DB
:10B960003368CDE900440D225F6A3A210DF10F03DF
:10B970003046B847002800F0BF803268CDE9004467
:10B980000DF10F03576A682175223046B847002829
:10B990005BD1682152480AF02FFD4FF0FF3120465D
:10B9A00001F02AFCC0B204F0D5FA80465C2015F004
:10B9B00026FB05246823CDE90034424631462B4658
:10B9C00007460DF09DFB70E74FF0FF31012001F0BD
:10B9D00013FCC0B204F0BEFA8046502015F00FFBF5
:10B9E000052301934246009431462B4607460DF04D
:10B9F00067FA5AE74FF0FF31012001F0FDFBC0B2BA
:10BA000004F0A8FA8046502015F0F9FA05230746FD
:10BA1000019342462B46009431460DF051FA314BCA
:10BA20003B6042E730212E480AF0E6FC30244FF01C
:10BA3000FF31012001F0E0FBC0B204F08BFA804638
:10BA4000542015F0DCFA074627E727480AF0D4FC13
:10BA5000AF68002F7FF42AAF4FF0FF31032001F0D1
:10BA6000CBFBC0B204F076FA30B120480AF0C4FC37
:10BA7000284604B0BDE8F0811D480AF0BDFC42E74D
:10BA8000322117480AF0B8FC3224D0E73821144894
:10BA90000AF0B2FC4FF0FF31204601F0ADFBC0B21E
:10BAA00004F058FA8046502015F0A9FA05243823EE
:10BAB0000746CDE9003442462B4631460DF000FAE8
:10BAC000084B3B60F1E600BF141904002419040080
:10BAD00044190400041A04005419040068190400ED
