:1040000000000320F14E0100ED4E0100ED4E0100D5
:10401000ED4E0100ED4E0100ED4E010000000000EC
:10402000000000000000000000000000ED4E010054
:10403000ED4E010000000000ED4E0100ED4E0100CC
:10404000ED4E0100ED4E0100ED4E0100ED4E010080
:10405000ED4E0100ED4E0100ED4E0100ED4E010070
:10406000ED4E0100ED4E0100ED4E0100ED4E010060
:1040700091D6010099D60100A1D60100A9D6010070
:10408000B1D60100B9D60100C1D60100C9D60100E0
:10409000D1D60100D9D60100E1D60100E9D6010050
:1040A000F1D60100F9D6010001D7010009D70100BE
:1040B000ED4E0100ED4E0100ED4E010045D1010035
:1040C00049D101004DD1010051D1010055D101006C
:1040D000ED4E0100ED4E0100ED4E0100ED4E0100F0
:1040E000ED4E0100ED4E0100ED4E0100ED4E0100E0
:1040F00000000000ED4E0100BDCC0100C9CC010064
:10410000CDCC0100D1CC0100D5CC0100E1CC010027
:10411000E5CC0100E9CC0100EDCC0100F9CC0100B7
:10412000FDCC010001CD010005CD010011CD010044
:1041300015CD010019CD01001DCD010029CD0100D3
:104140002DCD010031CD010035CD010041CD010063
:1041500045CD010049CD0100000000000000000035
:10416000000000000000000000000000000000004F
:10417000000000000000000000000000000000003F
:10418000ED4E0100ED4E0100ED4E0100ED4E01003F
:1041900000000000ED4E0100ED4E0100ED4E01006B
:1041A000ED4E0100ED4E0100ED4E0100ED4E01001F
:1041B000ED4E0100ED4E0100ED4E0100ED4E01000F
:1041C000ED4E0100ED4E0100ED4E0100ED4E0100FF
:1041D000ED4E0100ED4E0100ED4E0100ED4E0100EF
:1041E000ED4E0100ED4E0100ED4E0100A9C30100AE
:1041F000B1C30100B9C30100C1C30100C9C30100BB
:10420000D1C301000000000000000000ED4E0100DD
:10421000ED4E0100ED4E0100ED4E0100ED4E0100AE
:10422000ED4E0100ED4E0100ED4E0100ED4E01009E
:10423000ED4E0100ED4E0100ED4E0100ED4E01008E
:10424000ED4E0100ED4E0100ED4E0100ED4E01007E
:10425000ED4E0100ED4E0100ED4E0100ED4E01006E
:10426000000000007CB0EE877CB0EE87FF00FF000E
:10427000FF00FF00FF00FF00FF00FF00FF00FF0046
:10428000FF00FF00FF00FF00FF00FF00FF00FF0036
:10429000FF00FF00FF00FF00FF00FF000000000024
:1042A0002DE9F04F85B003910778A7F10903042B9E
:1042B000044607F07F0200F10100F5D9202AF3D06F
:1042C0002B2F04BF677804462D2F75D09FED427BBE
:1042D0008DED007B4FF000084FF000099FB34FF0C9
:1042E000000C25464FF0000ADFF8FCB0644619E0E8
:1042F00019F03AFE80468946304619F0CBFD424619
:104300004B4619F07BFC5246804689465B46DDE908
:1043100000013CB319F052FFCDE90001A44615F8A5
:10432000017F7FB1A7F13006092E52465B46404619
:104330004946DDD9CCB92E2F17D115F8017F0124BC
:10434000002FEFD12C4642464B46DDE9000119F023
:104350000BFE80468946039B404649461C6005B0DB
:10436000BDE8F08F4FF0010CD9E72C46BCF1000FEF
:1043700029D042464B46DDE9000119F0F5FD07F072
:10438000DF07452F80468946E5D10399681C0A223C
:104390001CF0F2FE1449024600201AF095F902467C
:1043A0000B464046494619F0DFFD804689464046A7
:1043B000494605B0BDE8F08F9FED097B67788DED2C
:1043C000007B013486E7DFF824904FF00008404678
:1043D000494605B0BDE8F08F000000000000F03F46
:1043E000000000000000F0BF000024400000F87F43
:1043F0002DE9F047002314460022804689461AF032
:1044000025F828B109F1004399462D232370013482
:1044100000220023404649461AF00EF828B1302207
:10442000002322706370BDE8F087404649461AF0C9
:1044300047FF1AF049F873A3D3E90023074649461A
:1044400040461AF003F800284ED170A3D3E90023A8
:10445000404649461AF018F8002845D10E2F07F1BA
:10446000010540F3B980A7F10E06324600206249EB
:104470001AF02AF902460B464046494619F09EFEBC
:1044800000225E4B19F0BAFB1AF05AF9002DA7F181
:104490000F0E4FF0010C4DDD594FDFF878810122EE
:1044A00045F6F3294FF02E0A494508BF40454FF025
:1044B00030030AD3B0EB080061EB0901494508BF9E
:1044C000404503F10103F5D2DBB2237050EA01034A
:1044D00004F101084AD1954252DD0132102A4FD031
:1044E000444677E90289DFE7002F33DB3A460020B4
:1044F00041491AF0E9F802460B464046494619F090
:104500005DFE3BA3D3E900238046894601250026B2
:104510004046494619F028FD0022384B19F06EFB41
:104520001AF00EF9002DBC464FF0FF3E37464FF013
:104530000006B1DC234630224FF02E0803F8022B90
:1045400084F80180FC4345D01C4403F8012BA342AE
:10455000FBD1A1E77A42002027491AF0B5F80246BC
:104560000B464046494619F0FFFCCAE7954202F166
:10457000010204BF84F801A004F10208102AAFD19F
:104580006EB14246302102F8011BC2F101037344AF
:104590004344002BF7DC2EEAEE7301339844BCF160
:1045A000010F12D0BCF1000F4FF0650388F8003006
:1045B000C5BF2B2388F8013008F1010108F1020181
:1045C0006046BDE8F04710F001BD002388F80030D8
:1045D000BDE8F0871C465FE7C7F10E0200200649E0
:1045E0001AF072F83E4602460B46012790E700BFDC
:1045F0000000901EC4BCD642000024400000E03FF2
:10460000182202008DEDB5A0F7C6B03E50EFE2D6FD
:10461000E41A4B4400407A1070B54FF0FF3006F0BA
:1046200079F904466FF07F4006F074F9064620469B
:1046300019F020FC00220C4B19F096FC0446304681
:104640000D4619F017FC06A3D3E9002319F0B6FDB7
:1046500002460B462046294619F0D0FA70BD00BF2D
:104660000000E0DFFFFF6F430000F03D00000000AE
:104670002DE9F04F1D461389AB4288BF536885B0C2
:1046800004468CBF53F82500002090468A4606F069
:10469000B7FD0022904B19F067FC19F015FFB8F830
:1046A00008206B1C9A4288BFD8F8042006468CBFAD
:1046B00052F82300002006F0A3FD0022864B19F0DB
:1046C00053FC19F001FFB8F808300235AB4288BF3F
:1046D000D8F8043007468CBF53F82500002006F0B8
:1046E0008FFD002EC4E9006740F3E280002F40F305
:1046F000DF8071A3D3E90023002584F828501AF045
:1047000003FD002200238046894619F09FFE40B138
:104710004046494668A3D3E9002319F06FFA804662
:10472000894667A3D3E900234046494619F0ACFE09
:10473000C0B165A3D3E900234046494619F090FE75
:1047400080B101234046494684F8283060A3D3E96C
:10475000002319F053FA58A3D3E900231AF0D4FC2C
:104760008046894600225D4B4046494619F0FCFBD5
:104770001AF002FA01F1004300221946564B19F0D3
:10478000F3FB19F0A1FE4946054640461AF0B0F980
:104790000022514B19F0E8FB19F096FEDAF80430CC
:1047A0004F49B3F80CB0B3F80AA0A56007FB0BF3B0
:1047B00003EB010806FB0AF6019388FB05234FEA89
:1047C000124C00960E444CEA034C06EA010383FBAC
:1047D000009A06EB0C0E0EEA010ED346CA468EFB7B
:1047E00000675246CDE90267120C42EA0B42DDE94E
:1047F00002AB0CEA010C8CFB00674FEA16495646E7
:104800000A40360C46EA0B4649EA074982FB05ABEB
:104810005F46C144B0445646CDE90267039FE0605D
:10482000360C09EA010908EA010846EA074689FB4D
:1048300005AB334488FB0556CDE9025655462D0C91
:1048400045EA0B45DDE902AB0B40AC4403EAE377F4
:104850000CEA010C554623EAE37367454FEA154518
:1048600002EAE276A8BF674645EA0B45634522EABD
:10487000E272B8BF6346AE444E450EEA010EA8BFD1
:104880004E464A45B8BF4A467745A8BF7746734566
:10489000B8BF73464645A8BF4646C4E905634245CE
:1048A000B8BF424600980199206261622761E261C7
:1048B000204605B0BDE8F08FEA2E4454FB21194094
:1048C000F4D64354FB21F93F320D337F7CD912409B
:1048D000EA2E4454FB2109400000F0400000E03F74
:1048E0000000FFFF0000000008B511F06BFEDFEDD7
:1048F0000C7A07EE100A67EE277A17EE900A19F085
:10490000DBFA05A3D3E9002319F058FC19F0DCFD0C
:1049100008BD00BFAFF30080EA2E4454FB211940CC
:104920000000B4430000000008B511F05FFEDFEDA9
:104930000C7A07EE100A67EE277A17EE900A19F044
:10494000BBFA05A3D3E9002319F038FC19F0BCFD2C
:1049500008BD00BFAFF30080EA2E4454FB2119408C
:104960000000B443000000002DE9F04F046985B059
:10497000E3699B07FCD12368C3F3400BBBF1000F35
:1049800040F0AF80B0F80CA015468046BAF1000F99
:1049900023D0BAF1010F62D0BAF1020F40F0A48027
:1049A0005500E1685448C5F53B438033B3FBF5F54A
:1049B0002A0421F47F0102F47F020A43E260E268E4
:1049C0006B00A0FB03135B0822F07F4242EA036303
:1049D0005846E36005B0BDE8F08FE2684BF6803BD7
:1049E00005EB850022F0FF03ABEB4000019319F0CB
:1049F00041FA0646B8F80E000F4619F04BFA3CA3F0
:104A0000D3E9002319F0B0FA80460BFB05F0894684
:104A100019F030FA02460B464046494619F0A4FA0E
:104A200002460B463046394619F0E6F8064668005D
:104A30000F4619F01FFA02460B463046394619F068
:104A4000BDFB19F069FD019BC0B21843E060E3684B
:104A5000504623F47F43E36005B0BDE8F08FE26881
:104A60004BF6803A05EB850022F0FF03AAEB4000ED
:104A7000019319F0FFF9CDE90201B8F80E0019F021
:104A800009FA1BA3D3E9002319F06EFA06460AFBC4
:104A900005F00F4619F0EEF902460B46304639464E
:104AA00019F062FA02460B46DDE9020119F0A4F89A
:104AB000064668000F4619F0DDF902460B463046FF
:104AC000394619F07BFB19F027FD019BC0B2184352
:104AD000E060E368584623F47F43E36005B0BDE837
:104AE000F08F6FF0100075E76FF00C0072E700BFF9
:104AF00095D626E80B2E113EABAAAAAA000000000C
:104B00004F4A21F0004393422DE970430D4604467D
:104B10004DDC4C4A93420E460FDC45A3D3E90023FB
:104B200019F06CF80022484B19F0AEFC002854D064
:104B30002B4620461946BDE87083444A934240DC28
:104B4000B3F1804F49DD19F0CFFF224680468946F8
:104B50002B462046294619F007FA00223A4B19F055
:104B60004DF81BF0CBF842464B4619F047F8024689
:104B70000B460020344919F021FB424604460D46FD
:104B80004B464046494619F039F80B46024629463D
:104B9000204619F033F801F0C7FE04460B46002EFC
:104BA0000BDC03F1004320461946BDE870830B4639
:104BB000024619F023F804460B4620461946BDE884
:104BC000708319F091FF01F0AFFE1BA3D3E900231E
:104BD00019F014F804460B46E1E722462B4620461E
:104BE000294619F0C1F9804689462046294619F020
:104BF0007BFF00220446144B0D464046494618F000
:104C0000FDFF1BF07BF800220F4B18F0F7FF024668
:104C10000B464046494619F0D1FA22462B4618F079
:104C2000EDFF00F0B1FA04460B46B8E7AFF30080A1
:104C30009C7500883CE4377EEF39FAFE422EE63F51
:104C4000FFFFEF7FFFFF2F3E0000F03F0000B0416D
:104C50002DE9F84FB84B21F000469E420D468A469A
:104C600004460EDDB54B9E4200F3B08000F0AB80F1
:104C7000B34BB449B448BAF1000FC8BF1946BDE8F8
:104C8000F88FB24B9E4200F3B980A3F1DE739E42CF
:104C900040F3A4804FF0FF3B22462B462046294696
:104CA00019F062F902460B468046894619F05CF914
:104CB00089A3D3E9002306460F4619F055F988A3C6
:104CC000D3E9002318F09AFF32463B4619F04CF91D
:104CD00085A3D3E9002318F091FF32463B4619F033
:104CE00043F983A3D3E9002318F088FF32463B46FB
:104CF00019F03AF980A3D3E9002318F07FFF324678
:104D00003B4619F031F97EA3D3E9002318F076FF72
:104D100042464B4619F028F97BA3D3E9002380468D
:104D200089463046394619F01FF979A3D3E90023A3
:104D300018F062FF32463B4619F016F976A3D3E924
:104D4000002318F059FF32463B4619F00DF974A3C1
:104D5000D3E9002318F050FF32463B4619F004F91E
:104D600071A3D3E9002318F047FF32463B4619F000
:104D7000FBF802460B464046494618F03FFF2246E4
:104D80002B4619F0F1F8BBF1FF3F02460B465CD011
:104D90006F4B704E4FEACB0B5B44D3E9002318F006
:104DA0002BFF22462B4618F027FFB34402460B4642
:104DB000DBE9000118F020FFBAF1000F0CDA01F175
:104DC0000041BDE8F88F00283FF452AF224620464C
:104DD0002B46294618F012FFBDE8F88F54A3D3E9FB
:104DE000002318F00BFF00225B4B19F04DFB00284D
:104DF0003FF450AF20462946BDE8F88F19F074FE05
:104E0000564B9E4204460D4625DCA3F550239E4298
:104E10004ADC02460B4618F0F1FE00224E4B18F019
:104E2000EBFE002206460F464FF0804320462946FF
:104E300018F0E4FE02460B463046394619F0BEF93A
:104E40004FF0000B04460D4626E72046294618F091
:104E5000D3FEBDE8F88F424B9E421ADC0022414B44
:104E600018F0CAFE002206460F463E4B2046294651
:104E700019F07AF80022384B18F0C0FE02460B46B3
:104E80003046394619F09AF94FF0020B04460D46A8
:104E900002E702460B460020334919F08FF94FF024
:104EA000030B04460D46F7E600222B4B18F0A4FE38
:104EB000002206460F46284B2046294618F09EFE43
:104EC00002460B463046394619F078F94FF0010B8F
:104ED00004460D46E0E600BF11DA22E33AAD903F0A
:104EE000EB0D76244B7BA93F513DD0A0660DB13F21
:104EF0006E204CC5CD45B73FFF8300922449C23F89
:104F00000D5555555555D53F2F6C6A2C44B4A2BF4D
:104F10009AFDDE522DDEAD3F6D9A74AFF2B0B33F15
:104F2000711623FEC671BC3FC4EB98999999C93F8D
:104F30009C7500883CE4377EFFFF0F440000F07F43
:104F4000FB21F93FFB21F9BF182D4454FFFFDB3F44
:104F500040220200202202000000F03FFFFFF23F4B
:104F6000FF7F03400000F83F0000F0BF000000009A
:104F7000C1F30A522DE9F843A2F2FF36132E0B4675
:104F80000D4604468846074621DC002E4CDB3A4A93
:104F900042FA06F901EA090202431DD034A3D3E91B
:104FA000002318F02BFE0022002319F06DFA48B1FF
:104FB000002D04DD4FF4801343FA06F6B04428EACE
:104FC000090500273C4629462046BDE8F883332ED4
:104FD00006DDB6F5806F3AD019462046BDE8F88365
:104FE000A2F213424FF0FF3929FA02F919EA000F31
:104FF000F2D01FA3D3E9002318F000FE0022002303
:1050000019F042FA0028DDD0002D09DD142E25D03C
:105010000123C6F1340603FA06F6371928BF98446F
:1050200027EA09074546CDE711A3D3E9002318F085
:10503000E5FD0022002319F027FA0028C2D0002D38
:105040000FDB55EA040707D000270C4DBAE70246EC
:1050500018F0D4FD0446C0E73D46B3E705F101086A
:10506000DEE700274FF00045ACE700BFAFF300805C
:105070009C7500883CE4377EFFFF0F000000F03F86
:10508000C1F30A522DE9F843A2F2FF36132E0B4664
:105090000D460446884607461DDC002E3DDB384A97
:1050A00042FA06F901EA0902024319D032A3D3E910
:1050B000002318F0A3FD0022002319F0E5F9D0B376
:1050C000002D04DA4FF4801343FA06F6B04428EAC0
:1050D000090500272FE0332E06DDB6F5806F2FD0AF
:1050E00019462046BDE8F883A2F213424FF0FF397B
:1050F00029FA02F919EA000FF2D01FA3D3E900231D
:1051000018F07CFD0022002319F0BEF998B1002DA3
:1051100024DB27EA090745460DE017A3D3E900235E
:1051200018F06CFD0022002319F0AEF918B1002D23
:105130000BDB00273D463C4629462046BDE8F88368
:10514000024618F05BFD0446CBE725F000430D4A0C
:105150001F43002F18BF15460027ECE7142E08D078
:105160000123C6F1340603FA06F6371928BF98441E
:10517000CFE705F10108CCE79C7500883CE4377E59
:10518000FFFF0F000000F0BF2DE9F04FD84B994210
:1051900087B00E46074643DDD64B99428A4600F358
:1051A000F680D54B994240F330810B15A3F2FF3BBB
:1051B00000220023CDE902230446D04BCAF3130A90
:1051C0009A454AF07F5500F3158145F44015204675
:1051D00029460022CA4B18F00FFD002204460D4656
:1051E000C84B18F0C1FE22462B4618F0BDFE804683
:1051F000894627462E46CDE90089BAF1000F3AD1FB
:10520000002200232046294619F016F9002800F054
:105210001D81BBF1000F40F0858100200146BAE0FE
:10522000B94B21F000449C420A460FDD0022B74BE7
:1052300019F002F9002800F0B180002200230020BC
:10524000B34918F0BBFF07B0BDE8F08FB14B9C42EB
:1052500040F3B180B04B1A449A4240F2D68000220B
:10526000A84B18F081FE3A46334618F07DFECDE992
:1052700000014FF0000B00224FF0804338463146CA
:1052800018F0BCFC02460B463846314618F096FF33
:1052900002460B468046894618F066FE80A3D3E995
:1052A000002304460D4618F05FFE7FA3D3E90023D8
:1052B00018F0A4FC22462B4618F056FE7CA3D3E936
:1052C000002318F09BFC22462B4618F04DFE7AA3D3
:1052D000D3E9002318F092FC22462B4618F044FE36
:1052E00077A3D3E9002318F089FC22462B4618F057
:1052F0003BFE75A3D3E9002318F080FC22462B4621
:1053000018F032FE72A3D3E9002318F077FC22468E
:105310002B4618F029FEDDE9004522462B4618F001
:105320006DFC42464B4618F01FFECDE90401BBF16F
:10533000000F00F0A880584618F0ACFD66A3D3E932
:1053400000238046894618F00FFE65A3D3E90023A9
:1053500004460D464046494618F006FEDDE90223A4
:1053600018F04CFCDDE9042318F048FC02460B461B
:10537000DDE9000118F040FC3A46334618F03CFCE9
:1053800002460B462046294618F036FC03E002464A
:105390000B4618F033FC07B0BDE8F08F3A463346B1
:1053A0003846314618F028FC02460B4618F006FF36
:1053B00007B0BDE8F08F0022584B18F01FFC002208
:1053C000002319F061F810B1554B9C4262DD3A465A
:1053D00033463846314618F0C7FD0022494B18F0D5
:1053E000C3FD02460B463846314618F005FC07B0AF
:1053F000BDE8F08F45F40015CAF5801A204629460D
:105400004FEAAA0A0BF1010BE3E63D4B3846314661
:10541000002218F0F3FB0B15A3F2FF3BBBF1000FCA
:1054200004460D468A4640F3C3803A46334618F098
:10543000E3FB02460B460020314918F0DDFB224613
:105440002B4618F0BBFECDE90201B6E626A3D3E950
:1054500000232046294618F087FD02460B4600200F
:10546000274918F0C9FB42464B4618F07DFD064619
:105470000F46BBF1000F73D102460B46204629466A
:1054800018F0BAFB87E702460B462046294618F07B
:10549000B3FBA6E7384631467DE700BFAFF3008097
:1054A00044523EDF12F1C23F9FC678D0099AC33FF3
:1054B000DE03CB966446C73FAF788E1DC571CC3FE7
:1054C000599322942449D23F04FA97999999D93F44
:1054D000935555555555E53F0000E0FE422EE63FF9
:1054E000763C7935EF39EA3D555555555555E53FEB
:1054F0007982DA3FFFFFEF7FFFFF3F439DA0060069
:105500000000F03F0000E03FFFFFEF3F0000F0BF72
:10551000000050C3FFFF1F3E3C412D4000005043A0
:10552000FFFF8F3C584618F0B5FC27A3D3E90023B2
:1055300006460F4618F018FDDDE9022318F05EFB61
:1055400023A3D3E9002304460D463046394618F01C
:105550000BFD02460B462046294618F04FFB1AE782
:10556000584618F097FC1AA3D3E9002382468B46CD
:1055700018F0FAFC14A3D3E900238046894650466C
:10558000594618F0F1FCDDE9022318F037FB02461A
:105590000B463046394618F02FFB22462B4618F0B2
:1055A0002BFB02460B464046494618F025FBF2E627
:1055B0000022094B18F020FB02460B4638463146C4
:1055C00018F01AFB3BE700BF763C7935EF39EA3D2E
:1055D0000000E0FE422EE63F0000F03F0000000029
:1055E00008B519F0F1FD04A3D3E9002318F0E6FD96
:1055F00008BD00BFAFF30080EF39FAFE422EE63F50
:105600002DE9F043DFF8B4808BB004460D4600F07E
:1056100057FF98F90030013306460F462CD022463A
:105620002B462046294618F039FF814620BB2046EC
:10563000294619F059FA1CA3D3E9002318F024FFD6
:10564000D0B11B4A98F90030CDF820900321CDE964
:105650000445CDE90245CDE9001293B1154900207A
:10566000022BCDE9060111D11BF042FD222303607C
:10567000089B9BB9DDE90667304639460BB0BDE8AB
:10568000F0830D4B4FF06042CDE9062368461BF0D6
:10569000DFFB0028E8D0089B002BEBD01BF028FD97
:1056A000089B0360E6E700BF7DF8B98FCE338640E4
:1056B000303802000000F07FFFFFEF4712020020A9
:1056C0002DE9F043DFF8E4808BB004460D4600F08E
:1056D000A3FF98F90030013306460F4633D0204629
:1056E00029461BF0AFFB70B329A3D3E90023204662
:1056F000294618F0C9FE814650BB27A3D3E90023F1
:105700002046294618F0A2FEE8B198F90030244A54
:10571000CDF82090042600200021022BCDE904457D
:10572000CDE90245CDE90062CDE9060129D0684600
:105730001BF08EFB28B3089B1BB11BF0D9FC089B08
:105740000360DDE90667304639460BB0BDE8F083FB
:10575000134A98F90030019203210022CDE9044553
:10576000CDE90245009108922BB90E4B4FF06042F3
:10577000CDE90623DBE70C490020022BCDE9060129
:10578000D5D11BF0B5FC22230360D4E7AFF3008032
:10579000EF39FAFE422E864051302DD5104987C090
:1057A00038380200FFFFEF470000F07F12020020B0
:1057B0002DE9F84FC44E21F00043B3420C46054694
:1057C0000DDD03F1404303F58013034340F0B9803E
:1057D000002940F3408100200021BDE8F88FBB4E36
:1057E000B34208DCBA4A934200F3B5809CA1D1E9E8
:1057F0000001BDE8F88F0029C0F2708102460B4617
:105800000020B44918F0F8F90022B34B18F0ACFBB3
:1058100004460D461AF072FA93A3D3E90023894691
:1058200080462946204618F09FFB91A3D3E9002328
:1058300018F0E4F922462B4618F096FB8EA3D3E924
:10584000002318F0D9F922462B4618F08DFB8CA3C3
:10585000D3E9002318F0D2F922462B4618F084FB36
:1058600089A3D3E9002318F0C7F922462B4618F084
:105870007BFB87A3D3E9002318F0C0F922462B460F
:1058800018F072FB84A3D3E9002382468B4620469E
:10589000294618F069FB82A3D3E9002318F0ACF97C
:1058A00022462B4618F060FB7FA3D3E9002318F0B3
:1058B000A5F922462B4618F057FB7DA3D3E9002318
:1058C00018F09AF922462B4618F04EFB0022814B25
:1058D00018F094F902460B465046594618F06EFCF3
:1058E00042464B4618F040FB002682468B46324625
:1058F0004B463046494618F037FB02460B462046D9
:10590000294618F079F9324604460D464B46404682
:10591000494618F073F902460B462046294618F00E
:105920004DFC02460B465046594618F067F9324680
:105930004B4618F063F902460B4618F05FF9BDE8D4
:10594000F88F02460B4618F057F902460B4618F03E
:1059500035FCBDE8F88F02460B4618F005FB42A364
:10596000D3E9002306460F4618F0FEFA40A3D3E918
:10597000002318F043F932463B4618F0F5FA3EA3EF
:10598000D3E9002318F038F932463B4618F0ECFA18
:105990003BA3D3E9002318F031F932463B4618F017
:1059A000E3FA39A3D3E9002318F026F932463B463F
:1059B00018F0DAFA36A3D3E9002318F01FF93246BB
:1059C0003B4618F0D1FA34A3D3E900238046894638
:1059D0003046394618F0C8FA31A3D3E9002318F04D
:1059E0000BF932463B4618F0BFFA2FA3D3E9002348
:1059F00018F004F932463B4618F0B6FA2CA3D3E966
:105A0000002318F0F9F832463B4618F0ADFA0022B0
:105A1000304B18F0F3F802460B464046494618F062
:105A2000CDFB2A46234618F09FFA02460B4622A1D8
:105A3000D1E9000118F0E0F802460B46284621465D
:105A400018F0DAF802460B4605A1D1E9000118F07A
:105A5000D3F8BDE8F88F1AA1D1E9000179E700BFBA
:105A6000182D4454FB21F93F09F7FD0DE13D023F9C
:105A700088B20175E0EF493F3B8F68B52882A43FAB
:105A80005544880E55C1C93F7D6FEB0312D6D43FF4
:105A9000555555555555C53F82922EB1C5B8B33FA2
:105AA00059018D1B6C06E63FC88A599CE52A0040C7
:105AB0004B2D8A1C273A0340075C143326A6913CE1
:105AC000182D4454FB210940FFFFEF3FFFFFDF3F4C
:105AD0000000603C0000F03F0000E03F00225C4B13
:105AE00018F08CF800225B4B18F03EFA40A3D3E983
:105AF000002304460D4618F037FA3FA3D3E90023EC
:105B000018F07CF822462B4618F02EFA3CA3D3E975
:105B1000002318F071F822462B4618F025FA3AA314
:105B2000D3E9002318F06AF822462B4618F01CFA35
:105B300037A3D3E9002318F05FF822462B4618F06C
:105B400013FA35A3D3E9002318F058F822462B4660
:105B500018F00AFA80468946204629461AF0CEF8FF
:105B60002FA3D3E9002306460F462046294618F006
:105B7000FBF92DA3D3E9002318F03EF822462B466B
:105B800018F0F2F92AA3D3E9002318F037F82246D7
:105B90002B4618F0E9F928A3D3E9002318F02CF8D4
:105BA00022462B4618F0E0F90022294B18F026F87F
:105BB00002460B464046494618F000FB32463B463B
:105BC00018F0D2F91EA3D3E9002318F015F83246D5
:105BD0003B4618F013F802460B4618F00FF8024641
:105BE0000B4619A1D1E9000118F006F8B1E600BF93
:105BF00009F7FD0DE13D023F88B20175E0EF493F35
:105C00003B8F68B52882A43F5544880E55C1C93FD3
:105C10007D6FEB0312D6D43F555555555555C53FAD
:105C200082922EB1C5B8B33F59018D1B6C06E63F79
:105C3000C88A599CE52A00404B2D8A1C273A03400C
:105C4000075C143326A6913C182D4454FB210940CF
:105C50000000F03F0000E03F414A91422DE9F84347
:105C60000C46054637DD3F4A914209DD02F1795283
:105C700091423EDD02460B4617F0C0FFBDE8F883B7
:105C800001F1404202F5801202432ED0B1F1804F63
:105C900037DC0022344B17F0AFFF02460B460446B8
:105CA0000D4617F0ABFF224606460F462B46204610
:105CB000294618F059F902460B463046394617F086
:105CC0009DFF1AF01BF822462B4617F097FFBDE800
:105CD000F843FFF759BA02460B4617F08DFF02460C
:105CE0000B4618F06BFABDE8F88300200021BDE8F0
:105CF000F88300F019FE18A3D3E9002317F07EFF04
:105D0000F1E702460B4618F02FF90022164B17F068
:105D100073FF19F0F3FF2A4680468946234628463A
:105D2000214617F06BFF2A4606460F46234640469B
:105D3000494617F063FF02460B4600200A4918F057
:105D40003DFA0B4602463946304617F055FFBDE88E
:105D5000F84300F0E9BD00BFEF39FAFE422EE63FFE
:105D6000FFFFEF3FFFFFAF410000F03F00000000EA
:105D70002DE9F04FB24B21F000479F4287B00D460E
:105D8000044615DD07F1404707F5801703463B43FE
:105D900026D002460B4617F02FFF0B46024618F09E
:105DA0000DFA04460B462046194607B0BDE8F08FB1
:105DB000A44B9F420E462EDCB7F1795F80F24A81F8
:105DC00083A3D3E9002317F019FF00229E4B18F09C
:105DD0005BFB00B32B462046194607B0BDE8F08FA9
:105DE0007DA3D3E9002318F0BFF87DA3D3E90023F6
:105DF00006460F462046294618F0B6F802460B46DE
:105E00003046394617F0FAFE04460B46204619463E
:105E100007B0BDE8F08F2046294618F065FE02461F
:105E20000B460020884917F0E7FE0022874B18F048
:105E30009BF86DA3D3E9002304460D4618F094F8AF
:105E40006BA3D3E9002317F0D9FE22462B4618F0A6
:105E50008BF869A3D3E9002317F0CEFE22462B4628
:105E600018F082F866A3D3E9002317F0C7FE224694
:105E70002B4618F079F864A3D3E9002317F0BCFE91
:105E800022462B4618F070F861A3D3E9002317F0DF
:105E9000B5FE22462B4618F067F85FA3D3E900232E
:105EA000CDE900012046294618F05EF85CA3D3E94D
:105EB000002317F0A1FE22462B4618F055F85AA3EE
:105EC000D3E9002317F09AFE22462B4618F04CF82F
:105ED00057A3D3E9002317F08FFE22462B4618F074
:105EE00043F8594B002217F089FE82468B46204624
:105EF0002946CDE902AB19F001FF554B9F42804680
:105F0000894600F31C8102460B4617F077FEDDE957
:105F10000223CDE90401DDE9000118F04FF9024642
:105F20000B46DDE9040118F01FF84FF0000ACDE937
:105F3000000152464B465046494618F015F80246B5
:105F40000B462046294617F057FE524604460D469A
:105F50004B464046494617F051FE02460B46204646
:105F6000294618F02BF902460B4617F047FE024669
:105F70000B461BA1D1E9000117F03EFE02460B467D
:105F8000DDE9000117F038FE524604460D464B4647
:105F90005046494617F032FE02460B4626A1D1E98B
:105FA000000117F029FE02460B462046294617F04D
:105FB00023FE0B46024620A1D1E9000117F01CFE8A
:105FC00004460B46002E3FF7EEAE03F10043EAE62F
:105FD0009C7500883CE4377E182D4454FB21F93F22
:105FE000075C143326A6913C09F7FD0DE13D023F05
:105FF00088B20175E0EF493F3B8F68B52882A43F26
:106000005544880E55C1C93F7D6FEB0312D6D43F6E
:10601000555555555555C53F82922EB1C5B8B33F1C
:1060200059018D1B6C06E63FC88A599CE52A004041
:106030004B2D8A1C273A0340182D4454FB21E93F7D
:10604000FFFFEF3FFFFFDF3F0000F03F0000E03FBA
:106050003233EF3F02460B4617F086FF48A3D3E9E1
:10606000002306460F4617F07FFF47A3D3E900231E
:1060700017F0C4FD32463B4617F076FF44A3D3E940
:10608000002317F0B9FD32463B4617F06DFF42A3DF
:10609000D3E9002317F0B2FD32463B4617F064FF08
:1060A0003FA3D3E9002317F0A7FD32463B4617F084
:1060B0005BFF3DA3D3E9002317F0A0FD32463B462A
:1060C00017F052FF3AA3D3E90023804689463046B1
:1060D000394617F049FF38A3D3E9002317F08CFDA8
:1060E00032463B4617F040FF35A3D3E9002317F0B3
:1060F00085FD32463B4617F037FF33A3D3E9002333
:1061000017F07AFD32463B4617F02EFF0022344B43
:1061100017F074FD02460B464046494618F04EF80B
:1061200022462B4617F020FF22462B4617F066FD2D
:1061300004460B462046194607B0BDE8F08F52468C
:106140005B46DDE9000118F039F842464B4617F08E
:106150000BFF42464B4617F051FD02460B4617F027
:106160004DFD1BA3D3E9002317F046FD0B46024665
:1061700019A1D1E9000117F03FFD04460B4621E7C4
:1061800009F7FD0DE13D023F88B20175E0EF493F9F
:106190003B8F68B52882A43F5544880E55C1C93F3E
:1061A0007D6FEB0312D6D43F555555555555C53F18
:1061B00082922EB1C5B8B33F59018D1B6C06E63FE4
:1061C000C88A599CE52A00404B2D8A1C273A034077
:1061D000075C143326A6913C182D4454FB21F93F4B
:1061E0000000F03F000000002DE9F84F5442144336
:1061F00023F00048684E48EAD474B44284460F46FF
:106200001FD84442044321F0004A4AEAD474B442FD
:106210008B4616D803F1404404F5801414439E467F
:106220003DD09C1704F0020444EAD1745AEA0001FC
:106230000FD1022C50D0032C3CD145A1D1E9000153
:1062400005E01046194662463B4617F0D7FCBDE80C
:10625000F88F58EA020126D0B0452DD0B24522D0A1
:10626000AAEB08084FEA2858B8F13C0F38DC002B9D
:106270003ADA18F13C0F37DA00200021012C49D01E
:10628000022C3AD0002CE2D033A3D3E9002317F03C
:10629000B3FC33A3D3E9002317F0AEFCD7E7BDE886
:1062A000F84FFEF7D5BCBBF1000F11DB2EA1D1E9F1
:1062B0000001CCE73946CAE7C2452FD0022C0BD0EB
:1062C000032CBAD0012C4FF0000031D00021BEE7E2
:1062D00027A1D1E90001BAE721A1D1E90001B6E780
:1062E00021A1D1E90001C9E76046394617F066FFF0
:1062F00018F0FAFBFEF7ACFCC0E717A3D3E90023C4
:1063000017F07AFC02460B4615A1D1E9000117F0FF
:1063100073FC9CE701F10043194698E7022C12D068
:10632000032C0CD0012C06D013A1D1E900018EE77B
:106330004FF000418BE712A1D1E9000187E712A1DC
:10634000D1E9000183E712A1D1E900017FE700BF95
:10635000182D4454FB2109C0075C143326A6A13C28
:10636000182D4454FB210940182D4454FB21F93FBA
:10637000182D4454FB21F9BF182D4454FB21E93F4B
:10638000182D4454FB21E9BFD221337F7CD902C0B0
:10639000D221337F7CD902400000F07F0000000052
:1063A00043422DE9F047034321F00048404A48EAC0
:1063B000D37393420F462ED890454AD03D4B984513
:1063C0008A4636DD3C4B9845044645464CDD024640
:1063D0004346414617F012FC224606460F46434606
:1063E0000020334917F008FC02460B463046394678
:1063F00017F0E4FEFEF7C8FE304B002217F0B4FDA4
:10640000BAF1000F04460B460FDA01F100432046B3
:106410001946BDE8F08702460B4617F0EDFB0B4628
:10642000024617F0CBFE04460B4620461946BDE84F
:10643000F0871DA3D3E90023044617F0DFFB0022F9
:10644000002318F021F870B13B4620461946BDE8FC
:10645000F0870022002317F0B1FE04460B462046C9
:106460001946BDE8F087454622462B462046294678
:1064700017F0C4FB22462B4606460F4617F074FD64
:106480002246804689462B460020094917F0B4FB76
:1064900002460B464046494617F090FE32463B46C0
:1064A00017F0ACFBA6E700BF9C7500883CE4377E84
:1064B0000000F03FFFFF2F3EFFFFDF3F0000E03F07
:1064C0004D4A2DE9F84321F0004494420B4606461C
:1064D0001BDC4A4A944224DD494A944256DD494A2B
:1064E000944248DD484A944271DD013294426BD0B7
:1064F0003FA3D3E900231046194617F035FD0646A1
:106500000F4630463946BDE8F88304460D4622461C
:106510002B4617F029FD06460F4630463946BDE8A2
:10652000F88318F0E1FA02F06FFC0022374B804646
:10653000894617F063FBB4F1725F06460F46ECDB49
:1065400042464B464046494617F00EFD32463B4612
:1065500004460D463046394617F050FB02460B46BE
:106560002046294617F02AFE0022284B17F046FB4A
:1065700006460F46D1E718F0B7FA00F04DF80022B2
:10658000234B17F0F1FC06460F46C6E718F0ACFAAD
:1065900000F042F800221E4B06460F4617F0E4FCBE
:1065A000324604460D463B460020194917F006FEC8
:1065B00002460B462046294617F020FB06460F46AA
:1065C00030463946BDE8F883124A904290D83046AA
:1065D000194618F089FA00220D4B17F0C5FC00F09F
:1065E0001BF800220A4B04460D4617F0BDFC8EE74F
:1065F0009C7500883CE4377EFFFFEF7F422ED63F3C
:10660000FFFF3540412E8640CD3386400000F03FED
:106610000000E03F7DF8B98F2DE9F047B84F21F039
:106620000042BA4284B00C464FEAD176054612D9F0
:10663000B44FBA4240F28E80C1F3130303430246C3
:1066400040F0F780002E00F0818000252946284682
:1066500004B0BDE8F087AC4B9A4200F2B880AB4B77
:106660009A4240F2D3804FF0000A2A462346284639
:10667000214617F079FC8CA3D3E9002306460F4688
:1066800017F072FC8AA3D3E9002317F0B5FA32465B
:106690003B4617F069FC88A3D3E9002317F0AEFA54
:1066A00032463B4617F060FC85A3D3E9002317F080
:1066B000A3FA32463B4617F057FC83A3D3E90023E5
:1066C00017F09CFA32463B4617F04EFC02460B464A
:1066D0002846214617F090FA02460B4606460F461A
:1066E0002846214617F040FC80468946BAF1000F43
:1066F00000F0B38032463B4600204FF0804117F057
:106700007BFA02460B464046494617F057FD0246C3
:106710000B46DDE9020117F06FFADDE9002317F0FF
:106720006BFA0B4602467A49002017F065FA6FF4BF
:106730007F739A4580F2AD800AF57A7A01EB0A51AF
:1067400000224FF0B87317F00FFC0546284604B03E
:10675000BDE8F0875EA3D3E9002317F095FE00287B
:106760006FD1284621465CA3D3E9002317F06EFEC3
:1067700000287FF46AAF674B284603EBC606214624
:1067800057A3D3E9002317F0EFFBD6E9002317F056
:1067900035FA17F099FE824617F07CFB52A3D3E935
:1067A000002306460F4617F0DFFB02460B4628463D
:1067B000214617F021FA4EA3D3E90023CDE90001C9
:1067C0003046394617F0D0FBCDE9020115E0524BB7
:1067D0009A42D0D8514BF4002344D3E9002317F058
:1067E0000BFA4F4B2344D3E90034CDE90001CDE946
:1067F0000234C6F1010AAAEB060ADDE90223DDE94B
:10680000000117F0F9F905460C462EE73AA3D3E943
:10681000002317F0F3F900223D4B17F035FE002856
:106820003ED0284621460022394B17F0E7F90546AD
:106830008CE70B4617F0E2F90546284604B0BDE8A0
:10684000F0872DA3D3E900231046194617F08CFBDF
:106850000546284604B0BDE8F08730463946002298
:106860004FF0804317F0C8F902460B4640464946B0
:1068700017F0A4FC2A46234617F0BEF902460B4641
:106880000020234917F0B8F90546284604B0BDE8B2
:10689000F087054601EB0A51284604B0BDE8F087B1
:1068A0008246E2E6AFF30080D0A4BE726937663E4E
:1068B000F16BD2C541BDBB3E2CDE25AF6A56113F00
:1068C00093BDBE166CC1663F3E5555555555C53FE7
:1068D000EF39FAFE422E864051302DD5104987C03F
:1068E000FE822B654715F73F0000E0FE422EE63F93
:1068F000763C7935EF39EA3D9C7500883CE4377E7B
:10690000412E8640FFFFEF7F422ED63FFFFF2F3EF6
:106910000000F03F60220200B1A2F03F70220200AE
:1069200080220200000000002DE9F04FB1F5801F29
:1069300085B006460F460B4680F2D08021F000421B
:10694000024300F0DA800029C0F2E9800022D64B31
:1069500017F00AFBD54A0B46934206460F466FF0E6
:10696000350E00F3C180C3F3130505F5152C0CF6A5
:10697000647C0CF4801C8CF07F5282F440121C1555
:1069800042EA0507A4F2FF3474440022C84B3046A3
:10699000394604EB1C5417F02FF9AB1CC3F3130357
:1069A000022B82468B464FF0000240F3AF804FF03F
:1069B000804317F023F902460B465046594617F01C
:1069C000FDFB064620460F4617F064FA3246CDE935
:1069D00002013B4630463946CDE9006717F0C4FA5C
:1069E00002460B468046894617F0BEFA9AA3D3E9C1
:1069F000002306460F4617F0B7FA99A3D3E9002300
:106A000017F0FCF832463B4617F0AEFA96A3D3E9EE
:106A1000002317F0F3F832463B4617F0A5FA94A38B
:106A2000D3E9002317F0EAF842464B4617F09CFAE8
:106A300091A3D3E90023804689463046394617F0B2
:106A400093FA8FA3D3E9002317F0D8F832463B46D8
:106A500017F08AFA8CA3D3E9002317F0CFF8324657
:106A60003B4617F081FA0B4602464946404617F06E
:106A7000C5F8A5F5C223C5F5D725A3F27A4351354C
:106A80001D43002D06460F4640F387800022894BA8
:106A90005046594617F068FA52465B4617F064FABA
:106AA00002460B46804689463046394617F0A6F81E
:106AB000DDE9002317F058FA06460F46002C40F097
:106AC000818002460B464046494617F095F802463B
:106AD0000B465046594617F08FF80BE0734A934225
:106AE0004FF0000E7FF73FAF32463B463046394607
:106AF00017F084F805B0BDE8F08F002200230020D5
:106B00006D4917F05BFB05B0BDE8F08F002317F06F
:106B100093FC60B1002C7CD100200021EAE7024602
:106B200017F06AF80022002317F048FBE2E758A3A9
:106B3000D3E900235046594617F016FA02460B4691
:106B400000205C4917F058F8524606460F465B464F
:106B50005046594617F008FA02460B463046394669
:106B600017F002FA06460F462CB3204617F092F9AA
:106B700049A3D3E900238046894617F0F5F948A3D5
:106B8000D3E9002304460D464046494617F0ECF988
:106B900002460B46304639462CE002460B4650462C
:106BA000594617F029F8DDE9002317F0DDF906460C
:106BB0000F46002C47D132463B465046594617F007
:106BC0001BF897E734A3D3E90023DDE9020117F0AE
:106BD000CBF933A3D3E9002304460D46DDE90201D6
:106BE00017F0C2F932463B4617F008F802460B464A
:106BF0004046494617F000F852465B4616F0FCFF47
:106C000002460B462046294616F0F6FF05B0BDE8C1
:106C1000F08F204617F03EF91FA3D3E90023064664
:106C20000F4617F0A1F91EA3D3E9002304460D4631
:106C30003046394617F098F902460B462046294659
:106C400016F0DCFF56E7DDE9028913A3D3E9002340
:106C50004046494691E700BF44523EDF12F1C23F31
:106C6000DE03CB966446C73F599322942449D23F12
:106C7000935555555555E53F9FC678D0099AC33F62
:106C8000AF788E1DC571CC3F04FA97999999D93F79
:106C9000555555555555D53F0000E0FE422EE63F6F
:106CA000763C7935EF39EA3D00005043FFFFEF7F36
:106CB0000000F03F0000E03F000050C30000000073
:106CC000B1F5801F2DE9F84304460D460B4619DA4D
:106CD00021F00042024359D000295FDB00223A4BE9
:106CE00017F042F9394A0B4693420D4604466FF0BD
:106CF00035010CDD22462B462046294616F07EFF44
:106D0000BDE8F883314A93424FF00001F2DC1815D8
:106D1000A0F2FF3008444FEAD0794844C3F3130887
:106D200017F0B8F8C9F57F73033348EA03550646F0
:106D30000F4620462946FFF7F7FD1DA3D3E90023A0
:106D4000804689463046394617F00EF91AA3D3E932
:106D5000002304460D464046494617F005F9024611
:106D60000B462046294616F049FF15A3D3E9002318
:106D700004460D463046394617F0F6F802460B46F3
:106D80002046294616F03AFFBDE8F883002200238A
:106D900000200F4917F012FABDE8F883024616F0FA
:106DA0002BFF0022002317F009FAA9E7AFF30080B8
:106DB000362BF111F3FE593D0EE526157BCBDB3F5B
:106DC00000609F501344D33F00005043FFFFEF7F0C
:106DD000000050C3000000002DE9F04F23F00045F3
:106DE00055EA020493B00DD0794E21F00044B4422C
:106DF0000F4682460FDD04F1404404F5801454EA46
:106E00000A035BD1734C0023CDE90034DDE90001B6
:106E100013B0BDE8F08F984694464ED0B542EADCF8
:106E20006B4EB54266D0002F8B468146CDE90223DA
:106E300064DB0026BCF1000F0ED1654B9D4246D0AD
:106E4000644B9D4200F09780B8F1804F00F0B28013
:106E5000614B984500F0CC834846594617F044FEF4
:106E6000CDE90001BAF1000F06D1002C60D0594BDA
:106E700027F040429A425BD0FF0F013F56EA0703DA
:106E800000F08280554B9D4240F3B08003F10473C3
:106E90009D4240F34184524B9C4240F38280B8F1C2
:106EA000000F40F3828048A3D3E90023104619461F
:106EB00017F05AF8CDE90001A8E728B1494813B006
:106EC000BDE8F04F19F0C6BFA542F7DCA8E704F112
:106ED000404303F5801353EA0A0393D0404B9C428E
:106EE00040F39083B8F1000F5FDBDDE90234CDE9B8
:106EF00000348BE7BCF1000F95D07CE73A4B9D4204
:106F000037DCA3F154739D4293DD2B15A3F2FF33BD
:106F1000142B40F3E983C3F134032CFA03F202FA91
:106F200003F3634585D102F00102C2F1020681E755
:106F3000B8F1000F07DADDE900230020254917F03A
:106F40003DF9CDE90001002FBFF660AF04F14044E8
:106F500004F5801454EA060300F03C84012E7FF40B
:106F600055AFDDE90045224605F10043CDE9002398
:106F70004CE702265EE7B8F1000FC0F24F834846A7
:106F80005946CDE9000141E74A4648465B46594625
:106F900016F032FE02460B4617F010F9CDE900015B
:106FA00034E7B8F1000FFFF67EAF00230024CDE9EF
:106FB00000342BE74A4648465B46594616F0D4FF54
:106FC000CDE9000122E700BF9C7500883CE4377ED4
:106FD0000000F07F0000F03F0000E03F0000E041D3
:106FE000FFFFEF3FD42A0200FFFF3F43B4F5801FAD
:106FF00080F28F83DDE900010022CF4B16F0B4FF51
:10700000CDE900010C466FF0340C2315CB4DC4F3D1
:107010001302A3F2FF3342F07F5403EB0C01AA42A8
:107020000B9144F4401440F36F83C54B9A4240F3F4
:10703000F38300220023CDE9082301310B91A4F54D
:107040008014CDE91023BF4B0022CDE90623002593
:10705000DDE90001DDE906232146824616F0CCFD7C
:10706000A346DDE906238046894650462146CDE900
:107070000CAB16F0C3FD02460B460020B14917F0D9
:107080009DF80A460146CDE90E12134649460246CE
:10709000404616F069FF631043F0005382468B466A
:1070A00003F500238C46CDE904AB5919D3460023E0
:1070B000CDE900BC0093DDE900AB002004460D469D
:1070C00002460B465046594616F04EFF02460B4606
:1070D0004046494616F090FDDDE906238046894684
:1070E0002046294616F088FD02460B46DDE90C01D4
:1070F00016F082FD52465B4616F036FF02460B46FE
:107100004046494616F078FDDDE90E2316F02CFFC7
:10711000DDE90445CDE9060122462B4620462946F5
:1071200016F022FF72A3D3E9002304460D4616F0A1
:107130001BFF71A3D3E9002316F060FD22462B4606
:1071400016F012FF6EA3D3E9002316F057FD224676
:107150002B4616F009FF6CA3D3E9002316F04EFD71
:1071600022462B4616F000FF69A3D3E9002316F050
:1071700045FD22462B4616F0F7FE67A3D3E9002310
:1071800016F03CFD2246804689462B46204629467D
:1071900016F0EAFE02460B464046494616F0E4FE6B
:1071A000524604460D465B46DDE9040116F026FD15
:1071B000DDE9062316F0D8FE22462B4616F01EFD0A
:1071C0005246804689465B465046594616F0CCFEEC
:1071D00000225D4BCDE90C0116F010FD42464B46F6
:1071E00016F00CFD00980D46044622462B465046EC
:1071F000594616F0B9FE002282468B46524B204675
:10720000294616F0F9FCDDE90C2316F0F5FC0246E0
:107210000B464046494616F0EFFCDDE9042316F024
:10722000A3FE2246804689462B46DDE9060116F07C
:107230009BFE02460B464046494616F0DFFC804660
:10724000894602460B465046594616F0D7FC009830
:1072500033A3D3E9002304460D4616F085FE5246BB
:10726000CDE904015B462046294616F0C5FC0246DE
:107270000B464046494616F0BFFC2BA3D3E900233A
:1072800016F072FE2AA3D3E90023804689462046E1
:10729000294616F069FE02460B464046494616F05E
:1072A000ADFCDDE9102316F0A9FC80460B98894659
:1072B00016F0F0FD424682468B464B46DDE904015E
:1072C00016F09CFCDDE9082316F098FC52465B465C
:1072D00016F094FC009852465B4604460D4616F0A4
:1072E0008BFCDDE9082316F087FCDDE904232DE0A3
:1072F000EF4E454A287ECA3F65DBC9934A86CD3F9B
:1073000001411DA96074D13F4D268F515555D53F80
:10731000FFAB6FDBB66DDB3F033333333333E33F18
:10732000000000E009C7EE3FFD033ADC09C7EE3F6D
:10733000F5015B14E02F3EBE000040438E98030031
:1073400079B60B000000F03F0000084016F054FC36
:107350000B4602464946404616F04EFC013E56EAB0
:10736000070382468B46DDE9020114BFD84BD94B97
:107370000022CDE9042302460B46CDE90023002379
:107380000093DDE9006732463B4616F035FC2246A5
:107390002B4616F0E9FDDDE902238046894650467A
:1073A000594616F0E1FD02460B464046494616F0A6
:1073B00025FC3246804689463B4620462946CDE993
:1073C000028916F0D1FD0B46024606460F4640469E
:1073D000494616F013FCC04B994204460D468A46B6
:1073E00040F3268101F13F4303F5E003034340F0FE
:1073F000F781A3A3D3E90023DDE9020116F0FEFB28
:107400003246804689463B462046294616F0F4FB24
:1074100002460B464046494617F036F8002840F031
:10742000DF81A8464FEA2853A3F2FE324FF48013BF
:1074300013415344C3F30A52A84DA2F2FF3215413F
:10744000C3F3130423EA05010020C2F1140B44F432
:107450008014BAF1000F02460B4644FA0BFB30468B
:107460003946B8BFCBF1000B16F0C6FB02460B46FF
:1074700006460F46DDE9020116F0C0FB4FEA0B5A43
:107480000D46002480A3D3E900232046294616F0A8
:107490006BFD3246804689463B462046294616F01B
:1074A000ABFB02460B46DDE9020116F0A5FB78A313
:1074B000D3E9002316F058FD77A3D3E9002306464D
:1074C0000F462046294616F04FFD02460B46304631
:1074D000394616F093FB06460F4602460B464046D9
:1074E000494616F08BFB42464B4604460D4616F0C5
:1074F00083FB02460B463046394616F07DFB22469A
:10750000804689462B462046294616F02DFD64A369
:10751000D3E9002306460F4616F026FD62A3D3E901
:10752000002316F069FB32463B4616F01DFD60A3B2
:10753000D3E9002316F062FB32463B4616F014FDF9
:107540005DA3D3E9002316F057FB32463B4616F005
:107550000BFD5BA3D3E9002316F050FB32463B46FC
:1075600016F002FD02460B462046294616F044FB63
:1075700006460F4602460B462046294616F0F4FC06
:107580000022CDE900014FF080433046394616F025
:1075900033FB02460B46DDE9000116F00FFE4246C2
:1075A00006460F464B462046294616F0DDFC42466D
:1075B0004B4616F023FB02460B463046394616F082
:1075C0001BFB22462B4616F017FB02460B460020FB
:1075D0003F4916F011FB8A44BAF5801FC0F22D8195
:1075E0005146DDE9042316F0BFFCCDE900010DE4AE
:1075F000002FFFF631AC4846594613B0BDE8F04FB6
:1076000018F07CBBB8F1000FBFF6CFACDDE9023457
:10761000009304F100430193FFF7F8BB4A465B4631
:1076200000202B4916F0CAFDCDE90001FFF7EEBBA3
:107630002B4B21F00048984540F3E280294B0B4446
:1076400003430AD132463B4616F0D6FADDE902235F
:1076500016F010FF00283FF4E5AE1BA3D3E900238A
:10766000DDE9040116F080FC17A3D3E9002316F02E
:107670007BFCCDE90001FFF7C9BB00BFAFF3008081
:10768000FE822B654715973C00000000432EE63F25
:10769000EF39FAFE422EE63F396CA80C615C20BE41
:1076A000D0A4BE726937663EF16BD2C541BDBB3E08
:1076B0002CDE25AF6A56113F93BDBE166CC1663FE6
:1076C0003E5555555555C53F59F3F8C21F6EA50196
:1076D0000000F03F0000F0BFFFFF8F40FFFF0F00F2
:1076E000FFCB904000346F3FBCF1000F40F0918021
:1076F000C3F1140345FA03F202FA03F3AB4200F0BC
:10770000A0806646FFF79CBB00220023CDE908233A
:1077100097E44FF0000C78E45B4B9C427FF741AC60
:107720005A4B9C423FF7BBABDDE900010022574BAF
:1077300016F062FA46A3D3E9002304460D4616F07C
:1077400013FC45A3D3E9002382468B4620462946F5
:1077500016F00AFC0022CDE900014D4B20462946D7
:1077600016F002FC02460B463DA1D1E9000116F0DD
:1077700043FA22462B4616F0F7FB02460B46002042
:10778000444916F039FA2246804689462B4620465F
:10779000294616F0E9FB02460B464046494616F0DC
:1077A000E3FB31A3D3E9002316F0DEFB02460B46D0
:1077B000DDE9000116F020FA02460B4680468946B4
:1077C0005046594616F01AFA002004460D46524615
:1077D0005B46BBE5DDE9002310461946FFF7D8BB41
:1077E00023A3D3E90023DDE9040116F0BDFB20A3A8
:1077F000D3E9002316F0B8FBCDE90001FFF706BB83
:10780000244B98453FF70EAEDDE9002392469346A0
:1078100037E60026FFF720BB17A3D3E90023CDE905
:10782000082317A3D3E90023CDE910231A4B002224
:107830004FF48025CDE906230AE45A4601F02CFDD9
:10784000CFE602F00102C2F10206FFF7F9BA00BF6B
:10785000000000604715F73F44DF5DF80BAE543E73
:10786000555555555555D53FFE822B654715F73F64
:107870009C7500883CE4377E0000004003B8E23F7E
:1078800006D0CF43EBFD4C3EFEFFEF3F0000F03F44
:107890000000D03F0000E03F0000F83F0000000083
:1078A0002DE9F04FC84E21F00047B7428FB00B468C
:1078B00040F38F809246C54A97420C4626DC002949
:1078C000B7A3D3E9002340F38F8016F095F9C04B9E
:1078D0009F4204460D4600F04681B3A3D3E900233E
:1078E00016F08AF902460B46CAE9002320462946CB
:1078F00016F082F9ACA3D3E9002316F07DF9012537
:10790000CAE9020128460FB0BDE8F08FB14A97429C
:1079100040F38980B04A974200F31C813D15A5F2DF
:107920001645A7EB055319461F46064616F0CCFD33
:1079300016F0B0FA8046894602460B463046394674
:10794000CDE9088916F058F90022A44B16F00CFB7B
:107950008946804616F0B8FD16F09CFA02460B46A2
:1079600006460F4640464946CDE90A6716F044F9F7
:1079700000229A4B16F0F8FA00220023CDE90C0100
:1079800016F05AFD002800F05D810023304639468C
:10799000002216F051FD002814BF01230223904A53
:1079A000019202212A46009108A8514600F080FB6E
:1079B000002C054614DADAF80420DAF80C3002F16B
:1079C000004203F100434542CAF80420CAF80C30D3
:1079D00006E0C2E9000100250024C2E902450025B5
:1079E00028460FB0BDE8F08F16F008F9784B9F429B
:1079F00004460D4600F008816BA3D3E9002316F07E
:107A0000FDF802460B46CAE900232946204616F037
:107A1000F3F865A3D3E9002316F0F0F84FF0FF3533
:107A2000CAE90201DCE717F05FF861A3D3E900239C
:107A30008046894616F098FA00226A4B16F0DEF866
:107A400016F042FD054616F025FA55A3D3E90023AA
:107A5000CDE9040116F088FA02460B464046494635
:107A600016F0CAF850A3D3E90023CDE90201DDE9FD
:107A7000040116F079FA1F2D8046894602460B460E
:107A8000DDE9020140F3B08016F0B6F883460E46F9
:107A90003F15C6F30A53FB1A102B40F3B08046A3E0
:107AA000D3E90023DDE9040116F05EFA8046894639
:107AB00002460B46DDE9020116F09EF802460B462F
:107AC000DDE90201CDE9062316F096F842464B4661
:107AD00016F092F83AA3D3E9002380468946DDE9FF
:107AE000040116F041FA42464B4616F085F80B4663
:107AF000024680468946DDE9060116F07DF8C1F3AD
:107B00000A53FF1A312F83460E4600F39D8002462A
:107B10000B46CAE90023DDE90623CDE902235A46D4
:107B20003346DDE9020116F067F842464B4616F08F
:107B300063F8002C02460B46CAE90223BFF650AF99
:107B400006F1004601F10041CAE900B6CAE90201A6
:107B50006D4245E7024616F04FF80025CAE90201DA
:107B6000CAE900013CE714A3D3E9002316F044F866
:107B700013A3D3E900230D46044616F03DF8024650
:107B80000B46CAE900232946204616F035F80CA317
:107B9000D3E9002316F030F80125CAE902011FE7F6
:107BA00000004054FB21F93F3163621A61B4D03DBB
:107BB00083C8C96D305FE43F0000601A61B4D03DF6
:107BC0007370032E8A19A33BFB21E93F7BD9024046
:107BD000FB21F93FFB213941FFFFEF7F000070419E
:107BE000FC3802000000E03F16F006F83A4B6A1E2F
:107BF000834653F82230BB420E463FF449AF5A4603
:107C00003346CAE900238AE72BA3D3E9002315F002
:107C1000F5FF2BA3D3E900230D46044615F0EEFF34
:107C200002460B46CAE900232946204615F0E4FF28
:107C300023A3D3E9002315F0E1FF4FF0FF35CAE994
:107C40000201CDE60323AAE61FA3D3E90023DDE961
:107C5000040116F089F9DDE9068906460F46024659
:107C60000B464046494615F0C7FF02460B464046C4
:107C70004946CDE9022315F0BFFF32463B4615F0D9
:107C8000BBFF13A3D3E9002306460F46DDE9040139
:107C900016F06AF932463B4615F0AEFF02460B4637
:107CA00080468946DDE9020115F0A6FF83460E46AF
:107CB000A5E700BFAFF300800000601A61B4D03DBB
:107CC0007370032E8A19A33B0000002E8A19A33B70
:107CD000C14920259A837B397C38020000000000CE
:107CE000574A2DE9F84F21F0004890450E460746C7
:107CF0002CDC544B0029B4BF534D544D98454FF0E4
:107D0000000411DC524B984526DC4BA3D3E9002339
:107D100015F074FF00224F4B16F0B6FB002840D040
:107D200038463146BDE8F88F4B4B984530DD4B4B1C
:107D3000984568DD0133984562D0384631463EA308
:107D4000D3E9002316F010F9BDE8F88F02460B4680
:107D500015F054FFBDE8F88F16F0C6FE01F054F898
:107D60003F4B984506460F4623DD0022394B15F060
:107D700045FF02460B463046394616F01FFA32469A
:107D80003B4615F03BFF22462B4616F0EDF8E1E7A7
:107D900016F0AAFEFEF740FC22462B4616F0E4F849
:107DA000D8E73846314616F09FFE01F02DF806461A
:107DB0000F4632463B463046394615F01FFF3246E5
:107DC00082468B463B463046394616F0CDF80022B7
:107DD000804689461F4B3046394615F00FFF024654
:107DE0000B464046494616F0E9F902460B46504616
:107DF000594615F001FF22462B4616F0B5F8A9E7C3
:107E0000184B984299D83846314616F06DFE00223C
:107E10000E4B16F0A9F8FEF7FFFB06460F4602468A
:107E20000B462046294616F09FF832463B4616F090
:107E30009BF88FE7AFF300803374AC3C1F7BAC7FC3
:107E4000FFFFEF7FFFFF35400000E0BF0000E03F95
:107E5000FFFF2F3E0000F03F412E8640CD3386408D
:107E6000FFFFEF3F7DF8B98F2DE9F04F21F000467D
:107E7000B6F1795F85B00C4692469B4605466BDAB3
:107E800016F022FB002800F0E2802A46234628460E
:107E9000214616F069F874A3D3E900238046894689
:107EA00016F062F872A3D3E9002315F0A7FE42464C
:107EB0004B4616F059F870A3D3E9002315F09CFE49
:107EC00042464B4616F050F86DA3D3E9002315F057
:107ED00095FE42464B4616F047F86BA3D3E90023C4
:107EE00015F08AFE42464B4616F03EF868A3D3E9E9
:107EF000002315F083FE42464B4616F035F8CDE9D7
:107F000000010022644B4046494616F02DF8DDE999
:107F1000002306460F464046494616F025F85246CD
:107F2000804689465B462846214616F01DF80246E3
:107F30000B464046494615F05FFE02460B4630466A
:107F4000394615F059FE02460B460020534915F0FC
:107F500053FE05B0BDE8F08F02460B4616F004F85C
:107F600041A3D3E900238046894615F0FDFF40A3D5
:107F7000D3E9002315F042FE42464B4615F0F4FFCC
:107F80003DA3D3E9002315F037FE42464B4615F0DA
:107F9000EBFF3BA3D3E9002315F030FE42464B46EE
:107FA00015F0E2FF38A3D3E9002315F025FE424681
:107FB0004B4615F0D9FF36A3D3E9002315F01EFE7A
:107FC0004B46424615F0D0FF354B9E42CDE90001AD
:107FD00097DD344B9E424FF000023DDCA6F50013C6
:107FE00000202E4916461F4615F006FECDE9020177
:107FF0000022294B4046494615F0B6FF32463B4623
:1080000015F0FAFDDDE9002306460F4640464946D5
:1080100015F0AAFF5246804689465B46284621460F
:1080200015F0A2FF02460B464046494615F0E4FD16
:1080300002460B463046394615F0DEFD02460B4639
:10804000DDE9020115F0D8FD05B0BDE8F08F134958
:10805000002005B0BDE8F08F134B144FCDE902238B
:108060000026C5E7AFF30080D43888BEE9FAA8BD82
:10807000C4B1B4BD9EEE213EAD529C804F7E923E77
:108080009015CB19A001FA3E7751C1166CC1563F2D
:108090004C5555555555A53F0000E03F0000F03FB9
:1080A0003233D33F0000E93F0000E73F0000D23FFA
:1080B0002DE9F04FADF5197DBE4CA29EBE4D54F892
:1080C00026700793D41E85FB0465E417C4EBA50452
:1080D00024EAE4741D46631CA3EB8303013D02EB19
:1080E000C30305937B1909940497019506460B91E8
:1080F000A4EB05041BD423445D1C20AF4FF0000803
:108100004FF00009DDF88CA208E05AF8240015F0C1
:10811000C1FE0134AC42E7E8020108D0002CF4DAD9
:10812000013440464946AC42E7E80201F6D1049BDF
:10813000002BC0F2B083079BA6F10802DB001146BA
:10814000039220AA02EB0309029301EB0308049BAC
:1081500072AA02EBC30B0DF5E07A019B002BC0F273
:108160009581039C4D460026002775E90223F4E91A
:10817000020115F0F9FE02460B463046394615F06D
:108180003DFD444506460F46EFD1EAE80267DA4571
:1081900009F10809E1D1DDE90204049920448B00CA
:1081A00082460BA8A3F10802C31808930CAB134432
:1081B0000A938B4698AB03EBCB03BBF1000F53E95B
:1081C000284529DD70AB03EBCB080DF13009002207
:1081D0007A4B2046294615F0C7FE16F075F915F0C2
:1081E00059FE0022764B06460F4615F0BDFE0246AC
:1081F0000B462046294615F0FFFC16F065F978E994
:10820000022349F8040B3946304615F0F7FC70ABF1
:10821000984504460D46DAD1DDF8149020462946EB
:108220004A4601F039F800224FF07F5304460D46CC
:1082300015F09AFEFCF724FF0022624B15F094FE25
:1082400002460B462046294615F0D6FC0D4604464C
:1082500016F03AF9804615F01DFE0B4602462946F7
:10826000204615F0C9FC4B46002B06460F4640F34E
:10827000E1800BF1FF320CA9C9F1180351F822502B
:1082800045FA03F101FA03F30CA8EB1A40F8223087
:10829000C9F11705884443FA05F5002D2CDDBBF123
:1082A000000F08F1010840F394820C9C002C40F070
:1082B000A780BBF1010F0AD00CA9012251F8044F8D
:1082C000531C002C40F09E809B451A46F6D1059B1E
:1082D000002B0EDD012B00F09C81022B09D10BF14C
:1082E000FF320CAB0CA953F82230C3F3150341F84D
:1082F0002230022D00F0AF800022002330463946A4
:1083000016F09AF8002800F06682049B0BF1FF3902
:108310004B4510DC0BF180430CAA013B089802EBA3
:108320008303002253F80419834242EA0102F9D17F
:10833000002A40F0B580049B0CAA013B52F8233080
:10834000002B40F0A1800A9A012352F8041901334E
:108350000029FAD05B440BF101099945069349DCE9
:10836000099A079909EB020801EB0B0508F180480F
:1083700002EB030BA39B08F1FF3803EB880870ABFB
:1083800003EBC909A39B20A903EB8B0301EBC505F4
:10839000029358F8040F15F07DFD019B002BC5E9F1
:1083A000000105F1080B28DB083D039C002600278F
:1083B0000CE000BF9C3D0200ABAAAA2A0000703E60
:1083C000000070410000204075E80201F4E902233A
:1083D00015F0CAFD02460B463046394615F00EFC34
:1083E000544506460F46EFD1029B9845E9E80267DF
:1083F0005D46CED1DDF818B0DCE600260027F3E7B5
:10840000012300220CA9C4F180749B4541F822404D
:108410000EDD51F8232001EB8B0001EB83036FF09D
:108420007F4100E01A688A1A43F8042B8342F9D18D
:1084300001244CE706D10BF1FF330CAA52F823506C
:10844000ED152AE70022BE4B16F014F8002840F084
:10845000B981054650E732463B460020B94915F040
:10846000CBFB06460F46002C3FF446AF059AB549B4
:10847000002000F011FF02460B463046394615F049
:10848000BBFB06460F4637E7012363E700260027BC
:10849000EAE80267DA4509F108097FF45EAE7AE698
:1084A0000CAB059A53F82930183ACDE906850592A8
:1084B0006BB909F18043013B0CA901EB830353F82D
:1084C000041909F1FF39183A0029F8D00592059AE4
:1084D0009C49002000F0E0FEB9F1000F04460D4673
:1084E000C0F2E0814FEAC90370AA02EB03080893C7
:1084F0000CAB03EB8906DFF850B208F1080704362D
:108500004FF0000A56F8040D15F0C4FC22462B4625
:1085100015F02AFD5B4667E90201524620462946CE
:1085200015F022FD0CAB9E4204460D46EAD148AB45
:1085300003930193CDF8149009F10103DDF8109035
:108540000293C3464FF0000AB9F1000FC0F2378121
:10855000DFF8F8815D4678A3D3E9002300260027E1
:10856000002403E0544510DCF8E80223F5E802019A
:1085700015F0FAFC02460B463046394615F03EFB34
:108580000134A14506460F46ECDA019BE3E8026799
:108590000193029B0AF1010A9A45ABF1080BD3D172
:1085A000A29BDDF81490032B2CD8DFE813F0E80031
:1085B000D300D3003F00079B00200146002B40F072
:1085C00043810D460B460B990446C1E900450399CA
:1085D0000246D1E9000115F00FFBB9F1000F0CDDE7
:1085E000039D0124F5E90223013415F007FBA145A1
:1085F000F8DA079B002B40F037810B460B990246B7
:10860000C1E90223069B03F007000DF5197DBDE8C3
:10861000F08F0BF1FF320CAB0CA953F82230C3F3EF
:10862000160341F8223064E648AB0393B9F1000F1A
:1086300040F35581039ACDF808904FEAC90302EB45
:108640000308D8E900AB0193914658E90267524606
:108650005B463046394615F0D1FA04460D460246CF
:108660000B463046394615F0C7FA52465B4615F0C0
:10867000C5FAC8E9000168E90245C145A246AB4612
:10868000E3D1DDF80890B9F1010F40F32881019B97
:10869000039A1344D3E9006701939A460DF5947B3E
:1086A0005AE9028932463B464046494615F0A6FA49
:1086B00004460D4602460B464046494615F09CFAD4
:1086C00032463B4615F09AFACAE900016AE90245CA
:1086D000D34526462F46E3D10399019C002301F19F
:1086E0001005083419461E46304674E9022315F079
:1086F00085FAA5420346F6D10A460399D1E9008CD2
:10870000D1E902E90799002900F0B1800B9C2361AF
:10871000069BC4F800800CF1004009F1004102F111
:108720000042606003F00700E1606261C4F808E0A5
:108730000DF5197DBDE8F08F00000040FB21F93FE9
:108740000000E03F0000F03F0000703EA822020061
:1087500048AB0393B9F1000FFFF62DAF039F002044
:1087600007EBC9060836014676E9022315F046FAFA
:10877000B742F9D1079B002B3FF423AF64E0089C7C
:10878000039D083400222C4411461646304674E9F5
:10879000022315F033FAA5420246F6D10B4607999B
:1087A00009B103F1004319460B9B1046C3E90001D0
:1087B000069B03F007000DF5197DBDE8F08F00263C
:1087C0000027E2E6BBF1000F08F101087DDD02257C
:1087D0006BE500247BE5CDE90685059D30463946ED
:1087E0006A4200F059FD00223E4B06460F4615F046
:1087F00041FE00B300223C4B3046394615F0B4FB35
:1088000015F062FE044615F045FB0022354B15F0CD
:10881000ABFB0B4602463946304615F0EDF915F034
:1088200053FE0BF101090CAB183543F82B000595ED
:1088300043F829404BE63046394615F045FE0CAB6F
:10884000D94643F82B0042E60B9C0B4601F1004150
:10885000C4E9000103990246D1E9000115F0CCF901
:10886000B9F1000F3FF7BCAE01F10041C5E6184673
:108870000B9B4646744667464D461146C3E90401C4
:10888000C3E90067C3E90245069B03F007000DF545
:10889000197DBDE8F08FA6F108030393079BDB0069
:1088A000029378E4A29B032B3FF6ACAE01A252F8F0
:1088B00023F000BFC58800005187000051870000E9
:1088C000298600000022134669E732463B46002015
:1088D000064915F091F9022506460F460CE50023DE
:1088E0001A460AE7000070410000703E0000F03FA9
:1088F0002DE9F04F21F00046B6F1795F85B00C46C6
:1089000090469946054604DA15F0DEFD002800F091
:1089100085802A4623462846214615F025FB064633
:108920000F4602460B462846214615F01DFB3EA386
:10893000D3E9002382468B463046394615F014FBB6
:108940003BA3D3E9002315F057F932463B4615F017
:108950000BFB39A3D3E9002315F050F932463B460F
:1089600015F002FB36A3D3E9002315F045F9324692
:108970003B4615F0F9FA34A3D3E9002315F03EF98C
:108980000E9BCDE900019BB30022334B4046494684
:1089900015F0EAFADDE90023CDE902015046594617
:1089A00015F0E2FA02460B46DDE9020115F024F962
:1089B00032463B4615F0D8FA42464B4615F01CF9B4
:1089C00023A3D3E9002306460F465046594615F027
:1089D000CBFA02460B463046394615F00FF90246EF
:1089E0000B462846214615F007F905B0BDE8F08F83
:1089F00002460B463046394615F0B6FA14A3D3E9C1
:108A0000002315F0F9F852465B4615F0ADFA2A46F8
:108A1000234615F0F3F805B0BDE8F08F284621464F
:108A200005B0BDE8F08F00BF7CD5CF5A3AD9E53DFF
:108A3000EB9C2B8AE6E55A3E7DFEB157E31DC73E0F
:108A4000D561C119A0012A3FA6F810111111813F6B
:108A5000495555555555C53F0000E03F0000000001
:108A60002DE9F04FDA4C21F00046A64287B08A4645
:108A700089461746984683461BDC15F025FD0028DD
:108A800039D1109B5A4601331343334300F0A88178
:108A9000109B012B00F0B1815A4653460020CD496E
:108AA00015F08CFB04460D462046294607B0BDE86C
:108AB000F08FC94B9E421EDD002904DA01F100430C
:108AC00008F100489A465A465346A3A1D1E900014D
:108AD00015F092F83A46434604460D46A0A1D1E966
:108AE000000115F089F822462B4615F087F800277B
:108AF00083468A46B8465A4653465846514615F06C
:108B000033FA03460C46CDE9003402460B4615F015
:108B10002BFADDE9002304460D465846514615F070
:108B200023FA91A3D3E90023CDE902012046294687
:108B300015F01AFA8EA3D3E9002315F05FF8224648
:108B40002B4615F011FA8CA3D3E9002315F056F843
:108B500022462B4615F008FA89A3D3E9002315F025
:108B60004DF822462B4615F0FFF987A3D3E90023E1
:108B700015F044F822462B4615F0F6F984A3D3E904
:108B8000002315F03BF8DDE9002315F0EDF982A391
:108B9000D3E90023CDE904012046294615F0E4F984
:108BA0007FA3D3E9002315F029F822462B4615F0C0
:108BB000DBF97DA3D3E9002315F020F822462B46EC
:108BC00015F0D2F97AA3D3E9002315F017F822465D
:108BD0002B4615F0C9F978A3D3E9002315F00EF858
:108BE00022462B4615F0C0F975A3D3E9002315F0F2
:108BF00005F802460B46DDE9040114F0FFFFDDE94C
:108C0000022315F0B1F93A46434614F0F7FFDDE9C7
:108C1000002315F0A9F93A46434614F0EFFF6AA382
:108C2000D3E9002304460D46DDE9020115F09CF965
:108C300022462B4614F0E2FFCDE900010B46024626
:108C40005146584614F0DAFF634B9E4204460D46E7
:108C50003EDC109B012B36D002460B4600205D49BE
:108C600015F0ACFA00240F4606465A4653462046F5
:108C7000294614F0C1FFA04602460B46DDE900017B
:108C800014F0BAFF42463B4615F06EF9A946044679
:108C90000D4642463B464046494615F065F90022DE
:108CA0004E4B14F0ABFF02460B462046294614F00B
:108CB000A5FF32463B4615F057F942463B4614F0B5
:108CC0009DFF04460D462046294607B0BDE8F08FBB
:108CD000109815F0DFF8224606460F462B46204630
:108CE000294615F041F93246CDE902013B462046BE
:108CF000294614F083FF02460B46DDE9020115F018
:108D00005DFADDE9002314F077FF02460B46584672
:108D1000514614F071FF02460B4614F06FFF0246F5
:108D20000B463046394614F067FF04464FEAA970F7
:108D300000F00200C0F101000D4615F0ABF802464C
:108D40000B462046294615F00FF904460D462046ED
:108D5000294607B0BDE8F08F182D4454FB21E93FA8
:108D6000075C143326A6813CD47ABF74702AFB3E7C
:108D7000E9A7F0320FB8123F68108D1AF726303F7E
:108D80001583E0FEC8DB573F93846EE9E326823FFC
:108D9000FE41B31BBAA1AB3F735360DBCB75F3BE8F
:108DA000A69237A0887E143F0165F2F2D844433F73
:108DB000280356C9226D6D3F37D60684F464963F6A
:108DC0007AFE10111111C13F635555555555D53FC8
:108DD000FFFF2F3E0000F0BF2794E53F0000F03F6B
:108DE0005846514615F080FE02460B4600200449C5
:108DF00015F0E4F904460D4665E75C46554662E722
:108E00000000F03F000000002DE9F04FCA4A21F0B9
:108E10000043934285B00C460E46054620D9C74A0A
:108E2000934200F2D480002E80F2A081AAA3D3E95D
:108E300000232846214614F0E1FE0022002315F00D
:108E400005FB002840F0CE80A5A3D3E900232846E7
:108E5000214615F089F802460B460020B84990E1FA
:108E6000B84A934200F2E280B74A934240F22B8123
:108E7000002301930022B54B2846214615F074F8D3
:108E800006460F4602460B462846214615F06CF86A
:108E900095A3D3E9002382468B4615F065F894A389
:108EA000D3E9002314F0AAFE52465B4615F05CF8A5
:108EB00091A3D3E9002314F09FFE52465B4615F0C0
:108EC00053F88FA3D3E9002314F098FE52465B4673
:108ED00015F04AF88CA3D3E9002314F08DFE524616
:108EE0005B4615F041F80022994B14F087FE80464E
:108EF000894602460B463046394615F035F802469B
:108F00000B460020934914F077FE064602460B46B6
:108F10000F464046494614F06FFE32468046894669
:108F20003B462846214615F01FF802460B46002016
:108F3000894914F061FE02460B464046494615F049
:108F40003DF952465B4615F00FF8019E02460B466E
:108F5000002E4AD0DDE9026732463B4614F04CFE53
:108F60002A46234615F000F832463B4614F044FEEC
:108F70005B46524614F040FE019B013306460F4605
:108F800000F01F81019B012B78D0019A531C392BD3
:108F90004FEA025600F22481019F132F40F35181C2
:108FA000019BC3F57F7A0AF1030A00224FEA0A53B4
:108FB00014F024FE02460B462846214614F01CFEFF
:108FC0000022634B14F01AFE731819461BE0634A23
:108FD00093421BD9C1F313030343024640F01181AE
:108FE000002910DA00205E490DE02846214614F0E1
:108FF000BBFF52465B4614F0FFFD02460B46284677
:10900000214614F0F9FD05B0BDE8F08F40A3D3E987
:10901000002315F039FA00283FF405AF3EA3D3E949
:1090200000231046194614F09FFFECE74D4A934287
:1090300000F2EB8000293AA3D3E9002339DA14F0D7
:10904000DDFD39A7D7E900674FF0FF338046894639
:10905000019332463B464046494614F0CDFD024658
:109060000B4605460C464046494614F0C5FD3246BF
:109070003B4614F0C1FDCDE90201FBE6284621463E
:109080000022394B15F0E2F9002800F0CB80284689
:10909000214600222D4B14F0B1FD02460B4630460E
:1090A000394614F0A9FD00224FF0404314F05CFF54
:1090B000A9E714F0A1FD01238046894601931CA76E
:1090C000D7E90067C5E714A3D3E9002314F096FDA0
:1090D00002460B468FE700BF59F3F8C21F6EA50189
:1090E000FE822B654715F73F2DC3096EB7FD8ABE7B
:1090F0003952E686CACFD03EB7DBAA9E19CE143FBE
:109100008555FE19A0015A3FF41011111111A13F0C
:10911000EF39FAFE422E86409C7500883CE4377E8B
:109120000000E0FE422EE63F763C7935EF39EABD9D
:10913000763C7935EF39EA3D79684340412E8640E7
:109140000000E0BF422ED63FFFFF8F3C0000E03F13
:109150000000F03F0000084000001840FFFFEF7FD4
:109160000000F0BFB1A2F03F0000D0BF40A3D3E9A0
:1091700000232846214614F0F7FE02460B46002045
:10918000414914F03BFD15F09FF9019014F082FE67
:1091900039A3D3E9002306460F4614F0E5FE024644
:1091A0000B462846214614F027FD35A3D3E90023BA
:1091B000804689463046394614F0D6FE06460F46AC
:1091C00047E732463B462846214614F015FD00226B
:1091D0002D4B14F0C9FE00222B4B14F00DFD12E7AD
:1091E0002A46234614F008FD02460B460020274974
:1091F00014F002FD731819460022244B14F0FCFCF5
:1092000001E70B4614F0FAFCFDE619A3D3E90023AD
:1092100014F0AAFE002C02460B464FF00000AFDA15
:109220001B49AEE732463B462846214614F0E4FC93
:1092300002460B4614F0E2FC0022144B14F0DEFC54
:10924000E1E64FF4001C2A4623464CFA07FA14F0D4
:10925000D3FCCAF17F594FF0000809F540190246C6
:109260000B464046494614F0C7FCADE6AFF300801C
:10927000FE822B654715F73F0000E0FE422EE63FD9
:10928000763C7935EF39EA3D0000E03F0000F03FE1
:109290000000E0BF00000000F8B5C1F30A53044627
:1092A0000D460E4617460BBB21F0004603463343DE
:1092B0001BD0354B002214F057FE344B9F4204461E
:1092C0000D4635DBC1F30A530E46363B3B4440F2B4
:1092D000FE72934232DC002B11DD26F0FF4626F4AD
:1092E000E00646EA035520462946F8BD40F2FF72E3
:1092F0009342EBD102460B4614F080FCF8BD13F10B
:10930000350F28DA4CF250339F4222462B460ADDB5
:1093100019A1D1E9000117F0CFFE17A3D3E900236B
:1093200014F022FEF8BD16A1D1E9000117F0C4FE29
:1093300013A3D3E9002314F017FEF8BD22462B46F1
:109340000DA1D1E9000117F0B7FE0BA3D3E900236B
:1093500014F00AFEF8BD26F0FF4626F4E006363388
:1093600046EA0355204629460022094B14F0FCFD2D
:10937000F8BD00BFAFF300809C7500883CE4377EE9
:1093800059F3F8C21F6EA50100005043B03CFFFF27
:109390000000903C10B5054C237833B9044B13B151
:1093A0000448AFF300800123237010BD2802002081
:1093B00000000000203F020008B5034B1BB1034929
:1093C0000348AFF3008008BD000000002C0200201D
:1093D000203F020070B504460E4600F07DFA88B1C9
:1093E0000368DB6A05469847082C0CD0A4F10903F2
:1093F000012B14D93246214610230D20BDE87040C0
:1094000004F064B970BD2B6828465B6A984702284F
:10941000F0DC2B6828461B6A04219847EAE72B6892
:1094200028465B6A98470528E4DC2B6828461B6AB7
:1094300008219847DEE700BF38B52DED028B0546C1
:1094400000F04AFA044640B10368DB6A9847032DEE
:1094500003D8DFE805F02F363D06BDEC028B002077
:1094600038BD20460DF026F807EE900A2046F8EEAB
:10947000E78A0DF02FF807EE900A2046B8EEE78A4B
:109480000DF038F868EE087A07EE100AE8EEA87AD0
:10949000B8EEC77AE7EE077AF5EE407AF1EE10FA09
:1094A000B1EEE78A1BD4FDEEC87ABDEC028B17EE55
:1094B000900A38BDBDEC028B2046BDE838400CF068
:1094C000F9BFBDEC028B2046BDE838400DF002B874
:1094D000BDEC028B2046BDE838400DF00BB817EE0E
:1094E000900A16F0A3FADEE738B5044600F0F4F966
:1094F00058B10368DB6A0546984744B1012C04D192
:109500002846BDE83840FBF70FBA002038BD284692
:10951000BDE83840FBF7E8B910B5044600F0DCF9C7
:1095200028B1036821461B6ABDE81040184710BDEA
:109530000048704716FCFFFF704700BF10B5034B93
:10954000036004460CF092FD204610BDA4300200DA
:1095500010B5054B036004460CF088FD204618F05A
:1095600048FA204610BD00BFA43002002DE9F041AA
:10957000032184B00546512001F010FDDFF854C3EB
:10958000C94B044604F00F06C4F3031714F48074A7
:1095900008BF6346C54831463A460BF013FF221C0C
:1095A00018BF012231463B4628460FF08FFC0023AE
:1095B000AB60BF480BF006FF4FF0FF31032001F016
:1095C000EDFC04F03BFB4FF0FF310446022001F0BC
:1095D000E5FC04F033FB002C55D0002853D00146A5
:1095E000204604F04DF90646002865D04FF0FF31C3
:1095F000462001F0D3FC3828044600F0D58019DD60
:109600003A2800F0BC8068285DD14FF0FF3101207E
:1096100001F0C4FC04F012FB80464C2018F0F2F973
:10962000052301934246009431462B4607460EF02F
:1096300063F818E0302801D0322844D14FF0FF31D0
:10964000012001F0ABFC04F0F9FA80464C2018F040
:10965000D9F9A4B207460523019342460094314646
:109660002B460DF0FFFDAF603B6838469B6A98477C
:10967000A8680368DB6A98478E480BF0A3FE28466B
:1096800004B0BDE8F0818C480BF09CFE4FF0FF3138
:10969000192001F083FC04F0D1FA4FF0FF310446A9
:1096A000182001F07BFC04F0C9FA0146204604F0C2
:1096B000E7F80646002899D180480BF083FE28463B
:1096C00004B0BDE8F08101243268CDE900440023F4
:1096D000176AAB600F220DF10F0332213046B847F5
:1096E000002800F0A4803368CDE900440F221F6AEF
:1096F00030210DF10F033046B84700286BD0336896
:10970000CDE900440D221F6A38210DF10F033046C8
:10971000B847002800F091803368CDE900440D225D
:109720001F6A3A210DF10F033046B847002800F0B8
:10973000A0803268CDE900440DF10F03176A68215B
:1097400075223046B847002857D168215C480BF095
:1097500039FE4FF0FF31204601F020FC04F06EFA94
:1097600080464C2018F04EF905246823CDE90034DA
:10977000424631462B4607460DF0BEFF73E74FF0D9
:10978000FF31012001F00AFC04F058FA8046442021
:1097900018F038F9052301934246009431462B46D0
:1097A00007460DF001FF5EE74FF0FF31012001F0A9
:1097B000F5FB04F043FA8046442018F023F9052312
:1097C0000746019342462B46009431460DF0ECFECD
:1097D0003C4B3B6047E7302139480BF0F3FD302428
:1097E0004FF0FF31012001F0D9FB04F027FA804649
:1097F0004C2018F007F907462DE733480BF0E2FD3F
:10980000AF68002F7FF430AF4FF0FF31032001F03D
:10981000C5FB04F013FA30B12C480BF0D3FD2846F9
:1098200004B0BDE8F0812A480BF0CCFD47E73221B7
:1098300023480BF0C7FD3224D2E7382120480BF033
:10984000C1FD4FF0FF31204601F0A8FB04F0F6F90E
:109850008046442018F0D6F8052438230746CDE981
:10986000003442462B4631460DF09EFE154B3B60C0
:10987000F9E63A2112480BF0A5FD4FF0FF312046E2
:1098800001F08CFB04F0DAF98046442018F0BAF8B5
:1098900005243A23CDE90034424631462B4607469B
:1098A0000DF082FEDFE600BF2C2302003C23020005
:1098B0005C2302001C2402006C23020080230200AF
:1098C000AC230200F822020098230200C023020009
:1098D000FC2302003423020038B5104C23680BB17E
:1098E000986838BD4FF0FF31012001F057FB04F0BC
:1098F000A5F940B10C2018F085F80546FFF736FEB3
:109900002560A86838BD4FF0FF31032001F046FB09
:1099100004F094F90028EDD138BD00BF44020020C6
:1099200008B501F06DFCFBF75BFEBDE8084001F0F7
:10993000C5B900BF08B501F063FCFBF7C1FEBDE887
:10994000084001F0BBB900BF08B501F059FC15F0A3
:1099500041F9BDE8084001F0B1B900BF08B501F018
:109960004FFC15F0B5FEBDE8084001F0A7B900BFF7
:1099700008B501F045FCFBF743FEBDE8084001F0E7
:109980009DB900BF08B501F03BFC15F051FBBDE8E7
:10999000084001F093B900BF08B501F031FCFBF7B6
:1099A000AFF8BDE8084001F089B900BF08B501F083
:1099B00027FC15F093FABDE8084001F07FB900BF1D
:1099C00070B5049E96420C4624DB15466BB9042AFA
:1099D00019D0022A02D110F0010310D001462A4604
:1099E000204607F04FFE002070BD10440D4410F8D3
:1099F000013D01F8013B8D42F9D1002070BD028884
:109A00000A80184670BD10F00303E7D102680A60AF
:109A1000184670BD0846002108F0C6FF4FF0FF3021
:109A200070BD00BF0830704740B1002905DB4368B6
:109A30008B4202DD0844007A70470020704700BF67
:109A400030B1002904DB43688B42C4BF4018027266
:109A5000704700BF40B1002905DB4368994202DA34
:109A60000844007A70470020704700BF830704D184
:109A7000030F0CBF0120002070470120704700BF7A
:109A800030B1002904DB43689942BCBF4018027220
:109A9000704700BFF8B5002B20DB00291EDB4668AD
:109AA0008E421BDB5468761AE51AB542A8BF3546CC
:109AB000002D13DB824202F108070C4600F1080674
:109AC0002A4605D0F918301907F0DCFD0020F8BD52
:109AD000F118381917F0C9FF0020F8BD4FF0FF301A
