:104000000000032005760100017601002DDE00008E
:104010000176010001760100017601000000000038
:104020000000000000000000000000000176010018
:104030000176010000000000017601000176010018
:104040000176010001760100017601000176010090
:104050000176010001760100017601000176010080
:104060000176010001760100017601000176010070
:104070002120020029200200312002003920020004
:104080004120020049200200512002005920020074
:1040900061200200692002007120020079200200E4
:1040A0008120020089200200912002009920020054
:1040B000017601000176010001760100D51A0200A7
:1040C000D91A0200DD1A0200E11A0200E51A020004
:1040D0000176010001760100017601000176010000
:1040E00001760100017601000176010001760100F0
:1040F00000000000017601004D1602005916020072
:104100005D160200611602006516020071160200BB
:1041100075160200791602007D160200891602004B
:104120008D1602009116020095160200A1160200DB
:10413000A5160200A9160200AD160200B91602006B
:10414000BD160200C1160200C5160200D1160200FB
:10415000D5160200D9160200000000000000000081
:10416000000000000000000000000000000000004F
:10417000000000000000000000000000000000003F
:104180001DEC010025EC010029EC010021EC0100EF
:1041900000000000017601000176010001760100B7
:1041A000017601000176010001760100017601002F
:1041B000017601000176010001760100017601001F
:1041C000017601000176010001760100017601000F
:1041D00001760100017601000176010001760100FF
:1041E000017601000176010001760100390D02001F
:1041F000410D0200490D0200510D0200590D02004F
:10420000610D0200000000000000000001760100C6
:1042100001760100017601000176010001760100BE
:1042200001760100017601000176010001760100AE
:10423000017601000176010001760100017601009E
:10424000017601000176010001760100017601008E
:10425000017601000176010001760100017601007E
:10426000000000007CB0EE877CB0EE87FF00FF000E
:10427000FF00FF00FF00FF00FF00FF00FF00FF0046
:10428000FF00FF00FF00FF00FF00FF00FF00FF0036
:10429000FF00FF00FF00FF00FF00FF000000000024
:1042A0002DE9F04F85B003910778A7F10903042B9E
:1042B000044607F07F0200F10100F5D9202AF3D06F
:1042C0002B2F04BF677804462D2F75D09FED427BBE
:1042D0008DED007B4FF000084FF000099FB34FF0C9
:1042E000000C25464FF0000ADFF8FCB0644619E0E8
:1042F0001EF002FB8046894630461EF093FA424685
:104300004B461EF043F95246804689465B46DDE93E
:1043100000013CB31EF01AFCCDE90001A44615F8DB
:10432000017F7FB1A7F13006092E52465B46404619
:104330004946DDD9CCB92E2F17D115F8017F0124BC
:10434000002FEFD12C4642464B46DDE900011EF01E
:10435000D3FA80468946039B404649461C6005B017
:10436000BDE8F08F4FF0010CD9E72C46BCF1000FEF
:1043700029D042464B46DDE900011EF0BDFA07F0A8
:10438000DF07452F80468946E5D10399681C0A223C
:1043900021F0BAFB1449024600201EF05DFE0246E1
:1043A0000B46404649461EF0A7FA804689464046DD
:1043B000494605B0BDE8F08F9FED097B67788DED2C
:1043C000007B013486E7DFF824904FF00008404678
:1043D000494605B0BDE8F08F000000000000F03F46
:1043E000000000000000F0BF000024400000F87F43
:1043F0002DE9F047002314460022804689461EF02E
:10440000EDFC28B109F1004399462D2323700134B6
:1044100000220023404649461EF0D6FC28B1302237
:10442000002322706370BDE8F087404649461FF0C4
:104430000FFC1EF011FD73A3D3E900230746494684
:1044400040461EF0CBFC00284ED170A3D3E90023D8
:10445000404649461EF0E0FC002845D10E2F07F1EA
:10446000010540F3B980A7F10E06324600206249EB
:104470001EF0F2FD02460B46404649461EF066FB22
:1044800000225E4B1EF082F81EF022FE002DA7F1E6
:104490000F0E4FF0010C4DDD594FDFF878810122EE
:1044A00045F6F3294FF02E0A494508BF40454FF025
:1044B00030030AD3B0EB080061EB0901494508BF9E
:1044C000404503F10103F5D2DBB2237050EA01034A
:1044D00004F101084AD1954252DD0132102A4FD031
:1044E000444677E90289DFE7002F33DB3A460020B4
:1044F00041491EF0B1FD02460B46404649461EF0BA
:1045000025FB3BA3D3E900238046894601250026ED
:10451000404649461EF0F0F90022384B1EF036F8AE
:104520001EF0D6FD002DBC464FF0FF3E37464FF043
:104530000006B1DC234630224FF02E0803F8022B90
:1045400084F80180FC4345D01C4403F8012BA342AE
:10455000FBD1A1E77A42002027491EF07DFD0246EB
:104560000B46404649461EF0C7F9CAE7954202F19C
:10457000010204BF84F801A004F10208102AAFD19F
:104580006EB14246302102F8011BC2F101037344AF
:104590004344002BF7DC2EEAEE7301339844BCF160
:1045A000010F12D0BCF1000F4FF0650388F8003006
:1045B000C5BF2B2388F8013008F1010108F1020181
:1045C0006046BDE8F04713F08BB8002388F8003050
:1045D000BDE8F0871C465FE7C7F10E0200200649E0
:1045E0001EF03AFD3E4602460B46012790E700BF0B
:1045F0000000901EC4BCD642000024400000E03FF2
:10460000306C02008DEDB5A0F7C6B03E50EFE2D69B
:10461000E41A4B4400407A1070B54FF0FF3006F0BA
:1046200079F904466FF07F4006F074F9064620469B
:104630001EF0E8F800220C4B1EF05EF904463046EE
:104640000D461EF0DFF806A3D3E900231EF07EFA24
:1046500002460B46204629461DF098FF70BD00BF5C
:104660000000E0DFFFFF6F430000F03D00000000AE
:104670002DE9F04F1D461389AB4288BF536885B0C2
:1046800004468CBF53F82500002090468A4606F069
:10469000B7FD0022904B1EF02FF91EF0DDFBB8F89D
:1046A00008206B1C9A4288BFD8F8042006468CBFAD
:1046B00052F82300002006F0A3FD0022864B1EF0D6
:1046C0001BF91EF0C9FBB8F808300235AB4288BFB1
:1046D000D8F8043007468CBF53F82500002006F0B8
:1046E0008FFD002EC4E9006740F3E280002F40F305
:1046F000DF8071A3D3E90023002584F828501FF040
:10470000CBF900220023804689461EF067FB40B1AA
:104710004046494668A3D3E900231DF037FF804691
:10472000894667A3D3E90023404649461EF074FB3F
:10473000C0B165A3D3E90023404649461EF058FBAB
:1047400080B101234046494684F8283060A3D3E96C
:1047500000231DF01BFF58A3D3E900231FF09CF991
:104760008046894600225D4B404649461EF0C4F80B
:104770001EF0CAFE01F1004300221946564B1EF0FE
:10478000BBF81EF069FB4946054640461EF078FE20
:104790000022514B1EF0B0F81EF05EFBDAF8043038
:1047A0004F49B3F80CB0B3F80AA0A56007FB0BF3B0
:1047B00003EB010806FB0AF6019388FB05234FEA89
:1047C000124C00960E444CEA034C06EA010383FBAC
:1047D000009A06EB0C0E0EEA010ED346CA468EFB7B
:1047E00000675246CDE90267120C42EA0B42DDE94E
:1047F00002AB0CEA010C8CFB00674FEA16495646E7
:104800000A40360C46EA0B4649EA074982FB05ABEB
:104810005F46C144B0445646CDE90267039FE0605D
:10482000360C09EA010908EA010846EA074689FB4D
:1048300005AB334488FB0556CDE9025655462D0C91
:1048400045EA0B45DDE902AB0B40AC4403EAE377F4
:104850000CEA010C554623EAE37367454FEA154518
:1048600002EAE276A8BF674645EA0B45634522EABD
:10487000E272B8BF6346AE444E450EEA010EA8BFD1
:104880004E464A45B8BF4A467745A8BF7746734566
:10489000B8BF73464645A8BF4646C4E905634245CE
:1048A000B8BF424600980199206261622761E261C7
:1048B000204605B0BDE8F08FEA2E4454FB21194094
:1048C000F4D64354FB21F93F320D337F7CD912409B
:1048D000EA2E4454FB2109400000F0400000E03F74
:1048E0000000FFFF0000000008B514F003FADFED40
:1048F0000C7A07EE100A67EE277A17EE900A1DF081
:10490000A3FF05A3D3E900231EF020F91EF0A4FAAB
:1049100008BD00BFAFF30080EA2E4454FB211940CC
:104920000000B4430000000008B514F0F7F9DFED13
:104930000C7A07EE100A67EE277A17EE900A1DF040
:1049400083FF05A3D3E900231EF000F91EF084FACB
:1049500008BD00BFAFF30080EA2E4454FB2119408C
:104960000000B443000000002DE9F04F046985B059
:10497000E3699B07FCD12368C3F3400BBBF1000F35
:1049800040F0AF80B0F80CA015468046BAF1000F99
:1049900023D0BAF1010F62D0BAF1020F40F0A48027
:1049A0005500E1685448C5F53B438033B3FBF5F54A
:1049B0002A0421F47F0102F47F020A43E260E268E4
:1049C0006B00A0FB03135B0822F07F4242EA036303
:1049D0005846E36005B0BDE8F08FE2684BF6803BD7
:1049E00005EB850022F0FF03ABEB400001931DF0C7
:1049F00009FF0646B8F80E000F461DF013FF3CA352
:104A0000D3E900231DF078FF80460BFB05F08946B3
:104A10001DF0F8FE02460B46404649461DF06CFF6D
:104A200002460B46304639461DF0AEFD064668008C
:104A30000F461DF0E7FE02460B46304639461EF093
:104A400085F81EF031FA019BC0B21843E060E368BC
:104A5000504623F47F43E36005B0BDE8F08FE26881
:104A60004BF6803A05EB850022F0FF03AAEB4000ED
:104A700001931DF0C7FECDE90201B8F80E001DF04C
:104A8000D1FE1BA3D3E900231DF036FF06460AFB27
:104A900005F00F461DF0B6FE02460B46304639467D
:104AA0001DF02AFF02460B46DDE902011DF06CFDF8
:104AB000064668000F461DF0A5FE02460B4630462E
:104AC00039461EF043F81EF0EFF9019BC0B21843BF
:104AD000E060E368584623F47F43E36005B0BDE837
:104AE000F08F6FF0100075E76FF00C0072E700BFF9
:104AF00095D626E80B2E113EABAAAAAA000000000C
:104B00004F4A21F0004393422DE970430D4604467D
:104B10004DDC4C4A93420E460FDC45A3D3E90023FB
:104B20001DF034FD0022484B1EF076F9002854D0C9
:104B30002B4620461946BDE87083444A934240DC28
:104B4000B3F1804F49DD1EF097FC2246804689462E
:104B50002B46204629461DF0CFFE00223A4B1DF081
:104B600015FD1FF093FD42464B461DF00FFD02461A
:104B70000B46002034491DF0E9FF424604460D462D
:104B80004B46404649461DF001FD0B46024629466C
:104B900020461DF0FBFC01F0C7FE04460B46002E2C
:104BA0000BDC03F1004320461946BDE870830B4639
:104BB00002461DF0EBFC04460B4620461946BDE8B4
:104BC00070831EF059FC01F0AFFE1BA3D3E9002354
:104BD0001DF0DCFC04460B46E1E722462B4620464E
:104BE00029461DF089FE80468946204629461EF04A
:104BF00043FC00220446144B0D46404649461DF036
:104C0000C5FC1FF043FD00220F4B1DF0BFFC024608
:104C10000B46404649461DF099FF22462B461DF0A3
:104C2000B5FC00F0B1FA04460B46B8E7AFF30080DC
:104C30009C7500883CE4377EEF39FAFE422EE63F51
:104C4000FFFFEF7FFFFF2F3E0000F03F0000B0416D
:104C50002DE9F84FB84B21F000469E420D468A469A
:104C600004460EDDB54B9E4200F3B08000F0AB80F1
:104C7000B34BB449B448BAF1000FC8BF1946BDE8F8
:104C8000F88FB24B9E4200F3B980A3F1DE739E42CF
:104C900040F3A4804FF0FF3B22462B462046294696
:104CA0001DF02AFE02460B46804689461DF024FE72
:104CB00089A3D3E9002306460F461DF01DFE88A3F5
:104CC000D3E900231DF062FC32463B461DF014FE82
:104CD00085A3D3E900231DF059FC32463B461DF065
:104CE0000BFE83A3D3E900231DF050FC32463B4664
:104CF0001DF002FE80A3D3E900231DF047FC3246DD
:104D00003B461DF0F9FD7EA3D3E900231DF03EFCD8
:104D100042464B461DF0F0FD7BA3D3E900238046BD
:104D20008946304639461DF0E7FD79A3D3E90023D3
:104D30001DF02AFC32463B461DF0DEFD76A3D3E98A
:104D400000231DF021FC32463B461DF0D5FD74A327
:104D5000D3E900231DF018FC32463B461DF0CCFD84
:104D600071A3D3E900231DF00FFC32463B461DF032
:104D7000C3FD02460B46404649461DF007FC22464D
:104D80002B461DF0B9FDBBF1FF3F02460B465CD040
:104D90006F4B704E4FEACB0B5B44D3E900231DF001
:104DA000F3FB22462B461DF0EFFBB34402460B46B5
:104DB000DBE900011DF0E8FBBAF1000F0CDA01F1AC
:104DC0000041BDE8F88F00283FF452AF224620464C
:104DD0002B4629461DF0DAFBBDE8F88F54A3D3E932
:104DE00000231DF0D3FB00225B4B1EF015F80028BA
:104DF0003FF450AF20462946BDE8F88F1EF03CFB3B
:104E0000564B9E4204460D4625DCA3F550239E4298
:104E10004ADC02460B461DF0B9FB00224E4B1DF04A
:104E2000B3FB002206460F464FF08043204629463A
:104E30001DF0ACFB02460B46304639461DF086FE9F
:104E40004FF0000B04460D4626E7204629461DF08C
:104E50009BFBBDE8F88F424B9E421ADC0022414B7F
:104E60001DF092FB002206460F463E4B2046294687
:104E70001DF042FD0022384B1DF088FB02460B4618
:104E8000304639461DF062FE4FF0020B04460D46D7
:104E900002E702460B46002033491DF057FE4FF053
:104EA000030B04460D46F7E600222B4B1DF06CFB6E
:104EB000002206460F46284B204629461DF066FB79
:104EC00002460B46304639461DF040FE4FF0010BBE
:104ED00004460D46E0E600BF11DA22E33AAD903F0A
:104EE000EB0D76244B7BA93F513DD0A0660DB13F21
:104EF0006E204CC5CD45B73FFF8300922449C23F89
:104F00000D5555555555D53F2F6C6A2C44B4A2BF4D
:104F10009AFDDE522DDEAD3F6D9A74AFF2B0B33F15
:104F2000711623FEC671BC3FC4EB98999999C93F8D
:104F30009C7500883CE4377EFFFF0F440000F07F43
:104F4000FB21F93FFB21F9BF182D4454FFFFDB3F44
:104F5000586C0200386C02000000F03FFFFFF23F87
:104F6000FF7F03400000F83F0000F0BF000000009A
:104F7000C1F30A522DE9F843A2F2FF36132E0B4675
:104F80000D4604468846074621DC002E4CDB3A4A93
:104F900042FA06F901EA090202431DD034A3D3E91B
:104FA00000231DF0F3FA002200231DF035FF48B165
:104FB000002D04DD4FF4801343FA06F6B04428EACE
:104FC000090500273C4629462046BDE8F883332ED4
:104FD00006DDB6F5806F3AD019462046BDE8F88365
:104FE000A2F213424FF0FF3929FA02F919EA000F31
:104FF000F2D01FA3D3E900231DF0C8FA002200233A
:105000001DF00AFF0028DDD0002D09DD142E25D06B
:105010000123C6F1340603FA06F6371928BF98446F
:1050200027EA09074546CDE711A3D3E900231DF080
:10503000ADFA002200231DF0EFFE0028C2D0002DA3
:105040000FDB55EA040707D000270C4DBAE70246EC
:105050001DF09CFA0446C0E73D46B3E705F10108A0
:10506000DEE700274FF00045ACE700BFAFF300805C
:105070009C7500883CE4377EFFFF0F000000F03F86
:10508000C1F30A522DE9F843A2F2FF36132E0B4664
:105090000D460446884607461DDC002E3DDB384A97
:1050A00042FA06F901EA0902024319D032A3D3E910
:1050B00000231DF06BFA002200231DF0ADFED0B3DB
:1050C000002D04DA4FF4801343FA06F6B04428EAC0
:1050D000090500272FE0332E06DDB6F5806F2FD0AF
:1050E00019462046BDE8F883A2F213424FF0FF397B
:1050F00029FA02F919EA000FF2D01FA3D3E900231D
:105100001DF044FA002200231DF086FE98B1002D08
:1051100024DB27EA090745460DE017A3D3E900235E
:105120001DF034FA002200231DF076FE18B1002D88
:105130000BDB00273D463C4629462046BDE8F88368
:1051400002461DF023FA0446CBE725F000430D4A42
:105150001F43002F18BF15460027ECE7142E08D078
:105160000123C6F1340603FA06F6371928BF98441E
:10517000CFE705F10108CCE79C7500883CE4377E59
:10518000FFFF0F000000F0BF2DE9F04FD84B994210
:1051900087B00E46074643DDD64B99428A4600F358
:1051A000F680D54B994240F330810B15A3F2FF3BBB
:1051B00000220023CDE902230446D04BCAF3130A90
:1051C0009A454AF07F5500F3158145F44015204675
:1051D00029460022CA4B1DF0D7F9002204460D468D
:1051E000C84B1DF089FB22462B461DF085FB8046EF
:1051F000894627462E46CDE90089BAF1000F3AD1FB
:1052000000220023204629461DF0DEFD002800F084
:105210001D81BBF1000F40F0858100200146BAE0FE
:10522000B94B21F000449C420A460FDD0022B74BE7
:105230001DF0CAFD002800F0B180002200230020EC
:10524000B3491DF083FC07B0BDE8F08FB14B9C4221
:1052500040F3B180B04B1A449A4240F2D68000220B
:10526000A84B1DF049FB3A4633461DF045FBCDE9FE
:1052700000014FF0000B00224FF0804338463146CA
:105280001DF084F902460B46384631461DF05EFC9F
:1052900002460B46804689461DF02EFB80A3D3E9CB
:1052A000002304460D461DF027FB7FA3D3E900230E
:1052B0001DF06CF922462B461DF01EFB7CA3D3E9A2
:1052C00000231DF063F922462B461DF015FB7AA33F
:1052D000D3E900231DF05AF922462B461DF00CFBA2
:1052E00077A3D3E900231DF051F922462B461DF088
:1052F00003FB75A3D3E900231DF048F922462B4692
:105300001DF0FAFA72A3D3E900231DF03FF92246FB
:105310002B461DF0F1FADDE9004522462B461DF033
:1053200035F942464B461DF0E7FACDE90401BBF1E1
:10533000000F00F0A88058461DF074FA66A3D3E968
:105340000023804689461DF0D7FA65A3D3E90023E0
:1053500004460D46404649461DF0CEFADDE90223DB
:105360001DF014F9DDE904231DF010F902460B4687
:10537000DDE900011DF008F93A4633461DF004F955
:1053800002460B46204629461DF0FEF803E0024681
:105390000B461DF0FBF807B0BDE8F08F3A463346E8
:1053A000384631461DF0F0F802460B461DF0CEFBA4
:1053B00007B0BDE8F08F0022584B1DF0E7F800223F
:1053C00000231DF029FD10B1554B9C4262DD3A4689
:1053D0003346384631461DF08FFA0022494B1DF006
:1053E0008BFA02460B46384631461DF0CDF807B021
:1053F000BDE8F08F45F40015CAF5801A204629460D
:105400004FEAAA0A0BF1010BE3E63D4B3846314661
:1054100000221DF0BBF80B15A3F2FF3BBBF1000F00
:1054200004460D468A4640F3C3803A4633461DF093
:10543000ABF802460B46002031491DF0A5F8224684
:105440002B461DF083FBCDE90201B6E626A3D3E986
:105450000023204629461DF04FFA02460B46002045
:1054600027491DF091F842464B461DF045FA064685
:105470000F46BBF1000F73D102460B46204629466A
:105480001DF082F887E702460B46204629461DF0AC
:105490007BF8A6E7384631467DE700BFAFF30080D2
:1054A00044523EDF12F1C23F9FC678D0099AC33FF3
:1054B000DE03CB966446C73FAF788E1DC571CC3FE7
:1054C000599322942449D23F04FA97999999D93F44
:1054D000935555555555E53F0000E0FE422EE63FF9
:1054E000763C7935EF39EA3D555555555555E53FEB
:1054F0007982DA3FFFFFEF7FFFFF3F439DA0060069
:105500000000F03F0000E03FFFFFEF3F0000F0BF72
:10551000000050C3FFFF1F3E3C412D4000005043A0
:10552000FFFF8F3C58461DF07DF927A3D3E90023E8
:1055300006460F461DF0E0F9DDE902231DF026F8CE
:1055400023A3D3E9002304460D46304639461DF017
:10555000D3F902460B46204629461DF017F81AE7F4
:1055600058461DF05FF91AA3D3E9002382468B4603
:105570001DF0C2F914A3D3E90023804689465046A2
:1055800059461DF0B9F9DDE902231CF0FFFF024680
:105590000B46304639461CF0F7FF22462B461CF0DE
:1055A000F3FF02460B46404649461CF0EDFFF2E68B
:1055B0000022094B1CF0E8FF02460B4638463146F4
:1055C0001CF0E2FF3BE700BF763C7935EF39EA3D5E
:1055D0000000E0FE422EE63F0000F03F0000000029
:1055E00008B51EF0B9FA04A3D3E900231DF0AEFA02
:1055F00008BD00BFAFF30080EF39FAFE422EE63F50
:105600002DE9F043DFF8B4808BB004460D4600F07E
:1056100057FF98F90030013306460F462CD022463A
:105620002B46204629461DF001FC814620BB204622
:1056300029461DF021FF1CA3D3E900231DF0ECFB3C
:10564000D0B11B4A98F90030CDF820900321CDE964
:105650000445CDE90245CDE9001293B1154900207A
:10566000022BCDE9060111D120F00AFA22230360B2
:10567000089B9BB9DDE90667304639460BB0BDE8AB
:10568000F0830D4B4FF06042CDE90623684620F0D1
:10569000A7F80028E8D0089B002BEBD020F0F0F909
:1056A000089B0360E6E700BF7DF8B98FCE338640E4
:1056B000C48702000000F07FFFFFEF471E020020BA
:1056C0002DE9F043DFF8E4808BB004460D4600F08E
:1056D000A3FF98F90030013306460F4633D0204629
:1056E000294620F077F870B329A3D3E90023204698
:1056F00029461DF091FB814650BB27A3D3E9002327
:10570000204629461DF06AFBE8B198F90030244A8A
:10571000CDF82090042600200021022BCDE904457D
:10572000CDE90245CDE90062CDE9060129D0684600
:1057300020F056F828B3089B1BB120F0A1F9089B74
:105740000360DDE90667304639460BB0BDE8F083FB
:10575000134A98F90030019203210022CDE9044553
:10576000CDE90245009108922BB90E4B4FF06042F3
:10577000CDE90623DBE70C490020022BCDE9060129
:10578000D5D120F07DF922230360D4E7AFF3008068
:10579000EF39FAFE422E864051302DD5104987C090
:1057A000CC870200FFFFEF470000F07F1E020020C1
:1057B0002DE9F84FC44E21F00043B3420C46054694
:1057C0000DDD03F1404303F58013034340F0B9803E
:1057D000002940F3408100200021BDE8F88FBB4E36
:1057E000B34208DCBA4A934200F3B5809CA1D1E9E8
:1057F0000001BDE8F88F0029C0F2708102460B4617
:105800000020B4491CF0C0FE0022B34B1DF074F818
:1058100004460D461EF03AFF93A3D3E900238946C0
:105820008046294620461DF067F891A3D3E900235E
:105830001CF0ACFE22462B461DF05EF88EA3D3E989
:1058400000231CF0A1FE22462B461DF055F88CA328
:10585000D3E900231CF09AFE22462B461DF04CF89B
:1058600089A3D3E900231CF08FFE22462B461DF0AE
:1058700043F887A3D3E900231CF088FE22462B4679
:105880001DF03AF884A3D3E9002382468B462046D4
:1058900029461DF031F882A3D3E900231CF074FEE1
:1058A00022462B461DF028F87FA3D3E900231CF0E5
:1058B0006DFE22462B461DF01FF87DA3D3E9002381
:1058C0001CF062FE22462B461DF016F80022814B8A
:1058D0001CF05CFE02460B46504659461DF036F958
:1058E00042464B461DF008F8002682468B4632465B
:1058F0004B46304649461CF0FFFF02460B46204609
:1059000029461CF041FE324604460D464B464046B1
:1059100049461CF03BFE02460B46204629461DF038
:1059200015F902460B46504659461CF02FFE3246EA
:105930004B461CF02BFE02460B461CF027FEBDE832
:10594000F88F02460B461CF01FFE02460B461DF068
:10595000FDF8BDE8F88F02460B461CF0CDFF42A3D0
:10596000D3E9002306460F461CF0C6FF40A3D3E947
:1059700000231CF00BFE32463B461CF0BDFF3EA34D
:10598000D3E900231CF000FE32463B461CF0B4FF76
:105990003BA3D3E900231CF0F9FD32463B461CF043
:1059A000ABFF39A3D3E900231CF0EEFD32463B46A2
:1059B0001CF0A2FF36A3D3E900231CF0E7FD32461A
:1059C0003B461CF099FF34A3D3E900238046894667
:1059D000304639461CF090FF31A3D3E900231CF078
:1059E000D3FD32463B461CF087FF2FA3D3E90023AB
:1059F0001CF0CCFD32463B461CF07EFF2CA3D3E9C5
:105A000000231CF0C1FD32463B461CF075FF00220E
:105A1000304B1CF0BBFD02460B46404649461DF08C
:105A200095F82A4623461CF067FF02460B4622A142
:105A3000D1E900011CF0A8FD02460B46284621468C
:105A40001CF0A2FD02460B4605A1D1E900011CF0A5
:105A50009BFDBDE8F88F1AA1D1E9000179E700BFED
:105A6000182D4454FB21F93F09F7FD0DE13D023F9C
:105A700088B20175E0EF493F3B8F68B52882A43FAB
:105A80005544880E55C1C93F7D6FEB0312D6D43FF4
:105A9000555555555555C53F82922EB1C5B8B33FA2
:105AA00059018D1B6C06E63FC88A599CE52A0040C7
:105AB0004B2D8A1C273A0340075C143326A6913CE1
:105AC000182D4454FB210940FFFFEF3FFFFFDF3F4C
:105AD0000000603C0000F03F0000E03F00225C4B13
:105AE0001CF054FD00225B4B1CF006FF40A3D3E9E1
:105AF000002304460D461CF0FFFE3FA3D3E900231C
:105B00001CF044FD22462B461CF0F6FE3CA3D3E9D4
:105B100000231CF039FD22462B461CF0EDFE3AA373
:105B2000D3E900231CF032FD22462B461CF0E4FE94
:105B300037A3D3E900231CF027FD22462B461CF097
:105B4000DBFE35A3D3E900231CF020FD22462B46C3
:105B50001CF0D2FE80468946204629461EF096FD5E
:105B60002FA3D3E9002306460F46204629461CF002
:105B7000C3FE2DA3D3E900231CF006FD22462B46CD
:105B80001CF0BAFE2AA3D3E900231CF0FFFC224636
:105B90002B461CF0B1FE28A3D3E900231CF0F4FC33
:105BA00022462B461CF0A8FE0022294B1CF0EEFCDE
:105BB00002460B46404649461CF0C8FF32463B466B
:105BC0001CF09AFE1EA3D3E900231CF0DDFC324634
:105BD0003B461CF0DBFC02460B461CF0D7FC0246A1
:105BE0000B4619A1D1E900011CF0CEFCB1E600BFC3
:105BF00009F7FD0DE13D023F88B20175E0EF493F35
:105C00003B8F68B52882A43F5544880E55C1C93FD3
:105C10007D6FEB0312D6D43F555555555555C53FAD
:105C200082922EB1C5B8B33F59018D1B6C06E63F79
:105C3000C88A599CE52A00404B2D8A1C273A03400C
:105C4000075C143326A6913C182D4454FB210940CF
:105C50000000F03F0000E03F414A91422DE9F84347
:105C60000C46054637DD3F4A914209DD02F1795283
:105C700091423EDD02460B461CF088FCBDE8F883ED
:105C800001F1404202F5801202432ED0B1F1804F63
:105C900037DC0022344B1CF077FC02460B460446EE
:105CA0000D461CF073FC224606460F462B46204646
:105CB00029461CF021FE02460B46304639461CF0B0
:105CC00065FC1EF0E3FC22462B461CF05FFCBDE8A1
:105CD000F843FFF759BA02460B461CF055FC024642
:105CE0000B461CF033FFBDE8F88300200021BDE81F
:105CF000F88300F019FE18A3D3E900231CF046FC3A
:105D0000F1E702460B461CF0F7FD0022164B1CF093
:105D10003BFC1EF0BBFC2A468046894623462846AB
:105D200021461CF033FC2A4606460F4623464046D1
:105D300049461CF02BFC02460B4600200A491CF089
:105D400005FF0B460246394630461CF01DFCBDE8F7
:105D5000F84300F0E9BD00BFEF39FAFE422EE63FFE
:105D6000FFFFEF3FFFFFAF410000F03F00000000EA
:105D70002DE9F04FB24B21F000479F4287B00D460E
:105D8000044615DD07F1404707F5801703463B43FE
:105D900026D002460B461CF0F7FB0B4602461CF0D1
:105DA000D5FE04460B462046194607B0BDE8F08FE5
:105DB000A44B9F420E462EDCB7F1795F80F24A81F8
:105DC00083A3D3E900231CF0E1FB00229E4B1DF0CE
:105DD00023F800B32B462046194607B0BDE8F08FE4
:105DE0007DA3D3E900231CF087FD7DA3D3E9002325
:105DF00006460F46204629461CF07EFD02460B460D
:105E0000304639461CF0C2FB04460B462046194674
:105E100007B0BDE8F08F204629461DF02DFB024655
:105E20000B46002088491CF0AFFB0022874B1CF07A
:105E300063FD6DA3D3E9002304460D461CF05CFD11
:105E40006BA3D3E900231CF0A1FB22462B461CF0D8
:105E500053FD69A3D3E900231CF096FB22462B4691
:105E60001CF04AFD66A3D3E900231CF08FFB2246F9
:105E70002B461CF041FD64A3D3E900231CF084FBF6
:105E800022462B461CF038FD61A3D3E900231CF009
:105E90007DFB22462B461CF02FFD5FA3D3E9002398
:105EA000CDE90001204629461CF026FD5CA3D3E97C
:105EB00000231CF069FB22462B461CF01DFD5AA353
:105EC000D3E900231CF062FB22462B461CF014FD94
:105ED00057A3D3E900231CF057FB22462B461CF0A6
:105EE0000BFD594B00221CF051FB82468B4620468D
:105EF0002946CDE902AB1EF0C9FB554B9F428046B7
:105F0000894600F31C8102460B461CF03FFBDDE98D
:105F10000223CDE90401DDE900011CF017FE024671
:105F20000B46DDE904011CF0E7FC4FF0000ACDE967
:105F3000000152464B46504649461CF0DDFC0246E5
:105F40000B46204629461CF01FFB524604460D46D0
:105F50004B46404649461CF019FB02460B4620467C
:105F600029461CF0F3FD02460B461CF00FFB0246CF
:105F70000B461BA1D1E900011CF006FB02460B46B3
:105F8000DDE900011CF000FB524604460D464B467D
:105F9000504649461CF0FAFA02460B4626A1D1E9C2
:105FA00000011CF0F1FA02460B46204629461CF07F
:105FB000EBFA0B46024620A1D1E900011CF0E4FAFD
:105FC00004460B46002E3FF7EEAE03F10043EAE62F
:105FD0009C7500883CE4377E182D4454FB21F93F22
:105FE000075C143326A6913C09F7FD0DE13D023F05
:105FF00088B20175E0EF493F3B8F68B52882A43F26
:106000005544880E55C1C93F7D6FEB0312D6D43F6E
:10601000555555555555C53F82922EB1C5B8B33F1C
:1060200059018D1B6C06E63FC88A599CE52A004041
:106030004B2D8A1C273A0340182D4454FB21E93F7D
:10604000FFFFEF3FFFFFDF3F0000F03F0000E03FBA
:106050003233EF3F02460B461CF04EFC48A3D3E917
:10606000002306460F461CF047FC47A3D3E9002354
:106070001CF08CFA32463B461CF03EFC44A3D3E9AC
:1060800000231CF081FA32463B461CF035FC42A34B
:10609000D3E900231CF07AFA32463B461CF02CFC74
:1060A0003FA3D3E900231CF06FFA32463B461CF0B5
:1060B00023FC3DA3D3E900231CF068FA32463B469B
:1060C0001CF01AFC3AA3D3E90023804689463046E7
:1060D00039461CF011FC38A3D3E900231CF054FA14
:1060E00032463B461CF008FC35A3D3E900231CF0E4
:1060F0004DFA32463B461CF0FFFB33A3D3E90023A5
:106100001CF042FA32463B461CF0F6FB0022344BB0
:106110001CF03CFA02460B46404649461CF016FD70
:1061200022462B461CF0E8FB22462B461CF02EFA9A
:1061300004460B462046194607B0BDE8F08F52468C
:106140005B46DDE900011CF001FD42464B461CF0B8
:10615000D3FB42464B461CF019FA02460B461CF094
:1061600015FA1BA3D3E900231CF00EFA0B460246D6
:1061700019A1D1E900011CF007FA04460B4621E7FA
:1061800009F7FD0DE13D023F88B20175E0EF493F9F
:106190003B8F68B52882A43F5544880E55C1C93F3E
:1061A0007D6FEB0312D6D43F555555555555C53F18
:1061B00082922EB1C5B8B33F59018D1B6C06E63FE4
:1061C000C88A599CE52A00404B2D8A1C273A034077
:1061D000075C143326A6913C182D4454FB21F93F4B
:1061E0000000F03F000000002DE9F84F5442144336
:1061F00023F00048684E48EAD474B44284460F46FF
:106200001FD84442044321F0004A4AEAD474B442FD
:106210008B4616D803F1404404F5801414439E467F
:106220003DD09C1704F0020444EAD1745AEA0001FC
:106230000FD1022C50D0032C3CD145A1D1E9000153
:1062400005E01046194662463B461CF09FF9BDE842
:10625000F88F58EA020126D0B0452DD0B24522D0A1
:10626000AAEB08084FEA2858B8F13C0F38DC002B9D
:106270003ADA18F13C0F37DA00200021012C49D01E
:10628000022C3AD0002CE2D033A3D3E900231CF037
:106290007BF933A3D3E900231CF076F9D7E7BDE8F7
:1062A000F84FFEF7D5BCBBF1000F11DB2EA1D1E9F1
:1062B0000001CCE73946CAE7C2452FD0022C0BD0EB
:1062C000032CBAD0012C4FF0000031D00021BEE7E2
:1062D00027A1D1E90001BAE721A1D1E90001B6E780
:1062E00021A1D1E90001C9E7604639461CF02EFC26
:1062F0001DF0C2F8FEF7ACFCC0E717A3D3E90023FA
:106300001CF042F902460B4615A1D1E900011CF030
:106310003BF99CE701F10043194698E7022C12D0A3
:10632000032C0CD0012C06D013A1D1E900018EE77B
:106330004FF000418BE712A1D1E9000187E712A1DC
:10634000D1E9000183E712A1D1E900017FE700BF95
:10635000182D4454FB2109C0075C143326A6A13C28
:10636000182D4454FB210940182D4454FB21F93FBA
:10637000182D4454FB21F9BF182D4454FB21E93F4B
:10638000182D4454FB21E9BFD221337F7CD902C0B0
:10639000D221337F7CD902400000F07F0000000052
:1063A00043422DE9F047034321F00048404A48EAC0
:1063B000D37393420F462ED890454AD03D4B984513
:1063C0008A4636DD3C4B9845044645464CDD024640
:1063D000434641461CF0DAF8224606460F4643463D
:1063E000002033491CF0D0F802460B4630463946AF
:1063F0001CF0ACFBFEF7C8FE304B00221CF07CFA10
:10640000BAF1000F04460B460FDA01F100432046B3
:106410001946BDE8F08702460B461CF0B5F80B465E
:1064200002461CF093FB04460B4620461946BDE885
:10643000F0871DA3D3E9002304461CF0A7F800222F
:1064400000231CF0E9FC70B13B4620461946BDE82C
:10645000F087002200231CF079FB04460B462046FF
:106460001946BDE8F087454622462B462046294678
:106470001CF08CF822462B4606460F461CF03CFAD0
:106480002246804689462B46002009491CF07CF8AC
:1064900002460B46404649461CF058FB32463B46F6
:1064A0001CF074F8A6E700BF9C7500883CE4377EBA
:1064B0000000F03FFFFF2F3EFFFFDF3F0000E03F07
:1064C0004D4A2DE9F84321F0004494420B4606461C
:1064D0001BDC4A4A944224DD494A944256DD494A2B
:1064E000944248DD484A944271DD013294426BD0B7
:1064F0003FA3D3E90023104619461CF0FDF90646D8
:106500000F4630463946BDE8F88304460D4622461C
:106510002B461CF0F1F906460F4630463946BDE8D9
:10652000F8831CF0A9FF02F06FFC0022374B804675
:1065300089461CF02BF8B4F1725F06460F46ECDB7F
:1065400042464B46404649461CF0D6F932463B4649
:1065500004460D46304639461CF018F802460B46F4
:10656000204629461CF0F2FA0022284B1CF00EF8B7
:1065700006460F46D1E71CF07FFF00F04DF80022E1
:10658000234B1CF0B9F906460F46C6E71CF074FF12
:1065900000F042F800221E4B06460F461CF0ACF9F4
:1065A000324604460D463B46002019491CF0CEFAFF
:1065B00002460B46204629461BF0E8FF06460F46DA
:1065C00030463946BDE8F883124A904290D83046AA
:1065D00019461CF051FF00220D4B1CF08DF900F004
:1065E0001BF800220A4B04460D461CF085F98EE785
:1065F0009C7500883CE4377EFFFFEF7F422ED63F3C
:10660000FFFF3540412E8640CD3386400000F03FED
:106610000000E03F7DF8B98F2DE9F047B84F21F039
:106620000042BA4284B00C464FEAD176054612D9F0
:10663000B44FBA4240F28E80C1F3130303430246C3
:1066400040F0F780002E00F0818000252946284682
:1066500004B0BDE8F087AC4B9A4200F2B880AB4B77
:106660009A4240F2D3804FF0000A2A462346284639
:1066700021461CF041F98CA3D3E9002306460F46BE
:106680001CF03AF98AA3D3E900231BF07DFF3246C0
:106690003B461CF031F988A3D3E900231BF076FFB9
:1066A00032463B461CF028F985A3D3E900231BF0B2
:1066B0006BFF32463B461CF01FF983A3D3E900234E
:1066C0001BF064FF32463B461CF016F902460B46AF
:1066D000284621461BF058FF02460B4606460F4649
:1066E000284621461CF008F980468946BAF1000F79
:1066F00000F0B38032463B4600204FF080411BF053
:1067000043FF02460B46404649461CF01FFA02462C
:106710000B46DDE902011BF037FFDDE900231BF02A
:1067200033FF0B4602467A4900201BF02DFF6FF421
:106730007F739A4580F2AD800AF57A7A01EB0A51AF
:1067400000224FF0B8731CF0D7F80546284604B075
:10675000BDE8F0875EA3D3E900231CF05DFB0028B1
:106760006FD1284621465CA3D3E900231CF036FBF9
:1067700000287FF46AAF674B284603EBC606214624
:1067800057A3D3E900231CF0B7F8D6E900231BF088
:10679000FDFE1CF061FB82461CF044F852A3D3E9D5
:1067A000002306460F461CF0A7F802460B46284673
:1067B00021461BF0E9FE4EA3D3E90023CDE90001F9
:1067C000304639461CF098F8CDE9020115E0524BED
:1067D0009A42D0D8514BF4002344D3E900231BF054
:1067E000D3FE4F4B2344D3E90034CDE90001CDE97A
:1067F0000234C6F1010AAAEB060ADDE90223DDE94B
:1068000000011BF0C1FE05460C462EE73AA3D3E972
:1068100000231BF0BBFE00223D4B1CF0FDFA0028BC
:106820003ED0284621460022394B1BF0AFFE0546DC
:106830008CE70B461BF0AAFE0546284604B0BDE8CF
:10684000F0872DA3D3E90023104619461CF054F815
:106850000546284604B0BDE8F08730463946002298
:106860004FF080431BF090FE02460B4640464946DF
:106870001CF06CF92A4623461BF086FE02460B46A6
:10688000002023491BF080FE0546284604B0BDE8E1
:10689000F087054601EB0A51284604B0BDE8F087B1
:1068A0008246E2E6AFF30080D0A4BE726937663E4E
:1068B000F16BD2C541BDBB3E2CDE25AF6A56113F00
:1068C00093BDBE166CC1663F3E5555555555C53FE7
:1068D000EF39FAFE422E864051302DD5104987C03F
:1068E000FE822B654715F73F0000E0FE422EE63F93
:1068F000763C7935EF39EA3D9C7500883CE4377E7B
:10690000412E8640FFFFEF7F422ED63FFFFF2F3EF6
:106910000000F03F786C0200B1A2F03F886C0200EA
:10692000986C0200000000002DE9F04FB1F5801FC7
:1069300085B006460F460B4680F2D08021F000421B
:10694000024300F0DA800029C0F2E9800022D64B31
:106950001BF0D2FFD54A0B46934206460F466FF016
:10696000350E00F3C180C3F3130505F5152C0CF6A5
:10697000647C0CF4801C8CF07F5282F440121C1555
:1069800042EA0507A4F2FF3474440022C84B3046A3
:10699000394604EB1C541BF0F7FDAB1CC3F3130387
:1069A000022B82468B464FF0000240F3AF804FF03F
:1069B00080431BF0EBFD02460B46504659461CF047
:1069C000C5F8064620460F461BF02CFF3246CDE99F
:1069D00002013B4630463946CDE900671BF08CFF8B
:1069E00002460B46804689461BF086FF9AA3D3E9F0
:1069F000002306460F461BF07FFF99A3D3E900232F
:106A00001BF0C4FD32463B461BF076FF96A3D3E94C
:106A100000231BF0BBFD32463B461BF06DFF94A3E9
:106A2000D3E900231BF0B2FD42464B461BF064FF46
:106A300091A3D3E9002380468946304639461BF0AE
:106A40005BFF8FA3D3E900231BF0A0FD32463B463A
:106A50001BF052FF8CA3D3E900231BF097FD3246B5
:106A60003B461BF049FF0B460246494640461BF099
:106A70008DFDA5F5C223C5F5D725A3F27A4351357F
:106A80001D43002D06460F4640F387800022894BA8
:106A9000504659461BF030FF52465B461BF02CFF18
:106AA00002460B4680468946304639461BF06EFD4D
:106AB000DDE900231BF020FF06460F46002C40F0C6
:106AC000818002460B46404649461BF05DFD02466A
:106AD0000B46504659461BF057FD0BE0734A934254
:106AE0004FF0000E7FF73FAF32463B463046394607
:106AF0001BF04CFD05B0BDE8F08F00220023002004
:106B00006D491CF023F805B0BDE8F08F00231CF0A0
:106B10005BF960B1002C7CD100200021EAE702463D
:106B20001BF032FD002200231CF010F8E2E758A30E
:106B3000D3E90023504659461BF0DEFE02460B46C1
:106B400000205C491BF020FD524606460F465B467E
:106B5000504659461BF0D0FE02460B463046394699
:106B60001BF0CAFE06460F462CB320461BF05AFE09
:106B700049A3D3E90023804689461BF0BDFE48A304
:106B8000D3E9002304460D46404649461BF0B4FEB7
:106B900002460B46304639462CE002460B4650462C
:106BA00059461BF0F1FCDDE900231BF0A5FE06466B
:106BB0000F46002C47D132463B46504659461BF003
:106BC000E3FC97E734A3D3E90023DDE902011BF0DE
:106BD00093FE33A3D3E9002304460D46DDE9020109
:106BE0001BF08AFE32463B461BF0D0FC02460B46A9
:106BF000404649461BF0C8FC52465B461BF0C4FCAD
:106C000002460B46204629461BF0BEFC05B0BDE8F7
:106C1000F08F20461BF006FE1FA3D3E90023064693
:106C20000F461BF069FE1EA3D3E9002304460D4660
:106C3000304639461BF060FE02460B462046294688
:106C40001BF0A4FC56E7DDE9028913A3D3E9002376
:106C50004046494691E700BF44523EDF12F1C23F31
:106C6000DE03CB966446C73F599322942449D23F12
:106C7000935555555555E53F9FC678D0099AC33F62
:106C8000AF788E1DC571CC3F04FA97999999D93F79
:106C9000555555555555D53F0000E0FE422EE63F6F
:106CA000763C7935EF39EA3D00005043FFFFEF7F36
:106CB0000000F03F0000E03F000050C30000000073
:106CC000B1F5801F2DE9F84304460D460B4619DA4D
:106CD00021F00042024359D000295FDB00223A4BE9
:106CE0001BF00AFE394A0B4693420D4604466FF0EC
:106CF00035010CDD22462B46204629461BF046FC7A
:106D0000BDE8F883314A93424FF00001F2DC1815D8
:106D1000A0F2FF3008444FEAD0794844C3F3130887
:106D20001BF080FDC9F57F73033348EA035506461F
:106D30000F4620462946FFF7F7FD1DA3D3E90023A0
:106D400080468946304639461BF0D6FD1AA3D3E962
:106D5000002304460D46404649461BF0CDFD024641
:106D60000B46204629461BF011FC15A3D3E900234E
:106D700004460D46304639461BF0BEFD02460B4622
:106D8000204629461BF002FCBDE8F88300220023C0
:106D900000200F491BF0DAFEBDE8F88302461BF025
:106DA000F3FB002200231BF0D1FEA9E7AFF3008024
:106DB000362BF111F3FE593D0EE526157BCBDB3F5B
:106DC00000609F501344D33F00005043FFFFEF7F0C
:106DD000000050C3000000002DE9F04F23F00045F3
:106DE00055EA020493B00DD0794E21F00044B4422C
:106DF0000F4682460FDD04F1404404F5801454EA46
:106E00000A035BD1734C0023CDE90034DDE90001B6
:106E100013B0BDE8F08F984694464ED0B542EADCF8
:106E20006B4EB54266D0002F8B468146CDE90223DA
:106E300064DB0026BCF1000F0ED1654B9D4246D0AD
:106E4000644B9D4200F09780B8F1804F00F0B28013
:106E5000614B984500F0CC83484659461CF00CFB2A
:106E6000CDE90001BAF1000F06D1002C60D0594BDA
:106E700027F040429A425BD0FF0F013F56EA0703DA
:106E800000F08280554B9D4240F3B08003F10473C3
:106E90009D4240F34184524B9C4240F38280B8F1C2
:106EA000000F40F3828048A3D3E90023104619461F
:106EB0001BF022FDCDE90001A8E728B1494813B035
:106EC000BDE8F04F1EF08EBCA542F7DCA8E704F148
:106ED000404303F5801353EA0A0393D0404B9C428E
:106EE00040F39083B8F1000F5FDBDDE90234CDE9B8
:106EF00000348BE7BCF1000F95D07CE73A4B9D4204
:106F000037DCA3F154739D4293DD2B15A3F2FF33BD
:106F1000142B40F3E983C3F134032CFA03F202FA91
:106F200003F3634585D102F00102C2F1020681E755
:106F3000B8F1000F07DADDE90023002025491BF036
:106F400005FECDE90001002FBFF660AF04F140441B
:106F500004F5801454EA060300F03C84012E7FF40B
:106F600055AFDDE90045224605F10043CDE9002398
:106F70004CE702265EE7B8F1000FC0F24F834846A7
:106F80005946CDE9000141E74A4648465B46594625
:106F90001BF0FAFA02460B461BF0D8FDCDE90001C2
:106FA00034E7B8F1000FFFF67EAF00230024CDE9EF
:106FB00000342BE74A4648465B4659461BF09CFC8A
:106FC000CDE9000122E700BF9C7500883CE4377ED4
:106FD0000000F07F0000F03F0000E03F0000E041D3
:106FE000FFFFEF3FA8750200FFFF3F43B4F5801F8E
:106FF00080F28F83DDE900010022CF4B1BF07CFC87
:10700000CDE900010C466FF0340C2315CB4DC4F3D1
:107010001302A3F2FF3342F07F5403EB0C01AA42A8
:107020000B9144F4401440F36F83C54B9A4240F3F4
:10703000F38300220023CDE9082301310B91A4F54D
:107040008014CDE91023BF4B0022CDE90623002593
:10705000DDE90001DDE90623214682461BF094FAB2
:10706000A346DDE906238046894650462146CDE900
:107070000CAB1BF08BFA02460B460020B1491BF00B
:1070800065FD0A460146CDE90E1213464946024601
:1070900040461BF031FC631043F0005382468B46A0
:1070A00003F500238C46CDE904AB5919D3460023E0
:1070B000CDE900BC0093DDE900AB002004460D469D
:1070C00002460B46504659461BF016FC02460B463C
:1070D000404649461BF058FADDE9062380468946BA
:1070E000204629461BF050FA02460B46DDE90C010A
:1070F0001BF04AFA52465B461BF0FEFB02460B466B
:10710000404649461BF040FADDE90E231BF0F4FB34
:10711000DDE90445CDE9060122462B4620462946F5
:107120001BF0EAFB72A3D3E9002304460D461BF0D3
:10713000E3FB71A3D3E900231BF028FA22462B4678
:107140001BF0DAFB6EA3D3E900231BF01FFA2246E3
:107150002B461BF0D1FB6CA3D3E900231BF016FADE
:1071600022462B461BF0C8FB69A3D3E900231BF082
:107170000DFA22462B461BF0BFFB67A3D3E9002381
:107180001BF004FA2246804689462B4620462946B3
:107190001BF0B2FB02460B46404649461BF0ACFBD7
:1071A000524604460D465B46DDE904011BF0EEF94C
:1071B000DDE906231BF0A0FB22462B461BF0E6F977
:1071C0005246804689465B46504659461BF094FB22
:1071D00000225D4BCDE90C011BF0D8F942464B462D
:1071E0001BF0D4F900980D46044622462B46504623
:1071F00059461BF081FB002282468B46524B2046AB
:1072000029461BF0C1F9DDE90C231BF0BDF902464C
:107210000B46404649461BF0B7F9DDE904231BF055
:107220006BFB2246804689462B46DDE906011BF0B2
:1072300063FB02460B46404649461BF0A7F98046D1
:10724000894602460B46504659461BF09FF9009866
:1072500033A3D3E9002304460D461BF04DFB5246F1
:10726000CDE904015B46204629461BF08DF9024614
:107270000B46404649461BF087F92BA3D3E9002370
:107280001BF03AFB2AA3D3E9002380468946204617
:1072900029461BF031FB02460B46404649461BF08F
:1072A00075F9DDE910231BF071F980460B988946CA
:1072B0001BF0B8FA424682468B464B46DDE9040194
:1072C0001BF064F9DDE908231BF060F952465B46C8
:1072D0001BF05CF9009852465B4604460D461BF0D5
:1072E00053F9DDE908231BF04FF9DDE904232DE014
:1072F000EF4E454A287ECA3F65DBC9934A86CD3F9B
:1073000001411DA96074D13F4D268F515555D53F80
:10731000FFAB6FDBB66DDB3F033333333333E33F18
:10732000000000E009C7EE3FFD033ADC09C7EE3F6D
:10733000F5015B14E02F3EBE000040438E98030031
:1073400079B60B000000F03F000008401BF01CF96C
:107350000B460246494640461BF016F9013E56EAE6
:10736000070382468B46DDE9020114BFD84BD94B97
:107370000022CDE9042302460B46CDE90023002379
:107380000093DDE9006732463B461BF0FDF82246DC
:107390002B461BF0B1FADDE90223804689465046B0
:1073A00059461BF0A9FA02460B46404649461BF0D7
:1073B000EDF83246804689463B4620462946CDE9CF
:1073C00002891BF099FA0B46024606460F464046D4
:1073D00049461BF0DBF8C04B994204460D468A46ED
:1073E00040F3268101F13F4303F5E003034340F0FE
:1073F000F781A3A3D3E90023DDE902011BF0C6F85E
:107400003246804689463B46204629461BF0BCF85A
:1074100002460B46404649461BF0FEFC002840F061
:10742000DF81A8464FEA2853A3F2FE324FF48013BF
:1074300013415344C3F30A52A84DA2F2FF3215413F
:10744000C3F3130423EA05010020C2F1140B44F432
:107450008014BAF1000F02460B4644FA0BFB30468B
:107460003946B8BFCBF1000B1BF08EF802460B4635
:1074700006460F46DDE902011BF088F84FEA0B5A79
:107480000D46002480A3D3E90023204629461BF0A3
:1074900033FA3246804689463B46204629461BF051
:1074A00073F802460B46DDE902011BF06DF878A384
:1074B000D3E900231BF020FA77A3D3E90023064683
:1074C0000F46204629461BF017FA02460B46304667
:1074D00039461BF05BF806460F4602460B4640460F
:1074E00049461BF053F842464B4604460D461BF0F6
:1074F0004BF802460B46304639461BF045F822460B
:10750000804689462B46204629461BF0F5F964A3A0
:10751000D3E9002306460F461BF0EEF962A3D3E938
:1075200000231BF031F832463B461BF0E5F960A31F
:10753000D3E900231BF02AF832463B461BF0DCF966
:107540005DA3D3E900231BF01FF832463B461BF036
:10755000D3F95BA3D3E900231BF018F832463B466E
:107560001BF0CAF902460B46204629461BF00CF8D0
:1075700006460F4602460B46204629461BF0BCF93C
:107580000022CDE900014FF08043304639461AF021
:10759000FBFF02460B46DDE900011BF0D7FA42462D
:1075A00006460F464B46204629461BF0A5F94246A3
:1075B0004B461AF0EBFF02460B46304639461AF0AE
:1075C000E3FF22462B461AF0DFFF02460B4600205F
:1075D0003F491AF0D9FF8A44BAF5801FC0F22D81C5
:1075E0005146DDE904231BF087F9CDE900010DE4E4
:1075F000002FFFF631AC4846594613B0BDE8F04FB6
:107600001DF044B8B8F1000FBFF6CFACDDE902348D
:10761000009304F100430193FFF7F8BB4A465B4631
:1076200000202B491BF092FACDE90001FFF7EEBBD9
:107630002B4B21F00048984540F3E280294B0B4446
:1076400003430AD132463B461AF09EFFDDE902238E
:107650001BF0D8FB00283FF4E5AE1BA3D3E90023C1
:10766000DDE904011BF048F917A3D3E900231BF05F
:1076700043F9CDE90001FFF7C9BB00BFAFF30080BC
:10768000FE822B654715973C00000000432EE63F25
:10769000EF39FAFE422EE63F396CA80C615C20BE41
:1076A000D0A4BE726937663EF16BD2C541BDBB3E08
:1076B0002CDE25AF6A56113F93BDBE166CC1663FE6
:1076C0003E5555555555C53F59F3F8C21F6EA50196
:1076D0000000F03F0000F0BFFFFF8F40FFFF0F00F2
:1076E000FFCB904000346F3FBCF1000F40F0918021
:1076F000C3F1140345FA03F202FA03F3AB4200F0BC
:10770000A0806646FFF79CBB00220023CDE908233A
:1077100097E44FF0000C78E45B4B9C427FF741AC60
:107720005A4B9C423FF7BBABDDE900010022574BAF
:107730001AF02AFF46A3D3E9002304460D461BF0A6
:10774000DBF845A3D3E9002382468B462046294631
:107750001BF0D2F80022CDE900014D4B204629460E
:107760001BF0CAF802460B463DA1D1E900011AF010
:107770000BFF22462B461BF0BFF802460B460020AB
:1077800044491AF001FF2246804689462B4620468E
:1077900029461BF0B1F802460B46404649461BF00D
:1077A000ABF831A3D3E900231BF0A6F802460B4641
:1077B000DDE900011AF0E8FE02460B4680468946E4
:1077C000504659461AF0E2FE002004460D46524645
:1077D0005B46BBE5DDE9002310461946FFF7D8BB41
:1077E00023A3D3E90023DDE904011BF085F820A3DE
:1077F000D3E900231BF080F8CDE90001FFF706BBB9
:10780000244B98453FF70EAEDDE9002392469346A0
:1078100037E60026FFF720BB17A3D3E90023CDE905
:10782000082317A3D3E90023CDE910231A4B002224
:107830004FF48025CDE906230AE45A4601F02CFDD9
:10784000CFE602F00102C2F10206FFF7F9BA00BF6B
:10785000000000604715F73F44DF5DF80BAE543E73
:10786000555555555555D53FFE822B654715F73F64
:107870009C7500883CE4377E0000004003B8E23F7E
:1078800006D0CF43EBFD4C3EFEFFEF3F0000F03F44
:107890000000D03F0000E03F0000F83F0000000083
:1078A0002DE9F04FC84E21F00047B7428FB00B468C
:1078B00040F38F809246C54A97420C4626DC002949
:1078C000B7A3D3E9002340F38F801AF05DFEC04BCD
:1078D0009F4204460D4600F04681B3A3D3E900233E
:1078E0001AF052FE02460B46CAE9002320462946FA
:1078F0001AF04AFEACA3D3E900231AF045FE012595
:10790000CAE9020128460FB0BDE8F08FB14A97429C
:1079100040F38980B04A974200F31C813D15A5F2DF
:107920001645A7EB055319461F4606461BF094FA69
:107930001AF078FF8046894602460B4630463946A3
:10794000CDE908891AF020FE0022A44B1AF0D4FFDA
:10795000894680461BF080FA1AF064FF02460B4607
:1079600006460F4640464946CDE90A671AF00CFE26
:1079700000229A4B1AF0C0FF00220023CDE90C012F
:107980001BF022FA002800F05D81002330463946C2
:1079900000221BF019FA002814BF01230223904A89
:1079A000019202212A46009108A8514600F080FB6E
:1079B000002C054614DADAF80420DAF80C3002F16B
:1079C000004203F100434542CAF80420CAF80C30D3
:1079D00006E0C2E9000100250024C2E902450025B5
:1079E00028460FB0BDE8F08F1AF0D0FD784B9F42CB
:1079F00004460D4600F008816BA3D3E900231AF07A
:107A0000C5FD02460B46CAE90023294620461AF066
:107A1000BBFD65A3D3E900231AF0B8FD4FF0FF3595
:107A2000CAE90201DCE71BF027FD61A3D3E90023CB
:107A3000804689461AF060FF00226A4B1AF0A6FDC4
:107A40001BF00AFA05461AF0EDFE55A3D3E9002310
:107A5000CDE904011AF050FF02460B464046494664
:107A60001AF092FD50A3D3E90023CDE90201DDE92C
:107A700004011AF041FF1F2D8046894602460B463D
:107A8000DDE9020140F3B0801AF07EFD83460E4628
:107A90003F15C6F30A53FB1A102B40F3B08046A3E0
:107AA000D3E90023DDE904011AF026FF8046894668
:107AB00002460B46DDE902011AF066FD02460B465E
:107AC000DDE90201CDE906231AF05EFD42464B4690
:107AD0001AF05AFD3AA3D3E9002380468946DDE92E
:107AE00004011AF009FF42464B461AF04DFD0B46C1
:107AF000024680468946DDE906011AF045FDC1F3DC
:107B00000A53FF1A312F83460E4600F39D8002462A
:107B10000B46CAE90023DDE90623CDE902235A46D4
:107B20003346DDE902011AF02FFD42464B461AF0BA
:107B30002BFD002C02460B46CAE90223BFF650AFCC
:107B400006F1004601F10041CAE900B6CAE90201A6
:107B50006D4245E702461AF017FD0025CAE9020109
:107B6000CAE900013CE714A3D3E900231AF00CFD95
:107B700013A3D3E900230D4604461AF005FD02467F
:107B80000B46CAE90023294620461AF0FDFC0CA347
:107B9000D3E900231AF0F8FC0125CAE902011FE726
:107BA00000004054FB21F93F3163621A61B4D03DBB
:107BB00083C8C96D305FE43F0000601A61B4D03DF6
:107BC0007370032E8A19A33BFB21E93F7BD9024046
:107BD000FB21F93FFB213941FFFFEF7F000070419E
:107BE000908802000000E03F1AF0CEFC3A4B6A1E7B
:107BF000834653F82230BB420E463FF449AF5A4603
:107C00003346CAE900238AE72BA3D3E900231AF0FD
:107C1000BDFC2BA3D3E900230D4604461AF0B6FCA5
:107C200002460B46CAE90023294620461AF0ACFC5E
:107C300023A3D3E900231AF0A9FC4FF0FF35CAE9CA
:107C40000201CDE60323AAE61FA3D3E90023DDE961
:107C500004011AF051FEDDE9068906460F46024688
:107C60000B46404649461AF08FFC02460B464046FA
:107C70004946CDE902231AF087FC32463B461AF00A
:107C800083FC13A3D3E9002306460F46DDE9040174
:107C90001AF032FE32463B461AF076FC02460B469C
:107CA00080468946DDE902011AF06EFC83460E46E5
:107CB000A5E700BFAFF300800000601A61B4D03DBB
:107CC0007370032E8A19A33B0000002E8A19A33B70
:107CD000C14920259A837B391088020000000000EA
:107CE000574A2DE9F84F21F0004890450E460746C7
:107CF0002CDC544B0029B4BF534D544D98454FF0E4
:107D0000000411DC524B984526DC4BA3D3E9002339
:107D10001AF03CFC00224F4B1BF07EF8002840D0AC
:107D200038463146BDE8F88F4B4B984530DD4B4B1C
:107D3000984568DD0133984562D0384631463EA308
:107D4000D3E900231AF0D8FDBDE8F88F02460B46B0
:107D50001AF01CFCBDE8F88F1BF08EFB01F054F804
:107D60003F4B984506460F4623DD0022394B1AF05B
:107D70000DFC02460B46304639461AF0E7FE324605
:107D80003B461AF003FC22462B461AF0B5FDE1E70C
:107D90001BF072FBFEF740FC22462B461AF0ACFDAE
:107DA000D8E7384631461BF067FB01F02DF8064650
:107DB0000F4632463B46304639461AF0E7FB32461C
:107DC00082468B463B46304639461AF095FD0022E6
:107DD000804689461F4B304639461AF0D7FB02468B
:107DE0000B46404649461AF0B1FE02460B46504645
:107DF00059461AF0C9FB22462B461AF07DFDA9E729
:107E0000184B984299D8384631461BF035FB002272
:107E10000E4B1AF071FDFEF7FFFB06460F460246B9
:107E20000B46204629461AF067FD32463B461AF0BB
:107E300063FD8FE7AFF300803374AC3C1F7BAC7FF6
:107E4000FFFFEF7FFFFF35400000E0BF0000E03F95
:107E5000FFFF2F3E0000F03F412E8640CD3386408D
:107E6000FFFFEF3F7DF8B98F2DE9F04F21F000467D
:107E7000B6F1795F85B00C4692469B4605466BDAB3
:107E80001AF0EAFF002800F0E2802A46234628463E
:107E900021461AF031FD74A3D3E9002380468946B8
:107EA0001AF02AFD72A3D3E900231AF06FFB4246B1
:107EB0004B461AF021FD70A3D3E900231AF064FBAE
:107EC00042464B461AF018FD6DA3D3E900231AF081
:107ED0005DFB42464B461AF00FFD6BA3D3E900232E
:107EE0001AF052FB42464B461AF006FD68A3D3E94E
:107EF00000231AF04BFB42464B461AF0FDFCCDE93D
:107F000000010022644B404649461AF0F5FCDDE9C9
:107F1000002306460F46404649461AF0EDFC5246FD
:107F2000804689465B46284621461AF0E5FC024613
:107F30000B46404649461AF027FB02460B463046A0
:107F400039461AF021FB02460B46002053491AF02D
:107F50001BFB05B0BDE8F08F02460B461AF0CCFCC7
:107F600041A3D3E90023804689461AF0C5FC40A30B
:107F7000D3E900231AF00AFB42464B461AF0BCFC38
:107F80003DA3D3E900231AF0FFFA42464B461AF00C
:107F9000B3FC3BA3D3E900231AF0F8FA42464B4660
:107FA0001AF0AAFC38A3D3E900231AF0EDFA4246EE
:107FB0004B461AF0A1FC36A3D3E900231AF0E6FAE7
:107FC0004B4642461AF098FC354B9E42CDE90001E3
:107FD00097DD344B9E424FF000023DDCA6F50013C6
:107FE00000202E4916461F461AF0CEFACDE90201AE
:107FF0000022294B404649461AF07EFC32463B4659
:108000001AF0C2FADDE9002306460F46404649460B
:108010001AF072FC5246804689465B462846214645
:108020001AF06AFC02460B46404649461AF0ACFA82
:1080300002460B46304639461AF0A6FA02460B466F
:10804000DDE902011AF0A0FA05B0BDE8F08F13498E
:10805000002005B0BDE8F08F134B144FCDE902238B
:108060000026C5E7AFF30080D43888BEE9FAA8BD82
:10807000C4B1B4BD9EEE213EAD529C804F7E923E77
:108080009015CB19A001FA3E7751C1166CC1563F2D
:108090004C5555555555A53F0000E03F0000F03FB9
:1080A0003233D33F0000E93F0000E73F0000D23FFA
:1080B0002DE9F04FADF5197DBE4CA29EBE4D54F892
:1080C00026700793D41E85FB0465E417C4EBA50452
:1080D00024EAE4741D46631CA3EB8303013D02EB19
:1080E000C30305937B1909940497019506460B91E8
:1080F000A4EB05041BD423445D1C20AF4FF0000803
:108100004FF00009DDF88CA208E05AF824001AF0BC
:1081100089FB0134AC42E7E8020108D0002CF4DA14
:10812000013440464946AC42E7E80201F6D1049BDF
:10813000002BC0F2B083079BA6F10802DB001146BA
:10814000039220AA02EB0309029301EB0308049BAC
:1081500072AA02EBC30B0DF5E07A019B002BC0F273
:108160009581039C4D460026002775E90223F4E91A
:1081700002011AF0C1FB02460B46304639461AF09E
:1081800005FA444506460F46EFD1EAE80267DA45AC
:1081900009F10809E1D1DDE90204049920448B00CA
:1081A00082460BA8A3F10802C31808930CAB134432
:1081B0000A938B4698AB03EBCB03BBF1000F53E95B
:1081C000284529DD70AB03EBCB080DF13009002207
:1081D0007A4B204629461AF08FFB1AF03DFE1AF022
:1081E00021FB0022764B06460F461AF085FB02461D
:1081F0000B46204629461AF0C7F91AF02DFE78E9F9
:10820000022349F8040B394630461AF0BFF970AB27
:10821000984504460D46DAD1DDF8149020462946EB
:108220004A4601F039F800224FF07F5304460D46CC
:108230001AF062FBFCF724FF0022624B1AF05CFB91
:1082400002460B46204629461AF09EF90D46044682
:108250001AF002FE80461AF0E5FA0B46024629465D
:1082600020461AF091F94B46002B06460F4640F384
:10827000E1800BF1FF320CA9C9F1180351F822502B
:1082800045FA03F101FA03F30CA8EB1A40F8223087
:10829000C9F11705884443FA05F5002D2CDDBBF123
:1082A000000F08F1010840F394820C9C002C40F070
:1082B000A780BBF1010F0AD00CA9012251F8044F8D
:1082C000531C002C40F09E809B451A46F6D1059B1E
:1082D000002B0EDD012B00F09C81022B09D10BF14C
:1082E000FF320CAB0CA953F82230C3F3150341F84D
:1082F0002230022D00F0AF800022002330463946A4
:108300001AF062FD002800F06682049B0BF1FF3931
:108310004B4510DC0BF180430CAA013B089802EBA3
:108320008303002253F80419834242EA0102F9D17F
:10833000002A40F0B580049B0CAA013B52F8233080
:10834000002B40F0A1800A9A012352F8041901334E
:108350000029FAD05B440BF101099945069349DCE9
:10836000099A079909EB020801EB0B0508F180480F
:1083700002EB030BA39B08F1FF3803EB880870ABFB
:1083800003EBC909A39B20A903EB8B0301EBC505F4
:10839000029358F8040F1AF045FA019B002BC5E927
:1083A000000105F1080B28DB083D039C002600278F
:1083B0000CE000BF308D0200ABAAAA2A0000703E7C
:1083C000000070410000204075E80201F4E902233A
:1083D0001AF092FA02460B46304639461AF0D6F8A1
:1083E000544506460F46EFD1029B9845E9E80267DF
:1083F0005D46CED1DDF818B0DCE600260027F3E7B5
:10840000012300220CA9C4F180749B4541F822404D
:108410000EDD51F8232001EB8B0001EB83036FF09D
:108420007F4100E01A688A1A43F8042B8342F9D18D
:1084300001244CE706D10BF1FF330CAA52F823506C
:10844000ED152AE70022BE4B1AF0DCFC002840F0B4
:10845000B981054650E732463B460020B9491AF03B
:1084600093F806460F46002C3FF446AF059AB549EF
:10847000002000F011FF02460B46304639461AF044
:1084800083F806460F4637E7012363E700260027F7
:10849000EAE80267DA4509F108097FF45EAE7AE698
:1084A0000CAB059A53F82930183ACDE906850592A8
:1084B0006BB909F18043013B0CA901EB830353F82D
:1084C000041909F1FF39183A0029F8D00592059AE4
:1084D0009C49002000F0E0FEB9F1000F04460D4673
:1084E000C0F2E0814FEAC90370AA02EB03080893C7
:1084F0000CAB03EB8906DFF850B208F1080704362D
:108500004FF0000A56F8040D1AF08CF922462B465B
:108510001AF0F2F95B4667E9020152462046294605
:108520001AF0EAF90CAB9E4204460D46EAD148AB7C
:1085300003930193CDF8149009F10103DDF8109035
:108540000293C3464FF0000AB9F1000FC0F2378121
:10855000DFF8F8815D4678A3D3E9002300260027E1
:10856000002403E0544510DCF8E80223F5E802019A
:108570001AF0C2F902460B46304639461AF006F8A0
:108580000134A14506460F46ECDA019BE3E8026799
:108590000193029B0AF1010A9A45ABF1080BD3D172
:1085A000A29BDDF81490032B2CD8DFE813F0E80031
:1085B000D300D3003F00079B00200146002B40F072
:1085C00043810D460B460B990446C1E900450399CA
:1085D0000246D1E9000119F0D7FFB9F1000F0CDD17
:1085E000039D0124F5E90223013419F0CFFFA145D1
:1085F000F8DA079B002B40F037810B460B990246B7
:10860000C1E90223069B03F007000DF5197DBDE8C3
:10861000F08F0BF1FF320CAB0CA953F82230C3F3EF
:10862000160341F8223064E648AB0393B9F1000F1A
:1086300040F35581039ACDF808904FEAC90302EB45
:108640000308D8E900AB0193914658E90267524606
:108650005B463046394619F099FF04460D460246FE
:108660000B463046394619F08FFF52465B4619F0EB
:108670008DFFC8E9000168E90245C145A246AB4645
:10868000E3D1DDF80890B9F1010F40F32881019B97
:10869000039A1344D3E9006701939A460DF5947B3E
:1086A0005AE9028932463B464046494619F06EFF78
:1086B00004460D4602460B464046494619F064FF03
:1086C00032463B4619F062FFCAE900016AE90245F9
:1086D000D34526462F46E3D10399019C002301F19F
:1086E0001005083419461E46304674E9022319F075
:1086F0004DFFA5420346F6D10A460399D1E9008C05
:10870000D1E902E90799002900F0B1800B9C2361AF
:10871000069BC4F800800CF1004009F1004102F111
:108720000042606003F00700E1606261C4F808E0A5
:108730000DF5197DBDE8F08F00000040FB21F93FE9
:108740000000E03F0000F03F0000703EC06C0200FF
:1087500048AB0393B9F1000FFFF62DAF039F002044
:1087600007EBC9060836014676E9022319F00EFF29
:10877000B742F9D1079B002B3FF423AF64E0089C7C
:10878000039D083400222C4411461646304674E9F5
:10879000022319F0FBFEA5420246F6D10B460799CB
:1087A00009B103F1004319460B9B1046C3E90001D0
:1087B000069B03F007000DF5197DBDE8F08F00263C
:1087C0000027E2E6BBF1000F08F101087DDD02257C
:1087D0006BE500247BE5CDE90685059D30463946ED
:1087E0006A4200F059FD00223E4B06460F461AF041
:1087F00009FB00B300223C4B304639461AF07CF8A6
:108800001AF02AFB04461AF00DF80022354B1AF034
:1088100073F80B4602463946304619F0B5FE1AF099
:108820001BFB0BF101090CAB183543F82B00059528
:1088300043F829404BE6304639461AF00DFB0CABA5
:10884000D94643F82B0042E60B9C0B4601F1004150
:10885000C4E9000103990246D1E9000119F094FE30
:10886000B9F1000F3FF7BCAE01F10041C5E6184673
:108870000B9B4646744667464D461146C3E90401C4
:10888000C3E90067C3E90245069B03F007000DF545
:10889000197DBDE8F08FA6F108030393079BDB0069
:1088A000029378E4A29B032B3FF6ACAE01A252F8F0
:1088B00023F000BFC58800005187000051870000E9
:1088C000298600000022134669E732463B46002015
:1088D000064919F059FE022506460F460CE500230D
:1088E0001A460AE7000070410000703E0000F03FA9
:1088F0002DE9F04F21F00046B6F1795F85B00C46C6
:1089000090469946054604DA1AF0A6FA002800F0C7
:1089100085802A4623462846214619F0EDFF064663
:108920000F4602460B462846214619F0E5FF3EA3B6
:10893000D3E9002382468B463046394619F0DCFFE6
:108940003BA3D3E9002319F01FFE32463B4619F042
:10895000D3FF39A3D3E9002319F018FE32463B4672
:1089600019F0CAFF36A3D3E9002319F00DFE3246F1
:108970003B4619F0C1FF34A3D3E9002319F006FEEA
:108980000E9BCDE900019BB30022334B4046494684
:1089900019F0B2FFDDE90023CDE902015046594646
:1089A00019F0AAFF02460B46DDE9020119F0ECFDC1
:1089B00032463B4619F0A0FF42464B4619F0E4FD13
:1089C00023A3D3E9002306460F465046594619F023
:1089D00093FF02460B463046394619F0D7FD024652
:1089E0000B462846214619F0CFFD05B0BDE8F08FB3
:1089F00002460B463046394619F07EFF14A3D3E9F0
:108A0000002319F0C1FD52465B4619F075FF2A4656
:108A1000234619F0BBFD05B0BDE8F08F284621467E
:108A200005B0BDE8F08F00BF7CD5CF5A3AD9E53DFF
:108A3000EB9C2B8AE6E55A3E7DFEB157E31DC73E0F
:108A4000D561C119A0012A3FA6F810111111813F6B
:108A5000495555555555C53F0000E03F0000000001
:108A60002DE9F04FDA4C21F00046A64287B08A4645
:108A700089461746984683461BDC1AF0EDF9002814
:108A800039D1109B5A4601331343334300F0A88178
:108A9000109B012B00F0B1815A4653460020CD496E
:108AA0001AF054F804460D462046294607B0BDE8A2
:108AB000F08FC94B9E421EDD002904DA01F100430C
:108AC00008F100489A465A465346A3A1D1E900014D
:108AD00019F05AFD3A46434604460D46A0A1D1E995
:108AE000000119F051FD22462B4619F04FFD0027D9
:108AF00083468A46B8465A4653465846514619F068
:108B0000FBFE03460C46CDE9003402460B4619F045
:108B1000F3FEDDE9002304460D465846514619F0A0
:108B2000EBFE91A3D3E90023CDE9020120462946BB
:108B300019F0E2FE8EA3D3E9002319F027FD2246A7
:108B40002B4619F0D9FE8CA3D3E9002319F01EFDA2
:108B500022462B4619F0D0FE89A3D3E9002319F051
:108B600015FD22462B4619F0C7FE87A3D3E9002343
:108B700019F00CFD22462B4619F0BEFE84A3D3E962
:108B8000002319F003FDDDE9002319F0B5FE82A3EF
:108B9000D3E90023CDE904012046294619F0ACFEB3
:108BA0007FA3D3E9002319F0F1FC22462B4619F0EC
:108BB000A3FE7DA3D3E9002319F0E8FC22462B464F
:108BC00019F09AFE7AA3D3E9002319F0DFFC2246BC
:108BD0002B4619F091FE78A3D3E9002319F0D6FCB7
:108BE00022462B4619F088FE75A3D3E9002319F01D
:108BF000CDFC02460B46DDE9040119F0C7FCDDE9B6
:108C0000022319F079FE3A46434619F0BFFCDDE92C
:108C1000002319F071FE3A46434619F0B7FC6AA3E7
:108C2000D3E9002304460D46DDE9020119F064FE94
:108C300022462B4619F0AAFCCDE900010B4602465C
:108C40005146584619F0A2FC634B9E4204460D461D
:108C50003EDC109B012B36D002460B4600205D49BE
:108C600019F074FF00240F4606465A465346204624
:108C7000294619F089FCA04602460B46DDE90001B1
:108C800019F082FC42463B4619F036FEA9460446DE
:108C90000D4642463B464046494619F02DFE00220D
:108CA0004E4B19F073FC02460B462046294619F03C
:108CB0006DFC32463B4619F01FFE42463B4619F01A
:108CC00065FC04460D462046294607B0BDE8F08FF6
:108CD000109819F0A7FD224606460F462B4620465F
:108CE000294619F009FE3246CDE902013B462046ED
:108CF000294619F04BFC02460B46DDE9020119F04A
:108D000025FFDDE9002319F03FFC02460B465846DB
:108D1000514619F039FC02460B4619F037FC024661
:108D20000B463046394619F02FFC04464FEAA9702D
:108D300000F00200C0F101000D4619F073FD02467B
:108D40000B462046294619F0D7FD04460D4620461D
:108D5000294607B0BDE8F08F182D4454FB21E93FA8
:108D6000075C143326A6813CD47ABF74702AFB3E7C
:108D7000E9A7F0320FB8123F68108D1AF726303F7E
:108D80001583E0FEC8DB573F93846EE9E326823FFC
:108D9000FE41B31BBAA1AB3F735360DBCB75F3BE8F
:108DA000A69237A0887E143F0165F2F2D844433F73
:108DB000280356C9226D6D3F37D60684F464963F6A
:108DC0007AFE10111111C13F635555555555D53FC8
:108DD000FFFF2F3E0000F0BF2794E53F0000F03F6B
:108DE000584651461AF048FB02460B4600200449FB
:108DF00019F0ACFE04460D4665E75C46554662E751
:108E00000000F03F000000002DE9F04FCA4A21F0B9
:108E10000043934285B00C460E46054620D9C74A0A
:108E2000934200F2D480002E80F2A081AAA3D3E95D
:108E300000232846214619F0A9FB0022002319F03F
:108E4000CDFF002840F0CE80A5A3D3E9002328461B
:108E5000214619F051FD02460B460020B84990E129
:108E6000B84A934200F2E280B74A934240F22B8123
:108E7000002301930022B54B2846214619F03CFD02
:108E800006460F4602460B462846214619F034FD99
:108E900095A3D3E9002382468B4619F02DFD94A3B8
:108EA000D3E9002319F072FB52465B4619F024FD0A
:108EB00091A3D3E9002319F067FB52465B4619F0F2
:108EC0001BFD8FA3D3E9002319F060FB52465B46DC
:108ED00019F012FD8CA3D3E9002319F055FB52467B
:108EE0005B4619F009FD0022994B19F04FFB8046B3
:108EF000894602460B463046394619F0FDFC0246CB
:108F00000B460020934919F03FFB064602460B46EC
:108F10000F464046494619F037FB3246804689469F
:108F20003B462846214619F0E7FC02460B46002046
:108F3000894919F029FB02460B464046494619F07B
:108F400005FE52465B4619F0D7FC019E02460B46D1
:108F5000002E4AD0DDE9026732463B4619F014FB89
:108F60002A46234619F0C8FC32463B4619F00CFB52
:108F70005B46524619F008FB019B013306460F463B
:108F800000F01F81019B012B78D0019A531C392BD3
:108F90004FEA025600F22481019F132F40F35181C2
:108FA000019BC3F57F7A0AF1030A00224FEA0A53B4
:108FB00019F0ECFA02460B462846214619F0E4FA6D
:108FC0000022634B19F0E2FA731819461BE0634A5A
:108FD00093421BD9C1F313030343024640F01181AE
:108FE000002910DA00205E490DE02846214619F0DC
:108FF00083FC52465B4619F0C7FA02460B462846E8
:10900000214619F0C1FA05B0BDE8F08F40A3D3E9BD
:10901000002319F001FF00283FF405AF3EA3D3E978
:1090200000231046194619F067FCECE74D4A9342BD
:1090300000F2EB8000293AA3D3E9002339DA19F0D2
:10904000A5FA39A7D7E900674FF0FF338046894674
:10905000019332463B464046494619F095FA02468E
:109060000B4605460C464046494619F08DFA3246F5
:109070003B4619F089FACDE90201FBE62846214674
:109080000022394B19F0AAFE002800F0CB802846B8
:10909000214600222D4B19F079FA02460B46304644
:1090A000394619F071FA00224FF0404319F024FCC0
:1090B000A9E719F069FA01238046894601931CA7A4
:1090C000D7E90067C5E714A3D3E9002319F05EFAD6
:1090D00002460B468FE700BF59F3F8C21F6EA50189
:1090E000FE822B654715F73F2DC3096EB7FD8ABE7B
:1090F0003952E686CACFD03EB7DBAA9E19CE143FBE
:109100008555FE19A0015A3FF41011111111A13F0C
:10911000EF39FAFE422E86409C7500883CE4377E8B
:109120000000E0FE422EE63F763C7935EF39EABD9D
:10913000763C7935EF39EA3D79684340412E8640E7
:109140000000E0BF422ED63FFFFF8F3C0000E03F13
:109150000000F03F0000084000001840FFFFEF7FD4
:109160000000F0BFB1A2F03F0000D0BF40A3D3E9A0
:1091700000232846214619F0BFFB02460B4600207B
:10918000414919F003FA19F067FE019019F04AFB02
:1091900039A3D3E9002306460F4619F0ADFB02467A
:1091A0000B462846214619F0EFF935A3D3E90023F1
:1091B000804689463046394619F09EFB06460F46E2
:1091C00047E732463B462846214619F0DDF90022A2
:1091D0002D4B19F091FB00222B4B19F0D5F912E71A
:1091E0002A46234619F0D0F902460B4600202749AB
:1091F00019F0CAF9731819460022244B19F0C4F962
:1092000001E70B4619F0C2F9FDE619A3D3E90023E3
:1092100019F072FB002C02460B464FF00000AFDA4B
:109220001B49AEE732463B462846214619F0ACF9C9
:1092300002460B4619F0AAF90022144B19F0A6F9C0
:10924000E1E64FF4001C2A4623464CFA07FA19F0CF
:109250009BF9CAF17F594FF0000809F54019024601
:109260000B464046494619F08FF9ADE6AFF3008052
:10927000FE822B654715F73F0000E0FE422EE63FD9
:10928000763C7935EF39EA3D0000E03F0000F03FE1
:109290000000E0BF00000000F8B5C1F30A53044627
:1092A0000D460E4617460BBB21F0004603463343DE
:1092B0001BD0354B002219F01FFB344B9F42044654
:1092C0000D4635DBC1F30A530E46363B3B4440F2B4
:1092D000FE72934232DC002B11DD26F0FF4626F4AD
:1092E000E00646EA035520462946F8BD40F2FF72E3
:1092F0009342EBD102460B4619F048F9F8BD13F141
:10930000350F28DA4CF250339F4222462B460ADDB5
:1093100019A1D1E900011CF097FB17A3D3E90023A1
:1093200019F0EAFAF8BD16A1D1E900011CF08CFB96
:1093300013A3D3E9002319F0DFFAF8BD22462B4628
:109340000DA1D1E900011CF07FFB0BA3D3E90023A1
:1093500019F0D2FAF8BD26F0FF4626F4E0063633BF
:1093600046EA0355204629460022094B19F0C4FA63
:10937000F8BD00BFAFF300809C7500883CE4377EE9
:1093800059F3F8C21F6EA50100005043B03CFFFF27
:109390000000903C10B5054C237833B9044B13B151
:1093A0000448AFF300800123237010BD3002002079
:1093B00000000000B88E020008B5034B1BB1034942
:1093C0000348AFF3008008BD000000003402002015
:1093D000B88E020070B504460E4600F07DFA88B1E2
:1093E0000368DB6A05469847082C0CD0A4F10903F2
:1093F000012B14D93246214610230D20BDE87040C0
:1094000004F064B970BD2B6828465B6A984702284F
:10941000F0DC2B6828461B6A04219847EAE72B6892
:1094200028465B6A98470528E4DC2B6828461B6AB7
:1094300008219847DEE700BF38B52DED028B0546C1
:1094400000F04AFA044640B10368DB6A9847032DEE
:1094500003D8DFE805F02F363D06BDEC028B002077
:1094600038BD20460FF0BEFB07EE900A2046F8EE0E
:10947000E78A0FF0C7FB07EE900A2046B8EEE78AAE
:109480000FF0D0FB68EE087A07EE100AE8EEA87A33
:10949000B8EEC77AE7EE077AF5EE407AF1EE10FA09
:1094A000B1EEE78A1BD4FDEEC87ABDEC028B17EE55
:1094B000900A38BDBDEC028B2046BDE838400FF065
:1094C00091BBBDEC028B2046BDE838400FF09ABB43
:1094D000BDEC028B2046BDE838400FF0A3BB17EE71
:1094E000900A1AF06BFFDEE738B5044600F0F4F995
:1094F00058B10368DB6A0546984744B1012C04D192
:109500002846BDE83840FBF70FBA002038BD284692
:10951000BDE83840FBF7E8B910B5044600F0DCF9C7
:1095200028B1036821461B6ABDE81040184710BDEA
:109530000048704716FCFFFF704700BF10B5034B93
:10954000036004460FF02AF9204610BDF07E0200A9
:1095500010B5054B036004460FF020F920461CF0BF
:1095600010FF204610BD00BFF07E02002DE9F04143
:10957000032184B00546512001F010FDDFF854C3EB
:10958000C94B044604F00F06C4F3031714F48074A7
:1095900008BF6346C54831463A460EF09DFA221C84
:1095A00018BF012231463B46284613F031FE002306
:1095B000AB60BF480EF090FA4FF0FF31032001F08E
:1095C000EDFC04F05DFE4FF0FF310446022001F097
:1095D000E5FC04F055FE002C55D0002853D0014680
:1095E000204604F06FFC0646002865D04FF0FF319E
:1095F000462001F0D3FC3828044600F0D58019DD60
:109600003A2800F0BC8068285DD14FF0FF3101207E
:1096100001F0C4FC04F034FE80464C201CF0BAFE7D
:10962000052301934246009431462B46074611F02C
:1096300063FC18E0302801D0322844D14FF0FF31CC
:10964000012001F0ABFC04F01BFE80464C201CF016
:10965000A1FEA4B207460523019342460094314679
:109660002B4611F0FFF9AF603B6838469B6A98477C
:10967000A8680368DB6A98478E480EF02DFA2846E2
:1096800004B0BDE8F0818C480EF026FA4FF0FF31AF
:10969000192001F083FC04F0F3FD4FF0FF31044684
:1096A000182001F07BFC04F0EBFD0146204604F09D
:1096B00009FC0646002899D180480EF00DFA28468C
:1096C00004B0BDE8F08101243268CDE900440023F4
:1096D000176AAB600F220DF10F0332213046B847F5
:1096E000002800F0A4803368CDE900440F221F6AEF
:1096F00030210DF10F033046B84700286BD0336896
:10970000CDE900440D221F6A38210DF10F033046C8
:10971000B847002800F091803368CDE900440D225D
:109720001F6A3A210DF10F033046B847002800F0B8
:10973000A0803268CDE900440DF10F03176A68215B
:1097400075223046B847002857D168215C480EF092
:10975000C3F94FF0FF31204601F020FC04F090FDEA
:1097600080464C201CF016FE05246823CDE9003409
:10977000424631462B46074611F0BEFB73E74FF0D9
:10978000FF31012001F00AFC04F07AFD80464420FC
:109790001CF000FE052301934246009431462B46FF
:1097A000074611F001FB5EE74FF0FF31012001F0A9
:1097B000F5FB04F065FD804644201CF0EBFD05231D
:1097C0000746019342462B460094314611F0ECFACD
:1097D0003C4B3B6047E7302139480EF07DF930249F
:1097E0004FF0FF31012001F0D9FB04F049FD804624
:1097F0004C201CF0CFFD07462DE733480EF06CF9E6
:10980000AF68002F7FF430AF4FF0FF31032001F03D
:10981000C5FB04F035FD30B12C480EF05DF928464B
:1098200004B0BDE8F0812A480EF056F947E732212E
:1098300023480EF051F93224D2E7382120480EF0A7
:109840004BF94FF0FF31204601F0A8FB04F018FD62
:10985000804644201CF09EFD052438230746CDE9B0
:10986000003442462B46314611F09EFA154B3B60C0
:10987000F9E63A2112480EF02FF94FF0FF31204659
:1098800001F08CFB04F0FCFC804644201CF082FDBF
:1098900005243A23CDE90034424631462B4607469B
:1098A00011F082FADFE600BF446D0200546D020041
:1098B000746D0200346E0200846D0200986D020027
:1098C000C46D0200106D0200B06D0200D86D020080
:1098D000146E02004C6D020038B5104C23680BB1B9
:1098E000986838BD4FF0FF31012001F057FB04F0BC
:1098F000C7FC40B10C201CF04DFD0546FFF736FEBD
:109900002560A86838BD4FF0FF31032001F046FB09
:1099100004F0B6FC0028EDD138BD00BF4C02002099
:1099200008B501F06DFCFBF75BFEBDE8084001F0F7
:10993000C5B900BF08B501F063FCFBF7C1FEBDE887
:10994000084001F0BBB900BF08B501F059FC19F09F
:1099500009FEBDE8084001F0B1B900BF08B501F04B
:109960004FFC1AF07DFBBDE8084001F0A7B900BF2D
:1099700008B501F045FCFBF743FEBDE8084001F0E7
:109980009DB900BF08B501F03BFC1AF019F8BDE81D
:10999000084001F093B900BF08B501F031FCFBF7B6
:1099A000AFF8BDE8084001F089B900BF08B501F083
:1099B00027FC19F05BFFBDE8084001F07FB900BF4C
:1099C00070B5049E96420C4624DB15466BB9042AFA
:1099D00019D0022A02D110F0010310D001462A4604
:1099E000204608F031FA002070BD10440D4410F8F4
:1099F000013D01F8013B8D42F9D1002070BD028884
:109A00000A80184670BD10F00303E7D102680A60AF
:109A1000184670BD0846002109F0A8FB4FF0FF3042
:109A200070BD00BF0830704740B1002905DB4368B6
:109A30008B4202DD0844007A70470020704700BF67
:109A400030B1002904DB43688B42C4BF4018027266
:109A5000704700BF40B1002905DB4368994202DA34
:109A60000844007A70470020704700BF830704D184
:109A7000030F0CBF0120002070470120704700BF7A
:109A800030B1002904DB43689942BCBF4018027220
:109A9000704700BFF8B5002B20DB00291EDB4668AD
:109AA0008E421BDB5468761AE51AB542A8BF3546CC
:109AB000002D13DB824202F108070C4600F1080674
:109AC0002A4605D0F918301908F0BEF90020F8BD73
:109AD000F11838191CF091FC0020F8BD4FF0FF3050
