:020000040002F8
:106000000000042071C6030099C603009BC603006C
:106010009DC603009FC60300A1C603000000000048
:10602000000000000000000000000000A3C6030004
:10603000A5C6030000000000A7C60300A9C6030010
:10604000ABC60300ABC6030011C50300D5C40300F3
:10605000E9C40300ABC6030001B60300B9CB0300DB
:10606000ADC00300B5C00300BDC00300ABC6030054
:10607000ABC60300ABC60300ABC60300ABC6030050
:10608000ABC60300ABC60300ABC60300ABC6030040
:10609000ABC60300ABC60300ABC60300ABC6030030
:1060A000ABC60300ABC60300C5C00300CDC00300F0
:1060B000ABC60300ABC603000000000000000000F8
:1060C000ABC60300ABC60300ABC60300FDC40300B0
:1060D000ABC60300ABC60300ABC60300ABC60300F0
:1060E00039C50300ABC60300ABC6030000000000C7
:1060F00000000000ABC603000000000025C503003F
:10610000000000000000000000000000000000008F
:10611000000000000000000000000000000000007F
:10612000000000000000000000000000000000006F
:10613000000000000000000000000000000000005F
:10614000000000000000000000000000000000004F
:10615000000000000000000000000000000000003F
:10616000000000000000000000000000000000002F
:10617000000000000000000000000000000000001F
:10618000000000000000000000000000000000000F
:1061900000000000000000000000000000000000FF
:1061A00000000000000000000000000000000000EF
:1061B00000000000000000000000000000000000DF
:1061C00000000000000000000000000000000000CF
:1061D00000000000000000000000000000000000BF
:1061E00000000000000000000000000000000000AF
:1061F000000000000000000000000000000000009F
:106200007CB0EE877CB0EE87FF00FF00FF00FF0050
:10621000FF00FF00FF00FF00FF00FF00FF00FF0086
:10622000FF00FF00FF00FF00FF00FF00FF00FF0076
:10623000FF00FF00FF00FF002DE9F04F85B0039144
:106240000778A7F10903042B044607F07F0200F149
:106250000100F5D9202AF3D02B2F04BF677804461C
:106260002D2F75D09FED427B8DED007B4FF0000808
:106270004FF000099FB34FF0000C25464FF0000A85
:10628000DFF8FCB0644619E019F036FD8046894617
:10629000304619F0C7FC42464B4619F077FB524690
:1062A000804689465B46DDE900013CB319F04EFEAD
:1062B000CDE90001A44615F8017F7FB1A7F13006B2
:1062C000092E52465B4640464946DDD9CCB92E2FB1
:1062D00017D115F8017F0124002FEFD12C4642463B
:1062E0004B46DDE9000119F007FD80468946039B16
:1062F000404649461C6005B0BDE8F08F4FF0010CE8
:10630000D9E72C46BCF1000F29D042464B46DDE9C7
:10631000000119F0F1FC07F0DF07452F80468946A0
:10632000E5D10399681C0A2219F014FB14490246AE
:1063300000201AF091F802460B464046494619F0F3
:10634000DBFC804689464046494605B0BDE8F08FF3
:106350009FED097B67788DED007B013486E7DFF8E0
:1063600024904FF000084046494605B0BDE8F08F44
:10637000000000000000F03F000000000000F0BF3F
:10638000000024400000F87F2DE9F0470023144668
:1063900000228046894619F021FF28B109F1004307
:1063A00099462D232370013400220023404649469C
:1063B00019F00AFF28B13022002322706370BDE873
:1063C000F0874046494617F093FD19F045FF73A347
:1063D000D3E9002307464946404619F0FFFE00284E
:1063E0004ED170A3D3E900234046494619F014FF6B
:1063F000002845D10E2F07F1010540F3B980A7F120
:106400000E063246002062491AF026F802460B4674
:106410004046494619F09AFD00225E4B19F0B6FA43
:106420001AF056F8002DA7F10F0E4FF0010C4DDDBC
:10643000594FDFF87881012245F6F3294FF02E0AF3
:10644000494508BF40454FF030030AD3B0EB080080
:1064500061EB0901494508BF404503F10103F5D24D
:10646000DBB2237050EA010304F101084AD19542DE
:1064700052DD0132102A4FD0444677E90289DFE726
:10648000002F33DB3A460020414919F0E5FF024670
:106490000B464046494619F059FD3BA3D3E900237A
:1064A00080468946012500264046494619F024FCCD
:1064B0000022384B19F06AFA1AF00AF8002DBC468F
:1064C0004FF0FF3E37464FF00006B1DC2346302246
:1064D0004FF02E0803F8022B84F80180FC4345D0CE
:1064E0001C4403F8012BA342FBD1A1E77A42002010
:1064F000274919F0B1FF02460B464046494619F0BC
:10650000FBFBCAE7954202F1010204BF84F801A037
:1065100004F10208102AAFD16EB14246302102F8D0
:10652000011BC2F1010373444344002BF7DC2EEA44
:10653000EE7301339844BCF1010F12D0BCF1000F8F
:106540004FF0650388F80030C5BF2B2388F8013071
:1065500008F1010108F102016046BDE8F0470FF0C3
:106560001FBD002388F80030BDE8F0871C465FE7B8
:10657000C7F10E020020064919F06EFF3E460246A2
:106580000B46012790E700BF0000901EC4BCD64216
:10659000000024400000E03F081004008DEDB5A08D
:1065A000F7C6B03E50EFE2D6E41A4B4400407A10F2
:1065B00070B54FF0FF3006F0DDFA04466FF07F4013
:1065C00006F0D8FA0646204619F01CFB00220C4BB8
:1065D00019F092FB044630460D4619F013FB06A352
:1065E000D3E9002319F0B2FC02460B4620462946A7
:1065F00019F0CCF970BD00BF0000E0DFFFFF6F4372
:106600000000F03D000000002DE9F04F1D46138909
:10661000AB4288BF536885B004468CBF53F8250051
:10662000002090468A4606F019FF0022904B19F090
:1066300063FB19F011FEB8F808206B1C9A4288BF62
:10664000D8F8042006468CBF52F82300002006F03C
:1066500005FF0022864B19F04FFB19F0FDFDB8F83D
:1066600008300235AB4288BFD8F8043007468CBFEB
:1066700053F82500002006F0F1FE002EC4E9006763
:1066800040F3E280002F40F3DF8071A3D3E90023C1
:10669000002584F8285017F04DFB00220023804687
:1066A000894619F09BFD40B14046494668A3D3E9AD
:1066B000002319F06BF98046894667A3D3E90023CC
:1066C0004046494619F0A8FDC0B165A3D3E90023AF
:1066D0004046494619F08CFD80B1012340464946A9
:1066E00084F8283060A3D3E9002319F04FF958A3A8
:1066F000D3E9002317F01EFB8046894600225D4B3C
:106700004046494619F0F8FA17F048F801F10043FD
:1067100000221946564B19F0EFFA19F09DFD494633
:106720000546404616F0F6FF0022514B19F0E4FAF8
:1067300019F092FDDAF804304F49B3F80CB0B3F811
:106740000AA0A56007FB0BF303EB010806FB0AF6A2
:10675000019388FB05234FEA124C00960E444CEA45
:10676000034C06EA010383FB009A06EB0C0E0EEACB
:10677000010ED346CA468EFB00675246CDE902673A
:10678000120C42EA0B42DDE902AB0CEA010C8CFB75
:1067900000674FEA164956460A40360C46EA0B4651
:1067A00049EA074982FB05AB5F46C144B0445646FF
:1067B000CDE90267039FE060360C09EA010908EAA7
:1067C000010846EA074689FB05AB334488FB0556BA
:1067D000CDE9025655462D0C45EA0B45DDE902ABE5
:1067E0000B40AC4403EAE3770CEA010C554623EA7C
:1067F000E37367454FEA154502EAE276A8BF6746AC
:1068000045EA0B45634522EAE272B8BF6346AE44EF
:106810004E450EEA010EA8BF4E464A45B8BF4A464D
:106820007745A8BF77467345B8BF73464645A8BFAE
:106830004646C4E905634245B8BF424600980199FF
:10684000206261622761E261204605B0BDE8F08FF9
:10685000EA2E4454FB211940F4D64354FB21F93F5E
:10686000320D337F7CD91240EA2E4454FB2109407B
:106870000000F0400000E03F0000FFFF00000000CB
:106880002DE9F04F2DED028B044683B0C06819F05E
:10689000C9F980462069894619F0C4F982466069C1
:1068A0008B4619F0BFF9024601F1004306460F4638
:1068B0004046494617F0D0F919F016FDE06205464A
:1068C00017F082F80190284617F032F8019B054630
:1068D000184619F0B9F942464B4619F00DFA8046B0
:1068E0002846894619F0B0F932463B4619F004FAB9
:1068F00002460B464046494619F046F802460B460A
:106900005046594617F0A8F919F0EEFC002208EE9F
:10691000100A00233046394619F07EFC28B3B5EE44
:10692000C08AF1EE10FA1CDD11A7D7E9006718EE56
:10693000100A19F089F902460B463046394619F01B
:1069400023F832463B4619F021F819F0CDFCA0623D
:10695000E38843F00203E38003B0BDEC028BBDE8A3
:10696000F08F05A7D7E90067E1E784ED0A8AEFE732
:10697000EA2E4454FB21F93FEA2E4454FB21F9BF8F
:1069800008B510F0D3FDDFED0C7A07EE100A67EEC4
:10699000277A17EE900A19F057F905A3D3E90023D7
:1069A00019F0D4FA19F058FC08BD00BFAFF300800D
:1069B000EA2E4454FB2119400000B44300000000BB
:1069C00008B510F0C7FDDFED0C7A07EE100A67EE90
:1069D000277A17EE900A19F037F905A3D3E90023B7
:1069E00019F0B4FA19F038FC08BD00BFAFF300800D
:1069F000EA2E4454FB2119400000B443000000007B
:106A0000494A21F0004393422DE9704304460D4664
:106A100049DC464A93420E460EDC3FA3D3E90023ED
:106A200018F0B4FF0022424B19F0F6FB00284AD0C0
:106A300020462946BDE870833E4A934239DCB3F1D3
:106A4000804F40DD16F062FE2246804689462B4686
:106A50002046294619F050F90022354B18F096FFD0
:106A600017F0E4FD42464B4618F090FF02460B46F5
:106A700000202F4919F06AFA424604460D464B465B
:106A80004046494618F082FF02460B4620462946FA
:106A900018F07CFF02F040F8002E08DC01F1004302
:106AA0001946BDE8708302460B4618F06FFFBDE83B
:106AB000708316F02BFE02F02FF819A3D3E9002300
:106AC00018F064FFE8E722462B462046294619F0D5
:106AD00013F9804689462046294616F017FE002203
:106AE00004460D46124B4046494618F04FFF17F03A
:106AF0009DFD00220E4B18F049FF02460B46404612
:106B0000494619F023FA22462B4618F03FFF00F0C1
:106B1000A7FAC1E7AFF300809C7500883CE4377E9C
:106B2000EF39FAFE422EE63FFFFFEF7FFFFF2F3ED9
:106B30000000F03F0000B0412DE9F84FBE4B21F0BE
:106B400000469E4204460D468A460EDDBB4B9E42E1
:106B500000F3B18000F0AC80BAF1000F40F3EA809E
:106B600099A1D1E90001BDE8F88FB54B9E4200F331
:106B7000BA80A3F1DE739E4240F3A5804FF0FF3B45
:106B800022462B462046294619F0B6F802460B4607
:106B90008046894619F0B0F88DA3D3E90023064654
:106BA0000F4619F0A9F88CA3D3E9002318F0EEFEE4
:106BB00032463B4619F0A0F889A3D3E9002318F028
:106BC000E5FE32463B4619F097F887A3D3E9002348
:106BD00018F0DCFE32463B4619F08EF884A3D3E968
:106BE000002318F0D3FE32463B4619F085F882A305
:106BF000D3E9002318F0CAFE42464B4619F07CF850
:106C00007FA3D3E90023804689463046394619F0F0
:106C100073F87DA3D3E9002318F0B6FE32463B4655
:106C200019F06AF87AA3D3E9002318F0ADFE3246D2
:106C30003B4619F061F878A3D3E9002318F0A4FECD
:106C400032463B4619F058F875A3D3E9002318F0F3
:106C50009BFE32463B4619F04FF802460B46404633
:106C6000494618F093FE22462B4619F045F8BBF131
:106C7000FF3F02460B4661D0724B734E4FEACB0B7F
:106C80005B44D3E9002318F07FFE22462B4618F020
:106C90007BFEB34402460B46DBE9000118F074FEAC
:106CA000BAF1000F0DDA01F100431946BDE8F88F83
:106CB00000283FF451AF22462B462046294618F0C3
:106CC00065FEBDE8F88F58A3D3E9002318F05EFEF7
:106CD00000225E4B19F0A0FA00283FF44FAF204687
:106CE0002946BDE8F88F16F011FD594B9E42044627
:106CF0000D4629DCA3F550239E424EDC02460B468E
:106D000018F044FE0022514B18F03EFE00220646C9
:106D10000F464FF080432046294618F037FE0246C2
:106D20000B463046394619F011F94FF0000B044676
:106D30000D4625E73EA1D1E90001C2E720462946DC
:106D400018F022FEBDE8F88F424B9E421ADC00226A
:106D5000414B18F019FE002206460F463E4B2046D6
:106D6000294618F0C9FF0022384B18F00FFE0246E2
:106D70000B463046394619F0E9F84FF0020B04464D
:106D80000D46FDE602460B460020344919F0DEF8B8
:106D90004FF0030B04460D46F2E600222B4B18F091
:106DA000F3FD002206460F46284B2046294618F0E0
:106DB000EDFD02460B463046394619F0C7F84FF054
:106DC000010B04460D46DBE6182D4454FB21F93F28
:106DD00011DA22E33AAD903FEB0D76244B7BA93FCD
:106DE000513DD0A0660DB13F6E204CC5CD45B73F9B
:106DF000FF8300922449C23F0D5555555555D53F47
:106E00002F6C6A2C44B4A2BF9AFDDE522DDEAD3F3A
:106E10006D9A74AFF2B0B33F711623FEC671BC3FDA
:106E2000C4EB98999999C93F9C7500883CE4377EDA
:106E3000182D4454FB21F9BFFFFF0F440000F07FE1
:106E4000FFFFDB3F30100400101004000000F03F93
:106E5000FFFFF23FFF7F03400000F83F0000F0BF5C
:106E60002DE9F041C1F30A57A7F2FF35132D024671
:106E70000B460C468846064620DC002D4ADB364F82
:106E80002F4101EA070C5CEA000C1CD030A3D3E9C7
:106E9000002318F07BFD0022002319F0BDF948B152
:106EA000002C04DD4FF4801343FA05F5A84428EACA
:106EB0000704002621463046BDE8F081332D06DD6B
:106EC000B5F5806F38D010461946BDE8F081A7F2BD
:106ED00013474FF0FF3C2CFA07F70742F3D01CA3EF
:106EE000D3E9002318F052FD0022002319F094F991
:106EF0000028DFD0002C09DD142D22D00123C5F19C
:106F0000340503FA05F5AE1928BF984426EA0706AA
:106F10004446CFE70EA3D3E9002318F037FD002243
:106F2000002319F079F90028C4D0002C0CDB26438B
:106F300005D00026094CBDE718F028FDC5E734460A
:106F4000B8E704F10108E1E700264FF00044B1E79B
:106F50009C7500883CE4377EFFFF0F000000F03F87
:106F60002DE9F041C1F30A57A7F2FF35132D024670
:106F70000B460C46884606461DDC002D3CDB364F92
:106F80002F4101EA070C5CEA000C19D030A3D3E9C9
:106F9000002318F0FBFC0022002319F03DF9C8B3D0
:106FA000002C04DA4FF4801343FA05F5A84428EACC
:106FB000070400262EE0332D06DDB5F5806F2DD0B9
:106FC00010461946BDE8F081A7F213474FF0FF3C89
:106FD0002CFA07F70742F3D01DA3D3E9002318F0DA
:106FE000D5FC0022002319F017F998B1002C21DB01
:106FF00026EA070644460DE015A3D3E9002318F05E
:10700000C5FC0022002319F007F918B1002C08DB99
:107010000026344621463046BDE8F08118F0B6FC23
:10702000D0E724F000430D4A1E43002E18BF14463B
:107030000026EFE7142D08D00123C5F1340503FA2B
:1070400005F5AE1928BF9844D2E704F10108CFE74F
:107050009C7500883CE4377EFFFF0F000000F0BF06
:107060002DE9F04FD84B994287B08046894643DDE1
:10707000D64B99420E4600F3F480D54B994240F32B
:107080002D819FEDBB7B8DED047B4FEA215A044699
:10709000AAF2FF3ACF4BC6F313069E4246F07F5545
:1070A00000F3128145F44015204629460022CA4BC0
:1070B00018F06AFC002204460D46C84B18F01CFE6E
:1070C00022462B4618F018FEA046CDE90201A9463B
:1070D000CDE90001002E3AD10022002320462946A6
:1070E00019F072F8002800F01B81BAF1000F40F08F
:1070F000858100200021B8E0B94B21F000449C427A
:107100000A460FDD0022B74B19F05EF8002800F0A8
:10711000AF80002200230020B34918F017FF07B00A
:10712000BDE8F08FB14B9C4240F3AF80B04B1A44A6
:107130009A4240F2D3800022A84B18F0DDFD42466F
:107140004B4618F0D9FDCDE900014FF0000A0022AE
:107150004FF080434046494618F018FC02460B4663
:107160004046494618F0F2FE02460B4606460F46D8
:1071700018F0C2FD80A3D3E9002304460D4618F0A1
:10718000BBFD7FA3D3E9002318F000FC22462B4669
:1071900018F0B2FD7CA3D3E9002318F0F7FB2246D8
:1071A0002B4618F0A9FD7AA3D3E9002318F0EEFBD3
:1071B00022462B4618F0A0FD77A3D3E9002318F050
:1071C000E5FB22462B4618F097FD75A3D3E9002373
:1071D00018F0DCFB22462B4618F08EFD72A3D3E993
:1071E000002318F0D3FB22462B4618F085FDDDE97D
:1071F000002318F0CBFB32463B4618F07DFD0446D9
:107200000D46BAF1000F00F0A880504618F00AFDB4
:1072100067A3D3E9002382468B4618F06DFD66A371
:10722000D3E9002306460F465046594618F064FD40
:10723000DDE9042318F0AAFB22462B4618F0A6FB32
:1072400002460B46DDE9000118F09EFB42464B4624
:1072500018F09AFB02460B463046394618F094FB6C
:1072600003E002460B4618F091FB07B0BDE8F08F33
:1072700042464B464046494618F086FB02460B46BE
:1072800018F064FE07B0BDE8F08F0022594B18F0EB
:107290007DFB0022002318F0BFFF10B1564B9C422B
:1072A00062DD42464B464046494618F025FD002225
:1072B0004A4B18F021FD02460B464046494618F05D
:1072C00063FB07B0BDE8F08F45F40015C6F58016E6
:1072D00020462946B6100AF1010AE7E600223E4B95
:1072E0004046494618F052FB4FEA215AAAF2FF3AAB
:1072F000BAF1000F04460D460E4640F3BD804246EB
:107300004B4618F041FB02460B460020324918F06C
:107310003BFB22462B4618F019FECDE90401B9E6E5
:1073200027A3D3E900232046294618F0E5FC0246AE
:107330000B460020284918F027FBDDE9022318F04E
:10734000DBFC06460F46BAF1000F75D102460B462C
:107350002046294618F018FB87E702460B46DDE970
:10736000000118F011FBA6E7404649467DE700BF43
:10737000000000000000000044523EDF12F1C23F56
:107380009FC678D0099AC33FDE03CB966446C73FB9
:10739000AF788E1DC571CC3F599322942449D23FBA
:1073A00004FA97999999D93F935555555555E53F05
:1073B0000000E0FE422EE63F763C7935EF39EA3DAB
:1073C000555555555555E53F7982DA3FFFFFEF7F1B
:1073D000FFFF3F439DA006000000F03F0000E03F9C
:1073E000FFFFEF3F0000F0BF000050C3FFFF1F3E54
:1073F0003C412D4000005043FFFF8F3C504618F0A9
:1074000011FC24A3D3E9002306460F4618F074FCB0
:10741000DDE9042318F0BAFA20A3D3E900230446D7
:107420000D463046394618F067FC02460B462046AA
:10743000294618F0ABFA18E7504618F0F3FB17A3EB
:10744000D3E9002382468B4618F056FC11A3D3E9FA
:107450000023804689465046594618F04DFCDDE928
:10746000042318F093FA02460B463046394618F0CA
:107470008BFA22462B4674E70022054B18F084FA5B
:1074800002460B464046494618F07EFA41E700BFE7
:107490000000F03F763C7935EF39EA3D0000E0FE30
:1074A000422EE63F0000000008B516F0A3FC04A33E
:1074B000D3E9002318F04AFD08BD00BFAFF30080F8
:1074C000EF39FAFE422EE63F2DE9F043DFF8B480B3
:1074D0008BB004460D4601F0F7F898F900300133FF
:1074E00006460F462CD022462B462046294618F049
:1074F0009DFE814620BB2046294616F007F91FA3B2
:10750000D3E9002318F088FED0B1194A98F9003069
:10751000CDF820900321CDE90445CDE90245CDE920
:10752000001293B113490020022BCDE9060111D1BD
:1075300018F0B8F922230360089B9BB9DDE90667C0
:10754000304639460BB0BDE8F0830B4B4FF060423C
:10755000CDE90623684618F021F80028E8D0089BFA
:10756000002BEBD018F09EF9089B0360E6E700BF04
:10757000882204000000F07FFFFFEF477DF8B98FFD
:10758000CE338640FF8100202DE9F043DFF8E48010
:107590008BB004460D4601F047F998F900300133ED
:1075A00006460F4633D02046294617F0F1FF70B348
:1075B0002CA3D3E900232046294618F02DFE81464E
:1075C00050BB2AA3D3E900232046294618F006FE23
:1075D000E8B198F90030204ACDF820900020002131
:1075E0000426022BCDE90445CDE902450096CDE9FC
:1075F0000601019229D0684617F0D0FF28B3089BF6
:107600001BB118F04FF9089B0360DDE906673046AF
:1076100039460BB0BDE8F0830F4A98F9003001926B
:1076200003210022CDE90445CDE9024500910892ED
:107630002BB90A4B4FF06042CDE90623DBE708493E
:107640000020022BCDE90601D5D118F02BF9222319
:107650000360D4E7AFF3008090220400FFFFEF4700
:107660000000F07FEF39FAFE422E864051302DD5D2
:10767000104987C0FF8100202DE9F04FDFF82C93DF
:107680008DB006460F4614461D4601F09DFC99F943
:107690000080B8F1FF3FCDE9000136D022462B46ED
:1076A0002046294618F0C2FD834670BB32463B4651
:1076B0003046394618F0BAFD8246002840F0A280D4
:1076C000304639460022002318F07EFD10B3002218
:1076D00000232046294618F077FD8346002867D00E
:1076E0009FEDA77B0122AC4BCDF828A00292CDE9FB
:1076F0000467CDE906458DED087B0393B8F1000FD3
:1077000041D09FEDA17B8DED007BDDE900010DB047
:10771000BDE8F08FDDE9000117F03AFF8046002850
:1077200000F08D804FF0000A4FF0000BDDE9000102
:1077300052465B4618F048FD0028E6D030463946F0
:1077400017F026FF0028E0D02046294617F020FF3A
:107750000028DAD099F900308F4A039204210022E0
:10776000022BCDE90467CDE90645CDE908AB0291CE
:107770000A9203D002A817F011FF50B918F092F83E
:107780002223036005E002A817F008FF002800F09C
:107790009B800A9B1BB118F085F80A9B03609DED46
:1077A000087B8DED007BDDE900010DB0BDE8F08FB9
:1077B0002046294617F0ECFE0028A6D00022002320
:1077C0002046294618F00AFD00289ED0724A99F9F1
:1077D0000030CDF828B00121CDE90467CDE9064598
:1077E000CDE90212002B74D06C490020022BCDE9A8
:1077F000080172D118F056F8212303600A9B002B70
:10780000CDD0C8E7002200232046294618F0DCFC32
:1078100000283FF47AAF624B5F49CDF828B00022D0
:107820000120B8F1020FCDE904670290CDE90645C9
:10783000CDE908230391A6D1CDE9002365E73046C1
:10784000394617F0A5FE00283FF46CAF20462946C4
:1078500017F09EFE00283FF465AFDDE900231046D7
:10786000194618F0E3FC99F900A000286BD1032316
:10787000DFF824C10A902946204602930022494B92
:10788000CDF80CC0CDE90645CDE9046718F034FA0F
:1078900004460D46BAF1000F25D1DFF814B14FF0C0
:1078A000604A0022002330463946CDE908AB18F083
:1078B00095FC38BB02A817F071FE00289ED117F086
:1078C000F1FF2223036099E717F0ECFF2123036007
:1078D0005FE79FED2B7B8DED087B02A817F05EFE26
:1078E00000288BD186E79FED2A7B002200233046BB
:1078F00039468DED087B18F071FCA0B9BAF1020F82
:10790000DDD0D7E72046294617F050FE22462B4609
:1079100018F05AFCA0B9244B99F900A04FF060422E
:10792000CDE90823EAE72046294617F03FFE224624
:107930002B4618F049FC18B9184B0022CDE9082352
:1079400099F900A0DAE70122134BCDF828800292C2
:10795000CDE90467CDE906450393BAF1000FB8D02D
:10796000002200231046194618F0F0FABAF1020F6F
:10797000CDE908013FF43EAFAFE700BFAFF30080B1
:107980000000000000000000000000000000F03FC8
:10799000000000000000F07FA82204000000F0FFBB
:1079A0000000F03F0000E03FFFFFEFC7FF81002035
:1079B000FFFFEF47000000002DE9F84FC44E21F013
:1079C0000043B34204460D460DDD03F1404303F589
:1079D0008013034340F0B980002940F34081002028
:1079E0000021BDE8F88FBB4EB34208DCBA4A93428F
:1079F00000F3B5809CA1D1E90001BDE8F88F002912
:107A0000C0F2708102460B460020B44917F0BCFF5B
:107A10000022B34B18F070F904460D4616F006FE2E
:107A200093A3D3E90023894680462946204618F0CF
:107A300063F991A3D3E9002317F0A8FF22462B4650
:107A400018F05AF98EA3D3E9002317F09DFF2246C0
:107A50002B4618F051F98CA3D3E9002317F096FFB9
:107A600022462B4618F048F989A3D3E9002317F0E2
:107A70008BFF22462B4618F03FF987A3D3E900235A
:107A800017F084FF22462B4618F036F984A3D3E979
:107A9000002382468B462046294618F02DF982A302
:107AA000D3E9002317F070FF22462B4618F024F983
:107AB0007FA3D3E9002317F069FF22462B4618F075
:107AC0001BF97DA3D3E9002317F05EFF22462B4666
:107AD00018F012F90022814B17F058FF02460B46AE
:107AE0005046594618F032FA42464B4618F004F90F
:107AF000002682468B4632464B463046494618F0B1
:107B0000FBF802460B462046294617F03DFF324659
:107B100004460D464B464046494617F037FF02469D
:107B20000B462046294618F011FA02460B465046ED
:107B3000594617F02BFF32464B4617F027FF0246F7
:107B40000B4617F023FFBDE8F88F02460B4617F0EF
:107B50001BFF02460B4618F0F9F9BDE8F88F024604
:107B60000B4618F0C9F842A3D3E9002306460F4696
:107B700018F0C2F840A3D3E9002317F007FF3246FC
:107B80003B4618F0B9F83EA3D3E9002317F0FCFEFA
:107B900032463B4618F0B0F83BA3D3E9002317F078
:107BA000F5FE32463B4618F0A7F839A3D3E9002387
:107BB00017F0EAFE32463B4618F09EF836A3D3E9AA
:107BC000002317F0E3FE32463B4618F095F834A345
:107BD000D3E90023804689463046394618F08CF8B0
:107BE00031A3D3E9002317F0CFFE32463B4618F00D
:107BF00083F82FA3D3E9002317F0C8FE32463B4693
:107C000018F07AF82CA3D3E9002317F0BDFE324612
:107C10003B4618F071F80022304B17F0B7FE0246D1
:107C20000B464046494618F091F922462B4618F07B
:107C300063F802460B4622A1D1E9000117F0A4FE29
:107C400002460B462046294617F09EFE02460B468A
:107C500005A1D1E9000117F097FEBDE8F88F1AA140
:107C6000D1E9000179E700BF182D4454FB21F93F09
:107C700009F7FD0DE13D023F88B20175E0EF493F94
:107C80003B8F68B52882A43F5544880E55C1C93F33
:107C90007D6FEB0312D6D43F555555555555C53F0D
:107CA00082922EB1C5B8B33F59018D1B6C06E63FD9
:107CB000C88A599CE52A00404B2D8A1C273A03406C
:107CC000075C143326A6913C182D4454FB2109402F
:107CD000FFFFEF3FFFFFDF3F0000603C0000F03F91
:107CE0000000E03F00225C4B17F050FE00225B4B8F
:107CF00018F002F840A3D3E9002304460D4617F01C
:107D0000FBFF3FA3D3E9002317F040FE22462B469A
:107D100017F0F2FF3CA3D3E9002317F035FE22460B
:107D20002B4617F0E9FF3AA3D3E9002317F02EFE04
:107D300022462B4617F0E0FF37A3D3E9002317F0C4
:107D400023FE22462B4617F0D7FF35A3D3E90023A5
:107D500017F01CFE22462B4617F0CEFF80468946C0
:107D60002046294616F062FC2FA3D3E900230646DD
:107D70000F462046294617F0BFFF2DA3D3E9002365
:107D800017F002FE22462B4617F0B6FF2AA3D3E9CE
:107D9000002317F0FBFD22462B4617F0ADFF28A36A
:107DA000D3E9002317F0F0FD22462B4617F0A4FF7D
:107DB0000022294B17F0EAFD02460B464046494691
:107DC00018F0C4F832463B4617F096FF1EA3D3E9DD
:107DD000002317F0D9FD32463B4617F0D7FD024687
:107DE0000B4617F0D3FD02460B4619A1D1E900015D
:107DF00017F0CAFDB1E600BF09F7FD0DE13D023FF6
:107E000088B20175E0EF493F3B8F68B52882A43FF7
:107E10005544880E55C1C93F7D6FEB0312D6D43F40
:107E2000555555555555C53F82922EB1C5B8B33FEE
:107E300059018D1B6C06E63FC88A599CE52A004013
:107E40004B2D8A1C273A0340075C143326A6913C2D
:107E5000182D4454FB2109400000F03F0000E03F92
:107E6000414A91422DE9F84304460D4637DD3F4A29
:107E700091420B4608DD02F1795291423DDD024606
:107E800017F084FDBDE8F88301F1404202F580124D
:107E900002432ED0B1F1804F37DC0022344B17F073
:107EA00073FD02460B4604460D4617F06FFD224651
:107EB00006460F462B462046294617F01DFF024670
:107EC0000B463046394617F061FD16F0AFFB2246EF
:107ED0002B4617F05BFDBDE8F843FFF7C1B802463B
:107EE0000B4617F051FD02460B4618F02FF8BDE87F
:107EF000F88300200021BDE8F88300F00DFE18A3F0
:107F0000D3E9002317F042FDF1E7024617F0F4FE33
:107F10000022174B17F038FD16F088FB22468046EA
:107F200089462B462046294617F030FD2246064654
:107F30000F462B464046494617F028FD02460B46A1
:107F400000200B4918F002F80B460246394630462D
:107F500017F01AFDBDE8F84300F0DEBDAFF3008076
:107F6000EF39FAFE422EE63FFFFFEF3FFFFFAF4142
:107F70000000F03F000000002DE9F04FAE4B21F073
:107F800000479F4287B004460D4611DD07F1404788
:107F900007F5801703463B4321D002460B4617F0F6
:107FA000F3FC02460B4617F0D1FF07B0BDE8F08F97
:107FB000A24B9F420E4629DCB7F1795F80F24681E1
:107FC00081A3D3E9002317F0E1FC00229C4B18F0B9
:107FD00023F9D8B12046294607B0BDE8F08F7CA32D
:107FE000D3E9002317F088FE7BA3D3E900230646DC
:107FF0000F462046294617F07FFE02460B463046C4
:10800000394617F0C3FC07B0BDE8F08F204629467B
:1080100015F07CFB02460B460020894917F0B4FCA2
:108020000022884B17F068FE6DA3D3E900230446B5
:108030000D4617F061FE6CA3D3E9002317F0A6FCF0
:1080400022462B4617F058FE69A3D3E9002317F008
:108050009BFC22462B4617F04FFE67A3D3E9002373
:1080600017F094FC22462B4617F046FE64A3D3E992
:10807000002317F089FC22462B4617F03DFE62A331
:10808000D3E9002317F082FC22462B4617F034FE7A
:108090005FA3D3E90023CDE900012046294617F06C
:1080A0002BFE5DA3D3E9002317F06EFC22462B467E
:1080B00017F022FE5AA3D3E9002317F067FC2246EB
:1080C0002B4617F019FE58A3D3E9002317F05CFCE8
:1080D00022462B4617F010FE594B002217F056FC93
:1080E00082468B4620462946CDE902AB16F09EFA21
:1080F000554B9F428046894600F3198102460B4644
:1081000017F044FCDDE90223CDE90401DDE90001BB
:1081100017F01CFF02460B46DDE9040117F0ECFDE9
:108120004FF0000ACDE9000152464B465046494601
:1081300017F0E2FD02460B462046294617F024FCC4
:10814000524604460D464B464046494617F01EFC33
:1081500002460B462046294617F0F8FE02460B461B
:1081600017F014FC02460B461BA1D1E9000117F0E1
:108170000BFC02460B46DDE9000117F005FC5246F8
:1081800004460D464B465046494617F0FFFB024653
:108190000B4627A1D1E9000117F0F6FB02460B467A
:1081A0002046294617F0F0FB02460B4620A1D1E9F4
:1081B000000117F0E9FB002E3FF7F7AE01F1004395
:1081C0001946F2E6AFF300809C7500883CE4377EE8
:1081D000182D4454FB21F93F075C143326A6913C2B
:1081E00009F7FD0DE13D023F88B20175E0EF493F1F
:1081F0003B8F68B52882A43F5544880E55C1C93FBE
:108200007D6FEB0312D6D43F555555555555C53F97
:1082100082922EB1C5B8B33F59018D1B6C06E63F63
:10822000C88A599CE52A00404B2D8A1C273A0340F6
:10823000182D4454FB21E93FFFFFEF3FFFFFDF3FD5
:108240000000F03F0000E03F3233EF3F02460B46B4
:1082500017F052FD4BA3D3E9002306460F4617F053
:108260004BFD4AA3D3E9002317F090FB32463B466F
:1082700017F042FD47A3D3E9002317F085FB3246F0
:108280003B4617F039FD45A3D3E9002317F07EFBE9
:1082900032463B4617F030FD42A3D3E9002317F0E6
:1082A00073FB32463B4617F027FD40A3D3E900237A
:1082B00017F06CFB32463B4617F01EFD3DA3D3E999
:1082C0000023804689463046394617F015FD3BA30A
:1082D000D3E9002317F058FB32463B4617F00CFD5C
:1082E00038A3D3E9002317F051FB32463B4617F081
:1082F00003FD36A3D3E9002317F046FB32463B4685
:1083000017F0FAFC00221E4B17F040FB02460B460A
:108310004046494617F01AFE22462B4617F0ECFC61
:1083200022462B4617F032FB07B0BDE8F08F5246CD
:108330005B46DDE9000117F009FE42464B4617F0A7
:10834000DBFC42464B4617F021FB02460B4617F07A
:108350001DFB07A3D3E9002317F016FB02460B46CB
:1083600005A1D1E9000117F00FFB24E7AFF300806E
:10837000075C143326A6913C182D4454FB21F93F89
:108380000000F03F09F7FD0DE13D023F88B20175A5
:10839000E0EF493F3B8F68B52882A43F5544880EE3
:1083A00055C1C93F7D6FEB0312D6D43F5555555586
:1083B0005555C53F82922EB1C5B8B33F59018D1BAB
:1083C0006C06E63FC88A599CE52A00404B2D8A1C62
:1083D000273A0340000000002DE9F84F1D465342A4
:1083E000134325F00049DFF8C8C149EAD373634558
:1083F000144606460F4626D8C0F1000848EA000891
:1084000021F0004A4AEAD878E04503468B461AD85C
:1084100005F1404808F5801858EA0208AE4643D0F6
:108420004FEAA57808F002085AEA030348EAD1782F
:1084300011D1B8F1020F55D0B8F1030F09D14AA1FB
:10844000D1E9000105E032463B462046294617F0B7
:108450009DFABDE8F88F59EA020329D0E1452ED0F4
:10846000E24525D0AAEB09094FEA2959B9F13C0F99
:108470003CDC002D3EDA19F13C0F3BDA00200021F4
:10848000B8F1010F4ED0B8F1020F3ED0B8F1000F95
:10849000DFD037A3D3E9002317F076FA36A3D3E968
:1084A000002317F071FAD4E7BDE8F84FFEF744BB9C
:1084B000BBF1000F12DB32A1D1E90001C9E7CA45C7
:1084C00034D0B8F1020F0DD0B8F1030FB7D0B8F126
:1084D000010F4FF0000036D00021BAE72AA1D1E900
:1084E0000001B6E724A1D1E90001B2E724A1D1E956
:1084F0000001C5E722462B463046394617F026FDD7
:1085000015F004F9FEF718FBBAE719A3D3E9002325
:1085100017F03AFA02460B4617A1D1E9000117F00D
:1085200033FA96E701F10043194692E7B8F1020FDA
:1085300014D0B8F1030F0DD0B8F1010F06D014A17B
:10854000D1E9000185E74FF0004182E712A1D1E9AE
:1085500000017EE712A1D1E900017AE712A1D1E979
:10856000000176E7AFF30080182D4454FB2109C0C9
:10857000075C143326A6A13C182D4454FB21094066
:10858000182D4454FB21F93F182D4454FB21F9BF09
:10859000182D4454FB21E93F182D4454FB21E9BF19
:1085A000D221337F7CD902C0D221337F7CD90240D3
:1085B0000000F07F0000000043422DE9F047034334
:1085C00021F000463C4A46EAD373934204460D46E6
:1085D0002AD8964240D0394B9E428A462EDD384BEF
:1085E0009E4235463FDD33460246314617F0CEF90E
:1085F000224606460F462B4600202F4917F0C4F9A5
:1086000002460B463046394617F0A0FCFEF728FD1F
:1086100000222C4B17F070FBBAF1000F0CDA01F1BD
:1086200000431946BDE8F08702460B4617F0ACF947
:1086300002460B4617F08AFCBDE8F0871CA3D3E97D
:10864000002317F0A3F90022002317F0E5FD48B13D
:1086500020462946BDE8F0870022002317F076FC6B
:10866000BDE8F087354622462B462046294617F0BE
:108670008DF922462B4606460F4617F03DFB224653
:10868000804689462B4600200B4917F07DF90246AB
:108690000B464046494617F059FC32463B4617F018
:1086A00075F9FEF7DDFC0022064B17F025FBB3E75A
:1086B0009C7500883CE4377E0000F03FFFFF2F3EB2
:1086C000FFFFDF3F0000E03F2DE9F8434E4B21F074
:1086D00000449C4206460F461BDC4C4B9C4222DD6C
:1086E0004B4B9C4254DD4B4B9C4246DD4A4B9C42DB
:1086F0006FDD01339C4269D041A3D3E900231046CA
:10870000194617F0F9FA06460F4630463946BDE8D5
:10871000F88302460B4617F0EFFA06460F4630463E
:108720003946BDE8F88314F0F1FF02F04DFC002259
:108730003A4B8046894617F029F9B4F1725F064634
:108740000F46ECDB42464B464046494617F0D4FA0A
:1087500032463B4604460D463046394617F016F978
:1087600002460B462046294617F0F0FB00222B4B11
:1087700017F00CF906460F46D1E714F0C7FF00F0DA
:1087800053F80022264B17F0B7FA06460F46C6E705
:1087900014F0BCFF00F048F80022214B06460F46BB
:1087A00017F0AAFA324604460D463B4600201C4903
:1087B00017F0CCFB02460B462046294617F0E6F898
:1087C00006460F4630463946BDE8F883154B9842B9
:1087D00092D83046394614F099FF0022104B17F01A
:1087E0008BFA00F021F8002204460D460C4B17F0DE
:1087F00083FA22462B4617F07FFA06460F468EE78D
:108800009C7500883CE4377EFFFFEF7F422ED63F09
:10881000FFFF3540412E8640CD3386400000F03FBB
:108820000000E03F7DF8B98F2DE9F047B04F21F00F
:108830000042BA4284B004460D464FEAD17610D9C0
:10884000AC4FBA4240F28A80C1F31303034302469D
:1088500040F0F180002E7ED00020002104B0BDE861
:10886000F087A54B9A4200F2B680A44B9A4240F2A0
:10887000D1804FF0000A22462B462046294617F0A9
:108880003BFA85A3D3E9002306460F4617F034FAD6
:1088900083A3D3E9002317F077F832463B4617F05D
:1088A0002BFA81A3D3E9002317F070F832463B4638
:1088B00017F022FA7EA3D3E9002317F065F83246B9
:1088C0003B4617F019FA7CA3D3E9002317F05EF8B2
:1088D00032463B4617F010FA02460B462046294620
:1088E00017F052F802460B4606460F462046294628
:1088F00017F002FA80468946BAF1000F00F0AB800B
:1089000032463B4600204FF0804117F03DF80246CA
:108910000B464046494617F019FB02460B46DDE977
:10892000020117F031F8DDE9002317F02DF80B46AE
:1089300002467349002017F027F86FF47F739A45B9
:1089400080F2A3800AF57A7A01EB0A5100224FF0F7
:10895000B87317F0D1F904B0BDE8F08758A3D3E994
:10896000002317F059FC00286BD157A3D3E900234B
:108970002046294617F032FC00287FF46DAF61498C
:1089800053A3D3E9002301EBC6062046294617F07E
:10899000B3F9D6E9002316F0F9FF17F05DFC824623
:1089A00017F040F94CA3D3E9002306460F4617F011
:1089B000A3F902460B462046294616F0E5FF48A3D8
:1089C000D3E90023CDE900013046394617F094F988
:1089D000CDE9020115E04C4B9A42D0D84B4BF40044
:1089E0002344D3E9002316F0CFFF494B234493EDF2
:1089F000007BCDE900018DED027BC6F1010AAAEBF7
:108A0000060ADDE90223DDE9000116F0BDFF044698
:108A10000D4630E734A3D3E9002316F0B7FF002258
:108A2000374B17F0F9FBA8B3204629460022344BF8
:108A300016F0ACFF8FE70B4616F0A8FF04B0BDE8B8
:108A4000F08729A3D3E900231046194617F054F9FB
:108A500004B0BDE8F0873046394600224FF080432D
:108A600016F092FF02460B464046494617F06EFA52
:108A700022462B4616F088FF02460B46002020496E
:108A800016F082FF04B0BDE8F08701EB0A5104B094
:108A9000BDE8F0878246EEE6D0A4BE726937663E36
:108AA000F16BD2C541BDBB3E2CDE25AF6A56113FEE
:108AB00093BDBE166CC1663F3E5555555555C53FD5
:108AC000EF39FAFE422E864051302DD5104987C02D
:108AD000FE822B654715F73F0000E0FE422EE63F81
:108AE000763C7935EF39EA3D9C7500883CE4377E69
:108AF000412E8640FFFFEF7F422ED63FFFFF2F3EE5
:108B00000000F03F50100400B1A2F03F60100400DC
:108B100070100400000000002DE9F04FB1F5801F37
:108B200085B006460F460B4680F2D08021F0004209
:108B3000024300F0DA800029C0F2E9800022D64B1F
:108B400017F0DAF8D54A0B46934206460F466FF007
:108B5000350E00F3C180C3F3130505F5152C0CF693
:108B6000647C0CF4801C8CF07F5282F440121C1543
:108B700042EA0507A4F2FF3474440022C84B304691
:108B8000394604EB1C5416F0FFFEAB1CC3F3130371
:108B9000022B82468B464FF0000240F3AF804FF02D
:108BA000804316F0F3FE02460B465046594617F036
:108BB000CDF9064620460F4617F034F83246CDE987
:108BC00002013B4630463946CDE9006717F094F87C
:108BD00002460B468046894617F08EF89AA3D3E9E1
:108BE000002306460F4617F087F899A3D3E9002320
:108BF00016F0CCFE32463B4617F07EF896A3D3E93A
:108C0000002316F0C3FE32463B4617F075F894A3D6
:108C1000D3E9002316F0BAFE42464B4617F06CF833
:108C200091A3D3E90023804689463046394617F0A0
:108C300063F88FA3D3E9002316F0A8FE32463B4623
:108C400017F05AF88CA3D3E9002316F09FFE3246A2
:108C50003B4617F051F80B4602464946404616F08F
:108C600095FEA5F5C223C5F5D725A3F27A43513564
:108C70001D43002D06460F4640F387800022894B96
:108C80005046594617F038F852465B4617F034F80C
:108C900002460B46804689463046394616F076FE37
:108CA000DDE9002317F028F806460F46002C40F0B7
:108CB000818002460B464046494616F065FE024654
:108CC0000B465046594616F05FFE0BE0734A93423E
:108CD0004FF0000E7FF73FAF32463B4630463946F5
:108CE00016F054FE05B0BDE8F08F002200230020EE
:108CF0006D4917F02BF905B0BDE8F08F002317F090
:108D000063FA60B1002C7CD100200021EAE7024622
:108D100016F03AFE0022002317F018F9E2E758A3F4
:108D2000D3E900235046594616F0E6FF02460B46AB
:108D300000205C4916F028FE524606460F465B4668
:108D40005046594616F0D8FF02460B463046394683
:108D500016F0D2FF06460F462CB3204616F062FFEF
:108D600049A3D3E900238046894616F0C5FF48A3EE
:108D7000D3E9002304460D464046494616F0BCFFA1
:108D800002460B46304639462CE002460B4650461A
:108D9000594616F0F9FDDDE9002316F0ADFF064651
:108DA0000F46002C47D132463B465046594616F0F6
:108DB000EBFD97E734A3D3E90023DDE9020116F0C8
:108DC0009BFF33A3D3E9002304460D46DDE90201EE
:108DD00016F092FF32463B4616F0D8FD02460B468F
:108DE0004046494616F0D0FD52465B4616F0CCFD93
:108DF00002460B462046294616F0C6FD05B0BDE8E2
:108E0000F08F204616F00EFF1FA3D3E9002306467D
:108E10000F4616F071FF1EA3D3E9002304460D464A
:108E20003046394616F068FF02460B462046294672
:108E300016F0ACFD56E7DDE9028913A3D3E9002360
:108E40004046494691E700BF44523EDF12F1C23F1F
:108E5000DE03CB966446C73F599322942449D23F00
:108E6000935555555555E53F9FC678D0099AC33F50
:108E7000AF788E1DC571CC3F04FA97999999D93F67
:108E8000555555555555D53F0000E0FE422EE63F5D
:108E9000763C7935EF39EA3D00005043FFFFEF7F24
:108EA0000000F03F0000E03F000050C30000000061
:108EB000B1F5801F2DE9F84304460D460B4619DA3B
:108EC00021F00042024359D000295FDB00223A4BD7
:108ED00016F012FF394A0D462B46934204466FF0B6
:108EE00035010CDD22462B462046294616F04EFD64
:108EF000BDE8F883314A93424FF00001F2DC1815C7
:108F0000A0F2FF3008444FEAD0794844C3F3130875
:108F100016F088FEC9F57F73033348EA0355064609
:108F20000F4620462946FFF7F7FD1DA3D3E900238E
:108F3000804689463046394616F0DEFE1AA3D3E94C
:108F4000002304460D464046494616F0D5FE02462B
:108F50000B462046294616F019FD15A3D3E9002338
:108F600004460D463046394616F0C6FE02460B460C
:108F70002046294616F00AFDBDE8F88300220023AA
:108F800000200F4916F0E2FFBDE8F883024616F014
:108F9000FBFC0022002316F0D9FFA9E7AFF3008005
:108FA000362BF111F3FE593D0EE526157BCBDB3F49
:108FB00000609F501344D33F00005043FFFFEF7FFA
:108FC000000050C3000000002DE9F04F23F00045E1
:108FD00055EA020493B00DD06B4E21F00044B44228
:108FE0000F4682460BDD04F1404404F5801454EA38
:108FF0000A0350D16549002013B0BDE8F08F9B46AD
:10900000944647D0B542EEDC5F4EB5425DD0002FAE
:1090100080468946CDE900235BDB0026BCF1000FCA
:109020000ED1594B9D423FD0584B9D4200F0888055
:10903000BBF1804F00F09C80554B9B4500F0B883FE
:109040004046494614F062FBBAF1000F06D1002CED
:1090500059D04E4B27F040429A4254D0FF0F013F67
:1090600056EA070373D04B4B9D4240F39B8003F1BC
:1090700004739D4240F33E84474B9C4272DDBBF13A
:10908000000F72DD3EA3D3E900231046194616F007
:1090900033FEB1E728B1414813B0BDE8F04F16F0F8
:1090A0007FBAA542F7DCAFE704F1404303F5801334
:1090B00053EA0A039ED0384B9C4240F38383BBF1B2
:1090C000000F52DBDDE9000196E7BCF1000F9ED0F6
:1090D00089E7334B9D4231DCA3F154739D429CDD03
:1090E0002B15A3F2FF33142B40F3A583C3F13403F4
:1090F0002CFA03F202FA03F363458ED102F0010267
:10910000C2F102068AE7BBF1000F05DA02460B4600
:1091100000201E4916F01AFF002FBFF66DAF04F1B4
:10912000404404F5801454EA060300F03F84012E05
:109130007FF462AF01F1004319465DE702266DE757
:10914000BBF1000FC0F248834046494654E742460F
:109150004B461046194616F017FC02460B4616F011
:10916000F5FE49E7BBF1000F8CDB0020002143E74F
:1091700042464B464046494616F0BEFD3CE700BF1E
:109180009C7500883CE4377E0000F07F0000F03FD3
:109190000000E03F0000E041FFFFEF3FB418040093
:1091A000FFFF3F43B4F5801F80F261830022D24B62
:1091B00016F0A2FD6FF0340C0C462315CF4DC4F30E
:1091C0001302A3F2FF3342F07F546344AA420B938D
:1091D00044F4401440F33F83C94B9A4240F3048463
:1091E0009FEDAF7B8DED087B8DED107B9FEDAE7B12
:1091F0000B9B8DED067B01330B93A4F580140025AA
:10920000DDE906232146824616F0BEFBA346DDE9D2
:1092100006238046894650462146CDE90CAB16F020
:10922000B5FB02460B460020B64916F08FFE0A46F3
:109230000146CDE90E12134649460246404616F055
:109240005BFD631043F0005382468B4603F5002319
:109250008C46CDE904AB5919D3460023CDE902BCB5
:109260000293DDE902AB002004460D4602460B46A0
:109270005046594616F040FD02460B4640464946C8
:1092800016F082FBDDE90623804689462046294602
:1092900016F07AFB02460B46DDE90C0116F074FB72
:1092A00052465B4616F028FD02460B4640464946AC
:1092B00016F06AFBDDE90E2316F01EFDDDE904451C
:1092C000CDE9060122462B462046294616F014FD1C
:1092D00077A3D3E9002304460D4616F00DFD76A3CF
:1092E000D3E9002316F052FB22462B4616F004FD6C
:1092F00073A3D3E9002316F049FB22462B4616F050
:10930000FBFC71A3D3E9002316F040FB22462B4659
:1093100016F0F2FC6EA3D3E9002316F037FB2246C9
:109320002B4616F0E9FC6CA3D3E9002316F02EFBC4
:109330002246804689462B462046294616F0DCFC0C
:1093400002460B464046494616F0D6FC52460446B5
:109350000D465B46DDE9040116F018FBDDE9062346
:1093600016F0CAFC22462B4616F010FB52468046E9
:1093700089465B465046594616F0BEFC0022624BB9
:10938000CDE90C0116F002FB42464B4616F0FEFA00
:1093900002980D46044622462B465046594616F082
:1093A000ABFC002282468B46574B2046294616F0DE
:1093B000EBFADDE90C2316F0E7FA02460B464046CD
:1093C000494616F0E1FADDE9042316F095FC224641
:1093D000804689462B46DDE9060116F08DFC0246E3
:1093E0000B464046494616F0D1FA80468946024669
:1093F0000B465046594616F0C9FA029838A3D3E9ED
:10940000002304460D4616F077FC5246CDE90401D0
:109410005B462046294616F0B7FA02460B46404600
:10942000494616F0B1FA30A3D3E9002316F064FCE4
:109430002FA3D3E90023804689462046294616F00B
:109440005BFC02460B464046494616F09FFADDE9B2
:10945000102316F09BFA80460B98894616F0E2FB23
:10946000424682468B464B46DDE9040116F08EFAF1
:10947000DDE9082316F08AFA52465B4616F086FAB2
:10948000029852465B4604460D4616F07DFADDE929
:10949000082316F079FADDE9042337E0AFF3008002
:1094A0000000000000000000000000000000F03F8D
:1094B000EF4E454A287ECA3F65DBC9934A86CD3FB9
:1094C00001411DA96074D13F4D268F515555D53F9F
:1094D000FFAB6FDBB66DDB3F033333333333E33F37
:1094E000000000E009C7EE3FFD033ADC09C7EE3F8C
:1094F000F5015B14E02F3EBE000040438E98030050
:1095000079B60B000000F03F0000084016F03CFA6E
:109510000B4602464946404616F036FA013E56EAE8
:10952000070382468B4600F05E819FEDD37B8DED75
:10953000047BDDE9001200230E461746CDE90267E1
:109540000293DDE9026708463B461146324616F0B3
:109550001BFA22462B4616F0CFFBDDE9002380469E
:1095600089465046594616F0C7FB02460B46404610
:10957000494616F00BFA3246804689463B4620465D
:109580002946CDE9008916F0B7FB0B460246064690
:109590000F464046494616F0F9F9D14B9942044628
:1095A0000D468A4640F3248101F13F4303F5E00371
:1095B000034340F0FF81B2A3D3E90023DDE90001BA
:1095C00016F0E4F93246804689463B462046294655
:1095D00016F0DAF902460B464046494616F01CFEE4
:1095E000002840F0E781A8464FEA2853A3F2FE3254
:1095F0004FF4801313415344C3F30A52B94DA2F2FE
:10960000FF321541C3F3130423EA05010020C2F120
:10961000140B44F48014BAF1000F02460B4644FACE
:109620000BFB30463946B8BFCBF1000B16F0ACF956
:1096300006460F463246DDE900013B4616F0A6F924
:109640004FEA0B5A0D4600248FA3D3E9002320468E
:10965000294616F051FB3246804689463B46204655
:10966000294616F091F902460B46DDE9000116F095
:109670008BF987A3D3E9002316F03EFB86A3D3E939
:10968000002306460F462046294616F035FB0246C3
:109690000B463046394616F079F906460F46024623
:1096A0000B464046494616F071F942464B46044681
:1096B0000D4616F069F902460B463046394616F05B
:1096C00063F92246804689462B462046294616F0F5
:1096D00013FB73A3D3E9002306460F4616F00CFBD9
:1096E00071A3D3E9002316F04FF932463B4616F03A
:1096F00003FB6FA3D3E9002316F048F932463B463B
:1097000016F0FAFA6CA3D3E9002316F03DF93246BD
:109710003B4616F0F1FA6AA3D3E9002316F036F9B6
:1097200032463B4616F0E8FA02460B4620462946EA
:1097300016F02AF906460F4602460B4620462946F1
:1097400016F0DAFA0022CDE900014FF080433046EE
:10975000394616F019F902460B46DDE9000116F00C
:10976000F5FB424606460F464B462046294616F074
:10977000C3FA42464B4616F009F902460B463046FC
:10978000394616F001F922462B4616F0FDF802463E
:109790000B460020544916F0F7F88A44BAF5801FAA
:1097A000C0F232815146DDE9042316F0A5FA23E424
:1097B000002FFFF645AC4046494613B0BDE8F04FD8
:1097C00014F034BFBBF1000FBFF6CFACDDE90034BD
:1097D000184604F100410FE442464B46002042493E
:1097E00016F0B4FB08E49FED387B8DED047BA0E61A
:1097F0003E4B21F00048984540F3EA803C4B0B4437
:1098000003430AD132463B4616F0BEF8DDE9002399
:1098100016F0F8FC00283FF4E7AEDDE904012CA3C4
:10982000D3E9002316F068FA29A3D3E9002316F040
:1098300063FAFFF7E1BBBCF1000F40F0D280C3F147
:10984000140345FA03F202FA03F3AB4200F0E0809E
:109850006646FFF7E9BB9FED207B8DED087B8DED24
:10986000107B9FED057B00258DED067BC8E44FF056
:10987000000CA2E4AFF30080000000000000F03F05
:10988000FE822B654715973C00000000432EE63F03
:10989000EF39FAFE422EE63F396CA80C615C20BE1F
:1098A000D0A4BE726937663EF16BD2C541BDBB3EE6
:1098B0002CDE25AF6A56113F93BDBE166CC1663FC4
:1098C0003E5555555555C53F000000000000F0BFFE
:1098D00059F3F8C21F6EA50100000000000000004F
:1098E000FFFF8F40FFFF0F000000F03FFFCB9040D5
:1098F00000346F3F5A4B9C427FF734AC594B9C422B
:109900003FF7BDAB0022574B16F03EF844A3D3E916
:10991000002304460D4616F0EFF943A3D3E90023D4
:1099200082468B462046294616F0E6F90022CDE90C
:1099300002014D4B2046294616F0DEF902460B4641
:109940003BA1D1E9000116F01FF822462B4616F084
:10995000D3F902460B460020444916F015F822467A
:10996000804689462B462046294616F0C5F9024610
:109970000B464046494616F0BFF92FA3D3E9002312
:1099800016F0BAF902460B46DDE9020115F0FCFFBC
:1099900002460B46804689465046594615F0F6FF6A
:1099A000002004460D4652465B46AFE502460B4694
:1099B000FFF7CFBBDDE9040121A3D3E9002316F0B3
:1099C0009BF91FA3D3E9002316F096F9FFF714BB08
:1099D000264B98453FF708AEDDE9022392469346B1
:1099E00031E60026FFF72CBB9FED177B8DED087B42
:1099F0009FED177B8DED107B9FED177B4FF480253E
:109A00008DED067BFFF7FCBB5A4601F029FDCAE647
:109A100002F00102C2F10206FFF706BBAFF30080BD
:109A2000000000604715F73F44DF5DF80BAE543E81
:109A3000555555555555D53FFE822B654715F73F72
:109A40009C7500883CE4377E0000004003B8E23F8C
:109A500006D0CF43EBFD4C3E000000000000F83F75
:109A6000FEFFEF3F0000F03F0000D03F0000E03F6E
:109A70002DE9F047CA4B21F000479F4290B0804645
:109A8000894640F38F80C74B9F420C46924626DCA6
:109A90000029B9A3D3E9002340F38F8015F074FFA8
:109AA000C14B9F4204460D4600F04781B4A3D3E961
:109AB000002315F069FF02460B46CAE90023204641
:109AC000294615F061FFAEA3D3E9002315F05CFF32
:109AD0000125CAE90201284610B0BDE8F087B34B62
:109AE0009F4240F38980B24B9F4200F31C813D1599
:109AF000A5F21645A7EB055319461F46064616F074
:109B0000ABFB16F08FF88046894642464B463046FE
:109B10003946CDE90A8915F037FF0022A54B16F02A
:109B2000EBF88946804616F097FB16F07BF8064660
:109B30000F4632463B4640464946CDE90C6715F094
:109B400023FF00229B4B16F0D7F800220023CDE91B
:109B50000E0116F039FB002800F06081002330462A
:109B60003946002216F030FB002814BF01230223DF
:109B7000914A019202212A4600910AA8514600F01A
:109B800087FB002C054614DADAF80420DAF80C30EA
:109B900002F1004203F100434542CAF80420CAF82A
:109BA0000C3006E000200021C2E90089C2E9020170
:109BB0000025284610B0BDE8F08715F0E7FE7A4B87
:109BC0009F4204460D4600F00B816DA3D3E90023AC
:109BD00015F0DCFE02460B46CAE900232946204662
:109BE00015F0D2FE66A3D3E9002315F0CFFE4FF0A7
:109BF000FF35CAE90201DCE713F088FD62A3D3E96F
:109C000000238046894616F077F800226B4B15F04A
:109C1000BDFE16F021FB054616F004F856A3D3E965
:109C20000023CDE9060116F067F802460B464046D0
:109C3000494615F0A9FE52A3D3E900238046894680
:109C4000DDE90601CDE9028916F056F81F2D02461E
:109C50000B46CDE9042340F3B380DDE90423DDE9BD
:109C6000020115F091FE804689463F15C9F30A535B
:109C7000FB1A102B40F3B18045A3D3E90023DDE9A3
:109C8000060116F039F88046894602460B46DDE9A2
:109C9000020115F079FE02460B46DDE90201CDE92D
:109CA000082315F071FE42464B4615F06DFE3AA3AF
:109CB000D3E9002380468946DDE9060116F01CF849
:109CC00042464B4615F060FE0B46CDE904010246C4
:109CD000DDE9080115F058FEC1F30A53FF1A312FD0
:109CE0008046894600F39C809DED087BCAE9008987
:109CF0008DED027B42464B46DDE9020115F044FE44
:109D0000DDE9042315F040FE002CCAE90201BFF68C
:109D100050AF09F1004401F100436D42CAE90084EB
:109D2000CAE9020345E702460B4615F02DFE002561
:109D3000CAE90201CAE900013BE715A3D3E9002300
:109D400015F022FE14A3D3E900230D46044615F0B6
:109D50001BFE02460B46CAE900232946204615F0A1
:109D600013FE0DA3D3E9002315F00EFE0125CAE969
:109D700002011EE7AFF3008000004054FB21F93FD1
:109D80003163621A61B4D03D83C8C96D305FE43F6E
:109D90000000601A61B4D03D7370032E8A19A33B92
:109DA000FB21E93F7BD90240FB21F93FFB213941EF
:109DB000FFFFEF7F00007041542304000000E03FEC
:109DC0004046494615F0E0FD394B6A1E804653F87F
:109DD0002230BB4289463FF448AFCAE9008989E78F
:109DE0002BA3D3E9002315F0D1FD2BA3D3E9002346
:109DF0000D46044615F0CAFD02460B46CAE900238B
:109E00002946204615F0C0FD23A3D3E9002315F011
:109E1000BDFD4FF0FF35CAE90201CAE60323A7E6FC
:109E20001FA3D3E90023DDE9060115F065FF06460F
:109E30000F4602460B46DDE9080115F0A5FD8046F8
:109E4000894602460B46DDE90801CDE9028915F095
:109E50009BFD32463B4615F097FD13A3D3E9002343
:109E600006460F46DDE9060115F046FF32463B4641
:109E700015F08AFD02460B4640464946CDE90423CB
:109E800015F082FD80468946A7E700BFAFF300804A
:109E90000000601A61B4D03D7370032E8A19A33B91
:109EA0000000002E8A19A33BC14920259A837B39E3
:109EB000D422040000000000574A2DE9F84F21F099
:109EC0000048904506460F462CDC544B0029B4BF91
:109ED000534D544D98454FF0000411DC524B9845BA
:109EE00026DC4BA3D3E9002315F050FD00224F4B95
:109EF00016F092F9002840D030463946BDE8F88F78
:109F00004B4B984530DD4B4B984568DD0133984508
:109F100062D0304639463EA3D3E9002315F0ECFE6B
:109F2000BDE8F88F02460B4615F030FDBDE8F88F0E
:109F300013F0ECFB01F048F83F4B984506460F46FE
:109F400023DD0022394B15F021FD02460B46304639
:109F5000394615F0FBFF32463B4615F017FD224609
:109F60002B4615F0C9FEE1E713F0D0FBFEF75CFCD1
:109F700022462B4615F0C0FED8E73046394613F08E
:109F8000C5FB01F021F806460F4632463B463046F7
:109F9000394615F0FBFC324682468B463B4630463E
:109FA000394615F0A9FE0022804689461F4B3046EF
:109FB000394615F0EBFC02460B464046494615F083
:109FC000C5FF02460B465046594615F0DDFC2246B9
:109FD0002B4615F091FEA9E7184B984299D83046C8
:109FE000394613F093FB00220E4B15F085FEFEF769
:109FF0001BFC06460F4602460B462046294615F036
:10A000007BFE32463B4615F077FE8FE7AFF30080CC
:10A010003374AC3C1F7BAC7FFFFFEF7FFFFF35400D
:10A020000000E0BF0000E03FFFFF2F3E0000F03FD8
:10A03000412E8640CD338640FFFFEF3F7DF8B98F3C
:10A040002DE9F04F21F00048B8F1795F85B0064660
:10A050000F4692469B466BDA16F0FEF8002800F099
:10A06000E18032463B463046394615F045FE74A342
:10A07000D3E9002304460D4615F03EFE72A3D3E952
:10A08000002315F083FC22462B4615F035FE70A305
:10A09000D3E9002315F078FC22462B4615F02CFE60
:10A0A0006DA3D3E9002315F071FC22462B4615F071
:10A0B00023FE6BA3D3E9002315F066FC22462B4652
:10A0C00015F01AFE68A3D3E9002315F05FFC2246C1
:10A0D0002B4615F011FECDE900010022664B20460B
:10A0E000294615F009FEDDE9002380468946204611
:10A0F000294615F001FE524604460D465B463046A1
:10A10000394615F0F9FD02460B462046294615F062
:10A110003BFC02460B464046494615F035FC0246DC
:10A120000B460020554915F02FFC05B0BDE8F08F17
:10A1300002460B4615F0E0FD41A3D3E90023044697
:10A140000D4615F0D9FD40A3D3E9002315F01EFC00
:10A1500022462B4615F0D0FD3DA3D3E9002315F090
:10A1600013FC22462B4615F0C7FD3BA3D3E9002381
:10A1700015F00CFC22462B4615F0BEFD38A3D3E9A2
:10A18000002315F001FC22462B4615F0B5FD36A341
:10A19000D3E9002315F0FAFB2B46224615F0ACFD5F
:10A1A000374B9845CDE9000197DD364B98453EDCAD
:10A1B000A8F500130022002030499046994615F07A
:10A1C000E3FBCDE9020100222B4B2046294615F086
:10A1D00093FD42464B4615F0D7FBDDE90023804650
:10A1E00089462046294615F087FD524604460D460D
:10A1F0005B463046394615F07FFD02460B46204649
:10A20000294615F0C1FB02460B464046494615F06B
:10A21000BBFB02460B46DDE9020115F0B5FB05B0BC
:10A22000BDE8F08F1549002005B0BDE8F08F9FED27
:10A23000107B4FF000088DED027BDFF84C90C2E7F9
:10A24000D43888BEE9FAA8BDC4B1B4BD9EEE213EA3
:10A25000AD529C804F7E923E9015CB19A001FA3EE4
:10A260007751C1166CC1563F4C5555555555A53FB4
:10A27000000000000000E73F0000E03F0000F03F6A
:10A280003233D33F0000E93F0000D23F000000001E
:10A290002DE9F04FADF5197DBE4CA29EBE4D54F890
:10A2A00026600793D41E85FB0475E417C4EBA50450
:10A2B00024EAE4741D46631CA3EB8303013D02EB17
:10A2C000C3030593731904960994019503900B91A8
:10A2D000A4EB05071AD43B44002400255E1C0DF1B5
:10A2E0008008DDF88C9208E059F8270015F09AFCF8
:10A2F0000137B742E8E8020108D0002FF4DA01374D
:10A3000020462946B742E8E80201F6D1049B002B1B
:10A31000079B4FEAC30302932ADB039A20A902EBAF
:10A32000030801EB0309049B72AA02EBC30B0DF5B2
:10A33000E07A019B002B4FF000064FF0000711DB85
:10A34000039C4D4675E90223F4E8020115F0D4FCA4
:10A3500002460B463046394615F018FB4445064682
:10A360000F46EFD1EAE80267DA4509F10809E0D1C2
:10A37000DDE90204049920448B0082460BA8A3F176
:10A380000802C31808930CAB13440A938B4698AB8E
:10A3900003EBCB03BBF1000F53E9284529DD70AB7C
:10A3A00003EBCB080DF1300900227C4B20462946F7
:10A3B00015F0A2FC15F050FF15F034FC0022784B8C
:10A3C00006460F4615F098FC02460B4620462946E5
:10A3D00015F0DAFA15F040FF78E9022349F8040B8A
:10A3E0003946304615F0D2FA70AB984504460D4612
:10A3F000DAD1DDF81490204629464A4601F030F8BB
:10A4000000224FF07F5304460D4615F075FCFCF713
:10A41000A7FD0022634B15F06FFC02460B46204659
:10A42000294615F0B1FA0D46044615F015FF804691
:10A4300015F0F8FB0B4602462946204615F0A4FA13
:10A440004B46002B06460F4640F3E1800BF1FF32EE
:10A450000CA9C9F1180351F8225045FA03F101FA89
:10A4600003F30CA8EB1A40F82230C9F11705884411
:10A4700043FA05F5002D2CDDBBF1000F08F10108B2
:10A4800040F381820C9C002C40F0A780BBF1010FAF
:10A490000AD00CA9012251F8044F531C002C40F0A3
:10A4A0009E809B451A46F6D1059B002B0EDD012BA5
:10A4B00000F0D980022B09D10BF1FF320CAB0CA9B3
:10A4C00053F82230C3F3150341F82230022D00F077
:10A4D000AF80002200233046394615F075FE002873
:10A4E00000F05382049B0BF1FF394B4510DC0BF15C
:10A4F00080430CAA013B089802EB8303002253F827
:10A500000419834242EA0102F9D1002A40F0B680E0
:10A51000049B0CAA013B52F82330002B40F0A18091
:10A520000A9A012352F8041901330029FAD05B4436
:10A530000BF10109994506934CDC099A079909EB3F
:10A54000020801EB0B0508F1804802EB030BA39B0B
:10A5500008F1FF3803EB880870AB03EBC909A39B34
:10A5600020A903EB8B0301EBC505029358F8040FF8
:10A5700015F058FB0B4601990246002905F1080B1E
:10A58000C5E900234FF000064FF000071CDB039CD9
:10A590000CE000BFF4270400ABAAAA2A0000703E1A
:10A5A000000070410000204075E90223F4E8020138
:10A5B00015F0A2FB02460B463046394615F0E6F987
:10A5C000544506460F46EFD1029B9845E9E80267DD
:10A5D0005D46CBD1DDF818B0D9E6012300220CA9E5
:10A5E000C4F180749B4541F822400EDD51F82320D0
:10A5F00001EB8B0001EB83036FF07F4100E01A68F1
:10A600008A1A43F8042B8342F9D101244CE706D17E
:10A610000BF1FF330CAA52F82350ED152AE7002264
:10A620007B4B15F0EFFD002840F0A381054650E775
:10A6300032463B460020774915F0A6F906460F46FC
:10A64000002C3FF446AF059A7249002000F008FF45
:10A6500002460B463046394615F096F906460F4637
:10A6600037E7012363E70BF1FF320CAB0CA953F87A
:10A670002230C3F3160341F8223027E70CAB059ACA
:10A6800053F82930183ACDE9068505926BB909F1DE
:10A690008043013B0CA901EB830353F8041909F132
:10A6A000FF39183A0029F8D00592059A5949002037
:10A6B00000F0D6FEB9F1000F04460D46C0F2C0818D
:10A6C0004FEAC90370AA02EB030808930CAB03EB33
:10A6D0008906DFF844B14FF0000A08F10807043694
:10A6E00056F8040D15F09EFA22462B4615F004FB91
:10A6F0005B4667E9020152462046294615F0FCFAFE
:10A700000CAB9E4204460D46EAD148AB039301933D
:10A71000CDF8149009F10103DDF810900293C346BF
:10A720004FF0000AB9F1000FC0F22A81DFF8EC8087
:10A730005D4635A3D3E9002300260027002403E06B
:10A74000544510DCF8E80223F5E8020115F0D4FACC
:10A7500002460B463046394615F018F90134A1453A
:10A7600006460F46ECDA019BE3E802670193029B81
:10A770000AF1010A9A45ABF1080BD3D1A29BDDF88F
:10A780001490032B39D8DFE813F0D9000600060037
:10A790004D0048AB0393B9F1000F4FF000004FF0AC
:10A7A000000109DB039D05EBC904083474E90223A9
:10A7B00015F0ECF8A542F9D1079B002B40F01E8163
:10A7C0000B9BC3E900010B4603990246D1E9000146
:10A7D00015F0DAF8B9F1000F0CDD4AAD01240134AF
:10A7E000F5E8022315F0D2F8A145F8DA079B002B13
:10A7F00040F014810B9BC3E90201069B03F00700A4
:10A800000DF5197DBDE8F08F00000040FB21F93FF8
:10A810000000E03F0000F03F0000703E9810040090
:10A8200048AB0393B9F1000F40F32781039ACDF8A9
:10A8300010904FEAC9030193D318D3E900AB09F193
:10A840000053013B02EBC9080293914678E9026785
:10A8500052465B463046394615F098F804460D4698
:10A8600002460B463046394615F08EF852465B4696
:10A8700015F08CF8C145A246AB46C8E90201C8E90B
:10A880000045E3D1DDF81090B9F1010F40F3F580F8
:10A89000019B039A02991344C900D3E9006701F1AF
:10A8A000080A019192440DF5947B7AE902893246B7
:10A8B0003B464046494615F069F804460D460246B7
:10A8C0000B464046494615F05FF832463B4615F0C8
:10A8D0005DF8D34526462F46CAE90201CAE900457C
:10A8E000E3D1019C039B1034002000211C4403F1A0
:10A8F000100574E9022315F049F8A542F9D1039C2B
:10A90000079ED4E90023D4E90245002E00F08A8096
:10A9100003F1004701F100430B99C1E90403069BD1
:10A920002646944605F1004403F00700C1E900C73C
:10A93000C1E902640DF5197DBDE8F08F089C039D07
:10A940000834002000212C4474E9022315F01EF87D
:10A95000A542F9D1079B13B101F1004319460B9BA6
:10A96000C3E90001069B03F007000DF5197DBDE862
:10A97000F08FBBF1000F08F1010874DD022581E5BD
:10A9800000260027EFE600248EE5CDE90685059D2B
:10A99000304639466A4200F063FD0022384B0646D5
:10A9A0000F4615F02FFC00B30022364B30463946D7
:10A9B00015F0A2F915F050FC044615F033F9002209
:10A9C0002F4B15F099F90B4602463946304614F0E4
:10A9D000DBFF15F041FC0BF101090CAB183543F816
:10A9E0002B00059543F829405FE63046394615F0BF
:10A9F00033FC0CABD94643F82B0056E60B9C01F117
:10AA00000043C4E900030B4603990246D1E9000163
:10AA100014F0BAFFB9F1000F3FF7DFAE01F10043C8
:10AA20001946E7E60B9EC6E90023069BC6E904012A
:10AA300003F00700C6E902450DF5197DBDE8F08F6A
:10AA4000A29B032B3FF6D9AE01A252F823F000BF20
:10AA500061AA020093A7020093A7020021A80200A6
:10AA60000020002176E732463B460020064914F0DC
:10AA70008BFF022506460F462BE5002000213EE70E
:10AA8000000070410000703E0000F03F0000000038
:10AA90002DE9F04F21F00046B6F1795F85B004460C
:10AAA0000D469046994604DA15F0D6FB002800F0D2
:10AAB000858022462B462046294615F01DF906467C
:10AAC0000F4602460B462046294615F015F941A3CC
:10AAD000D3E9002382468B463046394615F00CF9FF
:10AAE0003EA3D3E9002314F04FFF32463B4615F056
:10AAF00003F93CA3D3E9002314F048FF32463B4658
:10AB000015F0FAF839A3D3E9002314F03DFF3246DB
:10AB10003B4615F0F1F837A3D3E9002314F036FFD4
:10AB20000E9BCDE900019BB30022294B40464946CC
:10AB300015F0E2F8DDE90023CDE90201504659465F
:10AB400015F0DAF802460B46DDE9020114F01CFFAD
:10AB500032463B4615F0D0F842464B4614F014FFFF
:10AB600019A3D3E9002306460F465046594615F06F
:10AB7000C3F802460B463046394614F007FF02463A
:10AB80000B462046294614F0FFFE05B0BDE8F08FC5
:10AB900002460B463046394615F0AEF80AA3D3E913
:10ABA000002314F0F1FE52465B4615F0A5F822464C
:10ABB0002B4614F0EBFE05B0BDE8F08F2046294689
:10ABC00005B0BDE8F08F00BF495555555555C53FF7
:10ABD0000000E03F7CD5CF5A3AD9E53DEB9C2B8A6B
:10ABE000E6E55A3E7DFEB157E31DC73ED561C1196A
:10ABF000A0012A3FA6F810111111813F00000000AA
:10AC00002DE9F04FC04C21F0004687B0A6428246A5
:10AC10008B460F46CDE900231ADC15F01DFB0028FA
:10AC20003FD1109B524601331343334300F0B781A9
:10AC3000109B012B00F0C0815B460020B34915F04A
:10AC400085F904460D462046294607B0BDE8F08F39
:10AC5000AF4B9E4225DD002909DADDE90045224699
:10AC600005F10043CDE900230BF100418B4652462C
:10AC70005B4685A1D1E9000114F086FEDDE90023E1
:10AC800004460D4682A1D1E9000114F07DFE9FED3E
:10AC9000827B22462B468DED007B14F077FE8246A8
:10ACA0008B4652465B465046594615F025F80246FB
:10ACB0000B468046894615F01FF8424604460D466D
:10ACC0004B465046594615F017F875A3D3E90023B3
:10ACD000CDE902012046294615F00EF872A3D3E90A
:10ACE000002314F053FE22462B4615F005F870A3FE
:10ACF000D3E9002314F04AFE22462B4614F0FCFF51
:10AD00006DA3D3E9002314F041FE22462B4614F034
:10AD1000F3FF6BA3D3E9002314F038FE22462B4641
:10AD200014F0EAFF68A3D3E9002314F02FFE424693
:10AD30004B4614F0E1FF66A3D3E90023CDE90401FB
:10AD40002046294614F0D8FF63A3D3E9002314F06A
:10AD50001DFE22462B4614F0CFFF61A3D3E900234A
:10AD600014F014FE22462B4614F0C6FF5EA3D3E96E
:10AD7000002314F00BFE22462B4614F0BDFF5CA30B
:10AD8000D3E9002314F002FE22462B4614F0B4FF50
:10AD900059A3D3E9002314F0F9FD02460B46DDE97F
:10ADA000040114F0F3FDDDE9022314F0A5FFDDE951
:10ADB000004522462B4614F0E9FD42464B4614F06E
:10ADC0009BFF22462B4614F0E1FD4DA3D3E900235F
:10ADD00004460D46DDE9020114F08EFF22462B46A3
:10ADE00014F0D4FD0B46024680468946504659462B
:10ADF00014F0CCFD464B9E4204460D4600F38C8079
:10AE0000109B012B3BD002460B4600203F4915F01A
:10AE10009DF8002406460F462046294652465B46CA
:10AE2000CDE90067CDE90201009414F0ADFDDDE944
:10AE300000AB02460B464046494614F0A5FD52467B
:10AE40005B4614F059FF524604460D465B46DDE969
:10AE5000020114F051FF00222E4B14F097FD024620
:10AE60000B462046294614F091FD32463B4614F02D
:10AE700043FF52465B4614F089FD04460D462046CA
:10AE8000294607B0BDE8F08F182D4454FB21E93F57
:10AE9000075C143326A6813C00000000000000007F
:10AEA000D47ABF74702AFB3EE9A7F0320FB8123F84
:10AEB00068108D1AF726303F1583E0FEC8DB573F38
:10AEC00093846EE9E326823FFE41B31BBAA1AB3FF8
:10AED000735360DBCB75F3BEA69237A0887E143F18
:10AEE0000165F2F2D844433F280356C9226D6D3FF5
:10AEF00037D60684F464963F7AFE10111111C13FD3
:10AF0000635555555555D53FFFFF2F3E0000F0BF07
:10AF10002794E53F0000F03F109814F083FE22468E
:10AF2000CDE900012B462046294614F0E5FEDDE977
:10AF30000023CDE902012046294614F027FD0246F0
:10AF40000B46DDE9020115F001F842464B4614F0CC
:10AF50001BFD02460B465046594614F015FD0246AD
:10AF60000B4614F013FD02460B46DDE9000114F018
:10AF70000BFD0446B81700F00200C0F101000D46B9
:10AF800014F050FE02460B462046294614F0B4FE4B
:10AF900004460D462046294607B0BDE8F08F5046CE
:10AFA000594612F0B3FB02460B460020044914F048
:10AFB000CDFF04460D4662E754465D465FE700BF9D
:10AFC0000000F03F000000002DE9F04FCC4A21F0D6
:10AFD0000043934285B082468B460C4620D9C94A2D
:10AFE000934200F2D780002C80F2A481ACA3D3E975
:10AFF00000235046594614F0C9FC0022002315F0E6
:10B00000EDF8002840F0D180A7A3D3E900235046F3
:10B01000594614F071FE02460B460020BA4994E1ED
:10B02000BA4A934200F2E580B94A934240F22E8137
:10B03000002301930022B74B5046594614F05CFEA2
:10B0400006460F4602460B465046594614F054FE3B
:10B0500097A3D3E9002304460D4614F04DFE96A3B2
:10B06000D3E9002314F092FC22462B4614F044FE50
:10B0700093A3D3E9002314F087FC22462B4614F057
:10B080003BFE91A3D3E9002314F080FC22462B461B
:10B0900014F032FE8EA3D3E9002314F075FC22468F
:10B0A0002B4614F029FE00229B4B14F06FFC8046C7
:10B0B000894602460B463046394614F01DFE0246CC
:10B0C0000B460020954914F05FFC064602460B46ED
:10B0D0000F464046494614F057FC324680468946A2
:10B0E0003B465046594614F007FE02460B460020E8
:10B0F0008B4914F049FC02460B464046494614F081
:10B1000025FF22462B4614F0F7FD019E02460B4612
:10B11000002E4DD0DDE9026732463B4614F034FC88
:10B1200052465B4614F0E8FD32463B4614F02CFCD8
:10B130002B46224614F028FC019B013306460F469D
:10B1400000F02381019B012B7BD0019A531C392BEA
:10B150004FEA025500F22881019A132A40F35581E3
:10B16000019BC3F57F7403340022230514F00EFC09
:10B1700002460B465046594614F006FC0022664B28
:10B1800014F004FC824605EB010B5046594605B00D
:10B19000BDE8F08F634A93421BD9C1F31303034305
:10B1A000024640F012810029EFDA00205E490DE0EE
:10B1B0005046594614F0A0FD22462B4614F0E4FBFD
:10B1C00002460B465046594614F0DEFB05B0BDE87A
:10B1D000F08F41A3D3E9002315F01EF800283FF4B7
:10B1E00002AF3FA3D3E900231046194614F084FDB3
:10B1F000ECE74E4A934200F2EC8000293AA3D3E9EF
:10B20000002339DA14F0C2FB39A7D7E900674FF001
:10B21000FF3380468946019332463B4640464946C5
:10B2200014F0B2FB02460B4682468B464046494626
:10B2300014F0AAFB32463B4614F0A6FBCDE902010E
:10B24000F8E600223A4B5046594614F0C7FF002852
:10B2500000F0CC805046594600222E4B14F096FB4D
:10B2600002460B463046394614F08EFB00224FF062
:10B27000404314F041FDA9E714F086FB012380460A
:10B28000894601931CA7D7E90067C5E714A3D3E952
:10B29000002314F07BFB02460B468FE7AFF30080E0
:10B2A00059F3F8C21F6EA501FE822B654715F73FC3
:10B2B0002DC3096EB7FD8ABE3952E686CACFD03E8D
:10B2C000B7DBAA9E19CE143F8555FE19A0015A3F3F
:10B2D000F41011111111A13FEF39FAFE422E8640F0
:10B2E0009C7500883CE4377E0000E0FE422EE63F7D
:10B2F000763C7935EF39EABD763C7935EF39EA3D70
:10B3000079684340412E86400000E0BF422ED63F80
:10B31000FFFF8F3C0000E03F0000F03F00000840CE
:10B3200000001840FFFFEF7F0000F0BFB1A2F03F28
:10B330000000D0BF44A3D3E900235046594614F07F
:10B34000DBFC02460B460020414914F01FFB14F0C1
:10B3500083FF019014F066FC37A3D3E9002306466F
:10B360000F4614F0C9FC02460B465046594614F0ED
:10B370000BFB33A3D3E90023804689463046394688
:10B3800014F0BAFC06460F4646E702460B46504606
:10B39000594614F0F9FA00222D4B14F0ADFC0022AE
:10B3A0002B4B14F0F1FA11E752465B4614F0ECFA1D
:10B3B00002460B460020274914F0E6FA6B1819469E
:10B3C0000022244B14F0E0FA00E70B4614F0DEFAFA
:10B3D000FCE61DA3D3E9002314F08EFC002C0246EA
:10B3E0000B464FF00000AFDA1B49AEE732463B4652
:10B3F0005046594614F0C8FA02460B4614F0C6FAF5
:10B400000022144B14F0C2FAE0E64FF4001343FAA2
:10B4100002F452465B4614F0B7FAC4F17F57002697
:10B4200007F5401702460B463046394614F0ACFA91
:10B43000A8E600BFAFF300800000E0FE422EE63F2A
:10B44000763C7935EF39EA3DFE822B654715F73FAB
:10B450000000E03F0000F03F0000E0BF00000000FF
:10B46000F8B5C1F30A5304460D460E4617460BBB0A
:10B4700021F00046034633431BD0354B002214F025
:10B480003BFC344B9F4204460D4635DBC1F30A5367
:10B490000E46363B3B4440F2FE72934232DC002BB8
:10B4A00011DD26F0FF4626F4E00646EA0355204665
:10B4B0002946F8BD40F2FF729342EBD102460B469B
:10B4C00014F064FAF8BD13F1350F28DA4CF250335A
:10B4D0009F4222462B460ADD19A1D1E9000114F052
:10B4E000C5F917A3D3E9002314F006FCF8BD16A193
:10B4F000D1E9000114F0BAF913A3D3E9002314F041
:10B50000FBFBF8BD22462B460DA1D1E9000114F04A
:10B51000ADF90BA3D3E9002314F0EEFBF8BD26F040
:10B52000FF4626F4E006363346EA03552046294610
:10B530000022094B14F0E0FBF8BD00BFAFF3008020
:10B540009C7500883CE4377E59F3F8C21F6EA50154
:10B5500000005043B03CFFFF0000903C10B5054C8C
:10B56000237833B9044B13B10448AFF300800123AF
:10B57000237010BD10850020000000004C2904003D
:10B5800008B5034B1BB103490348AFF3008008BD66
:10B5900000000000148500204C290400154B002BEE
:10B5A00008BF134B9D46A3F5803A00218B460F46FA
:10B5B0001348144A121A09F0A7F90F4B002B00D0B8
:10B5C00098470E4B002B00D0984700200021040024
:10B5D0000D000D48002802D00C48AFF3008014F095
:10B5E0007BF92000290005F00BF914F061F900BF88
:10B5F000000008000000042000000000000000001F
:10B6000000840020B08C002000000000000000003A
:10B6100070B504460E4600F08DFA88B10368DB6A07
:10B6200005469847082C0CD0A4F10903012B14D926
:10B630003246214610230D20BDE8704004F096B933
:10B6400070BD2B6828465B6A98470228F0DC2B689F
:10B6500028461B6A04219847EAE72B6828465B6A5C
:10B6600098470528E4DC2B6828461B6A0821984780
:10B67000DEE700BF38B52DED028B054600F05AFA23
:10B68000044640B10368DB6A9847032D03D8DFE81E
:10B6900005F02F363D06BDEC028B002038BD20465C
:10B6A0000BF01AFF07EE900A2046F8EEE78A0BF03F
:10B6B00021FF07EE900A2046B8EEE78A0BF028FF3C
:10B6C00068EE087A07EE100AE8EEA87AB8EEC77AB4
:10B6D000E7EE077AF5EE407AF1EE10FAB1EEE78A7E
:10B6E0001BD4FDEEC87ABDEC028B17EE900A38BD74
:10B6F000BDEC028B2046BDE838400BF0EDBEBDEC42
:10B70000028B2046BDE838400BF0F4BEBDEC028B46
:10B710002046BDE838400BF0FBBE17EE900A12F051
:10B720001FFEDEE738B5044600F004FA58B103689E
:10B73000DB6A0546984744B1012C04D12846BDE890
:10B740003840FBF73DB9002038BD2846BDE83840F9
:10B75000FBF716B910B5044600F0ECF928B1036800
:10B7600021461B6ABDE81040184710BD00487047CD
:10B7700016FCFFFF704700BF10B5034B0360044683
:10B780000BF0A6FC204610BD801D040010B5054B33
:10B79000036004460BF09CFC204615F035F820466B
:10B7A00010BD00BF801D04002DE9F041032184B0CD
:10B7B0000546512001F020FDDFF838C3C24B044696
:10B7C00004F00F06C4F3031714F4807408BF634633
:10B7D000BE4831463A460AF0E5FD221C18BF012258
:10B7E00031463B4628460EF09DFC0023AB60B8482E
:10B7F0000AF0D8FD4FF0FF31032001F0FDFCC0B28C
:10B8000004F0A8FB4FF0FF310446022001F0F4FCE5
:10B81000C0B204F09FFB002C57D0002855D0014641
:10B82000204604F07FF90646002869D04FF0FF312A
:10B83000462001F0E1FC3828044600F0DB801ADDE8
:10B840003A2800F0C180682861D14FF0FF31012013
:10B8500001F0D2FCC0B204F07DFB80465C2014F005
:10B86000DCFF052301934246009431462B460746F0
:10B870000CF086FF19E0302801D0322847D14FF074
:10B88000FF31012001F0B8FCC0B204F063FB804638
:10B89000542014F0C2FFA4B2074605230193424688
:10B8A000009431462B460CF015FDAF603B683846DE
:10B8B0009B6A9847A8680368DB6A984785480AF03E
:10B8C00071FD284604B0BDE8F08183480AF06AFDA6
:10B8D0004FF0FF31192001F08FFCC0B204F03AFBA9
:10B8E0004FF0FF310446182001F086FCC0B204F08E
:10B8F00031FB0146204604F015F90646002895D193
:10B9000076480AF04FFD284604B0BDE8F0810124D6
:10B910003268CDE900440023576AAB600F220DF175
:10B920000F0332213046B847002800F0A980336861
:10B93000CDE900440F225F6A30210DF10F0330463C
:10B94000B84700286ED03368CDE900440D225F6A05
:10B9500038210DF10F033046B847002800F09680DB
:10B960003368CDE900440D225F6A3A210DF10F03DF
:10B970003046B847002800F0BF803268CDE9004467
:10B980000DF10F03576A682175223046B847002829
:10B990005BD1682152480AF005FD4FF0FF31204687
:10B9A00001F02AFCC0B204F0D5FA80465C2014F005
:10B9B00034FF05246823CDE90034424631462B4646
:10B9C00007460CF0DDFE70E74FF0FF31012001F07B
:10B9D00013FCC0B204F0BEFA8046502014F01DFFE4
:10B9E000052301934246009431462B4607460CF04E
:10B9F000A7FD5AE74FF0FF31012001F0FDFBC0B277
:10BA000004F0A8FA8046502014F007FF05230746EB
:10BA1000019342462B46009431460CF091FD314B88
:10BA20003B6042E730212E480AF0BCFC30244FF046
:10BA3000FF31012001F0E0FBC0B204F08BFA804638
:10BA4000542014F0EAFE074627E727480AF0AAFC2C
:10BA5000AF68002F7FF42AAF4FF0FF31032001F0D1
:10BA6000CBFBC0B204F076FA30B120480AF09AFC61
:10BA7000284604B0BDE8F0811D480AF093FC42E777
:10BA8000322117480AF08EFC3224D0E738211448BE
:10BA90000AF088FC4FF0FF31204601F0ADFBC0B248
:10BAA00004F058FA8046502014F0B7FE05243823DD
:10BAB0000746CDE9003442462B4631460CF040FDA6
:10BAC000084B3B60F1E600BF1C1104002C11040080
:10BAD0004C1104000C1204005C11040070110400ED
