:102000000080002061EF00005DEF00005DEF000048
:1020100000000000000000000000000000000000C0
:102020000000000000000000000000005DEF000064
:1020300000000000000000005DEF00005DEF000008
:102040005DEF00005DEF00005DEF00005DEF000060
:10205000256F01005DEF0000019401005DEF0000BD
:102060005DEF0000719001008190010091900100EE
:10207000A1900100B1900100C1900100098301000D
:102080001983010029830100398301004583010080
:102090005183010000000000000000005DEF00001F
:1020A0005DEF00005DEF00005DEF00005DEF000000
:1020B000000000007CB0EE877CB0EE87FF00FF00E0
:1020C000FF00FF00FF00FF00FF00FF00FF00FF0018
:1020D000FF00FF00FF00FF00FF00FF00FF00FF0008
:1020E000FF00FF00FF00FF00FF00FF0010B5064CDF
:1020F0002378002B07D1054B002B02D0044800E0C9
:1021000000BF0123237010BDE0020020000000008A
:10211000846A0200044B10B5002B03D00349044825
:1021200000E000BF10BDC04600000000E402002037
:10213000846A020070B505000E0000F06BFA041E00
:102140000ED00368DB6A9847082D0AD02B00093BA4
:10215000012B12D91023320029000D2004F044FC79
:1021600070BD236820005B6A98470228F2DC236870
:1021700004211B6A20009847ECE7236820005B6A73
:1021800098470528E6DC236808211B6A2000984749
:10219000E0E7C04670B5050000F03CFA041E36D0FA
:1021A0000368DB6A9847012D3DD032DD022D36D021
:1021B000032D2CD120000EF02BFA18F0E1FF061CA5
:1021C00020000EF033FA18F0DBFF051C20000EF0A3
:1021D0003BFA18F0D5FF311C041C301C18F0A4FC8D
:1021E000291C061C281C18F09FFC011C301C18F030
:1021F00029F9211C051C201C18F096FC011C281C28
:1022000018F020F91CF0B0FE18F09AFF00E0002052
:1022100070BD002DFBD120000EF0FAF9F8E7200088
:102220000EF012FAF4E720000EF000FAF0E7C046D4
:1022300070B5050000F0EEF9041E0AD00368DB6AF1
:102240009847002D07D0012D03D120000EF0AAFAE7
:1022500000E0002070BD20000EF07AFAFAE7C046D8
:1022600010B5040000F0D6F9002803D0036821005F
:102270001B6A984710BDC0460048704716FCFFFF18
:102280007047C04610B50400024B03600DF078FFA4
:10229000200010BDBC5A020010B50400044B0360BE
:1022A0000DF06EFF200022F09BF8200010BDC0460C
:1022B000BC5A0200F0B5C6460F2600B5032184B013
:1022C0000500512001F082FF8024310003116400D9
:1022D000070001401E40044076D1C24B3200C24884
:1022E0000DF0E0F8621E94410F21E2B23940330054
:1022F000280011F0B5FD0023BC48AB600DF0D2F80A
:1023000001210320494201F061FF04F0A3FF0121F4
:1023100004004942022001F059FF04F09BFF002C09
:1023200054D0002852D00100200004F043FC071EC6
:1023300064D001214620494201F048FF04003828BA
:1023400000D1D4E025DD3A2800D1BBE068285DD17A
:1023500001210120494201F039FF04F07BFF804652
:102360004C2022F04CF805230094019342462B00A8
:102370003900060010F018F9AE60336830009B6A2F
:102380009847A8680368DB6A984799480DF08AF86F
:1023900037E0302801D0322838D1012101204942CC
:1023A00001F014FF04F056FF80464C2022F027F87D
:1023B000052306000193A4B200942B004246390085
:1023C00030000FF0A1FED7E78A4B87E78A480DF06F
:1023D00069F801211920494201F0F8FE04F03AFFA2
:1023E000012104004942182001F0F0FE04F032FF00
:1023F0000100200004F0DEFB071E9AD17F480DF09B
:1024000051F8280004B004BC9046F0BD002301241C
:10241000AB603B68019400941E6A0F230F226B444B
:1024200032213800B047002800D1A4E03B68019475
:1024300000941E6A0F230F226B4430213800B047EE
:1024400000286CD03B68019400941E6A0F230D2273
:102450006B4438213800B047002800D191E03B6838
:10246000019400941E6A0F230D226B443A21380018
:10247000B047002800D19BE03B68019400941C6A9F
:102480000F2375226B4468213800A04700285AD1D9
:1024900068215B480DF006F801210120494201F056
:1024A00095FE04F0D7FE04004C2021F0A8FF052380
:1024B00001936333009322002B003900060010F0D3
:1024C00073F859E701210120494201F07FFE04F031
:1024D000C1FE8046442021F092FF05230094019321
:1024E00042462B00390006000FF0B4FF44E70121FB
:1024F0000120494201F06AFE04F0ACFE804644200F
:1025000021F07DFF05230600019342462B00009435
:10251000390030000FF09EFF3A4B33602CE730213A
:1025200037480CF0BFFF302401210120494201F05F
:102530004DFE04F08FFE80464C2021F060FF052305
:102540000600019338E730480CF0ACFFAE68002E6F
:1025500000D012E701210320494201F037FE04F0C8
:1025600079FE002803D029480CF09CFF49E7284851
:102570000CF098FF45E7322121480CF093FF3224FC
:10258000D2E738211E480CF08DFF0121012049427D
:1025900001F01CFE04F05EFE0400442021F02FFF39
:1025A000052301933333009306002B002200AFE78D
:1025B0003A2113480CF076FF01210120494201F035
:1025C00005FE04F047FE0400442021F018FF052317
:1025D00001933533009322002B00390006000FF0E1
:1025E00039FFC9E6944C02009C4C0200BC4C02002E
:1025F0007C4D02008C4C0200CC4C0200E04C0200EE
:102600000C4D0200584C0200F84C0200204D020014
:102610005C4D020070B5114C2368002B01D0986806
:1026200070BD01210120494201F0D0FD04F012FEED
:10263000002808D00C2021F0E2FE0500FFF73AFE4A
:102640002560A868ECE701210320494201F0BEFDA6
:1026500004F000FE0028EDD1E2E7C046FC020020B5
:1026600010B501F0F9FE1BF04FFB01F0E7FA10BDC9
:1026700010B501F0F1FE1BF0F3FE01F0DFFA10BD22
:1026800010B501F0E9FE1BF0C1FB01F0D7FA10BD57
:1026900010B501F0E1FE1CF09FFA01F0CFFA10BD79
:1026A00010B501F0D9FE1BF071FE01F0C7FA10BDA4
:1026B00010B501F0D1FE1BF0EDFD01F0BFFA10BD29
:1026C00010B501F0C9FE1AF05BFD01F0B7FA10BDBC
:1026D00010B501F0C1FE1BF01FFD01F0AFFA10BDF7
:1026E00010B50C000299914221DB002B0BD1042A7A
:1026F00017D0022A01D1C3070FD50100200008F02E
:1027000025FE002008E08018A21801380378237005
:102710000134A242F9D1002010BD0388002023809B
:10272000FAE78307E9D1036800202360F4E700217A
:1027300020000AF037F801204042EDE708307047EA
:1027400003000020002B06D0002904DB5A688A42CF
:1027500001DD5B18187A7047002806D0002904DBD9
:1027600043688B4201DD401802727047030000206D
:10277000002B06D0002904DB5A68914201DA5B186D
:10278000187A70470123820703D1000F4342584152
:10279000C3B218007047C046002806D0002904DBE9
:1027A0004368994201DA40180272704770B5002BF5
:1027B00022DB002920DB45688D421DDB54686D1A41
:1027C000E41AAC420EDC002C16DB050016000835BE
:1027D0000836824208D068182200F11808F0B6FDC9
:1027E000002070BD2C00EEE7ED18701822002900C3
:1027F00021F034FE0020F4E701204042F1E7C0461A
:102800004068704710B5002A0DDB446894420ADB2B
:10281000002B00DA2300A41A9C4205DC0830801843
:10282000220009F0BFFF10BD1C00083080182200F4
:1028300009F0B8FFF7E7C04610B543681C008B42AB
:1028400000DD0C00002A00DA1A00191B914200DD9D
:1028500011000830001900F043FF10BD70B50E00E4
:10286000002B01DA43689B1A002A1DDB4468991883
:10287000A14219DC914217DB002B15D0710013D057
:102880005942B14211DAB3420FDD08308518002EEB
:1028900012DB9C1BA9192200280021F0DFFD28195A
:1028A0003200002109F07EFF70BD012300225B424F
:1028B0000021FFF7A7FFF7E774429A1929002819AA
:1028C00021F0CCFD22000021280009F06BFFEBE78E
:1028D00010B54168083000F073FE10BDF8B54368CC
:1028E00005005900002000F0EFFD6B688446002BC6
:1028F00016DD07262B0002000F277642094C08330D
:102900000632761B19780911615C1170197839400B
:10291000615C51706868F118023201338842F1DC61
:102920006046F8BD144E020070B5050016000800A0
:102930001C1E01DA6B689C1A002E2BDB6A68A31937
:10294000934227DCB34225DB002C23D0430021D067
:10295000002801DA2302C018210017F00FFB00291C
:1029600000DA09190835AD1969182C198D4211D0F2
:102970000B0005E003008A420DD01500934209D0F8
:1029800018782E782870581C6A1C1E708442F1D169
:102990000B00F2E770BD0100EFE7C046012300B570
:1029A0005B4283B000930023FFF700FF03B000BD3C
:1029B00010B503000C00002000290DDD5968083314
:1029C000180002F053FB1F2C06DC0300E3405840C4
:1029D0000123A340013B184010BDC04610B50100C3
:1029E000002000F07DFE10BD70B50021050000F054
:1029F00013FE0100002000F073FE01000400083106
:102A0000280000F009FE200070BDC04630B504006B
:102A100083B00D00102A0DD8474992008A58974676
:102A2000180001F037FE0090032D03DDA30700D04E
:102A30007CE0206003B030BD180001F097FD002D50
:102A4000F8DD2070F6E7180001F090FD012DF1DDB2
:102A500060700004000E2070ECE7180001F02AFD01
:102A60000090032DE6DD6B461B78E3706B465B78C8
:102A7000A3706B469B7863706B46DB782370D9E755
:102A8000180001F0E9FC00900191072DD2DD230030
:102A90006A4608331178013B197001329C42F9D122
:102AA000C8E7180001F0F6FD0090032DDBDCC1E75C
:102AB000180001F05BFD6B461880012DBADDE307BD
:102AC00032D502226946200008F040FCB2E7180027
:102AD00001F04CFD0090032DC5DCABE7180001F0C0
:102AE000E9FC0090032DA1DCA4E7180001F03EFDF5
:102AF0006B4680B21880012D9CDDE0E7180001F0E4
:102B000035FD0090032D00DD90E793E7180001F0FC
:102B1000A3FC00900191072D00DC8BE70822694699
:102B2000200008F013FC85E7208083E70422694633
:102B3000200008F00BFC7DE78C4D020010B5002A48
:102B400007DB44680830A41A80180A002100FFF748
:102B50005DFF10BD10B584B0102A00D977E03D4B61
:102B600092009B589F460123009102A90822FFF77B
:102B7000B7FD0298039901F061F804B010BD00237D
:102B800002AC009101222100FFF7AAFD002020568F
:102B900001F052F9F1E7002302AC0091012221007B
:102BA000FFF79EFD207801F047F9E6E7002302AC2D
:102BB000009102222100FFF793FD0023E05E01F067
:102BC0003BF9DAE7002302AC009102222100FFF773
:102BD00087FD208801F030F9CFE70023009104221F
:102BE00002A9FFF77DFD029801F026F9C5E702ACC6
:102BF00000910123C6E702AC00910123CEE702ACAD
:102C000000910123D5E702AC00910123DDE700919B
:102C10000123E4E700230091042202A9FFF760FDED
:102C2000029801F015F9A8E700910123F4E70023C9
:102C30000091042202A9FFF753FD029801F0F6F873
:102C40009BE70091002390E700910123F1E700202A
:102C500093E7C046D04D020010B5002A08DB436858
:102C600008309B1A80180A001900FFF773FF10BD87
:102C7000002001F0E1F8FAE710B503F09FFD10BD68
:102C800010B503F09FFD8000800810BD10B503F063
:102C9000ABFE10BD10B50CF033F910BD10B5C11767
:102CA00003F04EFD10BDC04610B503F05DFD10BD34
:102CB00010B503F069FD10BD00B583B003F07AFDD7
:102CC000009001910821684602F0D0F98000800848
:102CD00003B000BD00B583B003F06CFD009001911E
:102CE0000821684600F0FCFC03B000BD70B50C1E66
:102CF0000CD00B6808001B6A9847236805005B6AC4
:102D0000200098470100280004F068FE70BDC0460E
:102D100010B502F0C5F810BD10B5012002F070FB2F
:102D200010BDC04610B5022002F06AFB01480AF04F
:102D300067FB10BD93030000014B18607047C0464D
:102D4000000300207047C04600207047F0B5DE4603
:102D500057464E464546E0B585B0002A00DCE8E01F
:102D60003F2300259A46BF3B9B469F339846103B26
:102D700000249946019522E01E004746BE43F6B264
:102D8000C02E36D01E004F46BE43F6B2E02E4BD0CA
:102D9000F8261E40F02E67D0019D013402350195C2
:102DA00000280AD040279E097F423E4306705646BF
:102DB00033405E46334343700230944210DA0B5D79
:102DC0005EB2002ED8DB01347F2B00D99FE0019D3D
:102DD000013501950028F0D0037001309442EEDBFC
:102DE000019D280005B03CBC90469946A246AB46E2
:102DF000F0BD661CB4469642C4DA0E197678554684
:102E00003700AF43802FBDD1F8279D01FF002F4031
:102E100055462E4037437F2F77DC019C02340194C6
:102E200064460028BED1CAE7A61C9642B0DA5746CF
:102E30000E1975780295BD43802DA9D1B67835005D
:102E4000BD43802DA4D11D072D0CAC4665463E40E8
:102E50002E43029DAF01FC252D012F403E434D4FD7
:102E6000BE4299DD033436E0E61C964294DA5646BB
:102E70000F197D780295B543802D00D08CE7BD7881
:102E80000395B543802D00D086E7FD782F00AC4632
:102E9000B743802F00D07FE7E0279D047F033D40AC
:102EA000674637403D43AC46FC27029DBF022E03D8
:102EB00065463E403543AC46FC27039D3F01AE01CD
:102EC00065463E402E43344D344FAC46B444BC4579
:102ED00000D961E70434324B9E422CD8019B033366
:102EE0000193002800D168E72025330B6D422B4366
:102EF00055460370B3092B405D462B434370534640
:102F00001E402E438670033057E73B000234019D7C
:102F100002350195002800D14FE740259E096D42FA
:102F20002E4355462B405D462B43067043700230BE
:102F300043E7002555E7019B06330193002800D1A4
:102F40003BE7D8252D02AC46ED2505705546124BC2
:102F5000F3189E0A6644B7092F405D462F43554635
:102F60002E405D462E43DC252D02AC46ED25C57076
:102F700055469B059B0D634486709E092E405D4619
:102F80002E4355462B405D462B43477006714371D7
:102F9000063012E7FF0700000000FFFFFFFF0F00F1
:102FA000FFFF000003785AB2002A01DB18007047C7
:102FB0001F2219009143C02910D0F0221A40E02AA4
:102FC000F4D1FC214278090192011B071B0C0A4035
:102FD0001A433F23807803401343E7E7F8229B011D
:102FE000D200134042783F2010400343DEE7C04642
:102FF000F0B5C5888D4230D32D090B096D00868848
:10300000002A2CD182685519002B09D01A48844611
:1030100063445B009B5AF61AED180F23B6B21940B1
:103020000F20002200231F27844602E001339E4226
:1030300013DBE8180132047891420FDB60B20028FC
:10304000F4DA2000B843C02813D060468443E02C53
:10305000ECD1023301339E42EBDA0020F0BD0200D6
:1030600008325519002BDBD0013B5B00C0180389E7
:10307000D1E70133DAE7C046FFFFFF7F80880A30DF
:1030800080087047063070478088704783888B427D
:1030900002D30630401870470020FCE780880A30D1
:1030A000800870470630704780887047F0B5848884
:1030B000851D0020002C16D000231F260F2702E0BC
:1030C00001339C420FDDEA5C013051B20029F7DA8E
:1030D0001100B143C02907D0BA43E02AF0D102332E
:1030E00001339C42EFDCF0BD0133E9E7F0B5851D0B
:1030F00086880F20002200231F27844602E0013328
:103100009E4213DBE8180132047891420FDB60B273
:103110000028F4DA2000B843C02809D06046844370
:10312000E02CECD1023301339E42EBDA0020F0BDFB
:103130000133E4E703207047C38880681B095B0004
:10314000C018704780887047C088704710B500224B
:10315000FFF74EFF10BDC0460300C0889B880009E2
:1031600002304000C0180830800870470300C08853
:1031700008330009400018187047C04610B50122F6
:10318000FFF736FF10BDC04640680B30800870471F
:10319000F0B54646D6464F46C0B5C488150024094A
:1031A000060064008288002D4BD0050008352C19DC
:1031B000A3189846002959D0200008F0C7F800232A
:1031C00042461370F7883F09002F30D07F00BA467F
:1031D000A1461F26AA4443461F1B1CD40F20227859
:1031E00010210023844607E001339F4213DBE018DF
:1031F00001390278002921D050B20028F4DA1000F9
:10320000B043C02818D060468243E02AECD1023394
:1032100001339F42EBDADC2080000AF0F1F8002451
:1032200000234A469B1A2B800235AA45D3D11CBCE9
:1032300090469946A246F0BD0133D5E7040003004D
:10324000EFE783689C466444A3189846002904D19C
:103250001970C788B5683F09B6E7200008F076F80E
:1032600043461D70F788B5683F09ADE71970C788F8
:103270003F09A9E710B58068002801D001F0A0FF40
:1032800010BDC04610B50400406801F0BFFFA06843
:1032900001F0BCFF10BDC046F0B55746DE464E46B5
:1032A0004546E0B5414C83B0A188824600295CD1F7
:1032B0005246200002F054FE00233D4E99469846A7
:1032C0000EE0200002F060FE03680500B34261D00A
:1032D0009B6A98472B6880445B6A28009847814422
:1032E000A388002BEDD143461E094B467600581C9F
:1032F000801902F0EBFB8446A18801906644002906
:1033000038D15246200002F02BFE294B9B4613E099
:10331000200002F039FE036805005B452FD05B6A90
:1033200098472B6807001B6A280098473A0001005D
:10333000300008F00BF8F619A388002BE8D15246AC
:103340001C4B0021136053464A469A804246DA805D
:10335000019A50469A600022FFF71AFF03B03CBC66
:1033600090469946A246AB46F0BD13480AF048F88D
:10337000A1889DE710480AF043F8A188C1E7A18819
:103380008268200002F0ECFD6A68A188200002F04B
:10339000E7FDD1E7A1888268200002F0E1FD6A68BC
:1033A000A188200002F0DCFD9AE7C0460803002057
:1033B0009C4E0200E44E02007103000010B50400B0
:1033C000FFF76AFFE08810BD10B50400FFF764FF47
:1033D000A08810BD10B50400FFF75EFFE088A36869
:1033E00000094000181810BD70B50D000400FFF76B
:1033F00053FF290000222000FFF7FAFD70BDC046F0
:103400007047C0460320704703207047C08870474C
:103410007047C046808870477047C04680887047B4
:103420007047C04600280ED043688B4201D0002B65
:1034300006D1531C07D08368934204D0002B02D0DE
:1034400000680028F0D17047084B1B68002B0BD098
:103450005A68904201D0002AF7D14A1C04D09A68D9
:10346000914201D0002AF0D11800704704030020D7
:10347000F0B5C646134F00B53B6804000E009046F9
:10348000002B03D10DE01B68002B0AD05A68A24222
:10349000F9D19A68B242F6D14246DA6004BC90464D
:1034A000F0BD102002F024FB3B680500036043469A
:1034B00044608660C36001210C3002F0D7FB3D60A0
:1034C000ECE7C04604030020F0B5C646060000B590
:1034D0000C1E02DA21F00DF80400002C1DD0A7B25A
:1034E000002E1FD0330031191A787F2A21D80133DA
:1034F0009942F9D12E4B9846E01D02F029FA051E9B
:1035000001D043460360AF80A81D2200310007F0C0
:103510001DFF00232C19A37100E0264D280004BCD8
:103520009046F0BDE01D02F013FA051E3BD1B780B6
:10353000EFE7132C02DC204B9846DDE70F2200203A
:1035400000231F25944602E001339C4210DDF25C0B
:10355000013051B20029F7DA1100A943C02920D067
:1035600061468A43E02AEFD1023301339C42EEDC0C
:1035700083B298460F23C217134018180011400059
:103580000934001902F0E4F9051E01D00B4B036069
:103590004346AF80EB80012231002800FFF7F8FDA1
:1035A000BCE70133D0E7024B87800360B1E7C04638
:1035B000444F02006C500200144F0200744F02008E
:1035C000F8B505000C1E02DA20F093FF0400002C71
:1035D00002D1104C2000F8BD220029000020FFF786
:1035E000B5FB060084420FD002F082FA07002200E9
:1035F0002900FFF7ABFB31003800FFF765FF04003F
:10360000380002F089F9E5E721002800FFF75CFFA8
:103610000400DFE76C500200F8B5DE4657464E4620
:103620004546E0B5036804001B6A0F00984723680D
:1036300080465B6A20009847061E48D0254B002430
:1036400000259B46434618190378ED2B0DD0002F1B
:1036500000D07B5501350134B442F3D328003CBC83
:1036600090469946A246AB46F8BD621D9246B242CC
:10367000EDD2FFF797FC8146E01C4044FFF792FC37
:10368000154B4B445B45E6D8144A82185A45E2D89C
:10369000002F19D0902292019446102160449B0281
:1036A0001B1880243F209A1449420A43191364428C
:1036B00001407A5521437A19517099110140034014
:1036C000214323439170D37004355446C3E700204F
:1036D000C5E7C046FF0300000028FFFF0024FFFFEE
:1036E00070B506000D1E12DD0800083002F030F93A
:1036F000041E01D0094B03602000656008302A00D9
:10370000002E06D0310007F021FE200070BD044CD1
:10371000FBE7002109F046F8F7E7C046E04F02005A
:1037200060500200014B18607047C046B80000208E
:10373000010043011B189B011B189B001B18D8029A
:10374000C31A5B005B1AD800C01A044AC300181AD7
:10375000400013684018584010607047B8000020BF
:103760000F4BF0B59C46050001241F682A0000207D
:10377000BE09FB0F73407B403E0979087340BF08C8
:103780007B404B40DB070B431F00230040003B40C6
:1037900018435208ECD18542E8D363461F60F0BD60
:1037A000B8000020004870476C50020070B5030458
:1037B00082B01B0C7F2B22DD3F2580242A0064422F
:1037C0001A4011489911224349B2D2B283420EDD08
:1037D000202629400C4303211B13764201A83343C2
:1037E000037044708270FFF76FFE02B070BD40231B
:1037F0005B4201A81943017042700221F3E701A85E
:1038000003700121EFE7C046FF070000F0B5D64680
:103810004F4646460400C0B50D00002800D175E0B3
:10382000474B002949D00F00984240D027009D42C5
:103830003DD02368434EB34200D171E05B6A200063
:1038400098472B6880465B6A2800984706004644E4
:103850008146322E67D8236820001B6A98472B6860
:1038600082461B6A28009847310005000020FFF7B8
:103870002BFE036807001B6A984742465146040026
:1038800007F064FD43464A46E018290007F05EFD54
:10389000002E0CD023787F2B3DD8631C341904E014
:1038A00000229A560133002A35DBA342F8D13800B2
:1038B0001CBC90469946A246F0BD98422ED00368A3
:1038C000204E214DB342B9D1A0680368B3422AD03B
:1038D0005B6A98472B6807005B6A28009847C01905
:1038E000322820D80C2002F033F8071E00D00660E2
:1038F000380002F0D3F9636829007B60A068FFF705
:1039000085FFB860380002F0DBF9D0E70E4C0029E3
:1039100013D00B4B8AE70D4B3B60C8E70A4FC6E755
:103920002B68B342D0D10C2002F012F8071E01D050
:10393000044B03607C60BD60B9E72500044B7DE764
:103940006C5002009C4E0200C0500200144F020056
:10395000444F0200F8B505000C00884225D00368EA
:103960005B6A9847236807005B6A200098472B68CA
:1039700006001B6A28009847236805001B6A200080
:103980009847BE420BD82C00411B2378085D834228
:1039900007D083428041012398430130F8BD3E00A7
:1039A000F1E70134631BB342EFD90020F6E7C046CC
:1039B00010B503689B6A984710BDC046F0B54646EF
:1039C000DE4657468846C0B57F22060082B037786B
:1039D0003B00093B042B5DD913003B40202B59D001
:1039E0002B2F01D1777801362D2F00D175E00023E0
:1039F000404C00930194002F00D178E00022002376
:103A000093460024002521E000223B4B20002900A2
:103A100018F066FB04000D00504619F06DF9220005
:103A20002B0017F037FC5A4604000D000123002A32
:103A300008D000980199304B002217F047FF5B46F1
:103A40000090019101363778002F11D03022524278
:103A50009246BA445246092AD6D95A46002A1BD160
:103A60002E2F19D10122013637789346002FEDD140
:103A70002200009801992B0018F032FB04000D0081
:103A800043461E602000290002B01CBC90469A46A6
:103A9000A346F0BD01369AE7002B25D00098019986
:103AA0002B00220018F01CFB202304000D009F4374
:103AB000452FE5D10A224146701C20F06BFC0E49CF
:103AC0000200002016F046FB02000B002000290037
:103AD00018F006FB04000D00D4E70023074C7778AC
:103AE00000930194013686E70024054DCAE70024BF
:103AF0000025BDE70000F03F000024400000F0BFBB
:103B00000000F87FF8B505000C00161E25DD0368DF
:103B10009B6A9847002C03DA0419E343DB171C4027
:103B2000001BB04211DD2B682100DB6A280098479A
:103B30002B68A1190700DB6A28009847041E08D0EB
:103B4000E11B3800FFF7C0FCF8BD002805DD0600CA
:103B5000E9E7034809F054FCF2E70248F4E7C046FD
:103B6000720300006C500200F8B54746CE460600CE
:103B700080B514000F0000284CD000294AD00368FB
:103B80001B6A9847E14380463368C9172140DB6AC6
:103B9000300098474346C51A336804005B6A30001A
:103BA00098473B68451B5B6A380098470600002C25
:103BB00030D085422ED33B6838001B6A9847814637
:103BC000077803E0013D0134B54223D32378BB429B
:103BD000F8D132004946200020F031FC0028F1D114
:103BE0004346E41A002C17DD00231F250F2602E0B0
:103BF00001339C4210DD4246D25C013051B20029B3
:103C0000F6DA1100A943C0290AD0B243E02AEFD165
:103C10000233EDE7012040420CBC90469946F8BDC6
:103C20000133E5E710B5FFF79FFF0130431E9841D0
:103C300010BDC046012358407047C04670B50A0009
:103C400005000C1E14D10120002D10D02A002300E5
:103C50002800210018F0FEFF002849D10C3001F0A7
:103C600077FE002801D0234B03604560846070BD5F
:103C70004B0021495B0D59181D2919D8142920DD45
:103C80001E488446280063449840031EDED18020ED
:103C9000E40200061F335B1A2043D8403423591A2C
:103CA000CD402843002A1EDB012340001843DEE7F5
:103CB0001E29CBD10028C9D1114B9C42C6D1114835
:103CC000D5E70028C2D110488446200063449840BC
:103CD000031EBBD18020E40200061F332043591A83
:103CE000C840002AE0DA0123404240001843BEE702
:103CF0000E20BCE71050020001FCFFFFEDFBFFFFB0
:103D00000000D0C1010000800DFCFFFF70B503680A
:103D100082B01B6A984701A9FFF750FE04000D000E
:103D2000002200232000290016F03EF9002827D1A8
:103D300001226E0076085242144B2000310018F028
:103D400089FF00281AD10122104B52422000310075
:103D500016F044F9002811D1802300225B032000D3
:103D6000310018F077FF002808D1802300225B0380
:103D70002000310016F01EF9002801D00024044D67
:103D800020002900FFF75AFF02B070BDFFFFEF7F50
:103D90000000F87F10B518F0AFFFFFF74FFF10BD20
:103DA00070B503680400DB6A9847051E13D0FFF75F
:103DB000F9F8002811D1236820001B6A984723686E
:103DC00006005B6A200098473618B54203D00023EE
:103DD0000120184370BD0E20FCE743005A109042AA
:103DE000F6D0FFF7D7FFF5E710B50E23002802D075
:103DF000FFF7D6FF0300180010BDC04610B500281D
:103E00000AD0FFF7CDFF04000E2805D0C30705D563
:103E10006010FFF7CBFC00E0024810BD024809F03B
:103E2000EFFAF5E76C5002007103000010B518F0CE
:103E3000CFFFFFF703FF10BD430010B55A109042AB
:103E400002D0FFF7A7FF10BD01201843FBE7C046D3
:103E5000064B10B5984203D801234000184310BD0B
:103E600018F084FFFFF7EAFEF9E7C046FFFFFF3FC7
:103E7000431E98414342382018400A307047C046DC
:103E8000F8B54E464546DE4657460023E0B51600D7
:103E9000002205000C0016F08DF8002806D02D2316
:103EA000337080231B069C460136644400220023A5
:103EB0002800210016F078F8002809D0302333704C
:103EC000002373703CBC90469946A246AB46F8BDB1
:103ED000280021001AF03AFC18F0D8FE724A0700B8
:103EE000724B2800210016F065F800285DD1704A59
:103EF000704B2800210016F071F8002855D17B1C6A
:103F00009B460E2F00DCC4E00E235B429946B94469
:103F10004A460020684916F01DF902000B002800EF
:103F2000210017F0D3FC0022644B17F0B3F916F010
:103F30008DF90B000F2149428A4610318C465946B3
:103F40000200BA4400295BDD2E215D4F5D4D6837CC
:103F500001205D4C88469D421BD89D425FD0302198
:103F6000121BAB4101319D4202D8F9D19442F7D9DD
:103F7000CCB234701400711C1C4310D183455EDD3B
:103F80000F285CD03C687D680130083F0E009D42E0
:103F9000E3D9302434701400711C1C43EED08345E7
:103FA000EED14446B11C7470EAE7002F3BDB3A00C7
:103FB0000020414916F0CEF802000B002800210035
:103FC00017F084FC0C0001218B4600210500894676
:103FD0003E4A3F4B2800210018F082F80022374B60
:103FE00017F058F916F032F90B00012149428A46C0
:103FF0000021BC464F468946594602000029A3DCF1
:1040000030212E2031707070B11CFE43002E3ED046
:104010008E190230087001318E42FBD194E7944230
:104020009DD93024B6E77A420020234916F092F851
:1040300002000B002800210018F052F8C2E74B469E
:10404000002B0FD0524600233020541CC85401339B
:10405000E21A002AFADC5346DB435246DB171340D0
:104060000133C9186346012B0CD065230B706346DE
:10407000002B0ADD2B228B1C4A70190060460AF0C7
:10408000F5FF1FE700230B701CE74B1CF5E70E0044
:104090005AE70E220020D21B074916F05BF8B946FA
:1040A00002000B00012795E78DEDB5A0F7C6B03EE5
:1040B00050EFE2D6E41A4B44000024400000E03FF9
:1040C000084B0200F35A000000407A100000901ED6
:1040D000C4BCD642012070B54042FFF741FB04004A
:1040E0000D48FFF73DFB0600200018F03FFE0022C0
:1040F0000A4B17F0F5FF040030000D0018F036FEF3
:10410000074A084B17F0E2FB02000B0020002900D1
:1041100017F0C0F870BDC046FFFFFF000000F03D83
:104120000000E0DFFFFF6F4310B5FFF7D3FFFFF79D
:1041300085FD10BD4843704710B515F039FE10BD20
:1041400010B50C2001F004FC041E01D002F026F88A
:10415000200010BD0089704710B5043001F08EFFBB
:1041600010BDC04610B50A000430818801F06CFF14
:1041700010BDC04610B5043001F08EFF10BDC04622
:1041800003894268994202D289008858704700200A
:10419000FCE7C04610B5043001F056FF10BDC04624
:1041A00010B5043001F088FF10BDC04610B50430D2
:1041B00001F0A6FF10BDC046024B1B68588CC00022
:1041C0007047C046480300207047C0461E4B70B57C
:1041D0001B6804000D00002B16D0586A002818D068
:1041E00003689C422ED0002B13D00300002108331B
:1041F00002E00833002A0CD01A680231A242F8D13A
:1042000001318900405870BD104B114A1968914224
:1042100016D003F05FFB002810D003689C4211D039
:10422000002B0BD003000021083302E00833002AE2
:1042300004D01A680231A242F8D1E1E72800E2E78F
:104240005B68CAE70421DDE74803002060450200FF
:1042500010420000406870474160704710B5082068
:1042600001F076FB041E01D001F0A0FF200010BD7C
:1042700070B505000C00160000290EDB83889942FA
:104280000BDAA4002C19E368002B03D00B2105489E
:1042900001F0ECFF2800E66070BD0A21014801F042
:1042A000E5FFEEE78603000010B509F0A9F810BDA0
:1042B000002805D0034BC31A5A1E93415B42184095
:1042C0007047C0466C500200431E98417047C0467C
:1042D00010B5142001F03CFB041E01D001F06EFF6C
:1042E000200010BD10B5040001F072FF002806DBAD
:1042F000238AE268984202D28000805810BD0020D4
:10430000FCE7C046F0B5C646204B00B51B68070069
:10431000DB6A1A1D1C689B689046651E984220D374
:10432000AB009B5898421CD8002D15DD6410A300EB
:104330009B58984211D0012209E0621CAA420BDC72
:10434000414654196410A3005B589F4205D09F4218
:10435000F3D8651EAA42F3DD0024200004BC904679
:10436000F0BD002DF8DD012602E0651EB542F3DB4D
:10437000424674196410A30098583900FFF7EAFA0E
:104380000028EAD0F1DA661CF0E7C04648030020B6
:10439000044B10B51B680131DB6A8900C958FFF76F
:1043A000A1FF10BD48030020F8B504000D00170060
:1043B000260001F00DFF0C36002805DB01003A0055
:1043C000300001F041FEF8BD2189201D2A0001F0D6
:1043D0003BFE218A3A00300001F036FEF3E7C0468A
:1043E000044B10B51B680131DB6A8900C958FFF71F
:1043F000DBFF10BD48030020014B18687047C04622
:10440000440300207047C04610B583070BD1002835
:104410001CD00122036804249343DA78F92A00D1DE
:104420009C78200010BD002810D0C3070CD40E28A3
:104430000AD042280CD00A280AD004240628F0D03A
:10444000044808F0DDFFECE70224EAE70024E8E78F
:104450000124E6E72103000070B504000E2819D0FE
:10446000002817D083070CD019E0032812D12000B0
:10447000FFF74CFC04000E280CD0002C0AD02C4274
:104480000DD12000FFF7C0FF05000228EDD16268C2
:10449000A36801E00022064B1000190070BD200047
:1044A00000F008F818F028FC02000B00F4E7C04602
:1044B0000000F87F70B5C30748D4830703D5801187
:1044C000431E984170BD00283ED0FFF7C5FF012272
:1044D00005004C0064080E005242224B28002100C7
:1044E00018F0B8FB00282FD101221E4B52422800A1
:1044F000210015F073FD002826D1802300225B03E4
:104500002800210018F0A6FB00281DD180230022DE
:104510005B032800210015F04DFD002814D1280070
:10452000310019F0F1FC00220F4B1AF01BF80022A9
:10453000002304000D0015F03DFD002808D12000E7
:10454000290015F065FEBDE70020BBE74010B9E784
:10455000200029000022044B16F09CFE04000D00F0
:10456000EDE7C046FFFFEF7F0000F04110B5FFF719
:10457000A1FF10BD70B50D00FFF79CFF04002800DF
:10458000FFF798FF1F2318408440630020005A1053
:10459000944202D0FFF7FEFB70BD01201843FBE7F9
:1045A00070B50D00FFF786FF04002800FFF782FFBB
:1045B0001F2318400441630020005A10944202D087
:1045C000FFF7E8FB70BD01201843FBE770B50D0055
:1045D000FFF770FF04002800FFF76CFF6040430006
:1045E0005A10904202D0FFF7D5FB70BD012018434E
:1045F000FBE7C04670B50D00FFF75CFF0400280024
:10460000FFF758FF204343005A10904202D0FFF7B3
:10461000C1FB70BD01201843FBE7C04610B5FFF792
:1046200049FFC04343005A10904202D0FFF7B2FB4B
:1046300010BD01201843FBE770B50D00FFF73AFFEE
:1046400004002800FFF736FF204043005A10904234
:1046500002D0FFF79FFB70BD01201843FBE7C04667
:1046600070B50D00FFF726FF04002800FFF722FFBA
:104670001F231840C440064B20009C4203D801234E
:104680006000184370BD18F071FBFFF7D7FAF9E727
:10469000FFFFFF3F10B50E280DD000280BD0830779
:1046A00004D0FFF707FF16F06BFD10BDFFF7D4FE37
:1046B00018F0E0FBF9E70148F7E7C0460000C07FCB
:1046C00070B50E00FFF7C8FE040030000D00FFF7C4
:1046D000C3FE02000B002000290016F0DBFDFFF7EF
:1046E000ADFA70BD70B50E00FFF7B6FE04003000E5
:1046F0000D00FFF7B1FE02000B002000290017F0AB
:1047000061FFFFF79BFA70BD012213000B40D0B58B
:104710000C00184203D0C3130133012B0FD9FFF74C
:104720009BFE060020000F00FFF796FE02000B0024
:104730003000390017F0D4FCFFF780FAD0BDCB135E
:104740000133012BEBD84C1040106043430059104B
:10475000884202D113431800F0E7FFF71BFBEDE797
:10476000D0B50C0003290ED0FFF776FE060020001E
:104770000F00FFF771FE02000B003000390017F048
:10478000A5F8FFF75BFAD0BDF8B501250C0028426B
:1047900003D0294201D04B100FD1FFF75DFE060078
:1047A00020000F00FFF758FE02000B003000390018
:1047B00019F0D8FEFFF742FAF8BDFFF77BFE0600BE
:1047C0002000FFF777FE0100300015F0D7FB48000E
:1047D0004210914203D00800FFF7DCFAECE72843CF
:1047E000EAE7C04670B50E00FFF736FE0400300061
:1047F0000D00FFF731FE02000B00200029001AF027
:1048000031F8FFF71BFA70BD0123F0B50E0083B03D
:10481000184210D019420ED040104E1086423EDA97
:10482000801BFEF79DFF301843005A1090423CD188
:104830000120184324E0FFF70FFE040030000D00B4
:10484000FFF70AFE06000F0002000B0020002900FF
:1048500015F0C4FB002815D0FFF73CFC3200009097
:1048600001913B002000290017F0ACFE009A019B4B
:1048700017F036FC32003B0016F00CFDFFF7DEF9B6
:1048800003B0F0BD32003B002000290015F08CFB86
:1048900000280DD020002900FFF7D0F9F0E786426C
:1048A0000DD1760030001843EAE7FFF773FAE7E727
:1048B00032003B0026002F0014001D00CCE733001F
:1048C00006001800ACE7C04610B5FFF7C5FD19F0AB
:1048D000B5FEFFF7B3F910BD10B5FFF7BDFD19F038
:1048E00035FFFFF7ABF910BD10B5FFF7B5FD18F0B8
:1048F0005DFFFFF7A3F910BD10B5FFF7ADFD18F090
:1049000077FEFFF79BF910BD10B5FFF7A5FD19F075
:10491000FBFAFFF793F910BD10B5FFF79DFD0022DC
:10492000034B16F0B7FC18F041FFFFF787F910BDF5
:104930000000E03FF8B504000D000E2807D00E2956
:1049400005D0884226D00B000340DB0701D50020AC
:10495000F8BDFFF759FD06002800FFF755FD864218
:10496000F5D123002B439B07F1D1032E14D0022E47
:10497000EDD12000FFF770FD060028000F00FFF7C3
:104980006BFD0B0002003900300015F00DFB431EDB
:104990009841DDE70120DBE729002000FEF7DAFF80
:1049A00043425841C0B2D3E710B5FFF7C3FF431EDF
:1049B00098414342382018400A3010BD10B5FFF727
:1049C000B9FF434258414342382018400A3010BDD5
:1049D000F8B504000D000E2815D00E2913D00628B6
:1049E00013D042283ED00A281AD00300062900D14D
:1049F0007CE0422D0FD00A2D36D001209D4203D0FD
:104A0000284004420FD00020F8BD01200629FBD029
:104A10000023422DEFD103220120934203D1F3E77B
:104A20000123062DE5D12000FFF7EEFC060028004B
:104A3000FFF7EAFC0300032E21D003282DD0012E1E
:104A400014D0012820D09E42DDD122002A439207B3
:104A5000D9D1032B42D0022B26D02C1B60426041BF
:104A6000C0B2D1E70323DCE70122D5E7062C2ED024
:104A70000226422C30D00A2CE3D10124E1E702289F
:104A800012D00328DDD1E0E70223062D1DD0422DF0
:104A900020D00A2DD7D10125D5E7022E04D0012E32
:104AA000B1D1062CE4D1AEE72000FFF7D5FC06001B
:104AB00028000F00FFF7D0FC0B0002003900300087
:104AC00015F072FA431E98419EE70025BBE70226C7
:104AD0000024B6E70325B6E70324B2E72900200047
:104AE000FEF738FF43425841C0B28DE7002293E7FA
:104AF00010B5FFF76DFF10BD10B5FFF769FF431E3E
:104B000098414342382018400A3010BD10B5FFF7D5
:104B10005FFF434258414342382018400A3010BDDD
:104B2000F8B506890F004568002E0DD0002403E07B
:104B300001340435A64207D939002868FFF748FF39
:104B40000028F5D0200001E001204042F8BDC04619
:104B500010B500220400FFF7E3FF0023002805DB67
:104B600004340100200001F0A7FA0123180010BD51
:104B7000F8B5040083071ED100281ED0FFF744FCBF
:104B8000032828D00125022818D12000FFF764FC53
:104B900002000B0006000F0018F05CF800280CD192
:104BA000002300223000390015F0FEF9434258413D
:104BB0004042054002E00A2802D100252800F8BD45
:104BC0000028FAD00E28F8D00628F6D0013C25009F
:104BD0006C1EA541F2E7024B9C42EED00125EDE7A9
:104BE0006C50020010B50300422806D000200A2BAA
:104BF00002D01800FFF7BCFF10BD0120FCE7C04643
:104C0000F8B504000E000E2841D00E293FD0FFF762
:104C1000FBFB05003000FFF7F7FB032D30D0002031
:104C2000B4422CD02000FFF717FC040030000D0028
:104C3000FFF712FC220006000F002B0020002900C5
:104C400018F008F8002822D132003B00300039006B
:104C500018F000F800281AD132003B00200029008B
:104C600015F0A8F9002815D13B00320020002900DA
:104C700015F0B4F9431E9841434201201840F8BD95
:104C80000328CCD131002000FEF764FEF7E70220B4
:104C90004042F4E701204042F1E7C0460B000340E8
:104CA00010B5DB0706D50123884201DAD8B210BD62
:104CB0000023FBE7FFF7A4FF831C01D0C00FF6E73A
:104CC0000020F4E70B00034010B5DB0703D5884252
:104CD00007DD0A2010BDFFF793FF831CF9D00028E1
:104CE000F7DC4220F6E7C0460B00034010B5DB07B7
:104CF00003D5884207DB0A2010BDFFF781FF831C24
:104D0000F9D00028F7DA4220F6E7C0460B0003404E
:104D100010B5DB0703D5884205DB422010BDFFF745
:104D20006FFF0028F9DA0A20F8E7C0460B000340BD
:104D300010B5DB0703D5884205DD422010BDFFF723
:104D40005FFF0028F9DC0A20F8E7C04670B590B094
:104D50000400FFF759FB032835D002280DD00528A1
:104D600040D0002C42D00A2C3AD00E2C3CD0422C01
:104D700051D0062C51D02B4826E0E30726D40E2C28
:104D800032D02000FFF768FB01224C0064080E00BF
:104D90005242254B2100050017F05CFF002827D167
:104DA0000122214B52422800210015F00DF9002864
:104DB0001ED1002200232800310015F0FBF8002846
:104DC0002DD11A4800E0200010B070BD6946601077
:104DD0000AF04CF9012168464942FEF775FBF3E7FA
:104DE0001348F1E71348EFE71348EDE71348EBE703
:104DF0002A0033002800310017F02CFF0028F3D1DF
:104E0000280031006A46FFF73BF801216846494215
:104E1000FEF75AFBD8E70A48D6E70A48D4E70A481B
:104E2000D2E7C046E4500200FFFFEF7F945002003B
:104E3000D8500200F4500200A4500200505002006A
:104E4000CC500200C0500200B050020010B5FFF775
:104E5000DBFA05280FD80A4B80001B589F460948EB
:104E600010BD0948FCE70948FAE70948F8E709488E
:104E7000F6E70948F4E7094808F0C2FA0020EFE72E
:104E8000284E0200845002004050020008510200E7
:104E90002851020018510200745002002203000041
:104EA00070B50400FFF7B0FA042813D1002C0CD021
:104EB000A3070AD1216801230A009A4353691348C2
:104EC00083421DD02000984770BD210010480AF091
:104ED000E9FAF9E72000FFF739FF05002000FFF7A6
:104EE000B5FF03681B6A98472B6806001B6A2800F9
:104EF000984722000300310006480AF0D3FAE3E79E
:104F00001388054812890AF0CDFADDE7A14E0000AA
:104F1000A44F0200D04F0200B04F020010B50A00AB
:104F20000400010010480AF0BDFA002C0BD0A307C2
:104F300005D1012321689943CB78F92B0DD0062C9C
:104F400001D10A4806E02000FFF75EFAF5239B0036
:104F50009C46604408F054FA10BD0B898A780448D6
:104F60000AF0A0FAEBE7C046404E0200DD03000065
:104F7000604E020010B5010003480AF093FAE420E5
:104F8000800008F03DFA10BDCC4E020010B501F0D3
:104F90001DFC0400102000F0ABFD236903602061BC
:104FA00010BDC04670B501F011FC04690500002C6D
:104FB00005D0236820002B6100F0AEFC70BD0248D4
:104FC00008F01EFAF5E7C04653030000F0B5C646E8
:104FD00000B584B0804601F0F9FB04690600002C9E
:104FE00017D06D462368220033612B0083CA83C328
:104FF000126820001A6000F08FFC434673610A4B70
:1050000031001B6828009B6B984704B004BC904695
:10501000F0BD06480AF046FA4046FFF741FF044853
:1050200008F0EEF9DDE7C04648030020804E02009C
:10503000E703000010B501F0C9FB12234469436186
:10504000122C01D0200010BD014808F0D9F9F9E771
:105050005303000010B501F0B9FB4369122B03D0D4
:10506000FFF7E8FFFFF7B2FF10BDC046002912D0DE
:1050700002004118094803041B185B001B18DB00E1
:105080001B18DB001B185B001818137801325840FE
:105090008A42F0D170470148FCE7C046C59D1C819B
:1050A000032370B5046805009C4312D0A30F14D1EC
:1050B0002800E36998470500002D05D080231B02D6
:1050C0009D4204D9002C02DB054808F099F928001C
:1050D00070BD044808F094F9EAE72501AD09EBE753
:1050E0004903000051030000124970B58A880B681B
:1050F000551E0FD3AC00E458A04217D0023A9200DC
:105100009B182A0004E01C00043B5E68864206D01F
:10511000013AF8D2D220800008F072F970BD9542B1
:1051200004D0080000F030FF2060F7E7080000F02E
:105130002BFFF3E71C03002010B518210148FEF7F0
:10514000CFFA10BD2403002001220368934318887E
:105150008010704710B5002815D0C468002C13D0FB
:105160002368043C4360A3688360E3682268C360EB
:10517000530F032B03D0114808F042F92268802313
:105180001B061343236010BD041F2268530F032B1B
:1051900007D180231B0613432360002001F020FB6E
:1051A000F1E7064808F02CF9802322681B06134318
:1051B0002360002001F014FBE5E7C046490300002E
:1051C00010B5041F2368DB0715D40D4B1B68002B9B
:1051D0000DD01A0008329442F8D359688C466244C4
:1051E0009442F3D2012322681343236010BD054883
:1051F00008F006F9F6E7044808F002F9E5E7C046CA
:10520000100300204A0300004F03000010B5040003
:1052100083070AD1002808D0030F06D00168114B7C
:10522000194202D1CB78F92B00D010BD0E4B1B6870
:10523000002B11D01A0008329442F8D358688446E3
:1052400062449442F3D201230848194321608188C3
:10525000220000F085FEE8E7054808F0D1F8216853
:10526000F1E7C046030000401003002008030020BF
:105270004A030000F0B54F46D64646468146C0B5C3
:105280000F1E3FD0244B06009A46244B002598461B
:1052900003E001350436AF4234D03468A307F8D1B7
:1052A000002CF6D0230FF4D021681D4B1942F0D109
:1052B000CB78F92BEDD153461B68002B27D01A0071
:1052C00008329442F8D35868844662449442F3D238
:1052D000012319434346216099882200404600F08B
:1052E0003FFE43469B88642BD3D90C200AF026FE50
:1052F0000C4A0135136810600360AB004B447D1B02
:10530000436085601CBC90469946A246F0BD0648A5
:1053100008F076F82168DBE710030020080300207E
:1053200003000040140300204A03000070B5046825
:105330000500002C06D02000FFF742FFA9882000BE
:10534000FFF798FF70BDC046F0B5C646040000B533
:1053500083070AD1002808D0030F06D00168234B29
:10536000194202D1CB78F92B02D004BC9046F0BD93
:105370001F4B1B68002B34D01A0008329442F8D31C
:105380005868844662449442F3D201230B4323605D
:10539000032399438B69002B01D0200098470323F6
:1053A0009846144C144DA388002B0FD12868002870
:1053B000DBD00368876846682B600AF0E9FD390096
:1053C0003000FFF757FFA388002BEFD0200000F03C
:1053D000DBFD4246036893439B69002BE3D098476B
:1053E000E1E7064808F00CF82168CEE7030000402A
:1053F0001003002008030020140300204A030000CB
:10540000F0B5DE4657464E464546E0B59B4B85B067
:105410001B7803909A0705D5D220800007F0F0FF93
:10542000964B1B78022202261343944A1370944B26
:105430001C689D88039B1E4007D092480AF032F8F2
:105440002A00210090480AF02DF8002D0CD00127E9
:10545000AD0065192068384201D0B84300680434B3
:10546000FFF772FFA542F5D1039801F0BFF9874C11
:105470002368002B14D0864B1B685D8D00F010FF55
:10548000AB00471B2568ED18002E00D0E8E0002F88
:1054900006D0002401CD0134FFF756FFA742F9D111
:1054A0007C4B1D687C4B1E78002E06D0002401CD5D
:1054B0000134FFF749FFA642F9D80023774A136069
:1054C000774B774A1B68009301331360754B1B6859
:1054D0009946002B00D1CCE0002301279A469B4639
:1054E000019302934B46029A5B6894469B084D4693
:1054F0009C449E0063460835AE190293B5424AD2D9
:105500002B683B4200D088E01A0F062A00D184E0C5
:10551000AE4200D890E08022D2052C00904600E0F8
:105520002368002B10DB3B4215D11A0F062A12D03C
:105530004246134208D1DB78F92B02D05A4807F0D3
:105540005FFF200000F0F0FC2000FFF7A9FD8000C5
:105550002418A642E4D88021631B98469B109A0029
:1055600009061143009101999A44994200DA019386
:10557000FF21280007F016F9009B2B604346042BFF
:1055800053DD00236B605B46002B50D05D60AB4663
:105590002500AE42B4D84B461B689946002BA1D1DA
:1055A0005346424C9900029B20689A00019B9B0045
:1055B000002814D05046470838480568002D0ED002
:1055C00028680601B609B74206D242E02868000101
:1055D00080093618B7423DD36D68002DF6D13048AA
:1055E000C16003614069002814D0884212D8039832
:1055F000C00702D52E4809F055FF02221F4B1B7829
:1056000093431E4A137005B03CBC90469946A2468F
:10561000AB46F0BD22484161E9E7BB432B6028005F
:10562000FFF73EFD80002D18B3E72500B1E71B4BC7
:10563000AB461D602500ACE7019B002B05DA8023FB
:105640001B062B6000230193A3E780231B062B601E
:105650009FE73000C019801B800028182060BEE73B
:105660003A002900134809F01DFF002F00D010E771
:1056700016E7002300220021B1E7C0464A0A0020B5
:105680001C0300206C5102007451020044030020EE
:10569000480300203C0300204B0A00204003002068
:1056A00024030020100300204903000018030020F9
:1056B0008C51020080510200F0B5C646484E00B53C
:1056C0003368002B09D01B68002B00D174E0022046
:1056D000FFF796FE152007F093FE0021CF20FEF77E
:1056E00075FD802180464901CE20FEF76FFD050043
:1056F00000200AF0B9FB2A0004000100394809F033
:10570000D1FE4346651B0027002B3FD128000AF03D
:1057100015FC2900040008394160876122003248E5
:1057200009F0C0FE63689A0740D1304A51680131E0
:1057300051609168C91891602D49DA1C114080228E
:1057400012060A432B49A2600A689B08E260220005
:1057500008320A60D3183168274A1360002910D034
:10576000A1420ED80A68002A34D0944203D234E011
:10577000A34203D81A001368002BF9D123601460E8
:1057800001E02160346004BC9046F0BD1B4B4246F2
:105790009C466444E40BE30394021C1B002CB5DD1F
:1057A00020000AF0CBFB2D1B0700AFE7D2208000C2
:1057B00007F026FE6368B8E70021CD20FEF706FD5E
:1057C0000F4BC318002B00DC81E70E4B0E4CC118A9
:1057D0006160A3E700230A00D0E713000A00CDE7C9
:1057E00010030020A8510200C85102002403002029
:1057F000FCFFFF7F4003002018030020FF7F000014
:10580000FC7BFFFFF47BFFFF0084002010B5002825
:1058100019D00F4B1B68002B16D01A00083290428B
:10582000F8D359688C4662449042F3D2041F226830
:10583000530F032B03D0074807F0E2FD22688023B3
:105840001B061343236010BD0AF0A2FBFBE7C04612
:105850001003002049030000F8B5CE46474680B546
:1058600007292DDD00282BD00323033199430C0099
:10587000071F0020FFF7C4FDE31D98469E08224B3A
:105880001C68002C1CD0032399464B461C4201D1B6
:10589000230F02D11D4807F0B3FD2568002D02DB60
:1058A0001B4807F0ADFD3A1B9310072B05DD2D01BA
:1058B000AD09AD1BED1A072D08DC6468002CE4D19E
:1058C000002420000CBC90469946F8BDF61860688C
:1058D000B600A61970608021032009068243AD003E
:1058E0000D430A433560226042460A499B000A4044
:1058F0001100C022D20566601143E41802C40020E2
:10590000FFF77EFDDDE7C0464003002051030000A5
:105910004B030000FCFFFF9F70B5041F22680500C9
:10592000530F032B03D0054807F06AFD226880233C
:105930001B0613432800236070BDC04649030000C6
:105940000421024A13780B43137070474A0A00205F
:10595000F0B55746DE464E4645468023E0B5C71CA7
:1059600085B00390BF089B02984200DD8EE04D4B4E
:105970005B68DB0565D14C4B02931B781A0762D13B
:1059800001221343029A137000F020FF002803D075
:105990004368002B00D180E0444B00269B46444BDB
:1059A0009A46444B99465B461D68002D51D0002312
:1059B000984602E0A8461D1E4BD0002E03D14B4650
:1059C0001B68AB424ED3AB0701D12B0F02D13A4833
:1059D00007F016FD2C68002C02DB384807F010FD9C
:1059E0002401A409E41B6B68E4D40AD08022BF0020
:1059F000A1001206EF190A433A60012C01D07B6026
:105A00003B004246002A45D0536000222A60002B0A
:105A10000AD05B68002B07D09A0701D11B0F03D176
:105A2000D420800007F0ECFC0122280002990B78BA
:105A300093430B7005B03CBC90469946A246AB46DA
:105A4000F0BD194B02931E4807F0DAFC029B1B784D
:105A500096E7002E06D0012E09D0152007F0D0FCC5
:105A60000136A0E70020FFF7CBFC01369BE7534649
:105A70001B69524600935346D2689B6803991148AC
:105A800009F010FD0136FFF717FE8CE7162007F02E
:105A9000B7FC6CE75A461360B7E70B4807F0B0FC59
:105AA0007AE7C04600ED00E04A0A002040030020EB
:105AB0002403002018030020510300004B030000C2
:105AC00092030000385102004E030000032310B57A
:105AD000C41C9C43201DFFF73BFF044B07341C40B4
:105AE0008023DB051C4310C010BDC046FCFFFFBF78
:105AF00010B5002808D0FFF7E9FF8023021F1168C6
:105B00009B050B43136010BD0020FCE7F8B51F4B4D
:105B100006005B680D00DB0534D100F057FE1C4B1E
:105B20001C4F1D60751BAD10041E3D7015D00C2060
:105B3000FFF7CCFF8023021F11689B050B43136006
:105B400063680360A3684360E3688360E0600023E8
:105B5000A6603B7020006360F8BD1820FFF7B6FF19
:105B60008023021F11689B050B4313600A4B12220E
:105B70001B68426103600023C3600361040000F0FE
:105B80002FFEE4E7054807F03BFCC6E700ED00E028
:105B90003C0300204B0A0020440300209203000035
:105BA0000C4B10B55B68DB050ED10B4B1B78002B43
:105BB0000AD100280BD0FFF789FF8023021F11684C
:105BC0009B050B43136001E00AF0B8F910BD0020FB
:105BD000FCE7C04600ED00E04A0A0020F8B50400EA
:105BE0000D00204B1B68002B23D01A000832944272
:105BF000F8D359688C4662449442F3D22800FFF7E8
:105C0000CFFF0600002C12D0002E10D0271F3A68BC
:105C1000530F032B1CD1120192099200AA420ED8F5
:105C20002100300005F092FB2000FFF7EFFD30006F
:105C3000F8BD290020000AF0D9F90600F7E72A008C
:105C40002100300005F082FB2000FFF7DFFDEEE7CA
:105C5000054807F0D5FB3A68120192099200AA4262
:105C6000DED9ECE7100300204903000070B50029DD
:105C700009D0012908DD4C1E051D0121FFF7F6FFA3
:105C80002800013CF8D270BD0122024302488188FD
:105C900000F066F9F7E7C0461C03002010B5830743
:105CA00003D1002801D0030F00D110BD034B020027
:105CB0009988180000F054F9F7E7C0461C0300204B
:105CC00010B5830703D1002801D0030F00D110BD08
:105CD000FFF70AFAFBE7C04610B54068FFF796FAEF
:105CE00010BDC04610B50430FFF720FB10BDC04604
:105CF00010B581880C30FFF7BDFA10BD10B54068B3
:105D0000FFF784FA10BDC04610B504000430FFF759
:105D10000DFB20000C30FFF709FB10BD012208C865
:105D200010B59343198804398908FFF7A3FA10BD09
:105D30000320704703207047808880000F30800860
:105D40007047C04602207047052070470023034A71
:105D500013605360024A1360536070471C030020B5
:105D60000803002010B500F0EFFC10BD10B50028AE
:105D700001DB00F0E1FC10BD7047C046002343602A
:105D800083607047002343608360C3600361704792
:105D900010B5054A0100838812688068821A03489A
:105DA00009F080FB10BDC04648030020C452020029
:105DB00010B501004268024809F074FB10BDC046EE
:105DC000DC51020010B501000289024809F06AFBAB
:105DD00010BDC04674520200F8B50400C0880D0022
:105DE000884224D2002831D03F282DDD204B984214
:105DF00035DD01301F4BFF30984236D82E008542EA
:105E000000DA0600B0000AF099F80700E0880028E0
:105E10001ED1321A800092000021381806F0C2FC10
:105E200020680AF0B5F82760E680A580F8BDA28852
:105E30009142FAD22368521A9C468800920060442C
:105E4000002106F0AFFCF0E74000D7E70420D5E7DB
:105E500082002168380005F079FAE088D9E78300EC
:105E60001818032113F0A4FFC8E70348C6E7C0468B
:105E7000FF010000FEFF0000FFFF00007047C0466A
:105E80007047C046012370B50A6804009A4313891D
:105E90000D00042B07D010480122104909F002FB25
:105EA0000E4807F0ADFA002C01D1280070BDE01CAF
:105EB0008000FFF74DFD061E01D0094B0360300046
:105EC000AB682204B480B360920B0C30002106F062
:105ED00069FC3500E9E7C046B452020085030000C2
:105EE000285202000E4B026970B505009A4209D093
:105EF000E2210C480322890009F0D4FAE220800054
:105F000007F07EFA2888FFF723FD041E00D0056005
:105F10002A88201D043A002106F044FC200070BDB0
:105F2000795D0000B4520200012310B502689A4363
:105F30001369984710BDC046012310B502689A4303
:105F40001369984710BDC046012310B502680100CF
:105F50009A431288014809F0A5FA10BD0C520200BC
:105F6000084B70B505000C001600994205D88388CF
:105F70008B4203D92B68A400E65070BD0131FFF7B6
:105F80002BFFF7E7FEFF00008388002B09D0013BC1
:105F900002689BB283809B00D318002218681A60A5
:105FA00070470020FCE7C046F8B5C58806000F0022
:105FB000002D29D03F2D0FDD204B9D422BDD6B1C8A
:105FC0001F4AFF33934224D81C1C9BB28B4208D338
:105FD000A4B2A54207D3F8BD6B001C1C9BB28B4238
:105FE000F6D23C1CF4E7A000FFF770FD0500F08836
:105FF00000281BD1221A800092002818002106F0E8
:10600000D1FB3560F480E6E70C1C0429E0D20424BF
:10601000DEE70C4CDDE7A8004019032113F0C8FEB1
:10602000041C80B2B842D3D23C1CD1E78200316854
:10603000280005F08BF9F088DCE7C046FF0100007E
:10604000FEFF0000FFFF0000C38870B505000C00D4
:1060500016008B4207D8084B994200D970BD013118
:1060600089B2FFF7A1FF2A68A3009E50AB889C422B
:10607000F4D30134AC80F1E7FEFF0000C38870B5B3
:1060800004008DB28B4201D2AB4201D9A58070BD14
:106090002900FFF789FFF9E78388002B09D0013B2E
:1060A00002689BB283809B00D318002218681A6094
:1060B00070470020FCE7C046F8B5828805008A4298
:1060C0001AD903688E0098194F1C0468BA4207D881
:1060D0000021013A92B2AA809200D1502000F8BD6E
:1060E000521A06498C46311D6244920059181EF01E
:1060F000B5F9AA882B68EBE70024EFE7FFFFFF3F25
:10610000F8B51700828804000D008A4218D9511C86
:10611000C38889B28B420FD96B1C9B0020681E1F5D
:10612000521B81199200C0181EF098F923689F51E4
:10613000A3880133A380F8BDFFF736FFA288EBE701
:106140003A00FFF781FFF6E770B50500C388828843
:106150000168094809F0A6F9EB88002B0BD0002450
:10616000064E2A68A3009958300009F09BF9EB8885
:106170000134A342F5D870BD88520200AC5202002F
:1061800010B5040002890100034809F08BF9201DB5
:10619000FFF7DAFF10BDC046F0510200024B03606A
:1061A000002343608360704740530200024B03604A
:1061B000002343607047C04610530200034B036046
:1061C000002343608360C36003617047E0520200B4
:1061D000F8B54746CE4680B507890C004668002FC3
:1061E00036D0336899423CD0331D002004E004339C
:1061F0001A1F1268A24225D00130B842F7D3236893
:1062000020005B6A9847236880461B6A20009847F5
:106210000024814635682B6828005B6A98478045D2
:106220000AD12B6828001B6A98474246010048465D
:106230001EF005F9002809D001340436BC42E9D328
:10624000012040420CBC90469946F8BD2000F9E779
:106250000B6808005B6A9847236820001B6A984710
:10626000EEE70020EEE7C0467047C04610B50400D8
:106270000A000100034809F015F9200007F0C0F8F2
:1062800010BDC046B4520200014B1B68186970472C
:1062900048030020014B1B689869704748030020A1
:1062A000014B1B68188C704748030020014B1B688A
:1062B000D86B7047480300201D4B026870B506007C
:1062C0009A4200D0FEE741681A4D1B4B0A682960CC
:1062D0009A4213D0088C8000FFF70AFC2B68174CF9
:1062E0001A8C00219200206006F05CFA23681C6082
:1062F0002C68134B22689A4208D0FEE711481031EF
:1063000009F0D0F8104807F07BF870BDB368226937
:106310009A42F2D100F0FCFA2B6820001C6B00239B
:1063200040301A001900A04700F002FAEDE7C0461D
:106330001042000048030020718E3B92440300206D
:10634000708E3B92585202009F03000010B5024825
:10635000FFF7B2FF10BDC0466045020003000020F9
:10636000002B07D09A0705D101221B689343DA78E6
:10637000F92A00D070471889063843425841C0B204
:10638000F8E7C04670B505000C20FFF7E1FA041EDF
:1063900004D0164B0360002343608360002D08D0B7
:1063A000AB0706D101232A689A431300D278F92A51
:1063B00001D0200070BD0E4A9342FAD12E89002EE2
:1063C000F7D02000FFF76AFC63899E4203D9201DA5
:1063D0003100FFF7E9FD2681B2006968606804F0CA
:1063E000B5FF2000FFF76CFCE3E7C0464053020016
:1063F000E052020070B504000D00002801D08307B0
:1064000013D00F4806F0FCFF29002000FFF7E0FE44
:10641000051E08DB2900201DFFF74EFE2000290085
:106420000C30FFF749FE422070BD012302689A43F9
:106430001300D278F92AE4D1024A9342E4D0E0E78B
:106440009B030000E052020070B50E00FEF704F856
:10645000040030000D00FDF7FFFF02000B002000DC
:10646000290017F013FFFDF7E9FB70BD10B5FDF72C
:10647000F3FF17F09DFCFDF7E1FB10BD10B5FDF734
:10648000EBFF17F04DFCFDF7D9FB10BD10B5FDF784
:10649000E3FF17F041F9FDF7D1FB10BD10B5FDF793
:1064A000DBFF16F011FFFDF7C9FB10BD10B5FDF7BE
:1064B000D3FF17F08DFEFDF7C1FB10BD10B5FDF742
:1064C000CBFF17F0CBFDFDF7B9FB10BD10B5FDF705
:1064D000C3FF18F0F1FBFDF7B1FB10BDF0B5C646E8
:1064E00000B5030282B00F001B0E00D01F00FA237C
:1064F0000004040C1B01E618300000F0C7FE051E66
:1065000004D0280002B004BC9046F0BDF0233B400C
:10651000102B1ED0202B19D000229046302B02D0F9
:106520000D4806F06DFF200000F094FE04001820D6
:106530001DF065FF434601930F231F40B2B2009741
:106540000E3B210005000BF069FADAE702239846BA
:10655000E9E701239846E6E72303000070B50D0044
:1065600001214942FDF732FE0400431C04D02900FA
:106570002000FFF7B3FF70BD014806F041FFF6E7CA
:106580008B030000F0B5C64600B50500884617002D
:106590001E0000F07BFE041E03D0200004BC9046C9
:1065A000F0BD31004046FFF799FF310080463800CA
:1065B000FFF794FF060010201DF021FF4146040064
:1065C000ABB2B28889880CF085FD404600210BF003
:1065D00057FA300000210BF053FA012120000CF093
:1065E0000FFDDAE7012170B5494204000420FDF7F0
:1065F000EDFD0121050049420520FDF7E7FD2021C1
:106600000600CA20FDF7E2FD002C0AD0012C12D0B2
:10661000022C0BD10300320029000320FFF7B2FF48
:1066200070BD01002800FFF759FFF9E7044806F0A4
:10663000E7FE0020F4E701003000FFF74FFFEFE72F
:106640008D03000010B52021007CFFF747FF10BD2F
:1066500010B51023808800F0C7F910BD036810B58D
:106660009B699847431E9841C0B210BD10B509F010
:1066700079FD431E9841C0B210BDC0468088704766
:1066800010B5044B00221B6800211C6B0023A0479F
:1066900010BDC04648030020F0B5CE464746060070
:1066A00080B585B000900191029287B21022360C1D
:1066B00069461248039304F049FE31003800FCF7A4
:1066C000C3FE04003000FDF7B7FB8046002C10D05D
:1066D0000B4B99464B461B6800221D6B414600231D
:1066E000E068A847206832003900FCF79BFE041ED2
:1066F000F0D105B00CBC90469946F0BDD002002008
:106700004803002010B5FFF7DBFA09F0FBFA10BDD3
:1067100070B50600054D2B6800221C6B002100237C
:106720003000A047142009F079FAF4E7480300206C
:1067300010B509F0E7FA10BD10B509F06FFA10BDF9
:1067400010B508F0CFFB10BD10B5041E06D0FFF742
:10675000A5FA034A2100034809F05CF910BDC046C0
:1067600035FD00001167000010B5041E06D0FFF7CC
:1067700095FA034A2100034809F04CF910BDC046C0
:10678000056700008166000010B589B280B209F08B
:106790006BFA10BD054B10B51C68FDF70DFD044BE1
:1067A0009C4664442018400A400210BD4803002063
:1067B000FF01000010B508F0B1FB10BD10B50AF0E4
:1067C00043FF10BD10B50AF04FFF10BD034B1B680F
:1067D000002B01D0186A70470020FCE70009002058
:1067E000014B1B681862704700090020F0B54E4647
:1067F000DE4657464546E0B53C4B87B099461B6898
:106800000290002B6AD0002008F090FE8500040062
:10681000280009F093FB039008F088FE844258D1C9
:10682000002C3CDD039B9A460023554401950093C0
:1068300053461F683E6A002E2BD07069FEF784FD18
:106840000223029A043613409B464B461B68346869
:106850009F422ED03868BD6808F076FB4B461B6817
:106860002D1A641975689F4207D0BB68386898462E
:1068700008F06AFB4346181A2D185B46002B03D01C
:106880001BE001CCFEF760FDA542FAD8B668002EE9
:10689000DBD104239C46019BE2445345C8D10398B5
:1068A00009F076FB07B03CBC90469946A246AB4641
:1068B000F0BD5B467568002BE6D0009922004B1CAA
:1068C00098462B1B9B100A4808F0ECFD43460093AA
:1068D000DAE7CB20800006F093FDA1E7012009F064
:1068E0002DFB0590059809F053FBDBE7000900201C
:1068F0008053020010B500F05BFF040030201DF053
:106900007EFD0123002221000AF01AFF10BDC046BF
:1069100070B5FFF7EFFF00F0DFFF1E4B1B681C8D0B
:10692000002C27D11C4808F043FF1C4C1C4E651C52
:10693000FF3502E00434AC420AD020680028F9D0C8
:1069400003681B68B342F5D004349847AC42F4D1D5
:1069500001F03AF801210D204942FDF737FC00F023
:1069600079FC002803D0036800211B68984700F0D9
:1069700089FF70BD21000B48FEF76EFF2100050066
:106980000200094808F08EFD002DCBD1142006F03E
:1069900037FDC7E7480300204C030020FC0300201C
:1069A00079220000002000207053020010B5084832
:1069B0000DF0ECFA074C20000CF068F8064A074985
:1069C00020001DF015FD064B064A1A6010BDC0469A
:1069D000D00200204C030020B4000020D129010087
:1069E00070030020CC570200F0B557464E4645468E
:1069F000DE46E0B58DB004000D0016001F00FCF768
:106A000023FD00280BD0320029002000FCF730FDC8
:106A10000DB03CBC90469946A246AB46F0BDBFB215
:106A20000F2C01D1C02F10D128201DF0E8FC824688
:106A30001E4BA1B2AAB2009709F0F4FA1C4B5146C2
:106A400018000BF0F1FE002828D1002DDBD1012128
:106A500020004942FCF7F8FC071ED4D0A3B29B46A5
:106A6000124B9946124B984610239A4653463A8940
:106A70005946009302A84B4609F0D4FA02A94046B1
:106A80000BF088FE02A809F0E7FA012238685242AA
:106A90002100FCF7C7FC071EE8D1B4E7504609F017
:106AA000DBFA50461DF09CFCCFE7C046996600001B
:106AB0004C03002000B585B08AB2012381B268463C
:106AC0000DF042FA05B000BD012110B5494202485F
:106AD000FCF776FD10BDC0468C53020010B50CF0DB
:106AE00025F910BD10B503681B6A984701000248DC
:106AF00008F0D8FC10BDC0469453020010B50368DE
:106B00000C001B6A984722000100024808F0CAFCEA
:106B100010BDC0469C5302000148C000C008704729
:106B200000800020F8B505000E00002826D00029BE
:106B300024D01C4F3C68002C03D10CE0246C002CAA
:106B400009D023689D42F9D163689E42F6D1164868
:106B500008F0A8FC10E0154808F0A4FC44201DF043
:106B60004EFC0400056046603200083029000FF03A
:106B700035FB3B683C6023642000F8BD0C4808F0FE
:106B800091FC012119204942FDF720FB00F062FB36
:106B90000121050049421820FDF718FB00F05AFBBF
:106BA0000600C6E774030020C4530200DC53020051
:106BB000A853020010B5FFF7B5FF083010BDC0465E
:106BC000F0B5C64600B5060082B00D0000201100E9
:106BD00017009846FCF784FD0400FFF75FF8434672
:106BE000220030006D00A9B20832009308303B004B
:106BF0000FF0B2FA05006B425D416D4220002C405F
:106C0000FFF75EF8200002B004BC9046F0BDC0461D
:106C100010B51C0082B04900536889B20832009454
:106C200008300FF057FA02B010BDC04670B5094DDC
:106C30002C68002C01D0200070BD862040001DF083
:106C4000DEFB04000EF06CF8201D21000AF0BEFFF0
:106C50002C60F0E778030020F0B5050083B00C004D
:106C6000FFF7E4FF2B6806001B6A280098472B6893
:106C700007005B6A28009847390002B268460DF0A9
:106C80004FFA694601A80DF067FA220063680832DE
:106C900001A9301D0BF0DCF801A80DF001FA6846DF
:106CA0000DF0FEF903B0F0BD70B5040082B0FFF73F
:106CB000BDFF236805001B6A200098472368060073
:106CC0005B6A20009847310002B268460DF028FA4E
:106CD000694601A80DF040FA281D01A90AF0D6FF67
:106CE000040001A80DF0DCF9002C0ED020002021BA
:106CF0001030FCF7F5FC05002000FEF787FD684624
:106D00000DF0CEF9280002B070BD0025F7E7C046AF
:106D100070B5040082B0FFF789FF236805001B6A85
:106D200020009847236806005B6A200098473100DE
:106D300002B268460DF0F4F9694601A80DF00CFAAC
:106D400001A9281D0BF022F901A80DF0A9F9684648
:106D50000DF0A6F902B070BD10B5FFF767FF043063
:106D60000BF01AF910BDC04670B5D31872B615787D
:106D70000132802441600326013EFDD12C4200D126
:106D800001600626013EFDD10160641004D0E4B22A
:106D90000226013EFDD1EDE79A4200D2E7E762B656
:106DA00070BDC046012110B5494204001320FDF713
:106DB0000DFA00F04FFA001B43425841C0B210BD1B
:106DC000F023F0B5DE464E46454657469446994672
:106DD000E0B556006644B14485B08046484603910C
:106DE00002921DF001FB4A4600210400002605F036
:106DF000D9FC802280237821029886421FDA60180D
:106E0000077817430770571038D0FDB2AA46039D84
:106E10009210AD5D94461D4205D00578AB465546AF
:106E20005A46154305706246002A33D1013140327B
:106E30005B1021D10298013680338642DFDB0022CD
:106E40000021404600F082FD036805001B681549DB
:106E5000984700222B680092DF684A4600232100F1
:106E60002800B84720001DF0BBFA05B03CBC904696
:106E70009946A246AB46F0BDDBB2BDE7039A0131AD
:106E8000925D1A420BD080229246403A8027944667
:106E90006018C2E7BA1003D101318022C8E720226E
:106EA000D2B2C5E7009F2400F8B505000F00160018
:106EB000182A03D9FFF776FF002818D12B68002184
:106EC0001B6828002C7C98471F23012123409940F0
:106ED0000A4B60119C46C001604433003A00FFF742
:106EE00043FF2B6800211B6828009847F8BD32003B
:106EF00039002800FFF764FFF8E7C046144400415A
:106F0000F0B5D6464F464646C0B51E0003680C0095
:106F10001B680021070020259847236801211B6872
:106F200020009847236800211B682000013D9847F6
:106F3000002DF2D1089B002B22D0B1464B449A463B
:106F40004B461B78082698468025414629404B1E13
:106F500099413B6838001B689847236801211B68EA
:106F600020009847236800211B682000013E9847B5
:106F70006D08002EE9D101239C46E144CA45DFD1CA
:106F80003B6801211B6838009847202523680121B0
:106F90001B6820009847236800211B682000013DE2
:106FA0009847002DF2D11CBC90469946A246F0BDF0
:106FB000F0B5CE46474680B50A0083B0002198461A
:106FC00000F0C4FC002504000368184E0095DF683B
:106FD000042200233100B84723680095DF680A9A2D
:106FE000002341462000B84723680095DD6804224D
:106FF000002331002000A8470A9BDF0810D00C4B6B
:107000000025994600239846424623680092DE6890
:1070100004220023494620002035B047BD42F3D367
:1070200003B00CBC90469946F0BDC0467C030020DE
:10703000BC000020F0B5040083B00D0017001E0056
:10704000002814D0002912D0002B10D0089B002B50
:107050000DD0182B03D9FFF7A5FE002809D1089BF6
:107060003A000093290033002000FFF749FF03B0E6
:10707000F0BD089B3A000093290033002000FFF781
:1070800097FFF4E710B582B000280BD0002B09D091
:107090005C68002C06D00833042A05D022001900B1
:1070A000FFF702FF02B010BD0094FFF7C3FFF9E73E
:1070B000F0B5CE464746012180B583B002AF4942C4
:1070C0001420FDF783F800F0C5F800210400C82063
:1070D000FDF77CF8002C01D000283FDA01210820C0
:1070E0004942FDF773F800F0B5F801210600494266
:1070F0000720FDF76BF800F0ADF800218046C920AD
:10710000FDF764F8002E23D04346002B20D0002842
:107110001EDD6A468400E31DDB08DB00D31AE94666
:107120009D4602AD22000021280005F03BFB002C0B
:1071300005DD0023E022EA5404339C42FBDC80227C
:1071400000942B00520041463000FFF7D9FECD4697
:10715000BD4601B00CBC90469946F0BD6A4645005C
:107160002D18EB1DDB08DB00D31AE8469D4602AE66
:107170002A000021300005F015FB002D01D1C54685
:10718000ACE72A0031002000FFF78EFEC546A5E7D8
:10719000F0B5C646040400B5240C3F2C27DC164E7F
:1071A000164D335D2868002B19D1154F3978013100
:1071B0008900FEF713FD286020201DF020F9210032
:1071C0008046E2B2643103230FF076FB41463A7801
:1071D0002868531CDBB292003B7011503355094AAA
:1071E000944663449B00185804BC9046F0BDE320CD
:1071F000800006F005F9D2E780030020C0030020DC
:107200004C0A0020FFFFFF3F012170B549420500F5
:10721000FCF7DCFF0400431C03D02000FFF7B8FF9D
:1072200070BD2900014808F03DF9F6E7F853020067
:1072300070B504000D003F2803D9E320800006F05C
:10724000DFF82800FFF7A4FF014B5A5D1A5570BD07
:107250008003002010B5002806DBFF2804D00004BE
:10726000000CFFF795FF10BD0020FCE7012110B5D1
:107270004942FCF7ABFF002806DBFF2804D00004DE
:10728000000CFFF785FF10BD0020FCE7084B10B590
:107290005C1CFF3402E00433A34207D01A68002AC2
:1072A000F9D091888142F6D1100010BD0022FBE791
:1072B000FC03002010B5FFF7D9FF10BD10B5010089
:1072C0000020FCF70DFA10BD014B98687047C046CE
:1072D000D002002010B503685B69984710BDC04616
:1072E00010B50368DB68984710BDC0467047C046BC
:1072F0000048704716FCFFFF044B10B503600023E5
:107300000400C38007F0ACFF200010BD1054020041
:10731000064B10B5036000230400C38007F0A0FFF4
:1073200020001DF05DF8200010BDC0461054020082
:10733000044B10B5036000230400C38007F090FFE6
:10734000200010BD10540200064B10B5036000234E
:107350000400C38007F084FF20001DF041F82000E6
:1073600010BDC04610540200F0B5CE4647462C234F
:1073700080B5C35C85B00400002B04D105B00CBC03
:1073800090469946F0BD80680021036808261B6876
:107390009847A0680121036800271B689847206967
:1073A000012103687F009B689847002801D00123D2
:1073B0001F43E06800210368013E1B689847E068AE
:1073C000012103681B689847002EE8D1A3695F403C
:1073D00063699F42D2D0260001231C3600259846BF
:1073E00012E000290CD1114B994601234946684609
:1073F0000CF0AAFD01230022494668460CF0A4FDCA
:1074000001350236082D0ED03288002AF8D04346C6
:10741000AB401900606939401842E2D10029EFD031
:10742000034B9946E1E76761A8E7C0460208000000
:1074300003080000036810B55B689847431E984135
:10744000C0B210BD10B503681B68984710BDC04698
:1074500070B50D001600040003680321DB6C98472B
:107460003200290020891023FFF7BEFA70BDC04604
:1074700070B505000C00160002290EDB03290DDD96
:1074800005290ADC03210368DB6C2800984728895A
:10749000102332002100FFF7A7FA70BD0368022114
:1074A000DB6CF2E7F0B504394F464646D6464B4210
:1074B0004B41C0B59146984606000AF0D5F84B46B8
:1074C00004000D00DF17336830005B689847824680
:1074D00040450ED00AF0C8F8001BA941B94202D8B5
:1074E000F1D18145EFD200201CBC90469946A246BE
:1074F000F0BD0AF0B9F88046336830005B68984701
:1075000082450ED10AF0B0F8001BA941B942EAD871
:10751000F2D18145E7D3336830005B6898478245F4
:10752000F0D00AF0A1F84346C01ADDE710B50123F8
:10753000002903D001394B4259414B000268190020
:10754000126C904710BDC046F8B5274D2C68002C32
:1075500001D02000F8BD30201CF051FF0027234B44
:1075600047600360040007F007FE0121204B4942F9
:1075700023604720FCF72AFEFFF76CFE0121A06084
:1075800049424820FCF722FEFFF764FE0121E0603B
:1075900049424920FCF71AFEFFF75CFEFA231B0163
:1075A000A3808023E2889B01134306002061E380CF
:1075B00001222C2320006761A7610021E2541C30C6
:1075C0000F3205F0EFF8336801219B6830009847CF
:1075D000A068012103681B689847E06801210368DF
:1075E0001B6898472C60B4E7C403002010540200C5
:1075F000305402000F4B70B5C51804000E00072D63
:107600000ED90D4B0020E318072B08D8FFF79CFF7D
:107610000A4B9C466444640004190120A68070BD96
:10762000FFF792FF0123AB408269323C1343836131
:10763000E7E7C046E6FBFFFF18FCFFFF24FCFFFF67
:107640000C4B10B51C68002C09D0220000231C3202
:107650001188884205D001330232082BF8D100206E
:1076600010BD01209840030060691840431E9841F6
:107670004002F5E7C40300200121F8B549420700A4
:107680004820FCF7A3FDFFF7E5FD0024002826D0E5
:10769000FFF75AFF05008068002103681B689847C0
:1076A000A868012103681B689847002F17DD002692
:1076B00028690121036864009B689847002801D06D
:1076C00001231C43E8680021036801361B689847C2
:1076D000E868012103681B689847B742E8D1200099
:1076E000F8BDC046012110B549424820FCF76EFDA7
:1076F000FFF7B0FD002814D0FFF726FF0400006953
:10770000002103689B689847A068002103689B6874
:107710009847E068002103689B6898472C23002263
:10772000E25410BD10B503685B6E984710BDC046AB
:10773000FA2210B50368D2001C69014BA04710BDA6
:10774000DC05000010B503681B6E984710BDC046ED
:107750007047C0467047C04670B50D0001214942D0
:10776000FCF734FD03001E3B0400012B00D970BD63
:107770000021CB20FCF72AFD002811D11F231A007D
:10778000E1170A40C90E121964181C40074B521128
:107790009C460223641AD201A41864442370E6E7CD
:1077A00029002000FFF744FDE1E7C04640440041C6
:1077B000F0B5DE464E4657464546E0B52D4983B006
:1077C000DA20FCF703FD0121019049422C20FCF74F
:1077D000FDFC01384342584112234042264E0340EB
:1077E0009C46336825489A460123182299468346C9
:1077F0000199D140CDB2002D0ED0AC450CD0132D47
:107800000AD00124142305E0671C9D4215D03C00DA
:10781000FB001B5C002BF7D1083A13000833E7D1BB
:10782000E720800005F0ECFD0025280003B03CBCFB
:1078300090469946A246AB46F0BD4F465346A740F8
:107840003B42E9D1E4005C44636898461B889B078F
:10785000E2D40F230A48194007F024FE18201CF038
:10786000CEFD6278414605000EF00EFA33681F43E4
:107870003760DAE721202215C8030020585402009F
:107880004854020010B50124644221009620FCF700
:107890009DFC01001420FFF75FFF21009720FCF7FB
:1078A00095FC01001620FFF757FF21006620FCF72A
:1078B0008DFC01001A20FFF74FFF0448FBF732FF51
:1078C000034800F085F8FFF7F3FB10BDA10D0C0095
:1078D00055770000002070477047C046F0B5C64697
:1078E000164B00B51C6805000E0017009846002CCA
:1078F00003D10FE0A46D002C0CD023689D42F9D178
:1079000063689E42F6D1A3689F42F3D1200004BC75
:107910009046F0BD5C201CF072FD3B000400056049
:107920004660876032000C3029000FF001FE4346AC
:107930001B68A36543461C60E8E7C046CC030020F3
:1079400010B55A2005F05CFD002010BD10B5FFF702
:10795000C5FF0C3010BDC04610B50C300FF0B4FDA3
:1079600010BDC04670B5040082B00E00150000289E
:1079700018D0002E11D0310072680831002D09D0C6
:107980002B006D680833200000950C300FF054FB7D
:1079900002B070BD00250023F5E7002DF8D00022CD
:1079A0000021EDE7014805F02BFDE2E7DD030000D3
:1079B00010B50C300FF0D6FA10BDC04610B50C3023
:1079C00008220FF0D5FA10BD7047C046002070475E
:1079D000014B18607047C046D0030020034B10B520
:1079E0001B68002B00D0984710BDC046D003002074
:1079F00010B50A4C2368002B0FD00821084898477F
:107A0000084823680168002B07D004309847236892
:107A1000002B02D002210448984710BDD00300205B
:107A200090540200FC0400209C540200036810B52E
:107A30009B699847002800D110BD80208000FBE79B
:107A4000064B00B59C4689B0604482B201230449CC
:107A500004A80CF079FA09B000BDC04660F0FFFF41
:107A600002080000064B00B59C4689B0604482B213
:107A70000123044904A80CF067FA09B000BDC04610
:107A800060F0FFFF0308000010B50400024B036024
:107A900009F01CFF200010BDA854020010B504001E
:107AA000044B036009F012FF20001CF099FC200039
:107AB00010BDC046A854020010B50400024B03607C
:107AC00009F004FF200010BDA854020010B5040006
:107AD000044B036009F0FAFE20001CF081FC20003A
